:020000040000FA
:0600000002010A02269B2A
:03002B000222C4EA
:030033000222A600
:0300530002270E73
:03006B00022280EE
:1000830002254FE5C754F84401F5C7790122000062
:100093000080FB120086B900030200F4E4792178A2
:1000A30008B800028004F709D8FCE479297802B87B
:1000B30000028004F709D8FCE490028178EE790706
:1000C3008002F0A3D8FCD9FA90096EAA82AB839080
:1000D300013A783379048015E493A3AC82AD838A23
:1000E300828B83F0A3AA82AB838C828D83D8E9D9D8
:1000F300E77582D97583BD740312011C75829175EE
:100103008300740012011C75D00075813F7518813E
:10011300751902759F00020096C09FF59FE473D086
:100123009F22D083D082C09FE493C0E0740193C028
:10013300E0740293F59F22140953696D706C654254
:100143004C455065726970686572616C05125000A8
:100153002003020A000201060302F0FF7E040000EE
:10016300840403FFFF020202020202020202010DE3
:1001730000000010010230850100000985024C8552
:100183000100009C09024885010000C802024C8559
:100193000100009D09024685010000B283024C85DF
:1001A3000100009E090244850100007D83024C8505
:1001B3000100009F09024285010000A982024C85CB
:1001C300010000A009024085010000DF82024C8586
:1001D300010000A109023E85010000CD82024C8589
:1001E300010000A209023C85010000BB82024C858C
:1001F300010000A309023A850100006F83024C85C8
:10020300010000A409023885010000A50901E803E3
:10021300053F10FF000130750302010600000000D6
:1002230000000000000000000000000000000000CB
:100233000000000000000000FFFF0600800CE80340
:100243000A436861726163746572697374696320D8
:100253003100024368617261637465726973746922
:100263006320320008436861726163746572697365
:10027300746963203300104368617261637465724B
:100283006973746963203400024368617261637443
:10029300657269737469632035000230850100005B
:1002A3000685024C85010000770A021A85030000C7
:1002B3008504025285010000780A024C8501000082
:1002C300890A021E8501000086040252850100008E
:1002D3008A0A024C850100009B0A022C8502000059
:1002E30087040252850100009C0A024C850100002C
:1002F300AD0A0236850000008804022A8503000047
:100303008904025285010000AE0A024C85010000F7
:10031300BF0A0250850400008F04025285010000C9
:10032300C00AFF0000B4000028002800283075A090
:1003330000A000A000A00000080008E001F00010E9
:10034300001000100010001000100050005000506A
:100353000010001000D0070000000000000F000193
:10036300000500307507001000010081FF0000FF49
:100373002A0A480A300AFF02020208025000A000BB
:100383000000E8030230850100001585024C850159
:100393000000AE0B022885010000C504024C850154
:1003A3000000AF0B022685010000DB04024C85012F
:1003B3000000B00B022485010000DD04024C85011E
:1003C3000000B10B022285080000DE04024C850107
:1003D3000000B20B022085010000B30BFF0100FFF8
:1003E300200230850100000F85024C8501000017B3
:1003F3000C021C850000000000022A850300002B6C
:1004030005181018101810181018101810181018B4
:1004130010181018101810181018109412AC128E0F
:10042300123031323334353637383941424344455B
:100433004600286E756C6C20706F696E7465722946
:10044300003F3F3F000000807F0000803FF902151E
:1004530050B743BA510000204100E7DB2E0000A053
:100463004010000000080000001201258EE902126E
:1004730001250FEC02120125B5EC0212012577EDDF
:1004830002120125BDEE021201252AEF02120125F7
:1004930051DA021201255BDA021201259CDA0212FB
:1004A3000125E5DA021201251FDB0212012575DBA6
:1004B3000212012596DB0212012545DE02120125F7
:1004C3004EDE02120125A2DE02120125CBDE02124C
:1004D3000125D5DE0212012543DF02120125D3DFF8
:1004E300021201252EE0021201255CE00212012511
:1004F300E4E00212012523E10212012558E1021270
:1005030001256AE10212012589E10212012592E126
:100513000212012554E20212012502B80312012539
:1005230024BD0312012569AD031201259FAD0312FA
:100533000125D3AD0312012520AF03120125BABC57
:1005430003120125D0BC03120125DABC03120125D5
:10055300A18803120125B4880312012578890312A7
:100563000125B78903120125D489031201250D8AB8
:10057300031201255A8A031201258C8A03120125CD
:10058300C38A03120125D68C031201255EB403121C
:10059300012581B403120125B0B40312012548B526
:1005A3000312012560B503120125A2B5031201252B
:1005B300E8A5031201250DA60312012537A6031290
:1005C300012583BD031201255685011201253487B8
:1005D30001120125D388011201257E89011201250B
:1005E300FE8901120125838A01120125AC8A0112B9
:1005F3000125878E01120125FE8E0112012515901A
:10060300011201254F90011201259090011201253D
:10061300D791011201252D92011201257692011223
:100623000125E592011201255193011201258293BF
:10063300011201259A9301120125B3940112012598
:10064300C394011201257996011201259096011296
:100653000125C29601120125649801120125F8981B
:1006630001120125D0B903120125E1B903120125B5
:100673002CBE031201256BBE03120125E5BE031236
:10068300012521BB0312012531BB0312012549BBFF
:1006930003120125B1BB0312012500B70312012583
:1006A30085B703120125E9B70312012583FE021260
:1006B3000125ACFE0212012517FF0212012568FF76
:1006C30002120125C3FF02120125E38C0312012547
:1006D300088D03120125258D03120125428D031276
:1006E3000125678D03120125888D03120125B28D23
:1006F300031201256F8E03120125ED8E03120125CE
:10070300148F031201251E8F031201255790031224
:1007130001259D9803120125B498031201252E99F2
:1007230003120125129A03120125E99B03120125E5
:10073300FE7F00120125DABE03120125C6B20312A1
:10074300012518B3031201258BB303120125F8B356
:100753000312012522AB031201254CAB0312012521
:100763001BAC03120125F7AC031201251BD20212A5
:100773000125E7D20212012528D30212012562D3F3
:1007830002120125C0D30212012514D4021201253D
:1007930072D40212012508D50212012510D60212C5
:1007A30001259AD70212012538D8021201259FD8B4
:1007B30002120125B2D802120125A6D9021201257F
:1007C300EFD902120125EA72001201251C760012EC
:1007D3000125AD7700120125047800120125217847
:1007E30000120125A178001201251D7A00120125AE
:1007F300EC7A00120125597E00120125437F001275
:1008030001254E9C03120125939C03120125B09CE4
:1008130003120125669D03120125B99D03120125CB
:10082300899E031201259F9F0312012513B1031211
:1008330001252AB10312012559B10312012592B1F1
:1008430003120125BAB103120125E8B103120125F0
:10085300FFB10312012516B2031201252CB20312B4
:10086300012553B20312012566B2031201257CB29E
:10087300031201258FB203120125B4B2031201251D
:100883006FBF021201256EC002120125A3C002121E
:100893000125C4C002120125D4C002120125F5C0EE
:1008A3000212012501C202120125CEC20212012544
:1008B30041C302120125C7C3021201250AC4021251
:1008C300012541C402120125C7C40212012599C59D
:1008D30002120125F7C5021201250FC602120125D6
:1008E30089C6021201258CC6021201258FC6021287
:1008F300012536C7021201254EC7021201257EC704
:10090300021201259EC7021201258CC8021201257D
:1009130042C902120125DBF90212012503FA021270
:10092300012531FA0212012568FA02120125D0FAD3
:100933000212012519FB0212012564FB0212012593
:10094300A2FB02120125DFFB021201250DFC02129C
:100953000125B4FC02120125BEFC02120125CBFCC9
:1009630002120125FEFC02120125C0FD021201251F
:10097300CCFD02120125E4FD02120125EEFD021257
:100983000125F9B80312012507B9031201251FB97F
:100993000312012537B9031201258ADB0112012550
:1009A30028DC01120125A0DC01120125B5DD0112AD
:1009B3000125EFDD0112012598DE011201256DDF0E
:1009C30001120125D1E00112012528E101120125BF
:1009D300AFE10112012596E201120125E3E20112C2
:1009E300012571E30112012595E3011201256AE551
:1009F30001120125ABE501120125CDE50112012507
:100A03004EE60112012538E701120125FEE7011226
:100A1300012582E20212012554E302120125FDE3BE
:100A23000212012540E402120125CDE40212012540
:100A330059E5021201253AE60212012569E602127E
:100A4300012565E702120125ADE702120125AFE892
:100A530002120125F3E80212012519E90212012508
:100A6300B4BB03120125CC9403120125E2940312B3
:100A730001250895031201253096031201253A96A4
:100A8300031201259397031201259398031201255D
:100A9300ACEF02120125E1F00212012514F102125A
:100AA30001255EF1021201251CF30212012536BD58
:100AB3000112012599BD01120125DEBE0112012596
:100AC300EEBE0112012511BF011201255CBF011207
:100AD300012501C001120125F7C001120125C1C181
:100AE3000112012539C3011201257BC3011201251E
:100AF30019C40112012566C4011201258CC4011217
:100B030001257AC6011201257FC60112012560C89D
:100B130001120125B4C80112012516C901120125CC
:100B23003EC901120125E2C901120125A4CA01121D
:100B33000125D5CA01120125D8CA0112012520CBEE
:100B43000112012562CB01120125C9CB0112012536
:100B5300CCA803120125DFA803120125F8A803126C
:100B6300012543A9031201251EAA03120125ADAADB
:100B730003120125F8AA03120125BC2A001201253C
:100B8300C82A00120125012B00120125462B001251
:100B93000125FD2B00120125832C00120125E82CD1
:100BA30000120125142D001201254D2D00120125DF
:100BB300612F001201253D31001201252833001257
:100BC30001255F3400120125BF3600120125AB3722
:100BD30000120125F13800120125FE39001201250A
:100BE3001B3A00120125533A001201256D3A0012F7
:100BF3000125D53A001201256F3F0012012510404F
:100C030000120125614000120125884000120125D0
:100C1300D64000120125F44000120125484100127C
:100C23000125214200120125A84300120125304469
:100C330000120125D2F402120125DCF4021201256F
:100C4300A7F502120125C2F502120125E8F50212E9
:100C530001252CF60212012564F6021201258DF6F8
:100C63000212012506F7021201251BF702120125C4
:100C730030F70212012567F7021201257BF70212F2
:100C83000125ACF702120125E6F70212012512F83D
:100C9300021201254AF802120125C7F802120125A2
:100CA3001BF90212012564F9021201258EF90212C1
:100CB3000125B3F902120125E09003120125AA913F
:100CC300031201258D9203120125039303120125BB
:100CD3004593031201257294031201255E9B0212B0
:100CE3000125879B02120125A09B02120125E59C89
:100CF30002120125C39D02120125E29D0212012564
:100D03006F9E02120125B29E02120125FF9F02125D
:100D130001259EA0021201251DA302120125B4A3E1
:100D23000212012588A4021201256AA502120125D7
:100D3300D6A60212012569A702120125EBB50312FB
:100D4300012554B603120125A8B603120125CFB617
:100D5300031201250080031201256D800312012572
:100D6300B88003120125AD8103120125A982031264
:100D73000125938303120125ADC902120125EFC991
:100D830002120125C9CA02120125A2CB02120125B2
:100D93009DCC021201257CCD02120125E8CD021261
:100DA3000125AFCE021201251ACF0212012581CFF0
:100DB30002120125ACCF021201251DD0021201251A
:100DC300B0D00212012519D1021201252ED102122F
:100DD300012576D1021201258FD102120125F4D10A
:100DE30002120125F7D102120125EEA203120125F9
:100DF30016A30312012554A30312012512A40312FF
:100E030001257DA40312012599A403120125C1A480
:100E130003120125F1A40312012500A503120125E4
:100E23007AA503120125A0A50312012593CC011273
:100E3300012570CE011201256BD0011201253ED18F
:100E43000112012589D101120125D4D101120125F5
:100E5300E6D10112012526D2011201255BD201122E
:100E63000125A7D201120125D6D201120125F9D2FB
:100E73000112012546D301120125CFD30112012509
:100E8300DCD501120125C7D7011201250AD80112A9
:100E930001256FD901120125B0D90112012523DAE9
:100EA300011201256FDA0112012590DA01120125E1
:100EB30060DB01120125E0A7021201250BA8021233
:100EC3000125F2AE0212012516B102120125D1B29B
:100ED300021201252EB402120125974400120125A6
:100EE3002E4500120125744500120125B346001258
:100EF3000125D746001201256E4800120125E84856
:100F03000012012503490012012578490012012529
:100F1300A74A00120125024C00120125044D0012BC
:100F23000125614E001201257A4E00120125D74E8C
:100F330000120125B94F00120125EC4F00120125C3
:100F43005C5000120125D6500012012525510012D4
:100F53000125F15100120125F65200120125D55346
:100F630000120125605400120125CE540012012500
:100F73004255001201256B55001201252A56001215
:100F83000125A45700120125C15700120125E0577E
:100F930000120125715800120125965800120125EF
:100FA300BE58001201253959001201259359001228
:100FB3000125E75A00120125A45B00120125775C85
:100FC3000012012500800212012550800212012522
:100FD3005C80021201253981021201256981021206
:100FE3000125A181021201252082021201255882C6
:100FF30002120125AA8202120125E78202120125AB
:101003000C85021201253887021201253389021249
:1010130001250E8B02120125FBFF011201253699D2
:10102300011201258099011201255F9F01120125FB
:10103300E0A0011201253FA7011201253AA80112E0
:10104300012577A8011201259AA801120125DCA820
:1010530001120125E5A801120125EFA801120125BE
:10106300DBA901120125CFAA01120125A55C0012FB
:1010730001251D67001201252367001201252F6E2C
:1010830000120125D89F03120125D6A003120125C2
:101093002CA1031201256AA103120125C7A1031282
:1010A300012544A2031201254DA20312012559A2D1
:1010B300031201256CA203120125A8A20312012524
:1010C300BEA2031201255584031201256284031273
:1010D30001257C8403120125BB8403120125F984B5
:1010E300031201255E850312012573850312012571
:1010F3007E85031201258B8503120125A285031228
:101103000125B08503120125BB8503120125C7857F
:1011130003120125D68503120125E185031201255A
:10112300048603120125AD8603120125BD86031231
:101133000125D78603120125F486031201251087A2
:10114300031201253587031201253F870312012569
:10115300538703120125728703120125D3870312D4
:101163000125D98703120125DF8703120125E587AE
:1011730003120125F1870312012524880312012597
:10118300D48D02120125568E02120125FF8E021202
:1011930001254790021201255592021201253B9326
:1011A3000212012570930212012592930212012566
:1011B3003B94021201250B9602120125349602126A
:1011C3000125AC9602120125DE9602120125EB964B
:1011D300021201253697021201255A9702120125A0
:1011E300AB9902120125B59A02120125119B021235
:1011F300012533EA0112012544EB0112012528ECF4
:101203000112012532EC0112012554EC01120125D2
:1012130060EC0112012504EE0112012531EE0112E9
:10122300012547EF011201259CEF01120125EBF087
:1012330001120125C0F1011201251CF20112012541
:1012430087F201120125BCF201120125FFF20112FE
:101253000125C9F501120125E1F50112012572F6F7
:101263000112012580F601120125CDF60112012597
:10127300DBF60112012547F701120125C2F701121E
:10128300012519F80112012551B40212012573B485
:101293000212012584B60212012543B90212012567
:1012A3006DBA021201252BBB0212012517BC0212D3
:1012B30001255AAF031201257FAF03120125F5AFB4
:1012C30003120125B1F801120125BAF80112012513
:1012D300C3F8011201259BF9011201254CFB0112F0
:1012E30001257CFB01120125A7FB01120125D7FB78
:1012F3000112012502FC0112012536FC0112012510
:1013030062FC01120125A5FC01120125D0FC01128A
:10131300012517FD011201256CFD01120125AEFD0A
:101323000112012508FE0112012533FE01120125D8
:1013330082FE01120125B2FE01120125DDFE01121A
:1013430001250BFF011201252EFF011201253DBCD2
:101353000312012569BC0312012596BC0312012562
:10136300A0BC03120125B0BC03120125CEFF01125C
:10137300012581BA03120125ABBA0312012575BEFB
:1013830003120125ABBE03120125D97F00120125EB
:10139300E7AC0112012505B201E066701008A3E075
:1013A30066700A08A3E066700408A3E06622C0081A
:1013B300C3E096F50808A3E096420808A3E0964226
:1013C3000808A3E0964208A2D265D033E50870016D
:1013D300D3D00822C3E7960809E7960809E79608D9
:1013E30009E79622C3E09608A3E09608A3E09608CF
:1013F300A3E09622C008C3E096F50808A3E096424E
:101403000808A3E096420808A3E09645087001D3B4
:10141300D00822080808E630E711121CD212142E55
:10142300080808C64480C618181822181818E9793D
:101433009EC608CAC608CBC608CCC6C37020799618
:10144300CACBCC7019798ECBCC70137986CC700E45
:10145300F9802ACA33CACB33CBCC33CC331930E728
:10146300F2CCCBCA3350147004EA30E00DE4CA3A2C
:10147300CACB3BCBCC3CCC500209C3E913C6CC1836
:101483002313C6CB18C6CA18C6F9221214CE20F0ED
:101493001430E72B74FFFCFBFA747F8022E4FCFB1F
:1014A300FA7480801AB48008BC00F2BB00EF800F8E
:1014B30050EBF9E4C39AFAE49BFBE49CFCE499C681
:1014C300CC18C6CB18C6CA18C6F922E4C9C608CABE
:1014D300C608CBC6D3330308CCC63392F0C3947F7C
:1014E300402E94184019C9B90704CACBCC22502501
:1014F300C309CA33CACB33CBCC33CC33D9F422F4AC
:10150300600DC9CCC313CB13CBCA13CAD9F6CC22F3
:10151300E4FCFBFA2214FCFBFA22E6C33318461858
:1015230046184622E7C333194719471947221818A3
:1015330018E6084608700AE608C3337005E633F474
:10154300220822191919E7094709700AE709C33361
:101553007005E733F4220922E6084608C313460858
:10156300336002E633F422E7094709C3134709331B
:101573006002E733F42212155B602512156A6020BE
:1015830012151D7003021527080808E76670101866
:1015930019E766700A1819E76670041819E76622D6
:1015A300F42212155B601C12156A601712151D7068
:1015B300071215277001D322C0D01215277006D049
:1015C300D0B322C32233D0D0501430E0F6C3E79611
:1015D3000809E7960809E7960809E796B32220E089
:1015E300D5E6970809E6970809E6970809E697B349
:1015F3002212155B601B12156A601612151D700707
:10160300121527600CB322C0D01215277005D0D055
:1016130022C32233D0D0501330E0EBC3E79608093E
:10162300E7960809E7960809E7962220E0E4E6979B
:101633000809E6970809E6970809E69722001215B4
:101643005B604F12156A6012E7548066F61215311B
:101653007011121527703B090909F4F618F618F6EC
:1016630018F622121546701512151D08080860EAAF
:10167300E6447FF618768018E4F618F62212151D54
:1016830060161215277012E4F608F608F608E654F9
:1016930080F609090918181822EAC0E0EBC0E0EC4B
:1016A300C0E0EDC0E0E687F0A4FBACF008E687F00D
:1016B300A42CFCE435F0FA1809E687F0A42C4B605F
:1016C300027401CA35F0FCE433FB09E687F0D2F774
:1016D300A42CCB35F0FC1908E687F0A42BCC35F00D
:1016E300FBE433FD0819E687F0D2E7A42C4ACB3597
:1016F300F0CD3400FC09E687F0D2E7A42DCC35F019
:10170300FDE433FA0918E687F0D2F7A42CCD35F0BF
:10171300CA3400FC08E687F0D2E7D2F7A42ACC3516
:10172300F07A7E20E70B0ACB33CBCD33CDCC33CC51
:1017330033CB3350147004ED30E00ED2F1E4CD3DE1
:10174300CDCC3CCC3B5005DA05C2F1EB547FC6331C
:1017530008E63392F0FBE73309E733C39A502D2BA6
:1017630070190C0D4C4D70151806E608C333700D37
:1017730020F10AA2F013F6E418800B4024E4F630BB
:10178300F002768018F618F618F68024D33B14502E
:101793001074FFA2F013F6187680E418F618F6809A
:1017A3000FA2F013F618E63303F618ECF618EDF66D
:1017B300D0E0FDD0E0FCD0E0FBD0E0FA2212156AC5
:1017C300604612155B603DE9687008F618F618F676
:1017D30018F622748067F71217F4090909748067F1
:1017E300F72212155B601D12156A7005191919800D
:1017F3001A121531701F121546C37003E6673319A9
:10180300191940071818182208080874FFF618F663
:1018130018F618F622121546601712152770219232
:10182300F012151D7019501720F014080808090943
:1018330009E7F61819E7F61819E7F61819E7F62273
:1018430012151D60E6E869701F0808E62480F60893
:10185300E436F618547FB47F0CE654806007F6E450
:1018630018F618F622181822E9C6CC08C6CD08C601
:10187300CE08C6CFC0E0E8C0E0EAC0E0EBC0E009B4
:10188300E9F809E7FA09E7FBE6F918E6F8C3EC9883
:10189300ED99EE9AEBC2E7F5F0EFC2E795F0500E43
:1018A300600CEBCFFBEACEFAE9CDF9E8CCF8EAA27B
:1018B300E7D2E7FAEB33FB13F5F0EEA2E7D2E7FE4C
:1018C300EF33FFC5F013A2E730E601B313C5F0C34E
:1018D300C0E0C0F07F00C39BFB605B9418600C40CA
:1018E3001AD0E023F9D0E0F80219C38AF0E948607E
:1018F30003D2F0E4AFF0FAF9F8803BEB30E40D8962
:10190300F0EA6003D2F0E4AFF0F9CAF8EB30E30D8C
:1019130088F0EF6002D2F0AFF0E4CAC9F8EB5407E5
:101923006014FBC3EA13FAE913F9E813F8EF135051
:1019330002D2E0FFDBEDD0E0C0E030E739C3E49F43
:10194300FFF5F0EC98FC42F0ED99FD42F0EE9AFEC3
:1019530042F0D0E0F9D0E0F8E5F0607AE923F9EE5F
:1019630020E742D8028067C3EF33FFEC33FCED334B
:10197300FDEE33FE80EAEC28FCED39FDEE3AFED0B5
:10198300E023F9D0E0F84002801BC3EE13FEED1311
:10199300FDEC13FCEF135002D2E0FF08B800067F02
:1019A3007F74FF802EEF3350178CF020F00260100D
:1019B3000CBC000C0DBD00080EBE000408E860DF7F
:1019C300E933E813FFEE2313FE4F4D4C8008E9542F
:1019D30080FFE4FEFDFCEE33EF33F47004FCFD7E88
:1019E30080D0E0FBD0E0FAD0E0F8D0E0CFC618CE4C
:1019F300C618CDC618CCC6F92212155B7004181888
:101A0300182212156A700D74FFF61819F61819F6D4
:101A13001819F622E7548066F612151D700F121579
:101A23002770F014F608F608F608F680D112152789
:101A3300700CF608F608768008E6447F80EC1215F1
:101A430049700C12153460BFE65480F6E480BB1273
:101A53001534700519191980A5E869700C763F18BB
:101A6300768018F618F6E8F922E6CDC0E018ECC047
:101A7300E0E633CD33CDD313F6E719FCE719193379
:101A8300CC33C3947F400ECD9D502408E65480F69A
:101A9300E418F6800FF4043D14501408E6447FF66E
:101AA300187680E418F618F6D0E0FCD0E0FD22CCDE
:101AB300D313CCFD18E4C6CBC0E018E4C6CAC0E01B
:101AC3000808ED08C633E613F618E433C675F003C9
:101AD300C3CA97CA09CB97CB199C40047D08802EB3
:101AE300BD0003021BA516B6FF050606081618C39C
:101AF300CA33CACB33CB33CA27CA09CB37CB193C3A
:101B0300C37D08803E187D0820E75CC633C6CA3310
:101B1300CACB33CB33DDF1D5F0EB30E77BCA97CAC1
:101B230009CB974ACB199C406F4B7025E620E021E7
:101B33008066187D08C3CA97CA09CB97CB199CD373
:101B4300C633C6CA33CACB33CB3350C9DDE7D5F06E
:101B5300E1D3E4C636C608C636C608C636C608C6C6
:101B630036C61818188031C3CA97CA09CB97CB1940
:101B73009CB34097C633C6CA33CACB33CB33DD34A9
:101B8300D5F02EC6A2E0C640C8CA27CA09CB37196A
:101B93004A70BECB3CB480B90808E63308E633602C
:101BA3001F181818D0E0FAD0E0FBD0E0FCD0E0FD1D
:101BB30022187D08CA27CA09CB37CB193CD38080AA
:101BC30013F618E4B67F11F618B6FF0EF618C6041E
:101BD30070D20808768080CAF618F618F680C50811
:101BE3000808EAC0E0EBC0E086F0E7A4FA1809862B
:101BF300F0E7A42AFA180986F0E7A42AFA18098656
:101C0300F0E7A42AFA1986F0E7A4FBE5F02AFA190B
:101C13000886F0E7A42BFBE5F03AFA190886F0E70B
:101C2300A42BFBE5F03AFA18180986F0E7A4C5F0EF
:101C33002BFBE43AFA1908E7C5F0C6A426F6E5F04B
:101C43003BFBE43AFA1886F0E7A4F6E5F00826F63B
:101C5300E43B08F6E43A08F6D0E0FBD0E0FA22E4ED
:101C6300CFC0E0E4CEC0E0E4CDC0E0E4CCC0E0759A
:101C7300F020C3E633F608E633F608E633F608E663
:101C830033F6181818EC33FCED33FDEE33FEEF3367
:101C9300FFC3EC9709ED9709EE9709EF9719191907
:101CA300400FFFEC97FC09ED97FD09EE97FE19191C
:101CB30006D5F0BEECF709EDF709EEF709EFF719D2
:101CC3001919D0E0FCD0E0FDD0E0FED0E0FF2218EF
:101CD3001818E4C396F608E496F608E496F608E4C2
:101CE30096F6226016080808C6C313C618C613C69C
:101CF30018C613C618C613C6D5E0EA227009080829
:101D030008226016181818C6C333C608C633C60897
:101D1300C633C608C633C6D5E0EA22E627F6080965
:101D2300E637F60809E637F60809E637F622E0262D
:101D3300F608A3E036F608A3E036F608A3E036F685
:101D430022E026F008A3E036F008A3E036F008A36B
:101D5300E036F022C3E697F60809E697F60809E6A7
:101D630097F60809E697F622C3E096F008A3E096F3
:101D7300F008A3E096F008A3E096F022E056F608F8
:101D8300A3E056F608A3E056F608A3E056F622E0D1
:101D930056F008A3E056F008A3E056F008A3E05677
:101DA300F022E0F608A3E0F608A3E0F608A3E0F6C5
:101DB30022E6F008A3E6F008A3E6F008A3E6F02283
:101DC300E0FAA3E0FBA3E0FCA3E0FD22EAF0A3EB2F
:101DD300F0A3ECF0A3EDF022CAC0E0E6F0A308DA2A
:101DE300FAD0E0FA22CAC0E0E0A3C582CCC582C51E
:101DF30083CDC583F0A3C582CCC582C583CDC583FE
:101E0300DAE6D0E0CA22C3E498F8E499F9121E4A4C
:101E13008026C3E49AFAE49BFBE920E7E9121E4A11
:101E2300E498F8E499F922C3E498F8E499F9121EC6
:101E33004AE498F8E499F9C3E49AFAE49BFB22EBA9
:101E430020E7CFE920E7E0B90010BB0008E88AF0FB
:101E530084F8AAF022E4FBC8FA22EB70227B10C8B4
:101E630033C8C933C9335007C39AC3DBF280069A18
:101E730050012ADBEAC833F4C8C933F4C9FA22751E
:101E8300F008E4C833C8C933C933C99AC99B50049D
:101E9300C92AC93BD5F0ECFBC833F4C8E4C9FA221C
:101EA300600D08C6A2E713C618C613C6D5E0F32211
:101EB300600C08C6C313C618C613C6D5E0F4227057
:101EC3000422600D18C6C333C608C633C6D5E0F472
:101ED3001822251810AF08F518400215198008F5C7
:101EE3001840021519D2AF22C0D0251810AF08F53B
:101EF30018500205198008F51850020519D2AFD001
:101F0300D0222518F58210AF08F518400215198064
:101F130008F51840021519D2AF851983222518F543
:101F230082E43519F58322E4732518C582C0E0E500
:101F33001934FFC583C0E0E518C3958224F810AFB8
:101F4300088583198582188008858319858218D2AC
:101F5300AFCEF0A3E520F0A37808E608F0A3DEFAFD
:101F6300EFF0A3E58124FAF8E608F0A3E608F0A36E
:101F7300E608F0A30808E608F0A3E608F0A3158135
:101F83001581D0E0FED0E0F8158115811581E8C0F8
:101F9300E0EEC0E0222518C582C0E0E51934FFC594
:101FA30083C0E0E518C3958224F910AF088583192F
:101FB3008582188008858319858218D2AFCEF0A355
:101FC300E520F0A37808E608F0A3DEFAEFF0A3E536
:101FD3008124FBF8E608F0A3E608F0A30808E60866
:101FE300F0A3E608F0A315811581D0E0FED0E0F858
:101FF30015811581E8C0E0EEC0E0228519838518BC
:1020030082E0A3FEE0A3F5207808E0A3F608DFFA58
:10201300E0A3FFE0A3C0E0E0A3C0E0E0A3C0E0E0F2
:10202300A3C0E0E0A3C0E010AF0885821885831940
:102033008008858218858319D2AFD083D0820201AC
:1020430022851983851882E0A3FEE0A3F520780892
:10205300E0A3F608DFFAE0A3FFE0A3C0E0E0A3C03B
:10206300E0E0A3C0E0E0A3C0E010AF0885821885DC
:1020730083198008858218858319D2AFD083D082D3
:1020830022C0D02518C582C0E0E51934FFC583C03E
:10209300E0E518C3958224F310AF08858319858280
:1020A300188008858319858218D2AFC8F0A3E9F098
:1020B300A3EAF0A3EBF0A37908E709F0A3D8FAECBD
:1020C300F0A3EDF0A3EEF0A3EFF0A3D0E0F0A3D0E4
:1020D300E0F0A3D0E0F0A3E520F0A3E5F0F0A32225
:1020E300851983851882E0C0E0A3E0F9A3E0FAA391
:1020F300E0FBA37808E0F608A3DFFAE0FCA3E0FD29
:10210300A3E0FEA3E0FFA3E0C0E0A3E0C0E0A3E000
:10211300F5D0A3E0F520A3E0A3F5F010AF08858385
:10212300198582188008858319858218D2AFD082D9
:10213300D083D0E0F8D0E0327404800674028002C9
:102143007401C0E0F404121F05D0E0121DDB2274F9
:1021530004800474028000CCC0E0EDC0E0E518C345
:102163009CCCAD1950011D10AF068C188D1980063B
:102173008C188D19D2AF121DE8D0E0FDD0E0FC22FF
:10218300D083D082E9C0E0E493A3C386F0C5F09581
:10219300F0F908E493A386F0C5F095F0700BE4938F
:1021A300A3C3994005E9048002A3E475F002A425C2
:1021B30082F582E5F03583F583D0E0F9E493A3C09B
:1021C300E0E493C0E022D083D082ECC0E0EDC0E035
:1021D300E493A3FCE493A3FDED4C600D122215ECF4
:1021E30024FFFCED34FFFD80EFE493A3FCE493A311
:1021F300FDED4C600D122254EC24FFFCED34FFFD89
:1022030080EFD0E0FDD0E0FCE493A3C0E0E493C012
:10221300E022C0E0C3E49396087401939618400F3C
:10222300E49366700808740193661870007019A32C
:10223300A3C3E49396087401939618A3A3400DD007
:10224300E0D0E0D0E0022205A3A3A3A3A3A3D0E0A0
:1022530022C0E0C0F088F0E493667008087401932C
:1022630066187000A8F0A3A3700BD0F0D0E0D0E004
:0C227300D0E0022205A3A3D0F0D0E022AE
:10228000C0E074F2122084A2AFE433FED2AFE5893D
:10229000A2E150031206C4758900C2C5EEA2E09205
:1022A000AF7F010220E3C0E074F2122084A2AFE409
:1022B00033FED2AFE58BA2E050031206C4758B004B
:1022C000C2E880D8C0E0C0D0E8C0E0E5A8D2AFC284
:1022D000C7A2E792AFD0E0F8D0D0D0E03274F512C8
:1022E0001F98EAFEEBFFEE2434F8EF3400F988087B
:1022F0008909EE2435F582EF3400F583E0F8EE2409
:1023000037F582EF3400F583E0F50AEC850AF0A496
:10231000FCAAF0850AF0EDA42AFDE82CF8E43DF9CA
:102320007A257B00121E4AEA850882850983F054CB
:1023300007F87401B800028004C333D8FCC0E0E0A1
:10234000131313541FF8EE28F8EF3400F9E8245D56
:10235000F582E93400F583D0E0F8E0586008EE2417
:1023600034F582EF801EEE2436F582EF3400F583DB
:10237000E0F5F0EA84A8F0EE28F8EF3400F9E8245C
:1023800038F582E93400F583E0F97F0402204474D3
:10239000F5121F98EAFEEBFFEE2434F582EF3400CD
:1023A000F583E0C0E0EE2435F582EF3400F583D00C
:1023B000E0F08E828F83A3A3A3A3A3A3A3C082C0B4
:1023C000838E828F83A3A3A3A3A3E0F8A3E0F9D015
:1023D00083D082E0C398F508A3E099F509EE248044
:1023E000F582EF3400F583E064017069EE2481F535
:1023F00082EF3400F583E0F8A3E0F98E828F83A3A7
:10240000A3A3A3A3A3A3E0FCA3E0FD8E828F83A3D9
:10241000A3A3A3A3E0FAA3E0FBC3EA9CEB9D502790
:10242000C3EC98ED99402EC3EA98EB9950277C10A5
:102430007D07EEFAEFFB120F76EE2480F582EF3483
:1024400000F583E4F0800EC3EA98EB9940E0C3EC1A
:1024500098ED9950D9EE2434F8EF3400F9E8FCE90E
:10246000FDEE2435F582EF3400F583E0F8EE2437F5
:10247000F582EF3400F583E0F50AE508850AF0A45B
:10248000F508AAF0850AF0E509A42AF509E8250867
:10249000F8E43509F97A257B00121E4AEA8C828D10
:1024A00083F05407F87401B800028004C333D8FCE9
:1024B000C0E0E0131313541FF8EE28F8EF3400F9CE
:1024C000E8245DF582E93400F583D0E0F8E0586057
:1024D00008EE2434F582EF801EEE2436F582EF34C8
:1024E00000F583E0F5F0EA84A8F0EE28F8EF340078
:1024F000F9E82438F582E93400F583E0F9122AA4DA
:1025000002238AC082C083851882851983E0F8A3DC
:10251000E0F9C3EA9CEB9D5012C3EC98ED99401989
:10252000C3EA98EB99501279018010C3EA98EB99AD
:1025300040F5C3EC98ED9950EE7900D083D082221B
:10254000EAC39CFAEB9DFB228521878522C622C027
:10255000E0C0D0E8C0E0E9C0E0EAC0E0EBC0E0ECF9
:10256000C0E0EDC0E0C008C009C00AC00BC082C016
:1025700083C0F0759B00906182E0A2E640030226D2
:102580002DE591A2E6400302262D7591BF9005D559
:10259000E0640570081210A21210AE80031210A899
:1025A000752100121102E99005D6F079001210F69B
:1025B000120EE67A017B009005D4E0F91204F09047
:1025C0007803E064426003022676900772E014F01C
:1025D0006003022676C2AF1225DA00782AD0E0F630
:1025E00018D0E0F6E59F5407F9700590847F8003CA
:1025F0009084837808121DA5E9C4C0E07829E655C7
:1026000008F50808E65509F509740B7808121EB399
:10261000D0E02508F8906270E0A2E740F8E8C33304
:10262000906272F0906270E0D2E0F08049E0A2E542
:102630005024E591A2E5501E7591DF9005D5E06428
:102640000D70139005F7E004F064287002E4F07A4E
:1026500000E0F9121174906181E0A2E35009E5E90C
:10266000A2E3500375E9F7A3E0A2E75009E591A2C0
:10267000E7500375917FD0F0D083D082D00BD00A81
:10268000D009D008D0E0FDD0E0FCD0E0FBD0E0FAEB
:10269000D0E0F9D0E0F8D0D0D0E032C0E0C0D0C077
:1026A00082C083906183E0A2E05009E5BFA2E050C0
:1026B0000375BFFEE0A2E15009E5BFA2E15003753A
:1026C000BFFDE0A2E25009E5BFA2E2500375BFFBE7
:1026D000E0A2E35009E5BFA2E3500375BFF7E0A213
:1026E000E45009E5BFA2E4500375BFEFE0A2E55056
:1026F00009E5BFA2E5500375BFDFE0A2E65009E59A
:10270000BFA2E6500375BFBFD083D0828088C0E0EF
:10271000C0D0E8C0E0E9C0E0EAC0E0EBC0E0ECC057
:10272000E0EDC0E0C0F0E5A7A2E6500FE5A1A2E60B
:10273000500953A7BF75A1BF122773E5A7A2E550A3
:102740000CE5A1A2E5500653A7DF75A1DFE5A7A21E
:10275000E15009E5A1A2E1500375A1FDE5A7A2E2C0
:10276000500CE5A1A2E2500653A7FB75A1FBD0F0E7
:1027700002268474F8121F987521019005D5E06433
:102780000670151210428A828B83A3A3A3A3A3A36E
:10279000E0FAA3E0FB121090A2AFE433FED2AF90B8
:1027A00005DBE0640170187A207B009005D4E0F925
:1027B0001205747A207B009005D4E0F91204F6909B
:1027C0006182E0D2E6F0900771E0602185C6228048
:1027D000169005DAE064017008E5C654F84405F582
:1027E000C653BEFC1225487401652160E4EEA2E0E8
:1027F00092AF7F01022044008E238F24858228859A
:102800008327851882851983E0CEA3E0CF852882AF
:10281000852783EBC9EAC8EDCBECCA75F010C3E895
:1028200033C8E933C9EA33CAEB33CBC3EA9EF52692
:10283000EB9FF525B35004AB25AA26EC33CCED3342
:10284000CDD5F0DAAE23AF242274F1121F988A0896
:102850008B098C0A8D0B740F121F20780C121DA58A
:102860009084BB7808121D7F9084BB780C121D7F6A
:102870007808790C1213D750157808790C121D5767
:102880009084A778081213F7401579018013780C0B
:102890007908121D579084A7780C1213F740EB7932
:1028A000007F0802204474ED121F988A088B098C5F
:1028B0000A8D0B7413121F20780C121DA59084BB77
:1028C0007808121D7F9084BB780C121D7F780C79DC
:1028D000081213D740117808790C121D57AA08ABBB
:1028E00009AC0AAD0B80227510007511007512003D
:1028F0007513017810790C121D5778107908121D84
:102900001EAA10AB11AC12AD137F0C0220449084B0
:10291000BB7808121DA58A828B837808121D927FCE
:102920000402204474F5121F988C828D837808125B
:102930001DA58A828B837808121D6BEA2404F8EBAC
:102940003400F98C828D83A3A3A3A3E0FCA3E0FD54
:1029500088828983C3E09CF0A3E09DF0888289830C
:10296000C3E09420A3E0944E40229084DF780812C4
:102970001DA58A828B837808121D448A828B83A3CB
:10298000A3A3A3E02420F0A3E0344EF0808074F5EC
:10299000121F98E9FE900727E0FAA3E0FBEEC3338D
:1029A000F8E433F9741328F582748339F583E02A47
:1029B000F508A3E03BF509780812213F90849B12AB
:1029C0001DC31227F87402121EEB8A088B098C0AA9
:1029D0008D0B74107808121CE6AA08AB097F04025C
:1029E000204474F1121F988A0C8B0D8C0E8D0F747D
:1029F0000F121F20E0FAA3E0FB7411121F20E0F574
:102A000008A3E0F5097413121F20E0FEA3E0FF788D
:102A10000812213FEA2401F508EB3400F509E4F53A
:102A20000AF50B780C7908121BE29084FB780812E7
:102A30001DA5780C7908121BE2AA0CAB0DAC0EADEB
:102A40000F1227F87402121EEB8B09EA4509600485
:102A50007A0180027A00EC2AFCED3400FDECF8EDFE
:102A6000F97A717B02121E4A88088909E4F50AF591
:102A70000B8E828F837808121DB4ECF8EDF97A7111
:102A80007B02121E4A8A088B0974057808121EC23E
:102A90008E828F83A3A3A3A3E508F0A3E509F07FAB
:102AA00008022044C082C083E9906000F0D083D047
:022AB000822280
:102AB400FFFFFFFFFFFFFFFFC082C083E9900C16FA
:102AC400F0022D4074F7121F2CE99004F3F07C2BD4
:102AD4007D057AFF7BFF120C0A9004F474FFF0A3C7
:102AE400F0A3E4F0A3F07905120B929004F3E0F95B
:102AF400120ABA7A287B0C120DF0023A4E74F412C0
:102B04001F2C8A088B09EB548060309004F3E0F9A1
:102B14001204D88A0A8B0BAE0AAF0BEE4F60138EE9
:102B2400828F83E064B07003120BAAEEFAEFFB12FB
:102B340004C6AA08E5096480FB80047A007B0002CD
:102B44002D0F74F2121F2C74FC121ED5EAFEEBFF3B
:102B54007412121F20123F35EE4F7003022BE974DA
:102B640002121F20EEF0A3EF122F4AECF0A3ED1295
:102B74002F4AAA82AB83120AB4E9F50A706AE508FF
:102B8400450960648E828F83123F1BEE4F60567A34
:102B9400067B001205328A0C8B0DA80CA90DE8499E
:102BA4007005750A13804188828983E4122BF6EE3E
:102BB400F0A3EF123F46E508F0A3E509F09004F90D
:102BC400122C7D9004F970051239F8801B1239E635
:102BD4008003EAFCEBFD8C828D83122C7D70F38CD8
:102BE400828D8380E3750A02A90A7404121EEB0223
:102BF4004135F0A3123EECA32274F2121F2C890A71
:102C0400E975F017A4FEAFF09004F8E4F09004F630
:102C1400122C7D600A1205389004F6E4F0A3F0EE5D
:102C2400FAEFFB1205328A088B09EA4509602FEE98
:102C3400FCEFFD79001204AE9004F6E508F0A3E57C
:102C440009F07B008008122C67E4F0A3F00BEBC3BF
:102C5400950A40F2E50A9004F8F0790080027913AD
:102C6400024135EB75F017A4F8A9F09004F6E028BA
:102C7400FAA3E0398A82F5832212368AEA4B227457
:102C8400F4121F2C740C121F20123F10FEE9FF7562
:102C94000800750900800CE5082401F508E50934ED
:102CA40000F509C3E5089CE5099D503285080A85AD
:102CB400090B7403780A121EC2EA250AF8EB350BD5
:102CC400F988828983A3A3A3A3A3A3123ACDEE65B3
:102CD4000A7003EF650B70BFE8FAE9FB80047A0021
:102CE4007B00802774F4121F2C7900EAA2E0501BA9
:102CF40075085E750984780812213F7C047D007A8A
:102D0400187B0C120B8C7402121EEB7F04021FFE44
:102D1400C082C0839004F9122D47601C8882898385
:102D2400A3A3E06A7003A3E06B8882898370E8A39D
:102D3400A3A3A312368680047A007B00D083D082BA
:102D440002012212421BE8492274EE121F2C74FC69
:102D5400121ED5EAFEEBFF851882851983E4F0A3E1
:102D6400F0EE24021239D8EE2405123EF3EE2404C8
:102D7400F50EEF1232FFE024FE603924FC60462495
:102D8400FE605224FE605E24FE7003022E6024FE68
:102D94007003022EC424FE7003022ED324FE70039B
:102DA400022EE224FC7003022EF124FE7003022F93
:102DB40000022F3D9005127417F0A3E4122F521253
:102DC4000832022F3D851882851983AC82AD8312A7
:102DD4000BB0022F0D851882851983AC82AD831246
:102DE4000BB6022F0D850C08850D097402121F20E5
:102DF400AC82AD83850882850983123686120AD88F
:102E04008A0C8B0DAC0CAD0DEC4D603BE4F50CF570
:102E14000D780C12213F750C12750D05780C1221DA
:102E24003F750C13750D05780C12213F7408121FA1
:102E340020122156124397121EEBE9F50C700B1267
:102E4400367C12084A800F750C0185088285098337
:102E5400122F401239F8850C08022F107402121F29
:102E640020AC82AD83850C82850D83123451603C85
:102E7400850C82850D83A3A312215675101275113A
:102E840005781012213F7510137511057810122161
:102E94003F7408121F20122156124397121EEBE9A9
:102EA400F509700B12367C120850800F75090185E4
:102EB4000C82850D83122F401239F8850908804C45
:102EC400851882851983AC82AD83120BBC803A8548
:102ED4001882851983AC82AD83120BC2802B8518AE
:102EE40082851983AC82AD83120BC8801C8518823D
:102EF400851983AC82AD83120BCE800D8518828533
:102F04001983AC82AD83120BD4E9F508E508602976
:102F14008E828F83A3E06414601F850E82850F83E5
:102F2400E0900512122F4A1242179005131239F835
:102F3400E508A3122F5212082C0238E712421B850F
:102F4400188285198322F085188285198322F07CE2
:102F5400127D05850A82850B8312368A2274EE124D
:102F64001F2C74FC121ED58A0A8B0B8C0E8D0FEA53
:102F74002405F508EB3400F5097C157D0079007A09
:102F8400127B051204AEE5082402F50CE509123E95
:102F9400F68518828519838582108583117810122D
:102FA400213F850882850983A3A3A3A31234481271
:102FB400213FE5082405F510E5093400F5117810E2
:102FC40012213F850C82850D8312379D120AD2741B
:102FD40006121EEB8A108B11AE10AF11E50A240203
:102FE400F50AE50B1239DBEE4F700302311F80172F
:102FF4007402121F2012368688828983EAF0A3EBBA
:10300400F0900512E004F0900512E0C3940540032B
:1030140002311FE4F510F511781012213F7510FBF1
:10302400751104781012213F7510FC751104781085
:1030340012213F7406121F201221567910EEFCEF64
:10304400FD124399121EEBE9705E8508828509839F
:10305400A3A3A3A3A3A3A3E0F89004FBE068704890
:1030640012344812213F7CFC7D04E5082408FAE56B
:10307400093400FB1204A87402121EEBE960298EC5
:10308400828F83A3A3A3A3123686900512E0F510C2
:1030940074027810121EC274132510F5827405355B
:1030A40011F583EAF0A3EBF07402121F208582105D
:1030B400858311781012213F7402121F20122156A9
:1030C400850C82850D831236AC121EEB8A108B118F
:1030D400AE10AF11900512E0F5107511007402786E
:1030E40010121EC274122510F874053511F9888265
:1030F4008983A3122C7D7003022FEBE824030808B4
:1031040008E93400F9EE4F6003022FF488828983C2
:1031140074FFF0A3F0900512E004F0900512E06053
:103124000A12367C12083E7900800B8508828509D4
:10313400831239EF790A0238E774EA121F2C74FEFD
:10314400121ED58C128D13EA2405F50CEB12438163
:10315400123F1F750800750900EA2402F510EB34CC
:1031640000F51185188285198385820A85830B7879
:103174000A12213F850C82850D83A3A3A3A31233D6
:103184001512213FE50C2405F50AE50D1239DB780B
:103194000A12213F850C82850D83123319120AD23B
:1031A4007406121EEB8A0A8B0BEA450B700302327B
:1031B400BAEA2404F50EEB1232FF123F1F8A828B07
:1031C40083A3A3A3E0F9851082851183123690604E
:1031D400030232BAE4F514F515781412213F75147C
:1031E400FB751504781412213F7514FC75150478C9
:1031F4001412213F7406121F201221567913AC0AAF
:10320400AD0B85108285118312439F121EEBE9F5E5
:103214000960030232BA9004FBE0F8E5087009E0A3
:103224002402900513F08014900513E0FCE82402B6
:10323400FAE43400FBEA6C7001EB707E850882AA24
:103244008212343F9414123437506B850E82850FEA
:1032540083E0C0E074142A1232F6D0E0F005088549
:103264000E82850F83A3E0C0E085080A7414250A42
:103274001232F6D0E0F005089004FB123315122147
:103284003F7CFC7D0485080A7414250A1233091254
:103294001EEB9004FBE02508F50874FF6E700374C0
:1032A400FF6F6012EE24010EEF3400FFE508C394B3
:1032B400145003023167E508601312369A851082B0
:1032C40085118312368612084479008014E509704A
:1032D4000375090A851282851383EEF0A3EFF0A922
:1032E400097402121EEB7F0E021FFE85080C741473
:1032F400250CF58274053400F583223400F50F851E
:103304000E82F58322FA74053400FB1204967402CB
:1033140022123F5522A3A312331F221239E6FDEED7
:10332400FAEFFB2274EE121F2C74FE121ED58C0EC3
:103334008D0FEA2405F50CEB123EF6750B00900593
:1033440012E4F0F50AEA2402F508EB3400F50980EA
:1033540044900512E0FA9004FBE0F812343F94170D
:10336400123437400D900512E0F87416C398900497
:10337400FBF012344812213F7CFC7D0474132AFABA
:10338400740512330C121EEB9004FBE0F890051246
:10339400E028F0050AE50C2416F582E50D1232FA50
:1033A400E0F8E50AC3985074900512E0C3941650EF
:1033B4006BE50AC333F8E433F9E50C28FEE50D396F
:1033C400FF851882851983AC82AD838E828F831228
:1033D40034517008750B011239EB8050E4F510F587
:1033E40011781012213F7510FB7511047810122109
:1033F4003F7510FC751104781012213F7406121FDA
:1034040020122156791685088285098312439F125A
:103414001EEBE9F50B700302335580BB7C127D056E
:10342400850882850983123686120856A90B740210
:103434000238E9E99400C365D03322EA28F8E43479
:1034440000F9E822E0F5107511007810221238DE38
:103454008A108B11AC10AD11EC4D2274EA121F2CA2
:1034640074FC121ED58A0C8B0D8C128D13EA240564
:10347400F50AEB1239DB750800750900E50A240228
:10348400F510E50B3400F5117402121F2085820E2D
:1034940085830F780E12213F850A82850B83A3A3AF
:1034A400A3A3123EFB12213FE50A2405F50EE50B0A
:1034B4003400F50F780E12213F8510828511831296
:1034C40039E1123680120AD27406121EEB8A0E8B70
:1034D4000FAE0EAF0FE50C2402F50EE50D3400F52A
:1034E4000F80388882898374FFF005081232EF74E4
:1034F400FFF005089004FBE0F50C750D00780C1244
:10350400213F7CFC7D0485080C7414250C123309BE
:10351400121EEB9004FBE02508F508EE4F60278EA1
:10352400828F83A3A3A3E0F9850E82850F831236CD
:1035340090EE2404123EF3E96027850C82850D8306
:103544001236721239F8E508700302365812369AA8
:10355400850E82850F8312368612085C7900023646
:103564006DE4F514F515781412213F7514FB7515E7
:1035740004781412213F7514FC7515047814122173
:103584003F7408121F201221567911EEFCEFFD85BD
:103594000E82850F8312439F121EEBE9F509709A80
:1035A400850882AA82EA9004FB7009E0240490054D
:1035B40013F08025E0F8900513E0F514E82404FCEA
:1035C400E43400FDEC65147001ED708112343F9415
:1035D400121234374003023551850C82850D83E085
:1035E400C0E074142A1232F6D0E0F00508850C828B
:1035F400850D83A3E0C0E01232EFD0E01236B5852A
:10360400820C85830D780C12213F7404121F201242
:1036140021568510828511831236AC121EEB8A0C5A
:103624008B0DAE0CAF0D85080C7414250CF87405C5
:103634003400F9EE4F70030234E78518828519834C
:10364400E0888289831236B5A3E0C0E01232EFD05D
:10365400E00234F5E509700375090A850A82850BD1
:10366400831236721239F8A90974040232E712423D
:103674001B851282851383227C127D05850A82852F
:103684000B8312368A22E0FAA3E0FB2212368A1256
:103694000AC0E9F50922900513E0F5F0E5088490E5
:1036A4000512F07C127D052212331F120ADE740407
:1036B40022F005088518828519832274EC121F2CC8
:1036C40074FE121ED58A088B098C0E8D0FEA240510
:1036D400FEEB3400FF1238C8EE2418123EF3EA451C
:1036E4000B700302376B1238B150291237908A10CD
:1036F4008B11EA4511606B7912AC0AAD0B85088217
:10370400850983123686851082851183121F2AE962
:10371400F50A7058E4F50AF50B780A12213F8E82F7
:103724008F83A3A3E0F50A780A12213FEE24031243
:1037340039D8780A12213F8E828F8312379D120B5B
:10374400F87406121EEBE9F50A7021850C82850DCA
:1037540083E0701F85088285098312368612086209
:103764008011750A0E8009750A018004E50A600358
:103774001239EB850C82850D83E0600479008002A8
:10378400A90A7402121EEB7F0C021FFE85188285A3
:10379400198312368A120BE6221239E6FD85088255
:1037A40085098312368A2274EE121F2C74FE121EAF
:1037B400D58A088B098C0C8D0DEA2405FEEB3400A8
:1037C400FF750E001238C8EA450B700302388F12D9
:1037D40038B1502C1237908A0E8B0FEA450F604A8D
:1037E4007912AC0AAD0B8508828509831236868569
:1037F4000E82850F83121F2AE9F50E6003023892A8
:10380400850882850983123ACDAA0AFB1238A3706F
:10381400147AFF7BFF1238A3606C88828983E50ADF
:10382400F0A3E50BF0750A008007750E0E805F05A6
:103834000A9004F8E0FAE50AC39A504AE50A75F0DA
:1038440017A4FAABF088828983A3A3E02AFAA3E041
:103854003BFB8A828B831239E1EC4D70D2750A17D7
:10386400750B00780A12213FEEFCEFFD12049674EA
:1038740002121EEBEEFCEFFD8508828509831236E9
:10388400861208688014750E098003750E011242B1
:1038940013850C82850D831239F8A90E0234321275
:1038A4000BDA8A108B11A810A911E84922E5082423
:1038B40002F508E5093400F5098A828B83A3A3A3E2
:1038C400E0A2E522851882851983AC82AD838E82BD
:1038D4008F831238DE8A0A8B0B22E0FAA3E0FB12F4
:1038E4000AD8227404121EEB7F0A021FFE74EC1223
:1038F4001F2C8C108D11EA2405F50CEB123EF67585
:103904000F00EA2402F50AEB1239DB850A82F583FB
:1039140012368612442570030239CD750E0080716B
:10392400850C82850D83E06401704F8E828F83A3A2
:10393400A31221568E828F83A3A3A3A3E0F512754D
:103944001300781212213FEE2405F512EF3400F52E
:1039540013781212213F123680120BF87406121ECD
:10396400EBE9F50F6014850C82850D83E4F01242B7
:10397400138510828511831239F87C177D00790034
:10398400EEFAEFFB1204AE8E828F83E4F0A3F0050F
:103994000E9004F8E0F8E50EC398501EE50E75F09D
:1039A40017A4F8A9F0850882850983A3A312438B81
:1039B4001239E1EC4D6003023924850882850983BC
:1039C40074FFF0A3F0E50F700612368012086EA99A
:1039D4000F02378BF50AEF3400F50B22A31239E6F8
:1039E400FD22E0FCA3E0228E828F8312421B850E0F
:1039F40082850F83E8F0A3E9F022C082C08390049B
:103A0400F4E06A7003A3E06B70067AF47B0480042C
:103A14007A007B00022D4074F7121F2C7F00EF7593
:103A2400F003A4F8A9F0EC28F8ED39F98882898329
:103A3400E06A7003A3E06B7006E8FAE9FB800B0F01
:103A4400EFC3940240D87A007B007F01021FFE740A
:103A5400F6121F2C12400470067A007B008007A324
:103A6400A3A3A31236860240C574F2121F2CE9FEEA
:103A7400740E121F20123ACD7410121F20123F35FB
:103A84008C828D83E06402703BA312421788828982
:103A940083E0F50CA3E0F9A80C74026870037429A0
:103AA400697021750C02750D00780C12213F78089D
:103AB40012213F780A12213FEEF9120C1C740612EF
:103AC4001EEB80027901024135E0F50AA3E0F50B13
:103AD4002274E8121F2C74FB121ED5E98518828506
:103AE4001983F08A168B178C0E8D0F741F121F20EA
:103AF400123F357421121F20123ACD7423121F2055
:103B0400123F1F7510008C828D83A3A3A3E0A2E44F
:103B1400502A741D121F201237968A828B83E582E5
:103B240045837003023BE1790AAC0EAD0FAA16ABD4
:103B340017121F2AE9F5106003023BE4850E828503
:103B44000F83E064026003023E9AA31242178508C1
:103B540082850983A3858212858313E50E2406F5E5
:103B64000CE50F123EF688828983E0FAA3E0F9EAB5
:103B74002400F514E439F51578141221C901000064
:103B8400280128A93B07000228803C0328F03B00B9
:103B940029AA3D0129D23D0229793D0329AA3D04E0
:103BA400293B3E9A3EEE4F703E850C82850D831272
:103BB4003F10FAE9FB8A828B83E0850A82850B83B6
:103BC400123F4C12213F8A828B83A31239E6FDAA4D
:103BD40008AB091204967402121EEB800375100ED2
:103BE400A910740502437975100B80F4EE4F70F739
:103BF400850A82850B837401F0123F25850882852E
:103C04000983F07C007D00850E82850F83A3A3A326
:103C1400A3E02401FAA3E03400FB120AD8EA4B60C3
:103C2400418A828B83E02402F8850A82850B83E033
:103C340028F0EA2404F8EB3400F988828983E085CB
:103C44001282851383123F5E123F4C12213F8A82F7
:103C54008B831239E0E5082403FAE5093400FB02FA
:103C64003BD7850A82850B83E02404F07C047D0025
:103C74007900AA12AB131204AE023BE4EE4F6003C8
:103C8400023BEB123F25FEA3E0FF850A82850B83EE
:103C94007404F0EE850882850983F0EF851282852D
:103CA4001383F07403121F20AC82AD83EEFAEFFB92
:103CB400123FF27003023D568A828B83A3A3123F04
:103CC4001B7401121F2085820E85830F780E12212A
:103CD4003F7405121F201221567CFF7DFF120ADE5D
:103CE4007404121EEB8B0FEA450F7033850C82852A
:103CF4000D83123EFB12213F850C82850D83A31296
:103D040021567C027D007A2E7B8512090A740412E6
:103D14001EEBE9700A7401121F2074FFF0A3F08EE9
:103D2400828F83E064027034750C02750D00780C88
:103D340012213F8E828F831239E0E5082404FAE5CC
:103D44000912330C121EEB850A82850B83E02402D0
:103D540080097401121F20EEF0A3EFF07401121F0A
:103D640020123F0CF07401121F20A3123F04A3A3DE
:103D7400A3F0023BE4EE4F6003023BEB850C82852B
:103D84000D831239E1AA16AB17120C10850A82852D
:103D94000B837402F0EA850882850983F085128218
:103DA400851383EB80CBEE4F6003023BEB123F2580
:103DB400F8A3E0F9850A82850B837402F0E885088C
:103DC40082850983F0E985128285138380A3850C9B
:103DD40082850D83123686120490EAFC8C82A882B6
:103DE400C39EE49F404BE86E7001EF70047C00803A
:103DF4001F851882851983E0FAEE2AFAEF3400FB56
:103E0400C3EA98EB94005003E08004EECCC39CFC1E
:103E1400EC850A82850B83F08C0A750B00780A12F4
:103E2400213F850C82850D83E02EFCA3E03F023BFD
:103E3400D2751007023BE4EE4F6003023BEB850CA6
:103E440082850D83124217850A82850B837407F0DD
:103E540088828983123F04123EECE0851282851326
:103E640083F0E82402FAE93400FB8A828B83123F50
:103E740004123F3D123F0CA3123F46123F15F0E8D7
:103E84002405F8E93400F988828983123F15A312C6
:103E94003F5EA3023D72741D121F20123FFD70038A
:103EA400023BE1124217880C890DE8450D700302AC
:103EB4003BE18E108F11781012213F780A12213FB6
:103EC400780812213F7406121F20E0F9AC0EAD0FE2
:103ED400AA16AB17850C82850D83121F2A7406124D
:103EE4001EEBE9F510023BE4F088828983A322F5F6
:103EF4000CEF3400F50D22E0F50E750F00780E225C
:103F0400E085088285098322123F652212421BE85C
:103F140022123F65A3A322A3A3A3A3E0FEA3E0FF71
:103F240022850C82850D83E0F8A3E0F5838882E086
:103F340022E0F508A3E0F50922A3A3F08A828B838B
:103F4400A322122BF8A3A322F08A828B83123F555B
:103F540022E0F50A750B00780A22123EEC123F6546
:103F640022E0850882850983A3A32274EE121F2C04
:103F740074FE121ED58A0A8B0BECFAEDFB74141234
:103F84001F20E0F510A3E0F5117416121F20E0FEC7
:103F94007418121F20E0F50EA3E0F50F8518828532
:103FA4001983AC82AD83123FF2603E851882851975
:103FB40083123FFD602FA3A3123F35E50845096036
:103FC40024780E12213F781012213FEEF9AC0CAD8B
:103FD4000DAA0AAB0B850882850983121F2A740473
:103FE400121EEB8006790E80027901023432120A25
:103FF400D88A0C8B0DEA450D2212368A124004220F
:10400400120BA48A828B83E58245832274F6121FE5
:104014002C74FE121ED5740C121F20123F1085182A
:1040240082851983F07401121F20E9F0E4F508F584
:1040340009780812213F750802780812213F740498
:10404400121F20858208858309780812213F120BEC
:10405400F87406121EEB7402121EEB806474F712DD
:104064001F2CEAFEEBFF89087C2B7D05120C10EA5D
:104074005402600BA908EEFAEFFB120ACC80027915
:1040840001023A4E74F6121F2C74FF6A700374FF17
:104094006B701C7B00EB75F003A4F8A9F0EC28F816
:1040A400ED39F91240CA0BEBC39402501480E612A6
:1040B4000BE08A088B09A808A909E84960031240A3
:1040C400CA7F02021FFE8882898374FF122BF6E4E2
:1040D400F02274F6121F2C120BE08A828B83E58285
:1040E40045836006A3A3E0FA80027A007B0080D1B6
:1040F40074F2121F2C8A088B09ECFEEDFF740E1269
:104104001F20E0F50A12413A701CEEFCEFFD7AFF25
:104114007BFF12413A70047911801688828983E505
:1041240008F0A3E509F088828983A3A3E50AF0795E
:10413400007F06021FFE120BE08A0C8B0DA80CA94F
:104144000DE8492274EE121F2CEAFEEBFF8C088D59
:1041540009890C7412121F201242177414121F20A2
:104164001239E17416121F20123686750D00EC4DBB
:10417400600302420B7402650C60030242068882EB
:1041840089831239E6F9EC2400F50EE439F50FEAD7
:10419400F4F8EBF4F9EC58F8E50F59F9E849705DD7
:1041A400E5082406F8E5093400F9880A890B8882B1
:1041B400F58312331B120C108A108B11E50E651057
:1041C4007004E50F65116042780E12213F850A8262
:1041D400850B8312331B120C167402121EEBE9F5C5
:1041E4000D7027780E12213F850882850983A3A3C9
:1041F400123319120C2E7402121EEB800D750D80F1
:104204008008750D0D8003750D0BA90D0238EC8E19
:10421400828F8312421B22E0F8A3E0F92274E81291
:104224001F2C74E7121ED5851882851983EAF0A322
:10423400EBF08C168D17890E7431121F20E0F512E5
:10424400A3E0F5137433121F20E0F514A3E0F51571
:104254007435121F20E0F50F750800750900E50993
:1042640075F003A4F8A9F085188285198312438B8D
:10427400E0F47003A3E0F47003024369EE2402F552
:104284000CEF124381E0700302436985160A851717
:104294000B780A12213FAC14AD15AA12AB13120B02
:1042A400987402121EEB8A0A8B0BEA450B70030208
:1042B4004369E4F510F511781012213F7406121FBA
:1042C40020858210858311781012213F7409121FF2
:1042D40020858210858311781012213F85128285F2
:1042E4001383A3A3A3A31221567914AC0AAD0B8E96
:1042F400828F8312439F121EEBE97069850A8285BF
:104304000B83A3A3A3A31242177402121F20123912
:10431400F8850C82850D83E0A2E05018A90E740282
:10432400121F20AC82AD838E828F83123686120ACE
:10433400F0E94208850C82850D83E0A2E15026E570
:104344000FF50A780A122143A90E7403121F20AC38
:1043540082AD838E828F83123686120AEA7401122A
:104364001EEBE942080509E509C394025003024221
:1043740062A9087419121EEB7F10021FFE3400F5A7
:104384000D850C82F58322E028FEA3E039FF8E829E
:104394008F83227916850A82850B8312368A120B43
:1043A400F274082274F2121F2CEAFEEBFF890B74DC
:1043B40001650B600E7402650B70637901120E0EB9
:1043C400E9705BEEFAEFFB1244256047750A008042
:1043D4000B7C177D0079001204AE050A9004F8E006
:1043E400F8E50AC3985021E50A75F017A4F8A9F076
:1043F400850882850983A3A3E028FAA3E039FB8A10
:10440400828B83122D4770C985088285098374FFC6
:10441400F0A3F07C2B7D05EEFAEFFB120C0A0241AF
:1044240035120BDA8A088B09EA45092274F2121F45
:104434002C8A088B09ECFEEDFF740E121F20123A31
:10444400CD900C16E0F4603D7A097B001204C0EABA
:104454004B60328A828B8374B1F0A3E4123F3FA392
:10446400123F3DA3E508F0A3E50912448CEEF0A346
:10447400EF12448CA3A3E50AF0A3E50BF0900C160D
:10448400E0F91204CC024135F08A828B83A3A3A302
:10449400A3A322C082C0839061907404F0A37448E3
:1044A400F0A37402F09061807440F09061BC7403D6
:1044B400F09061877419F0906265741BF090619CB0
:1044C400740DF090619A7433F0A37455F09061A068
:1044D400743AF090076FE064017009C2919005D9B5
:1044E400746780059005D97461F0902ABAE49390BA
:1044F4006186F0902AB4E493F46027E493540FF8AF
:10450400906185E0686012E5C654804449F5C6E5CB
:104514009E547F644970F8E8F053C680E59E547F4A
:1045240070FA79051211560246ACC082C083E5A820
:10453400F853A87E906181E4F0A3F0A3F0C2BA53CB
:104544009AFEC289759B00C2C275E9007591007517
:10455400BF0075A91175B905906181F0A374C0F00D
:10456400A3E4F0D2BA439A0174805842A80246AC3C
:10457400C082C08374F8121ED59005D7E0F8A3E07A
:10458400F9E84970030246A29005D7E0544060233D
:104594007908851882851983AA82AB83120FD08586
:1045A4001882851983AA82AB83120CA09005D7E0E8
:1045B40054BFF0E054806010790C7A937B07120F9B
:1045C400D09005D7E0547FF0E0A2E0503190619A9A
:1045D4007433F0A37455F09061A0743AF090076FAF
:1045E400E064017009C2919005D974678005900553
:1045F400D97461F0120CA69005D7E054FEF0E05493
:1046040002603190619A743FF0A3745AF09061A0F3
:10461400747FF090076FE064017009D2919005D91E
:10462400747180059005D9746AF0120CA69005D7B0
:10463400E054FDF0E054046013902AB8E4939061D0
:1046440086F0120CAC9005D7E054FBF0E0540860FF
:1046540013902AB9E493906186F0120CAC9005D7BC
:10466400E054F7F0E054106013902ABAE493906198
:1046740086F0120CAC9005D7E054EFF0E0542060C3
:104684000A120CAC9005D7E054DFF0A3E0540160AB
:104694000D120EF8120CB29005D8E054FEF0740816
:1046A400121EEB8003F0A3F0D083D082020122C05B
:1046B40082C083E9600814600A14600C8013902A95
:1046C400B88008902AB98003902ABAE4939061864E
:1046D400F080D574EC121F2C74F4121ED585188248
:1046E400851983AC82AD837583847582AB7404129F
:1046F4001DE8902AB893F46003024864907808E0B7
:10470400C3940250030248447404121F20AC82ADC7
:104714008375838475824A7408121DE8851882851E
:1047240019838582128583137404121F20AC82AD11
:1047340083750EFF750FFF7FFF7E00750C48750DA6
:1047440078801574086E70030247D774096E70037D
:104754000247D7740A6E607B850C82850D837808C6
:10476400121DA58C828D83A909E50AC9F8881074E5
:10477400187808121CE6E5104508F8C3E098A3E091
:1047840099850C82850D837808121DA540188C82AA
:104794008D8374187808121CE6E5104508F8E0C308
:1047A40098F8A3E0801C74187808121CE6E51045FC
:1047B40008FAE9FB8C828D83E0F8A3E0F9EAC39858
:1047C400F8EB99F9C3E8950EE9950F5006880E8920
:1047D4000FEEFF0EE50C2404F50CE50D3400F50D89
:1047E400EEC39413500302474774FF650E700474BC
:1047F400FF650F60238F0874027808121EC2744884
:104804002508F58274783509F5837808121DA58585
:104814001282851383E508F0EC24020C0CED3400BD
:10482400FD851282851383A3858212858313740CFC
:10483400121F20E5826C7003E5836D600302473527
:10484400750801750900780812213F7402121F20AF
:10485400AC82AD837AAE7B0A1206A07402121EEB00
:10486400740C121EEB7F0C021FFEC082C083906189
:10487400AE7468F0A3746AF090624574FBF0A3040C
:10488400F053F4FD43FE0290076F7401F09061A0B1
:10489400E0643A90619A70237433F0A37455F090F5
:1048A40061A0743AF0740164017009C2919005D951
:1048B400746780289005D974618021743FF0A374D3
:1048C4005AF09061A0747FF0740164017009D29170
:1048D4009005D9747180059005D9746A0246AB7F3E
:1048E40004021FFEC082C083900721E06401700AA5
:1048F400900726E06004790C800279000246ACC07F
:1049040082C08375E1F1900724E0605514600814B7
:1049140060591460518059120F0A90071AE0F97A0D
:104924001B7B071210D89084A3121DC312110E9082
:1049340084C3121DC31210E4900725E0F91210F08D
:10494400790112114A900718E02416F8A3E0340004
:10495400F9888289837422F0A3740FF079000246E7
:10496400AC120F1080B4120F1680AF120F1C80AA65
:10497400791280EA74F4121F2C75D90D900709E09E
:10498400A2E0E4331313F890071AE0C4333354C09D
:10499400484401F5D97818790788828983A3A3A3A9
:1049A400E0F5D988828983A3A882A983E8641E706C
:1049B40003E9640770E37809790788828983A3E0AF
:1049C400F5D988828983A3A882A983E8640F700338
:1049D400E9640770E575E195900709E0F97A0A7BC7
:1049E400071210DE900C3874B6F0A3740EF0A374A2
:1049F40018F0A37410F0A37418F0A37410F0A37447
:104A040018F0A37410F0A374BCF0A3740EF0A37494
:104A140018F0A37410F0A374D4F0A3740EF0900CE7
:104A2400467418F0A37410F0A37418F0A37410F073
:104A3400A37418F0A37410F0A37418F0A37410F006
:104A4400A37418F0A37410F0A37418F0A37410F0F6
:104A5400900718E0F8A3E0F5838882A3A3780812EE
:104A64001DA590849F7808121D319084BB7808128C
:104A74001D7F900718E0240EF8A3E03400F9888223
:104A840089837808121DB4900718E02414F8A3E071
:104A94003400F9888289837413F09005D57402F088
:104AA4000248E3C082C08390072AE02407F5D99026
:104AB400071AE0C4333354C0F5D9781879078882CB
:104AC4008983A3A3A3E0F5D988828983A3A882A9B3
:104AD40083E8641E7003E9640770E390072AE060CA
:104AE4001F78187907FAE82413F582E93400F5836E
:104AF400E0F5D988828983A3A882A9831AEA70E69B
:104B040090074AE02407F5D990071AE0C4333354D8
:104B1400C04404F5D97818790788828983A3A3A3AC
:104B2400E0F5D988828983A3A882A983E8641E70EA
:104B340003E9640770E390074AE0601F7818790777
:104B4400FAE82433F582E93400F583E0F5D9888264
:104B54008983A3A882A9831AEA70E675E195900C6B
:104B64003874C2F0A3740EF0A37418F0A37410F098
:104B7400A37418F0A37410F0A37418F0A37410F0C5
:104B8400A374BCF0A3740EF0A37418F0A37410F013
:104B9400A374D4F0A3740EF0900C467418F0A374AC
:104BA40010F0A37418F0A37410F0A37418F0A37495
:104BB40010F0A37418F0A37410F0A37418F0A37485
:104BC40010F0A37418F0A37410F09084DF121DC3C6
:104BD400900718E0240EF8A3E03400F98882898352
:104BE400121DCF900718E02414F8A3E03400F988CC
:104BF4008289837412F09005D574010246ABC08299
:104C0400C08390072AE02407F5D990071AE0C4333B
:104C14003354C04402F5D97818790788828983A36C
:104C2400A3A3E0F5D988828983A3A882A983E86431
:104C34001E7003E9640770E390072AE0601F781888
:104C44007907FAE82413F582E93400F583E0F5D90D
:104C540088828983A3A882A9831AEA70E675E195FC
:104C6400900C3874CEF0A3740EF0A374CEF0A37439
:104C74000EF0A374CEF0A3740EF0A374CEF0A3745C
:104C84000EF0A374CEF0A3740EF0A374CEF0A3744C
:104C94000EF0A374D4F0A3740EF0900C467418F0C4
:104CA400A37410F0A37418F0A37410F0A37418F094
:104CB400A37410F0A37418F0A37410F0A37418F084
:104CC400A37410F0A37418F0A37410F09084DF128E
:104CD4001DC3900718E0240EF8A3E03400F988827D
:104CE4008983121DCF900718E02414F8A3E0340040
:104CF400F9888289837414F09005D574040246AB54
:104D0400C082C08390072AE02407F5D990071AE0EF
:104D1400C4333354C04406F5D97818790788828996
:104D240083A3A3A3E0F5D988828983A3A882A98356
:104D3400E8641E7003E9640770E390072AE0601FCB
:104D440078187907FAE82413F582E93400F583E04A
:104D5400F5D988828983A3A882A9831AEA70E69088
:104D6400074AE02407F5D990071AE0C4333354C046
:104D74004404F5D97818790788828983A3A3A3E02A
:104D8400F5D988828983A3A882A983E8641E700365
:104D9400E9640770E390074AE0601F78187907FA1E
:104DA400E82433F582E93400F583E0F5D988828973
:104DB40083A3A882A9831AEA70E675E195900C385A
:104DC40074C8F0A3740EF0A37418F0A37410F0A3C5
:104DD4007418F0A37410F0A37418F0A37410F0A363
:104DE4007418F0A37410F0A37418F0A37410F0A353
:104DF40074D4F0A3740EF0900C467418F0A37410DD
:104E0400F0A37418F0A37410F0A37418F0A3741032
:104E1400F0A37418F0A37410F0A37418F0A3741022
:104E2400F0A37418F0A37410F09084DF121DC390E3
:104E34000718E0240EF8A3E03400F988828983126D
:104E44001DCF900718E02414F8A3E03400F98882F9
:104E540089837415F09005D574030246ABC082C0F3
:104E640083900718E0F8A3E0F5838882A3A3A3A3A3
:104E7400A3A3E40246A974F7121F2C900603E0F8DA
:104E840075F004A4C8AAF02AF9740528F874063940
:104E9400F9E82405FAE93400FB8A828B83E0FCA359
:104EA400E0FD88828983A3A3A3A3A3A3A3A3A3EC64
:104EB400F0A3EDF088828983A3A3A3A3A3A3A3E013
:104EC40024FFF8A3E034FFF98A828B83E8F0A3E996
:104ED40002511F74F7121F2CEAFEEBFF9061D0E021
:104EE4006003024FB475D90E75D90375D904EE2445
:104EF4008CF582EF3400F583E5822408F8E58334E9
:104F040000F9E0F5D9A3E865827003E9658370F2DE
:104F1400EE2484F582EF3400F583E5822404F8E579
:104F2400833400F9E0F5D9A3E865827003E9658369
:104F340070F275E1957908EE248CFAEF3400FB12D7
:104F44000FC47904EE2484FAEF3400FB120FC47CFE
:104F540000EEF8EFF9ECFAC3E49AFA95E0FBEE2AD6
:104F6400FAEF3BFBEA248BF582EB3400F583E0C0D7
:104F7400E0E824ABF582E93400F583D0E0F00C8856
:104F8400828983A3A882A983ECC3940840C7EE2432
:104F940070F582EF3400F583E0F8A3E0F9EE2472B3
:104FA400F582EF3400F583E8F0A3E9F0790180029B
:104FB4007900025120C082C08375D90275D9037566
:104FC400D90575E195EA2470F582EB3400F583E0A8
:104FD400F8A3E0F9EA2472F582EB3400F583E8F0F3
:104FE400A3E9F079010246AC74F6121F2CEAFEEB39
:104FF400FF9007737406F075087375090778081233
:10500400213F7C01790312100C7402121EEB75D936
:105014000675D903758273758307E0F5D9A3E58214
:1050240064787004E583640770F075E1959005D5A4
:10503400E06408701EEE2470F582EF3400F583E01E
:10504400F8A3E0F9EE2472F582EF3400F583E8F07A
:10505400A3E9F079010251EC74F6121F2CEAFEEB7D
:10506400FF9061D0E070667801900773740BF09044
:1050740005D5E06407701975087375090778081277
:10508400213F7C01790312100C7402121EEB780587
:10509400740128F5D975D903758273758307E8FA05
:1050A400E0F5D9A31AEA70F875E195EE2470F5825B
:1050B400EF3400F583E0F8A3E0F9EE2472F582EF13
:1050C4003400F583E8F0A3E9F07901800279000265
:1050D40051EC74F7121F2CEAFEEBFF75D90375D956
:1050E4000375D90DEE24DEF582EF3400F583E0F587
:1050F400D975E1957904121114EE2470F582EF3418
:1051040000F583E0F8A3E0F9EE2472F582EF3400B1
:10511400F583E8F0A3E9F079018001F07F01021F33
:10512400FE74F6121F2CEAFEEBFF9061D0E0F874D7
:1051340080C398FAEE2483F582EF3400F583E060AF
:1051440004780480027800E8240BF8EAC39850033A
:105154000251EA7D09900773EDF0EE24E3F8EF3491
:1051640000F97A747B077C0888828983E08A828BC1
:1051740083F088828983A3A882A9838A828B83A3EC
:10518400AA82AB831CEC70E0EE2483F582EF34003A
:10519400F583E0601D750873750907780812213FCF
:1051A4007C097903EEFAEFFB12100C7402121EEB69
:1051B4007D0D74012DF5D975D90375827375830737
:1051C4008D08E0F5D9A31508E50870F675E1957921
:1051D40004121114EE241DF582EF3400F583E4F07B
:1051E400A3F07901800279007F02021FFE74F61297
:1051F4001F2CEAFEEBFF9061D0E0F87480C398FAAC
:10520400EE2483F582EF3400F583E06004780480B3
:10521400027800E82408F8EAC39850030252F17DAA
:1052240006900773740CF09005F2E0900774F07A1E
:10523400F37B05787579077C028A828B83E0888208
:105244008983F08A828B83A3AA82AB838882898331
:10525400A3A882A9831CEC70E07AF57B057C028A02
:10526400828B83E088828983F08A828B83A3AA82DB
:10527400AB8388828983A3A882A9831CEC70E0EEA7
:105284002483F582EF3400F583E0601D750873759F
:105294000907780812213F7C067903EEFAEFFB1226
:1052A400100C7402121EEB7D0A74012DF5D975D908
:1052B400037582737583078D08E0F5D9A31508E596
:1052C4000870F675E1957904121114EE2470F582D4
:1052D400EF3400F583E0F8A3E0F9EE2472F582EFF1
:1052E4003400F583E8F0A3E9F07901800279000243
:1052F40051EC74F6121F2CEAFEEBFF9061D0E0F83B
:105304007480C398FAEE2483F582EF3400F583E0C9
:105314006004780480027800E82404F8EAC3985012
:10532400030253D07802900773E8F0EE24F5F58277
:10533400EF3400F583E0900774F0EE2483F582EFF8
:105344003400F583E0601B7508737509077808124B
:10535400213F7C027903EEFA12100C7402121EEB48
:105364007806740128F5D975D90375827375830796
:105374008808E0F5D9A31508E50870F675E195EEFF
:105384002474F582EF3400F583E4F0EE2480F58292
:10539400EF3400F583E4F0EE241DF582EF3400F5DC
:1053A40083E4F0A3F07904121114EE240DF582EFD6
:1053B4003400F583E0F8A3E0F9EE2472F582EF34CB
:1053C40000F583E8F0A3E9F0790180027900025145
:1053D400EC74F6121F2C9061D0E0F87480C398FC32
:1053E400EA2483F582EB3400F583E06004780480DA
:1053F400027800E82404F8ECC398405B7902900733
:10540400737407F0EA24F6F582EB3400F583E09038
:105414000774F0EA2483F582EB3400F583E0601826
:10542400750873750907780812213F7C0209121068
:105434000C7402121EEB7906740129F5D975D9038F
:10544400758273758307E9F8E0F5D9A318E870F855
:1054540075E1957901800279000251EC74F5121F0F
:105464002CE9FCA2AFE433F50AC2AF7D0080010D44
:10547400EA246FF582EB3400F583E0F8EDC398502D
:105484001A8D08EA2508F8EB3400F9E8246BF58254
:10549400E93400F583E06C70D68024EA246FF8EBDD
:1054A4003400F9E0FEEA2EFAEB3400FBEA246BF553
:1054B40082EB3400F583ECF088828983E004F0E524
:1054C4000AA2E092AF7F03021FFE74F6121F2CA201
:1054D400AFE433FDC2AFEA246FF582EB3400F58309
:1054E400E014F07C0060368C08EA2508F8EB340000
:1054F400F9E8246CF582E93400F583E0C0E0E8249F
:105504006BF582E93400F583D0E0F00CEA246FF502
:1055140082EB3400F583E0F8ECC39840CAEA246EC9
:10552400F582EB3400F58374FFF0EA246AF582EB2C
:105534003400F583E4F0EDA2E092AF0251ECC082B6
:10554400C083E5A8F8C2AFEA246BF582EB3400F51A
:1055540083E9F0EA246AF582EB3400F583E4F0E8A9
:10556400A2E792AF0246AC74F3121F2CEAFEEBFFE3
:10557400ECFAEDFB8A828B83A3A3A3A3E0541FF070
:10558400EE2436F582EF3400F583E4F0F50AEEFC00
:10559400EFFD8A828B83E0C0E0EC245DF582ED347C
:1055A40000F583D0E0F0750B00E50A33333354F88B
:1055B400F50C8A828B83E0F508750900E50B780801
:1055C400121EA3E508A2E0502FEE2436F8EF3400B3
:1055D400F988828983E0F508EE2508F508EF3400A0
:1055E400F509E5082438F582E5093400F583E50C6E
:1055F400F088828983E004F0050B050CE50BC39465
:105604000840AF050A8A828B83A3AA82AB838C826B
:105614008D83A3AC82AD83E50AC394055003025580
:10562400967F05021FFE74F7121F2C900601E0649A
:105634000170077A007B000257A17E00900607E004
:1056440070F17401F0A3E4F0A3F090066704F09005
:10565400066AE4F0A3F090066D04F090060AE4F004
:10566400A3F0A3F0A3F090061404F090063AE4F03B
:105674009084E3121DC390061D121DCF900621E4F1
:10568400F0A3F0A3F0900685F0900679F090066EF2
:105694007480F0A3E4F0900674F090066CF0900629
:1056A400F0F0A3F0A3F0A3F0A3F0A3F0A3F0A3F011
:1056B4009006F9F0900688F09006D8F0A3F0908454
:1056C400E3121DC39006DA121DCF9084E3121DC3AA
:1056D4009006DE121DCF9006E4E4F09006E6F0900A
:1056E40006E2F09006FCF0A3F0A3F0A3F0A3F0A36D
:1056F400F0A3F0A3F078017906E8246FF582E93489
:1057040000F58374FFF00E88828983A3A882A9839D
:10571400EEC3940440E37A017B067810790788820B
:105724008983E0C0E0EA2461F582EB3400F583D09C
:10573400E0F088828983A3A882A9838A828B83A3C9
:10574400AA82AB83E864157003E9640770D07A0118
:105754007B0678E8790588828983A3E0C0E0EA249F
:10576400E7F582EB3400F583D0E0F088828983A3E7
:10577400A882A9838A828B83A3AA82AB83E864F07C
:105784007003E9640570CF900601E004F0640170D1
:1057940008900609E0900603F07A057B0602512082
:1057A400C082C083900608E4F0900607F0900601DA
:1057B400F0A3F0A374FFF075E1F10246ACC082C01F
:1057C4008378007900900608E060047805790688FB
:1057D400828983A3A3A3A3E0F90246AC74F6121F43
:1057E4002CEAFEEBFF8E828F83A3A3A3E0600F8ECF
:1057F400828F83A3A3A3E4F0900602E014F0900642
:1058040001E014F0700690060374FFF08E828F831B
:10581400A3A3E4F0900715E0700D900602E0640184
:10582400700579001210F6EE2465F582EF3400F568
:1058340083E0F8A3E0F9E8496029EE2465F8EF3441
:1058440000F9880889098882F583E0FCA3E0FD90CB
:105854000603E0FA7B00120CD6850882850983E4EE
:10586400F0A3F0EEFAEFFB12103C0251EC74F712C5
:105874001F2CEAFEEBFF8E828F83A3A3A3A3E0FA7F
:105884007B00120D18EEFAEFFB120F8E1210240299
:105894005120C082C08378E8790588828983A3E493
:1058A400F088828983A3A882A983E864F07003E95D
:1058B400640570E69005E9024BFD74F6121F2CEAAC
:1058C400FEEBFFEC2403F8ED3400F988088909ECB9
:1058D4002407F8ED3400F9E8FCE9FD8C828D83E0BF
:1058E400F8A3E0F9850882850983E0FAA3E0FB12B6
:1058F4001E4AEE240DF582EF3400F583E8F0A3E9A7
:10590400F08C828D83E0F8A3E0F985088285098311
:10591400E0FAA3E0FB121E4A8B09EA45096013EE84
:10592400240DF582EF3400F583E02401F0A3E03484
:1059340000F00251EC74F6121F2CEAFEEBFFEE2489
:105944002EF582EF3400F583E0FCA3E0FD780079C6
:10595400FAECFAEDFB121E4AEE2470F582EF3400E5
:10596400F583E8F0A3E9F0780079FAECFAEDFB129C
:105974001E4A8B09EA45096013EE2470F582EF3460
:1059840000F583E02401F0A3E03400F00251EC744C
:10599400F0121F2CEAFEEBFF7410121F207808127D
:1059A4001DA51210BA8A0C8B0D8C0E8D0F90847B62
:1059B400780C121D319084BB780C121D7F780C1268
:1059C400213B8E828F83E0F8A3E0F5838882A3A332
:1059D400121DC31228497404121EEBE96003025A13
:1059E400E08E828F83E02402F8A3E03400F9E8FA21
:1059F400E9FB8A828B837808121D449084BB780863
:105A0400121DA58A828B837808121D92EE240BF551
:105A140082EF3400F583C082C0838E828F83A3A378
:105A2400A3A3A3E02401F8A3E03400F9D083D08237
:105A3400E0687003A3E06970057901025AE28E827E
:105A44008F83A3A3A3A3A3A3A3E02401F0A3E0341F
:105A540000F0EE2474F582EF3400F583E064017005
:105A640036EE2475F582EF3400F583E0F8A3E0F90F
:105A74008E828F83A3A3A3A3A3A3A3E0687003A32D
:105A8400E0697013EE2475F582EF3400F583E024A9
:105A940001F0A3E03400F0EE2480F582EF3400F549
:105AA40083E064017036EE2481F582EF3400F583DF
:105AB400E0F8A3E0F98E828F83A3A3A3A3A3A3A3F7
:105AC400E0687003A3E0697013EE2481F582EF347B
:105AD40000F583E02401F0A3E03400F079007F08AE
:105AE400021FFE74F7121F2C900603E0F875F004F1
:105AF400A4C8AAF02AF9740528FE740639FF802880
:105B0400EE2465F8EF3400F988828983E0FCA3E091
:105B1400FD88828983E4F0A3F08E828F83A3A3A3FC
:105B2400A3E0FA7B00120CD6EE2465F582EF340074
:105B3400F583E0F8A3E0F9E849604FEE2464F582C8
:105B4400EF3400F583E0F5087808122143EE24636E
:105B5400F582EF3400F583E0F9EE2465F582EF3445
:105B640000F583E0FCA3E0FDEEFAEFFB120FB8743E
:105B740001121EEBE96089EE2465F582EF3400F52D
:105B840083E0F8A3E0F9E84970137C007D008E827D
:105B94008F83A3A3A3A3E0FA7B00120CD6025120A7
:105BA40074F2121F2CEAFEEBFF890A740E121F20F6
:105BB400E0FAEE2462F582EF3400F583E0640160DC
:105BC40003025C709061D0E0F87480C398F50CEE29
:105BD4002483F582EF3400F583E0600478048002C6
:105BE40078008908E928F8E43400F9E82402080870
:105BF400E93400F9E50C98E499A2D265D033406801
:105C0400EA7005750B028003750B01E060397509B4
:105C140000780812213F7A737B07120FEE74021288
:105C24001EEB750873750907780812213FAC0AA9A1
:105C34000BEEFAEFFB12100C7402121EEB74042527
:105C44000AF50A7C737D077401250AF5D9850BD9F9
:105C5400E50A600D8C828D83F8E0F5D9A318E8700D
:105C6400F875E195790080067907800279FF7F064F
:105C7400021FFEC082C083E960208C828D83E08A8B
:105C8400828B83F08C828D83A3AC82AD838A828BDA
:105C940083A3AA82AB8319E970E0ECFAEDFB024618
:105CA400AC74EA121F2C907803E06442705E900793
:105CB40072E014F07056C2AF125CBF00782AD0E0D4
:105CC400F618D0E0F6E59F5407F9700590847F80BC
:105CD400039084837808121DA5E9C4C0E07829E6FE
:105CE4005508F50808E65509F509740B7808121EDD
:105CF400B3D0E02508F8906270E0A2E740F8E8C36A
:105D040033906272F0906270E0D2E0F0900603E0AB
:105D1400F470030260C8E0F875F004A4C8AAF02A7D
:105D2400F9740528FE740639FFEE2402F582EF3477
:105D340001F583E0F8A3E0F9E849601EEE2402F5DA
:105D440082EF3401F583E0FAA3E0FBEE2401F5824F
:105D5400EF3401F583E0F91204F08E828F83A3A35C
:105D6400A3A3A3A3A3E0F8A3E0F98E828F83A3A344
:105D7400A3A3A3E8F0A3E9F0906054E09005DCF05D
:105D8400906055E09005DDF0906056E09005DEF0FF
:105D9400906057E09005DFF0906058E09005E0F0E7
:105DA400906059E09005E1F090605AE09005E2F0CF
:105DB40090605BE09005E3F090605CE0FC9005E4AB
:105DC400F090605DE0FB9005E5F090605EE0FD9092
:105DD40005E6F090605FE0FA9005E7F09005E2E0F8
:105DE4008C082508F8E43400F98D08E82508F8E95A
:105DF4003400F98B08E82508F8E93400F98A08E842
:105E04002508FAE93400FBEE24F7F582EF3400F5B7
:105E140083E02AF0A3E03BF08C08EE24F9F582EF4E
:105E24003400F583E02508F0A3E03400F0EE24FB11
:105E3400F582EF3400F583E02401F0A3E03400F0B0
:105E4400EE24FFF582EF3400F583E0F8A3E0F9E8EF
:105E5400496042906000E0C333FCE433FDE82CF574
:105E640082E93DF583E02AF0A3E03BF0906000E096
:105E7400FA9005E4E0FCEAC333FAE433FBE82AF8D9
:105E8400E93BF9E8244AF582E93400F583E02CF093
:105E9400A3E03400F09005E2E070119005E5E070B5
:105EA4000BA3E07007A3E07003025FA88E828F83C8
:105EB400A3A3A3A3A3E0F8A3E0F9EE240DF582EFD6
:105EC4003400F583E028F8A3E039F9EE240BF582D9
:105ED400EF3400F583E8F0A3E9F0EE240FF582EF48
:105EE4003400F583E4F0EE241CF582EF3400F583EE
:105EF400E06401701EEE2420F582EF3400F583E0A7
:105F0400F8A3E0F9EE241DF582EF3400F583E8F000
:105F1400A3E9F09005DDE06052EE241CF582EF3435
:105F240000F5837401F0EE246AF582EF3400F58302
:105F3400E07038EE2474F582EF3400F583E0702BC2
:105F4400EE2480F582EF3400F583E0701EEE242009
:105F5400F582EF3400F583E0F8A3E0F9EE241DF5B3
:105F640082EF3400F583E8F0A3E9F0906062E0701A
:105F74000302605B8E828F83E0F8A3E0F9E82406D5
:105F8400FCE93400FDE82402FAE93400FB1210B401
:105F94008E828F83E02412F8A3E03400F98882898A
:105FA400830260659005E4E0603AEE240FF582EF29
:105FB4003400F583E4F0EE241CF582EF3400F5831D
:105FC400E064017040EE2420F582EF3400F583E0B4
:105FD400F8A3E0F9EE241DF582EF3400F583E8F030
:105FE400A3E98020EE24FDF582EF3400F583E0245C
:105FF40001F0A3E03400F0EE241DF582EF3400F547
:1060040083E4F0A3F0EE240BF582EF3400F583E093
:10601400F8A3E0F98E828F83A3A3A3A3A3E06870FF
:1060240003A3E0696003025F17EE240FF582EF34E7
:1060340000F583E060128E828F83A3A3A3A3A3E061
:1060440064057002A3E0600B7908EEFAEFFB120F0F
:10605400948071793E80F3EE241DF582EF3400F5CF
:1060640083E4F0A3F0906060E0C0E0EE2469F58280
:10607400EF3400F583D0E0F09005E2E0F8EE246719
:10608400F582EF3400F583E0280261C8900770E0E0
:1060940064017035121162EE2467F582EF3400F565
:1060A40083E070069060607480F0EEFAEFFB1210EB
:1060B4007EE96401600E120FB2121078E964016087
:1060C400031210247F0E021FFEEE2483F582EF34A8
:1060D40000F583E06004780480027800E50CC3983E
:1060E400F9120CCA8A0A8B0BEA450B60A7EE2483CB
:1060F400F582EF3400F583E070048A088B09E50C1F
:106104006012850882850983F512E5D9F0A315127A
:10611400E51270F6EE2483F582EF3400F583E06037
:106124003774FC250CF50C780812213FAC0CA90D32
:10613400EEFAEFFB1210127402121EEBE9701974DE
:1061440003650D7003026208E50A24FBFAE50B34CB
:10615400FFFB1205380262087403650D70030262C6
:106164000D850C0E750F00780E12213FAC08AD0999
:10617400AA0AAB0B120FEE7402121EEBEE2469F5A1
:1061840082EF3400F583E064807004747F8001E062
:10619400F5087808122143E50DF508780812214323
:1061A400A90CAC0AAD0B900603E0FA7B00120CD0EC
:1061B4007402121EEB12116EEE2467F582EF3400A6
:1061C400F583E014F0E070030260A87508737509A4
:1061D40007750A00750B00E5D914F50CE5D95403CD
:1061E400F50D60207403650D7003026102E50C7007
:1061F40003026090EE2468F582EF3400F583E060DA
:1062040003026090793D02604E850882850983E02F
:10621400F8A3858208858309603B14700302640532
:106224001470030266F914700302646324FD70039E
:106234000265831470030261B91470030265D924E2
:10624400FE70030265921470030265D41470030295
:10625400666E02667DEE2477F510EF3400F511E0EA
:10626400851082851183F0850882850983A3858240
:1062740008858309EE2478F50EEF3400F50F7902D2
:10628400AC08AD09AA0EFB120FBE8A088B09EE24D6
:106294007AF50CEF3400F50D7902AC08AD09AA0CBF
:1062A400FB120FBE8A088B097902AC08AD09EE24F3
:1062B4007CFAEF3400FB120FBE8A088B09EE247EB1
:1062C400F50AEF3400F50B7902AC08AD09AA0AFB14
:1062D400120FBE8A088B09851082851183E0C333AF
:1062E400F0850E82850F83E0F8A3E0F9E8C333F864
:1062F400E933F9850E82850F83E8F0A3E9F0850C74
:1063040082850D83E0F8A3E0F9E8C333F8E933F9B3
:10631400850C82850D83E8F0A3E9F0850A82850B5C
:1063240083E0F50CA3E0F50D7404780C121EC2850D
:106334000A82850B83E50CF0A3E50DF0EE2475F5D8
:106344000AEF3400F50B7902AC08AD09AA0AFB1276
:106354000FBE850A82850B83C082C0838E828F83A1
:10636400A3A3A3A3A3E0F8A3E0F9D083D082E0C35E
:1063740098F8A3E099F9C3E894FFE9947F4005797C
:106384002802604EEE247CF582EF3400F583E0248D
:1063940001F508A3E03400F509E4F50AF50BEE2451
:1063A4007AF582EF3400F583E0F8A3E0F9E8C3332B
:1063B400F8E933F9880C890DE4F50EF50F780879BE
:1063C4000C121BE2EE247EF582EF3400F583E0F537
:1063D4000CA3E0F50D780C79081213D74005793B2E
:1063E40002604EEE2474F582EF3400F5837401F0FC
:1063F400EE241DF582EF3400F583E4F0A3F002618E
:10640400B9EE2481F50AEF3400F50B7402C0E0798B
:1064140005AC08AD097A107B07120FBEEAFCEBFD50
:10642400D0E0F9AA0AAB0B120FBE850A82850B8352
:10643400C082C0838E828F83A3A3A3A3A3E0F8A307
:10644400E0F9D083D082E0C398F8A3E099F9C3E8D7
:1064540094FFE9947F4003026383EE24808087EEF7
:1064640024E2F582EF3400F583E07039EEF8EFF9B9
:106474007AE87B058A828B83A3E0C0E0E824E3F515
:1064840082E93400F583D0E0F08A828B83A3AA8268
:10649400AB8388828983A3A882A983EA64F070030A
:1064A400EB640570CFEE24E3F582EF3400F583E06E
:1064B400A2E0EE401824DEF582EF3400F583741A6E
:1064C400F0790DEEFAEFFB120F640261B92462F564
:1064D40082EF3400F583E4F0EE2468F582EF3400B3
:1064E400F583E4F0EE24E1F582EF3400F5837401E2
:1064F400F07908AC08AD09EE249CFAEF3400FB12E5
:106504000FBE8A088B097902AC08AD09EE24A4FAFF
:10651400EF3400FB120FBE8A088B09EE2494F50AAF
:10652400EF3400F50B7908AC08AD09AA0AFB120F89
:10653400BE8A088B097908AA0AAB0B120FC4EE2491
:1065440088F50AEF3400F50B7904AC08AD09AA0A02
:10655400FB120FBE7904AA0AAB0B120FC4EE248CF3
:10656400FAEF3400FB120FD6EE2484FAEF3400FB6A
:10657400120FDC9005D7E04480F079040264C7EE82
:1065840024DFF582EF3400F5837401026401EE2404
:1065940062F582EF3400F583E4F0EE2468F582EFCF
:1065A4003400F583E4F0EE24D3F582EF3400F58370
:1065B400E4F0EE24DDF582EF3400F5837401F0EEAF
:1065C40024D4F582EF3400F583E4F0790B0264C738
:1065D400EE24E080ADEEF8EFF97AE87B058A828B51
:1065E40083A3E0C0E0E824E3F582E93400F583D036
:1065F400E0F08A828B83A3AA82AB8388828983A3F7
:10660400A882A983EA64F07003EB640570CFEEF806
:10661400EFF97AE87B058A828B83A3C082C08385E5
:106624000882850983E0D083D082FCE05CC0E0E886
:1066340024E3F582E93400F583D0E0F0850882850F
:106644000983A38582088583098A828B83A3AA820E
:10665400AB8388828983A3A882A983EA64F0700348
:10666400EB640570B179090264C7EE24EBF582EF9F
:106674003400F583E064017011EE24F6F582EF3402
:1066840000F583E8F079070264C7850882850983E9
:10669400E0C0E0EE24EEF582EF3400F583D0E0F0C4
:1066A400850882850983A38582088583097402C0CD
:1066B400E0F9AC08AD09EE24EFFAEF3400FB120F59
:1066C400BEEAFCEBFDD0E0F9EE24F1FAEF3400FB76
:1066D400120FBEEE24EBF582EF3400F5837401F063
:1066E400EE24EDF582EF3400F583E060030261B936
:1066F400790C0264C7EE24F5F8EF3400F9E08882DF
:106704008983F0EE24F4F582EF3400F5837401F00C
:1067140088828983E0F902604E53BFEF020122743C
:10672400F0121F2C900603E0F875F004A4C8AAF038
:106734002AF9740528FE740639FF9061D0E0600FD1
:10674400EE241DF582EF3400F583E4F0A38053EECC
:10675400246AF582EF3400F583E07047EE2474F583
:1067640082EF3400F583E0703AEE2480F582EF3452
:1067740000F583E0702DEE241CF582EF3400F583E0
:10678400E06401701EEE2420F582EF3400F583E00E
:10679400F8A3E0F9EE241DF582EF3400F583E8F068
:1067A400A3E9F08E828F83A3A3A3A3A3E0F8A3E0BD
:1067B400F9EE241DF582EF3400F583E028F8A3E018
:1067C40039F9E8240108E93400F9EE2407F50AEF61
:1067D4003400F50B850A82F583E8F0A3E9F0EE2492
:1067E4000BF582EF3400F583C3E098A3E0995035AC
:1067F4008E828F83A3A3A3A3A3A3A3C082C083EE8B
:10680400240BF582EF3400F583E0F8A3E0F9D0839C
:10681400D082E0C398F8A3E099F9C3E894AAE99474
:10682400105035803BEE240BF582EF3400F583C025
:1068340082C0838E828F83A3A3A3A3A3A3A3E0F820
:10684400A3E0F9D083D082E0C398F8A3E099F9C318
:10685400E894ABE994105008900717E06401703095
:10686400EE241DF582EF3400F583E4F0A3F08E826C
:106874008F83A3A3A3A3A3E02401F8A3E03400F926
:106884008E828F83A3A3A3A3A3A3A3E8F0A3E9F019
:10689400EE2474F582EF3400F583E06401600302B2
:1068A4006B0BEE2475F582EF3400F5831221568EBE
:1068B400828F83A3A3A3A3A3A3A3E0FCA3E0FD8EE1
:1068C400828F83A3A3A3A3A3E0FAA3E0FB1225036F
:1068D4007402121EEBE97003026B0BEE2475F8EFE1
:1068E4003400F9880889098882F583E0F8A3E0F97F
:1068F400850A82850B83E8F0A3E9F0EE2477FCEFA8
:106904003400FDEEFAEFFB120FA0EE247CF582EFCB
:106914003400F583E0F8A3E0F9EE2420F582EF34A7
:1069240000F583E8F0A3E9F0EE241CF582EF3400CF
:10693400F583E4F0EE241DF582EF3400F583E4F0F2
:10694400A3F0EE240FF582EF3400F5837401F08593
:106954000A82850B83E0F8A3E0F9EE240DF582EFBB
:106964003400F583E028F8A3E039F9EE240BF5822E
:10697400EF3400F583E8F0A3E9F08E828F83A3A3BC
:10698400A3A3A3E0FCA3E0FD850882850983E0FAC4
:10699400A3E0FB1225408A088B09EE242EF582EF32
:1069A4003400F583E0FAA3E0FBE4F50AF50B8A0C66
:1069B4008B0DF50EF50F7808790C121BE2EE247896
:1069C400F582EF3400F583E0F50CA3E0F50D7808CB
:1069D400790C121D1EEE247AF582EF3400F583E063
:1069E4006A7003A3E06B7044EE247EF582EF3400FA
:1069F400F583E0F8A3E0F9EE2432F582EF3400F5F4
:106A040083E0687003A3E0697022EE247CF582EFD2
:106A14003400F583E0F8A3E0F9EE2430F582EF3496
:106A240000F583E0687003A3E0696052EE247EF50C
:106A340082EF3400F583E0F50CA3E0F50D740478DF
:106A44000C121EB3780C12213FEE247CF582EF3435
:106A540000F583122156EE247AF582EF3400F58393
:106A6400E0FCA3E0C313FDEC13FC8E828F83A3A38D
:106A7400A3A3E0FA7B00120D1E7404121EEBEE2495
:106A840077F582EF3400F583E0C0E0EE242BF58245
:106A9400EF3400F583D0E0F0EE247AF582EF340091
:106AA400F583E0F8A3E0F9EE242EF582EF3400F547
:106AB40083E8F0A3E9F0EE247CF582EF3400F5835B
:106AC400E0F8A3E0F9EE2430F582EF3400F583E832
:106AD400F0A3E9F0EE247EF582EF3400F583E0F8CC
:106AE400A3E0F9EE2432F582EF3400F583E8F0A355
:106AF400E9F0EEFAEFFB120FA6EE2474F582EF3400
:106B040000F583E4F08016EE242EF582EF3400F5D0
:106B140083E0F508A3E0F509E4F50AF50BEE241883
:106B2400F582EF3400F583780812139C701EEE246E
:106B34001FF582EF3400F583E0F8EE241DF582EFB3
:106B44003400F583E0687002A3E06039EE2412F5A6
:106B54000CEF3400F50D780C12213FEE2410F58271
:106B6400EF3400F583122156EE241DF582EF340034
:106B7400F583122156AA08AB09AC0AAD0B1229E21F
:106B84007406121EEBEE2418F582EF3400F58378B8
:106B940008121DB4EE241DF582EF3400F583E0C025
:106BA400E0EE241FF582EF3400F583D0E0F0EE240C
:106BB40012FCEF3400FD8E828F83E02402FAA3E0FE
:106BC4003400FB122924906062E060147C3C7D84D4
:106BD4008E828F83E02402FAA3E03400FB1229247E
:106BE4008E828F83E0F8A3E0F988828983A3A3E8E7
:106BF4002408FCE93400FD7406121DE88E828F839C
:106C0400E02402F8A3E03400F9E8FAE9FBEE241DDD
:106C1400F582EF3400F583E0F50CA3E0F50DE4F51F
:106C24000EF50F9084F3780C121D31780C7908124C
:106C34001BE28A828B83780C121D449084BB780CEF
:106C4400121DA58A828B83780C121D92900715E081
:106C540064016003026D8579011210F68E828F83C0
:106C6400E0F8A3E0F99084DF121DC3E8240EF58256
:106C7400E93400F583121DCFE82412F8E93400F951
:106C8400E8FAE9FBEE2412F582EF3400F583780884
:106C9400121DA5E50875F0E2A4C508A8F075F00476
:106CA400A428F875F0E2E509A428F5098A828B8303
:106CB400E02508F0A3E03509F0EE2416F582EF3460
:106CC40000F583E0F508A3E0F50974047808121EC2
:106CD400B3E5082401F8E5093400F98A828B83E0DE
:106CE40028F0A3E039F0906062E08E828F83700315
:106CF400026DF1E02412F8A3E03400F9888289835C
:106D0400E02410F0A3E03401F0EE240FF582EF3418
:106D140000F583E06031EE242BF582EF3400F58337
:106D2400E0F875F071A4C8AAF075F002A42AF98EEF
:106D3400828F83E02412FAA3E03400FB8A828B83DF
:106D4400E028F0A3E039F08E828F83E02414F8A3C6
:106D5400E03400F9888289837410F08E828F83E096
:106D64002416F8A3E03400F9888289837428F0A3F8
:106D7400740FF0EEFAEFFB12238F79007F08021FE5
:106D8400FE90849778081213F75003026C60EE2487
:106D94001DF582EF3400F583E0F8A3E0F9E84960DB
:106DA40003026C60780812213BEEFAEFFB120FAC81
:106DB4007404121EEBE964016003026C60EE240F9C
:106DC400F582EF3400F583E060128E828F83A3A3F3
:106DD400A3A3A3E064057002A3E060047908800221
:106DE400793EEEFAEFFB120F947901808FE02412C2
:106DF400F8A3E03400F988828983E02410F8A3E042
:106E040034FFF97A717B02121E4A88088909EE243C
:106E14002EF582EF3400F583E0F8A3E0F9C3E5082A
:106E240098E509995003026D0D80B174F6121F2C78
:106E3400EAFEEBFF803B9005DFE0700302715FEE3A
:106E4400FAEFFB120F6AEE24A4F508EF3400F509FB
:106E5400780812213FEE249CFCEF3400FD8E828FD3
:106E640083A3A3A3A3E0FA7B00120D2A7402121ECB
:106E7400EBEE246FF582EF3400F583E0607CEE24C2
:106E84006BF582EF3400F583E024FE603224FE606B
:106E94006D147003026F1D147003026FFE147003EF
:106EA4000272D824FE700302719324FE70030270F0
:106EB400C91470030271EB14700302711E80B2EEE8
:106EC400246AF582EF3400F583E0640170199005BB
:106ED400DEE0700302715F7916EEFAEFFB120F9495
:106EE40079017F02021FFEEEFAEFFB120F58EE2427
:106EF4006AF582EF3400F583E9F0790080E4EE244A
:106F04006AF582EF3400F583E064017003026E3A9F
:106F1400EEFAEFFB120F2E80D5EE246AF582EF34E1
:106F240000F583E0640170579005DFE06033EE24E0
:106F340083F582EF3400F5837401F09084E3121D2D
:106F4400C3EE24D5F582EF3400F583121DCF90846F
:106F5400E3121DC3EE24D9F582EF3400F583121D2C
:106F6400CFEE24DFF582EF3400F583E064016003A3
:106F740002715F7906EEFAEFFB120F70026E75EE86
:106F840024D3F582EF3400F583E064017028EEFA2F
:106F9400EFFB120F34E964017019EE24DFF582EF80
:106FA4003400F583E4F0EE246AF582EF3400F583CF
:106FB4007401F0026EFEEE24D4F582EF3400F58302
:106FC400E060F0EE24B3F508EF3400F50978081218
:106FD400213FEE248CFCEF3400FDEE24C3FAEF34A1
:106FE40000FB120FE27402121EEBEE24D3F582EFC3
:106FF4003400F5837401F0026E75EE246AF582EFB5
:107004003400F583E0640160030270BF9005DFE0A3
:10701400700302715FEE2420F582EF3400F583E003
:10702400F8A3E0F9EE241DF582EF3400F583E8F0CF
:10703400A3E9F0EEFAEFFB120F6AEE2462F582EF99
:107044003400F5837401F0EE2468F582EF3400F522
:10705400837401F0EE24DDF582EF3400F583E064FF
:1070640001701379008E828F83A3A3A3A3E0FA7B1C
:1070740000120D3680137C0179008E828F83A3A3C6
:10708400A3A3E0FA7B00120D30EE24DDF582EF3489
:1070940000F583E4F0EE24E1F582EF3400F583E4B7
:1070A400F0EE24E0F582EF3400F583E4F0EE24DF23
:1070B400F582EF3400F583E4026FFAEEFAEFFB1287
:1070C4000F3A026EF2EE246AF582EF3400F583E0A3
:1070D40064017019EE24E0F582EF3400F583E06476
:1070E400017078EEFAEFFB120F6A026E75EEFAEF9A
:1070F400FB120F40E964016003026EFEEE24E0F52A
:1071040082EF3400F583E4F0EE2483F582EF34005B
:10711400F583E4F0EE246A026FF1EE246AF582EF5F
:107124003400F583E06401705C9005DFE06026EED6
:107134002483F582EF3400F583E4F0EE2462F582D3
:10714400EF3400F5837401F0EE2468F582EF340027
:10715400F5837401F09005DEE07088EE2472F8EF98
:107164003400F988828983E024FFF0A3E034FFF03F
:1071740088828983E0F8A3E0F9E8496003026EFE9F
:107184007922026EDDEEFAEFFB120F46026EF2EE8A
:10719400246AF582EF3400F583E0640170349005CD
:1071A400DFE060B7EE24E2F582EF3400F58374018A
:1071B400F0EE2420F582EF3400F583E0F8A3E0F943
:1071C400EE241DF582EF3400F583E8F0A3E9F00224
:1071D40070E7EEFAEFFB120F4CEE246AF582EF34FF
:1071E40000F583E9026FB6EE246AF582EF3400F508
:1071F40083E0640160030272C1EE24EBF582EF3494
:1072040000F583E064017051EE24ECF582EF340064
:10721400F583E0640160030270E7EE24F1F582EF88
:107224003400F583122156EE24EFF582EF3400F595
:1072340083122156EE24EEF582EF3400F583E0FC50
:107244008E828F83A3A3A3A3E0FA7B007900120D9F
:10725400247404121EEB0270E7EE2472F8EF34007B
:10726400F988828983E024FFF0A3E034FFF0888268
:107274008983E0F8A3E0F9E8496003026EFEEE2496
:10728400F1F582EF3400F583122156EE24EFF582F6
:10729400EF3400F583122156EE24EEF582EF34002C
:1072A400F583E0FC8E828F83A3A3A3A3E0FA7B0083
:1072B4007922120D247404121EEB027184EE24ED63
:1072C400F582EF3400F5837401F0EEFAEFFB120F50
:1072D40052026EF2EEFAEFFB120F5EE964016003F4
:1072E400026EFE0270E774F2121F2CE9FE8C088D08
:1072F400097F008E8285820A8F0B8A0C8B0D780C95
:10730400122183010318C6753E735D737073C675CD
:107314008573D873EE731D744C7467748274997496
:10732400B574C675D174087524753E75537570753A
:10733400C675C675C675C6758D7574106E7015756F
:107344000A10780A12213F7A197B04127A17121E46
:10735400EB0275E47F180275E474106E70F6750A1A
:1073640010780A12213F7A297B0480DF74046E703E
:10737400E38C828D83121DC3900439121DCF0275D4
:10738400E474016E70CE900A4CE0F88C828D83E038
:10739400900A4CF0E8601CE060030275E490041766
:1073A400E0640260030275E4900416E0F9120A1E18
:1073B4000275E4E070030275E4900417E064016070
:1073C4000DE064036008E0640460030275E4127D68
:1073D400FA0275E474026E6003027358127F2690F9
:1073E4000A4DE8F0A3E9F00275E4EEC394204003EB
:1073F4000273587C1F7D0079007A507B0A1204AE18
:10740400780A12213FAC08AD097A507B0A127A1728
:10741400121EEBEE900A4F80CDEEC394204003027F
:1074240073587C1F7D0079007A447B041204AE7883
:107434000A12213FAC08AD097A447B04127A171270
:107444001EEBEE900443809E74016E600302735839
:107454008C828D83E0C394044003027358E090044B
:1074640063808374016E60030273588C828D83E0A1
:10747400C394044003027358E090046480C8740603
:107484006E6003027358750A06780A12213F7A6502
:107494007B0402734F74016E60030273588C828DF7
:1074A40083E0C394084003027358E090046B0273B2
:1074B400EA74016E60030273588C828D83E0C39476
:1074C400044003027358E090046C0273EA74026E81
:1074D4006003027358127F2690046D127DF4E8490C
:1074E40070030275E4900417E0640560030275E418
:1074F40090046D127E45780812213B127F34121ECF
:10750400EB0275E474016E60030273588C828D8300
:10751400E0C394024003027358E09004750273EAD6
:107524001275FF60030273581275F3400302735817
:10753400900A71EAF0A3EB0273EA1275FF6003028A
:1075440073581275F34003027358900A7380E4125F
:107554007F2674026E6003027358C3E894F4E994BE
:107564000140030273589004760273E61275FF60BB
:1075740003027358EA24F61275EB9477E9940C40ED
:1075840003027358900A7580AA74016E6003027333
:10759400588C828D83E0640160030273587A087BFF
:1075A40000900416E0F912057AEAF8EBF9ECFAED2A
:1075B400FBE8494A4B7007790012760C80227F164B
:1075C400801EC3EA9426EB9400501374026E700E6E
:1075D4008C828D83127A11120916E9FF80020F0F33
:1075E400EFF97F06021FFEF8EB34FFF9C3E822EA45
:1075F40024FA1275EB947BE9940C228C828D83E03F
:10760400FAA3E0FB74026E221207F67A047B009060
:107614000416E0F91205742274F4121F2CECFEED2A
:10762400FF7508008A0A8B0B780A1221830003185D
:107634006C77687672768E769F76AF76C076C576EE
:10764400CD76DC76EB76F176F9760B7711771A77CF
:107654002377287734773C77417746774B775D7784
:1076640062776777900418127793F0027786750A29
:1076740010750B00780A12213F7C197D04EEFAEF95
:10768400FB127A17121EEB027786750A10750B002F
:10769400780A12213F7C297D0480E2900439121D6E
:1076A400C38E828F83121DCF027786750A06750BEF
:1076B40000780A12213F7C3D7D0480C1900A4C80F1
:1076C400A6900A4D12779980A1900A4F12778A12D8
:1076D400213F7C507D0A80A590044312778A1221B1
:1076E4003F7C447D04809690046302766B9004642E
:1076F40012779380D2750A06750B00780A12213F1F
:107704007C657D0402768190046B02766B90046C38
:1077140012779302766E900A6F12779902766E90C2
:10772400046D80A0900475127793F0A3E402766E42
:10773400900A7112779980DB900A7380DC9004764A
:107744008082900A7580D2750A06750B00780A1239
:10775400213F7C6F7D0402768190047880BB900485
:107764007A80B690047C80B1C3EA9426EB940050EE
:107774000E12091C8E828F83EAF0A3EB02766E75DB
:107784000802A908801EE0F50A750B00780A22E0B9
:107794008E828F8322127F2E8E828F83E8F0A3E95C
:1077A40022121EEB7F04021FFE74F6121F2C90049B
:1077B40017E0703EEA4B600890047FEAF0A3EBF018
:1077C400750839750904780812213F750829750967
:1077D40004780812213F7C197D047B00900418E092
:1077E400FA900416E0F91205C27404121EEB790033
:1077F400800279117F02021FFED083D0820201220F
:10780400C082C083900417E06405700D127E10904E
:107814000416E0F912099A8002791280DC74F712D6
:107824001F2CE9900416F0900417E4F0900A6F748A
:10783400FFF0A3F0120A669004187404F07C107D23
:107844000079007A197B041204AE7C107D00790063
:107854007A297B041204AE9084E3121DC390043988
:10786400121DCF900463E4F0900464F090046B74F0
:1078740007F090046CE4F07C197D047A107902120C
:1078840007BA7C297D047A1079031207BA7C397D02
:10789400047A0479041207BA7F01021FFE74F412F9
:1078A4001F2C74F6121ED5EAFEEBFF54806025905F
:1078B4000416E0F91204D88A088B09A909EA496078
:1078C4000A1207EAAA08AB091204C6EEFAEF6480AA
:1078D400FB027A0CEF544060127C397D047A0479FF
:1078E400041207B4EEFAEF644080E5EEA2E0400330
:1078F400027990900A4CE07003027988900463E066
:10790400851882851983F0900464E0C0E074011244
:107914001F20D0E0F0750806750900780812213F91
:107924007C657D047404121F20AA82AB83127A172B
:10793400121EEB90046BE0C0E07408121F20D0E02C
:10794400F090046CE0C0E07409121F20D0E0F085D0
:107954001882851983AA82AB83900416E0F9120A6F
:1079640012E960209004177406F0127E506015121C
:107974007E0A127F2A88828983E58245836005799D
:1079840006121F2AEE6401FAEF0278D45402602A28
:10799400900417E06405701D127E10120C4C9004C4
:1079A4006D127E53600F90046D127E3D12213B12C6
:1079B4007F34121EEBEE640280CDEE5404600A792B
:1079C400001207F6EE640480BEEE5408603690049C
:1079D4007EE01460081470271207D88022900A757C
:1079E4001221569004761221567901900A73127A64
:1079F40011900A71127E131207FC7404121EEBEE2E
:107A0400640880837A007B00740A0277A5E0FCA3F3
:107A1400E0FD2212049674022274F4121F2CEA244C
:107A240005F8EB3400F98A828B83E0246F600B2421
:107A3400EF606724D2605E027AE9A3E0640E60031B
:107A4400027AE98A828B83A3A3A3E064057004A36A
:107A5400E064146003027AE988828983127E07A3B2
:107A6400A3A3E0F9900417E064057079747F69605A
:107A74007490047F127E13EA4B606A90047F127E36
:107A840007A3A3127E138A828B83E5824583605504
:107A9400121F2A80501207F0804B88828983E06489
:107AA4001370428A828B83A3A3A3A3A3A3E06401DC
:107AB4007002A3E0701290047EE06402700A7A08F7
:107AC4001276111207D8801D7A057B0012091C8AD0
:107AD400088B09E4F50AF50B780812213B7A0812A1
:107AE4007F36121EEB0277A874EE121F2CEAFEEB0F
:107AF400FF8E828F83A3A3E0F8EE2403F508EF340E
:107B040000F509EE240AF50AEF3400F50B8E828F96
:107B140083A385820C85830DE8602724FE7003020D
:107B24007BBE147003027BF5147003027BF51470A2
:107B340003027C2F147003027D25147003027D78E8
:107B44008073E070497C197D047A1079021207B4BD
:107B54007C297D047A1079031207B4750A06750B23
:107B640000780A12213FAC08AD097A3D7B04127AF1
:107B740017121EEB9004177401F07C507D0A900AD2
:107B84004FE0FB7A01900416E0F9120A18E9600646
:107B94009004177406F0127E50601A127E0A127F47
:107BA4002AE8FAE9FBEA4B600C900417E0F98A82B0
:107BB4008B83121F2A7F0A021FFEE0702985088228
:107BC400850983E0601D7C447D04900443E0FB7AD6
:107BD40000900416E0F9120A18E9850C82850D83D9
:107BE400F08003127DFA850C82850D83E070A180FC
:107BF400C4E0709C74036870079004177402809545
:107C0400900A4D127E53900A4C6016E06015900A5B
:107C14004D127E3D12213B7A01127F36121EEB80FB
:107C240002E4F09004177403027B99E06003027D80
:107C340018EE2404F510EF3400F511750C06750DDB
:107C440000780C12213FAC10AD117A6F7B04127ACC
:107C540017121EEB850A82850B83127F2A900A6F06
:107C6400127DF49004177405F090046D127E536035
:107C74001A90046DE0F50CA3E0F50DE4F50EF50F94
:107C8400780C12213B127F34121EEBEE240CF58289
:107C9400EF3400F583127E31EE240EF582EF3400CA
:107CA400F583127E25EE2410F582EF3400F583125D
:107CB4007E19900475E0640170327A1F7B0012090A
:107CC4001C8A0CEA75F0E8A4C50CA8F075F003A4AE
:107CD40028F875F0E8EBA428F50DE4F50EF50F7817
:107CE4000C12213B7A04127F36121EEB750C0478B9
:107CF4000C122143850A82850B83127A11AA10ABD8
:107D040011850882850983E0F91205CE7401121EDB
:107D1400EB027B9A64316003027B94900A4C027CF0
:107D2400251205EC7C067D0079007A6F7B04120431
:107D3400AE900478E4F0A3F090047AF0A3F09004F9
:107D44007CF0A3F07A04FB1276137A081276118E73
:107D5400828F83A3A3A3A3A3E064089004177004F1
:107D6400740480027403F0127DFA900A6F74FFF0B9
:107D7400A3027B997A08127611850C82850D83E023
:107D84006003027BB98E828F83A3A3A3A3A3A31250
:107D94007E318E828F83A3A3A3A3A3A3A3A3127E66
:107DA40025850A82850B83127E197A047B00900450
:107DB40016E0F912057AEA4B4C4D6003027BB99048
:107DC4000481127E537003027BB990047C12215605
:107DD40090047A127A11900478127E13900481121E
:107DE4007E07127E07121F2A7402121EEB027BB951
:107DF400E8F0A3E9F0227A017B00900416E0F9127E
:107E040004F022E0F8A3E0F583888222900A6FE070
:107E1400FAA3E0FB22127F2E90047CE8F0A3E9F0A1
:107E240022127F2E90047AE8F0A3E9F022127F2E2A
:107E3400900478E8F0A3E9F022127E45F50B780867
:107E440022E0F508A3E0F509E4F50A2290047F1284
:107E54007F2EE8492274F4121F2C74F8121ED5E9FF
:107E6400FE900A71127F2A758304758278C3E098A4
:107E7400A3E0994038900478127F2A75830A7582AA
:107E840073C3E098A3E099402490047A127F2A9067
:107E94000476E0687003A3E069701290047C127F9A
:107EA4002A900A75E0687003A3E06960707A057B24
:107EB4000012091C8A088B09900A71127F2A8518FE
:107EC40082851983127DF4900A73127F2A74021238
:107ED4001F20127DF4900476127F2A7404121F204E
:107EE400127DF4900A75127F2A7406121F20127DE7
:107EF400F4900416E0F9851882851983AC82AD8369
:107F0400127E10120D4EEE90047EF0E4F50AF50B8D
:107F1400780812213B7A08127F36121EEB7408028D
:107F240077A58C828D83127F2E22E0F8A3E0F922BC
:107F34007A027B00900416E0F91205687404227436
:107F4400F4121F2CE9FE740C121F20E0F50AA3E0C2
:107F5400F50B740E121F20E0F508A3E0F509900458
:107F640017E0640560047914805FEA24FAF8EB12E0
:107F74007FD05053EC24FAF8ED127FD05049C3E57A
:107F84000A94F4E50B9401503EE50824F6F8E5095B
:107F94001275ED9476E9940C502D900A71EAF0A3D1
:107FA400EBF0900A73ECF0A3EDF0900476E50AF0A0
:107FB400A3E50BF0900A75E508F0A3E509F0EEF9E6
:107FC40012760C7900800279180277A81275ED9464
:107FD4007AE9940C22C082C0838A828B838001A3B5
:107FE400E070FCE582C39AFAE5839BFBD083D082E0
:0C7FF4000201227A007B0002012280F7CB
:108000000000000000000000002F0000000007003A
:10801000070000147F147F1400242A7F2A120062B4
:108020006408132300364955225000000503000060
:1080300000001C224100000041221C000014083EE8
:1080400008140008083E0808000000A060000008AE
:108050000808080800006060000000201008040202
:10806000003E5149453E0000427F400000426151C0
:108070004946002141454B31001814127F1000275A
:1080800045454539003C4A4949300001710905031D
:1080900000364949493600064949291E000036364E
:1080A00000000000563600000008142241000014B1
:1080B000141414140000412214080002015109068E
:1080C00000324959513E007C1211127C007F49490F
:1080D0004936003E41414122007F4141221C007F40
:1080E00049494941007F09090901003E4149497A4E
:1080F000007F0808087F0000417F410000204041C8
:108100003F01007F08142241007F40404040007F33
:10811000020C027F007F0408107F003E4141413E77
:10812000007F09090906003E4151215E007F0919BF
:1081300029460046494949310001017F0101003FBC
:108140004040403F001F2040201F003F4038403F3C
:1081500000631408146300070870080700615149A0
:10816000454300007F41410000552A552A55000033
:1081700041417F00000402010204004040404040B1
:10818000000001020400002054545478007F484449
:10819000443800384444442000384444487F003880
:1081A0005454541800087E0901020018A4A4A47CA9
:1081B000007F080404780000447D40000040808473
:1081C0007D00007F102844000000417F4000007CBB
:1081D00004180478007C08040478003844444438C7
:1081E00000FC242424180018242418FC007C080413
:1081F000040800485454542000043F444020003CEC
:108200004040207C001C2040201C003C4030403C72
:10821000004428102844001CA0A0A07C0044645402
:108220004C441414141414148C08020B9808080BF2
:10823000A4080E0BB008140BBC081A0BCE081A0BBE
:10824000DA08200BB008260BC8082C0B0000000031
:10825000EC082C0BF808320B0000000000000000B6
:10826000000000000000000000000000000000000E
:1082700000000000000000000101020102010102F3
:1082800001020303040103010101010103030201CF
:1082900003320E8E0654135A075A0D720A5C0BB83D
:1082A00012E4074006860B72044669726D776172AC
:1082B00065205265766973696F6E004D616E7566F3
:1082C00061637475726572204E616D6500536F66EF
:1082D0007477617265205265766973696F6E0048C4
:1082E00061726477617265205265766973696F6E39
:1082F0000030313233343536373839414243444522
:1083000046005465786173496E737472756D656E5D
:10831000747300F401FA00960064004B0032001EF2
:10832000001400FB349B5F80000080001000000000
:10833000000000000000000000000000000000003D
:1083400000008748414C5F4B45595F43454E5445BB
:108350005200424C45205065726970686572616CCC
:108360000048414C5F4B45595F524947485400FE15
:10837000006578706572696D656E74616C536572C5
:1083800069616C204E756D6265720048414C5F4BAF
:1083900045595F53575F3600446973636F6E6E656E
:1083A000637465640048414C5F4B45595F4C4546DA
:1083B00054004D6F64656C204E756D6265720048A7
:1083C000414C5F4B45595F444F574E0041647665C1
:1083D00072746973696E6700496E697469616C696A
:1083E0007A65640048414C5F4B45595F5550000029
:1083F000000000000000000000000000000000007D
:108400000000005478506F7765723A2000436F6E19
:108410006E65637465640054696D6564204F75749E
:1084200000000000000000000000006B6579203DA6
:10843000203078004368617220333A000000000069
:10844000001B4368617220313A007869E0AB50C389
:10845000F0D20000000000004572726F7200000050
:10846000EC0B0000A20AA80A0000BC0500000000F6
:108470001A0820080000010203040502000000FFA2
:10848000FF0000FF7FFFFF07000000F1FFFFFF0577
:10849000000000F6FFFFFF5000000040420F000008
:1084A000080000D6BE898E01C8000031B1E1FF0B83
:1084B000000000F401000003000000FFFFFF0006C1
:1084C000000000555555009001000000E1F5051031
:1084D0002700006400000019000000E8030000FF0E
:1084E000FFFFFF00000000E7FFFFFF000010000A91
:1084F0000000000100000060EA0000710200001AA4
:108500000000004B4C00021885024A8525730002CA
:1085100032850D0A00023485F0FFF1FF052AF2FFD3
:10852000042A032A022A012A002A0229F3FF012829
:10853000002801180018F4FF502A2A2A292A282A7C
:10854000272A262A252A242A232A0A180328300023
:10855000F5FF01290C0074F4121F2CE9FF7E008A3C
:10856000088B09780812218300040D07878985A5E7
:1085700085BA85CF85E485F98515862E8640866E79
:10858000869086AC86C886E68674016F70128C82EF
:108590008D83E0C394035008E0900A44F0028725DD
:1085A0007E1802872574026F70F68C828D83128E7E
:1085B00063900A45E8F0A3E980E274016F70E18CF2
:1085C000828D83E0C3940250D7E09002D180CD74B5
:1085D000016F70CC8C828D83E0C3940550C2E09013
:1085E00002D280B874016F70B78C828D83E0C3941F
:1085F0000250ADE09002D380A374106F70A2750892
:10860000108E09780812213F7AD47B021292271229
:108610001EEB02872574016F70868C828D83E0C308
:10862000940240030285A0E09002E402859C74015C
:108630006F60030285A08C828D83E0900A48808D54
:1086400074046F60030285A090849B7808121DA5B6
:108650008D838C8278081213E740030285A08C82F8
:108660008D83121DC39002E6121DCF028725EF6095
:10867000030285A0120A78E9700E12062E795012B4
:1086800007C0120622028725900379740102859C97
:1086900074016F60030285A08C828D83E0C3940215
:1086A00040030285A0E09002E502859C74016F60A2
:1086B000030285A08C828D83E0C3940A4003028567
:1086C000A0E0900A4702859C74016F60030285A0B8
:1086D0008C828D83E024F9C3940A40030285A0E0D4
:1086E000900A4902859C74016F60030285A0900383
:1086F00078E0F88C828D83E0900378F0E87026E0D3
:1087000064017021028682C3EA9426EB9400501320
:1087100074026F700E8C828D83128E5D120916E9C1
:10872000FE80020E0EEEF902872F740E121EEB7FF2
:1087300004021FFE74F0121F2C74CC121ED58C0A7A
:108740008D0B7444121F20E0FE7420121F20AC8297
:10875000AD837583847582527406121DE8742012ED
:108760001F20AC82AD831205D4E9F508C3940A40FA
:108770000302889875F006E9A4F5097426121F20F3
:10878000AC82AD837A0E742025091292DF700974D1
:1087900032121F20E0FF80027F00900A44E0640252
:1087A000700474018001E4F50D780D122143EEFD93
:1087B000EFFCA908AA0AAB0B1206587401121EEBB3
:1087C0007C147D007900740C121F20AA82AB8312E6
:1087D00004AE740C121F20AC82AD837A1074242571
:1087E000091292DF70377C1079FF740C121F20126F
:1087F000900C7029741C121F20AC82AD837A047413
:10880000252509F91207BA740C121F20AC82AD831A
:10881000EFA2E0E433F9AA0AAB0B1209A085188293
:10882000851983AC82AD837A0C747025081292DFAF
:108830007055851882851983AA82AB831206047548
:108840000800E50875F003A4F8A9F08518828519D9
:1088500083E58228F8E583129048128E5DEC4D6026
:108860001D88828983A3A3E0F50E750F00780E1290
:10887000213FAA0AAB0B120BFE7402121EEB050875
:10888000E508C3940440BBEFA2E1500C9002D0E095
:10889000F9AA0AAB0B120C0474046E702A900A44F5
:1088A000E0640270229002E4E060047A0180027ABF
:1088B000009002D1E06004780480027800E84AF970
:1088C000AA0AAB0B120A6079007434121EEB7F08FF
:1088D000021FFE74F0121F2CEAFEEBFF8C088D09BC
:1088E000750A0AE9600C14600914602E14607F0296
:1088F0008979120616E9F50AC3940A507CE5084501
:10890000096076750E06750F00780E12213FEEFC99
:10891000EFFD129223121EEB805F750B00750E06A1
:10892000750F00780E12213FEEFCEFFDE50B75F0A0
:108930000EA4F8A9F074F228FA740239FB1204A804
:108940007402121EEBE9601B850B0AE50AC3940A48
:108950005027E50845096021AA08AB09A90A1206B3
:10896000108016050BE50BC3940A500D80AF12065C
:108970001CE9F50AC3940A40D9A90A0288CE74F406
:10898000121F2C890875091574FF6A700374FF6B38
:1089900070277E00AC087A027B00EEF91205F2E93E
:1089A00060037509000EEEC3940A40E8E5086049CB
:1089B0007A467B06120E208040120E028A0A8B0B2A
:1089C000AE0AAF0BEE4F602E7C007D00EE2405FA60
:1089D000EF3400FB8E828F83128A75500CAC087ABC
:1089E000027B001205F2750900E508600CEEFAEF53
:1089F000FB1206468003750914A90902872F74F239
:108A0000121F2CECFEEDFF740E121F20128E5075FB
:108A1000081574FF6A700374FF6B7021750900AC50
:108A20000AAD0BEEFAEFFBA9091205F8E960037530
:108A300008000509E509C3940A503580E2120E02C8
:108A40008A828B83E582458360237C007D00E582FA
:108A50002405FAE5833400FB128A755013AC0AAD85
:108A60000BEEFAEFFB1205F8750800800375081489
:108A7000A90802984EA3A3A3A3E0F91205D4E9C361
:108A8000940A22C082C0839002EAEAF0A3EBF0903D
:108A900002D0E0FC7D007A257B001209169002D0FE
:108AA000E0F9120B7AD083D08202012274EA121FFD
:108AB0002C74EC121ED5EAFEEBFFEE240CF514EF3D
:108AC0003400F515EE240AF510EF3400F511EE240C
:108AD00005F50EEF3400F50FEE2409F50AEF34002A
:108AE000F50BEE2403F508EF3400F5098E828F8331
:108AF000A3A3E024FA7003028E1924FD7003028DF3
:108B000048147003028B9714601024FD7003028DCB
:108B100019147003028D7D028E37128E7C604AE03C
:108B2000F5838882128E63880C890DE8450D6039C3
:108B3000851482851583E0F50E780E122143EE240C
:108B40000BF582EF3400F583E0F9850A82850B830B
:108B5000128E5D0A0A0AAB09850C82850D83121FED
:108B60002A7401121EEB028E37850A82850B83124E
:108B700021569002E6121DC31209B27402121EEBB6
:108B8000E97003028E377901850A82850B8312967C
:108B9000731209AC028E378E828F83A38582128571
:108BA0008313E06003028CF2850E82850F83E0A2BE
:108BB000E04003028CF27C0E7D00790085188285EE
:108BC0001983AA82AB831204AEEE2408F50AEF34AF
:108BD00000F50B850A82F583128E7F6019750C06ED
:108BE000750D00780C12213F850A82850B83E024E5
:108BF00010FCA3E0801A128E41EA4B7003028E37FC
:108C0000750C06750D00780C12213FEA2405FCEB6B
:108C10003400FD7402121F20AA82AB831292271225
:108C20001EEB850E82850F83E0A2E25004D2F08015
:108C300002C2F0A2F0E433F8740C121F20E048F0F6
:108C4000851082851183128E7F60158510828511B3
:108C500083E02410F8A3E03400F98882898380033C
:108C60009084DF780C121DA5851082851183128EE9
:108C70007F600F851082851183E0F510A3E0F51168
:108C80008006751000751100850A82850B83128E8F
:108C90007F600B850A82850B83128E508006750AD1
:108CA00000750B00780C12213B781012213F780AD6
:108CB00012213F8514828515831221568E828F835F
:108CC000A3128E58740A121F20AA82AB8312060ABE
:108CD000740A121EEB850882850983128E63900345
:108CE0007AE8F0A3E9F07A017B009002D0E0F91273
:108CF00004F0128E7C7003028E37128E69700302AC
:108D00008E37851282851383E0FC790112966D8E71
:108D1000828F83121F2A028E37128E7C7003028E7E
:108D200037E0F5838882A3A3128E63890BE8450B95
:108D30007003028E378E828F83A3E0FC7902129635
:108D40006D8882850B8380CB7C007D00EE2404FA45
:108D5000EF3400FB850882850983E0F91205D4E928
:108D6000F8C3940A4003028E37AC10AD117A047533
:108D7000F006E8A42425F91207B4028E379002E524
:108D8000E0600E900A47E0F9850882850983028B2E
:108D90008E900A44E07004790580ED128E418A0CB1
:108DA0008B0DA80CA90DE82404F50CE93400F50D91
:108DB0008E828F83A3A3A3A3A3A3A3E0A2E0503634
:108DC000E8496073850C82850D83E0FE6028850A82
:108DD00082850B83E05410701D740E121F20AC822C
:108DE000AD83E82405FAE93400FBEEF91205D4E975
:108DF000700479038092AC0EAD0F850C82850D83D3
:108E0000E0F912966D120652128E7C602A128E695B
:108E100060257C007900028D0C120A78E9701890A8
:108E20000379E06401700812062E900379E4F0796A
:108E3000501207C01206227414121EEB7F0E021F7E
:108E4000FE850882850983E0FAA3E0FB120E022268
:108E5000E0F50AA3E0F50B22A3A3A3A3A3E0FCA3E0
:108E6000E0FD22E0F8A3E0F922E0F5838882A3A3E5
:108E7000E0F8A3E0F9E8FEE9FFEE4F229002EAE015
:108E8000F8A3E0F9E8492274F4121F2C74F2121EC0
:108E9000D5EAFE8C0B75F006E9A42420F5088518A8
:108EA00082851983AC82AD837A0E1292DF704A7C80
:108EB000061290047043740C121F20128E63E8F5A2
:108EC00009E50B6005EE42098004EEF452098509BC
:108ED00082AA82E86A7001E9601B740C121F20EA02
:108EE000F0A3E4F0851882851983AC82AD837A0EF5
:108EF000A9081207B479018002790002872A74F266
:108F0000121F2C74E6121ED5890A8A088B09ECFE02
:108F1000EDFF740C121F201292D26003028FB87CF6
:108F20000679FF740C121F2012900C6003028FB898
:108F30007470250AF50B851882851983AC82AD8380
:108F40007A0C1292DF6003028FFD851882851983E7
:108F5000AA82AB83120604E508450970217C0C79CE
:108F6000001290066003028FFD7C0C7D0079008565
:108F70001882851983AA82AB831204AE806185189A
:108F800082851983AC82AD83AA08AB091205FE8ADB
:108F90000C8B0DA80CA90DE849702CEE4F601985BB
:108FA0001882851983AC82AD837A007B001205FE9E
:108FB000EAF8EBF9EA4B70047900804388828983F0
:108FC000E508F0A3E509F0129084FAEE6A7001EF6B
:108FD000602BEEF04F700888828983E4F0A3F0855F
:108FE0001882851983AA82AB8312060485188285AC
:108FF0001983AC82AD837A0CA90B1207B479017482
:109000001A02984B79FF851882851983AA82AB834F
:10901000120514E92274F7121F2C7F00EF75F0037C
:10902000A4F8A9F0EC28F8ED129048E06A7003A3C8
:10903000E06B7006E8FAE9FB800B0FEFC394044085
:10904000DB7A007B0002937D39F988828983227460
:10905000F7121F2C7E00EE75F003A4F8A9F0EA28A1
:10906000F8EB129048E0F4FCA3E0F4FD88828983D9
:10907000ECF0A3EDF0129084F4F00EEEC3940440F3
:10908000D502937DE82402F582E93400F583E022DD
:1090900074EE121F2C74F4121ED5EAFEEBFF8C0A3C
:1090A0008D0B741E121F20E0F50CA3E0F50D74204B
:1090B000121F20E0F508A3E0F5097422121F20E03A
:1090C000F510A3E0F511EE4F7005790A0291B51283
:1090D0000616E9F50EC3940A4023750F007C067945
:1090E000FFE50F75F00EA4FAABF074EC2AFA7402E7
:1090F0003BFB12901070030291BF850F0EE50EC36B
:10910000940A40030291B375F006E50EA4F50FEE44
:10911000FCEFFD7A0E74201291D0E50A450B600B2E
:10912000AC0AAD0B7A1B74211291D0E50C450D6091
:109130000BAC0CAD0D7A1B74221291D0E5084509D9
:10914000600BAC08AD097A1074231291D0E510457C
:1091500011601BAC10AD117A1074241291D07424DC
:10916000121F20AC82AD837A0474251291D07C0C3E
:109170007D0079FF1298DC7A0C7470250EF91207C5
:10918000B475080E750900780812213FEEFCEFFD5A
:10919000E50E75F00EA4F8A9F074EC28FA74023903
:1091A000FB129227121EEB900378E0600312065E1A
:1091B00012064CA90E740C121EEB7F0A021FFE054C
:1091C0000FE50FC3940A50030290DD750E0A80E389
:1091D000250FF91207B42274F4121F2C74F2121E18
:1091E000D5EAFEEBFFE9C3940A5004EE4F70047910
:1091F00002802D8518828519831292D2F508701E7F
:10920000750A06750B00780A12213F7402121F209E
:10921000AC82AD83EEFAEFFB129227121EEBA90887
:1092200002872AAA08AB0912049674022274F41267
:109230001F2CEAFEEBFF750800750A06750B007817
:109240000A12213FEEFCEFFDE50875F00EA4F8A927
:10925000F074EC28FA740239FB1204A87402121E8E
:10926000EBE96004A908800B0508E508C3940A40EF
:10927000C8790A02872F74F7121F2C74F0121ED5BA
:10928000EAFEEBFF750800851882851983AC82AD74
:10929000837A1075F006E508A424231292DF701F6C
:1092A0007C101290047018EEFCEFFD851882851971
:1092B00083AA82AB83120982E97004A908800B0596
:1092C00008E508C3940A40BF790A7410121EEB0225
:1092D000937DAC82AD837A0E75F006E9A42420F963
:1092E0001207BAE92274F7121F2C750800E50875F9
:1092F000F00EA4F8A9F074EC28FE740239FFEEFC1D
:10930000EFFD7A0E75F006E5081292DC602C7C0603
:109310007D0079FFEEFAEFFB1204AE7C067D00794A
:10932000FFEE2406FAEF3400FB1204AEEE240CF537
:1093300082EF3400F583E4F0A3F00508E508C39458
:109340000A40AA900378E0600312065E12064C8081
:109350002C74F7121F2C7E007F007C0679FFEF75BE
:10936000F00EA4FAABF074EC2AFA74023BFB1290F4
:109370001070010E0FEFC3940A40DFEEF97F010277
:109380001FFE74F7121F2C7E00EEF91206340EEE4B
:10939000C3940A5003E960F180E374F3121F2C7444
:1093A000CB121ED5E9FF75F006A4F5087420250838
:1093B000FE7427121F20AC82AD837A0EEE1292DF6C
:1093C000600302949C7C0679FF7427121F20129080
:1093D0000C600302949C7C0E7D0079FF7427121FA1
:1093E00020AA82AB831204AE7C1B7D0079FF740C33
:1093F000121F20AA82AB831204AE7C0C7D0079FF81
:10940000851882851983AA82AB831204AE74271251
:109410001F20AC82AD837A0EEEF91207B4E9F5098C
:10942000740C121F20AC82AD837A1B74211294AB92
:10943000FE740C121F20AC82AD837A1B742212942E
:10944000ABF50A740C121F20AC82AD837A10742322
:109450001294ABF50B740C121F20AC82AD837A1002
:1094600074241294ABF50C740C121F20AC82AD83E3
:109470007A0474251294ABF508851882851983AC9B
:1094800082AD837A0C74702FF91207B4E9F8EE45B7
:109490000A450B450C45084842098003750900A997
:1094A000097435121EEB7F05021FFE2508F912070D
:1094B000B4E92274F7121F2CE99002D0F0120622B0
:1094C00002937D74F2121F2C74FB121ED58A088B36
:1094D00009EB548070030295679002D0E0F9120402
:1094E000D88A0A8B0BA80AA90BE8FEE9FFE84960B5
:1094F0006CEE2404F8EF3400F98E828F83E0245060
:10950000603814600624E1604A804B88828983E0D9
:1095100070448E828F83A3A3A3A3A3A3A312215677
:109520008E828F83128E588E828F83A3A31296739E
:109530001205E07402121EEB801C88828983E064AD
:109540001E701379008E828F83A3A3129673120567
:10955000DA80031205ECEEFAEFFB1204C6AA08E566
:10956000096480FB029668EAA2E0400302966490D8
:10957000037A128E507403121F2085820C85830D8E
:10958000780C12213F750C02750D00780C12213FEA
:10959000750C2A750D85780C12213F7CFF7DFF7AB2
:1095A000017B00120AD27406121EEB02964CE4F5FF
:1095B0000CF50D780C12213F7404121F2085820CCB
:1095C00085830D780C12213F7404121F2085820CB4
:1095D00085830D780C12213F7409121F2012215629
:1095E0007902EEFCEFFDAA0AAB0B120BF274081223
:1095F0001EEBE97035851882851983E0FA74011233
:109600001F20E0F9EA2400F50CE439F50DEA450DD8
:109610006018780C12213F8E828F83128E59AA0A0D
:10962000AB0B1205E07402121EEBE4F50CF50D789D
:109630000C12213F7405121F201221567CFF7DFF62
:10964000EEFAEFFB120ADE7404121EEB8A0C8B0D8D
:10965000AE0CAF0DEE4F60030295AEE5086401FA63
:10966000AB0980047A007B00740502984B85088260
:10967000850983E0FAA3E0FB22C082C0839002D078
:10968000E0F98A828B83A3129673120C04028AA5D6
:10969000C082C08374FF121ED5120628E9C394024B
:1096A000851882851983400474028002740AF0AC24
:1096B00082AD837A017905120A907401121EEB02C1
:1096C0008AA574F2121F2C74E8121ED5EAFEEBFF75
:1096D000890A8C088D097C187D0079001298E4EEC7
:1096E000F0A3EFF09002D2E0C0E07402121F20D08D
:1096F000E0F09002D3E0C0E07403121F20D0E0F04D
:10970000900A49E0C0E07417121F20D0E0F07415F1
:10971000121F20E054FEF8A3E0F9900A48E0A2E00E
:10972000E433FAE84AF87415121F2012985AA2E19D
:109730005004D2F08002C2F0E854FDFAA2F0E43303
:1097400033F8EA48F87415121F2012985AA2E35011
:1097500004D2F08002C2F0E854F7FAA2F0E433F544
:109760000C750D007403780C121EC2129853121F50
:109770002012985AA2E45004D2F08002C2F0E854B9
:10978000EFFAA2F0E433F50C7404780C121EC21246
:109790009853121F2012985AA2E55004D2F080026A
:1097A000C2F0E854DFFAA2F0E433F50C7405780C4B
:1097B000121EC2129853121F2012985AA2E250048D
:1097C000D2F08002C2F0E854FBFAA2F0E433F50CC8
:1097D0007402780C121EC2129853121F20E8F0A3D4
:1097E000E9F09002D3E0601B750C10780C12213F59
:1097F0007CD47D027406121F20AA82AB83129227AA
:10980000121EEB9002E4E06011E50A600974151283
:109810001F20E04402F07801800278007414121FC7
:1098200020E048F09002D1E06004780480027800E3
:109830007414121F20E048F0AC08AD098518828529
:109840001983AA82AB831209A67418121EEB7F0635
:10985000021FFEEA450CF8741522E8F0A3E9F09027
:109860000A48E02274F3121F2C74E5121ED5EAFE9A
:10987000EBFF8C098D0A7428121F20E0F50C75F09F
:1098800006E9A4F87408650A700474228002742141
:1098900028F50B7C1B7D0079001298DC7A1BA90B44
:1098A0001292E07032741A121F20E024F9C3940A55
:1098B0005025E50CF50B780B1221437401121F2083
:1098C000AC82AD83E509A2E0E433F9EEFAEFFB12D6
:1098D00009B87401121EEB741B0294A31298E4AC35
:1098E00082AD8322851882851983AA82AB831204F4
:1098F000AE8518828519832274F7121F2C120C76FC
:10990000750800E50875F00EA4F8A9F074EC28FEBF
:10991000740239FF7C0679FFEEFAEFFB12901070AB
:1099200009EEFAEFFB7900120C7C0508E508C394F8
:109930000A40D002937DC082C083789F79078882D5
:109940008983A3A3A3A3A3A3E4F088828983A3A309
:10995000A3A3A374FFF0E82418F8E93400F9E8643D
:10996000CF7003E9640770D69007A174FFF09007E9
:10997000A0E4F090079FF09007A2F0A3F002A89354
:1099800074E8121F2C9007A2E0F508A3E0F509E5A2
:109990000845097006120EE6029F5A85088285095D
:1099A00083E014601814601524FE601124C4700351
:1099B000029BED24C07003029BED029F5AE0F91256
:1099C00010308A0A8B0BAE0AAF0B900602E07003D0
:1099D000029B35120F88E9F875F004A4C8AAF02A92
:1099E000F9740528F514740639F515851482F58384
:1099F000E0F50AA3E0F50BEE4F7003029B12121084
:109A0000BA8A0C8B0D8C0E8D0F9084F3780C121D7E
:109A1000319084BB780C121D7F780C12213B850A93
:109A200082850B83A3A3121DC31228A67404121EE1
:109A3000EB8A108B118C128D139084FF7810121307
:109A4000F74003029B12850A82850B83A3A378103B
:109A5000121DA59084E77810121D31781012213B59
:109A60008E828F83A3A3121DC31228497404121E71
:109A7000EBE96003029B12908487780C121D317809
:109A80000C12213B8E828F83A3A3121DC31228497F
:109A90007404121EEBE97075750C008E828F83E0E2
:109AA00064016003029F5AEE65087003EF65096068
:109AB00003120F04E50C70261210BA8A0C8B0D8C61
:109AC0000E8D0F9084B7780C121D319084BB780CEA
:109AD000121D7F8E828F83A3A3780C121DB4850A7A
:109AE00082850B83A3A37808121DA590848B780828
:109AF000121D319084BB7808121D7FEE240EF58272
:109B0000EF3400F5837808121DB4029F4D750C01E7
:109B10008089E5142404FEE5153400FF8E828F83CE
:109B2000E0F91210668E828F83E0900603F0AA0A95
:109B3000AB0B029F57EE65087003EF6509700302D7
:109B40009F578E828F83E064016003029F5A120F39
:109B5000041210BA8A088B098C0A8D0B9084EF7856
:109B600008121D31780812213B8E828F83A3A31225
:109B70001DC31228497404121EEBE9706D1210BA4D
:109B80008A088B098C0A8D0B9084B77808121D31D6
:109B90009084BB7808121D7F8E828F83A3A37808E0
:109BA000121DB49005D5E06402702C8E828F83A3C1
:109BB000A37808121DA590849F7808121D31908407
:109BC000BB7808121D7FEE240EF582EF3400F5837A
:109BD0007808121DB480139084DF121DC3EE240E8A
:109BE000F582EF3400F583121DCF029F4D900602DF
:109BF000E07003029EA7120F88E9F875F004A4C86C
:109C0000AAF02AF9740528F516740639F517851691
:109C100082F583E0F514A3E0F515900603E0F875EE
:109C2000F004A4C8AAF02AF9740528F508740639C6
:109C3000F5099007A0E054077003029DD0A3E0F956
:109C40001210308A0A8B0BAE0AAF0BEE4F70030274
:109C50009DD01210BA8A0C8B0D8C0E8D0F9084F350
:109C6000780C121D319084BB780C121D7F780C1279
:109C7000213B851482851583A3A3121DC31228A638
:109C80007404121EEB8A108B118C128D139084FFBA
:109C900078101213F74003029DD085148285158336
:109CA000A3A37810121DA59084E77810121D3178B7
:109CB0001012213B8E828F83A3A3121DC312284949
:109CC0007404121EEBE96003029DD0908487780C27
:109CD000121D31780C12213B8E828F83A3A3121D9B
:109CE000C31228497404121EEBE97005750C00803C
:109CF00003750C01850882850983A3A3A3A3E0F85B
:109D000075F08AA4C8AAF02AF974D428F50A740751
:109D100039F50BAA0AFB121060AA0AAB0B12105AF3
:109D2000750E80750F00780E12213F7C007D60E576
:109D30000A2406FAE50B3401FB120FEE7402121E20
:109D4000EBA80AA90B906195E0C0E0E82486F582B3
:109D5000E93401F583D0E0F0906196E0C0E0E824BA
:109D600087F582E93401F583D0E0F0906197E0C097
:109D7000E0E82488F582E93401F583D0E0F09061D1
:109D800098E0C0E0E82489F582E93401F583D0E069
:109D9000F08E828F83E064017036120F04E50C7040
:109DA000261210BA8A088B098C0A8D0B9084B7781A
:109DB00008121D319084BB7808121D7F8E828F831C
:109DC000A3A37808121DB4851482851583029AE432
:109DD000E51665087004E51765097003029EA08505
:109DE0000882850983A3A3A3E07003029E848508EB
:109DF00082850983A3A3A3A3E0F875F08AA4C8AA67
:109E0000F02AF974D428FE740739FFEEFAEFFB123A
:109E10001060EEFAEFFB12105A7508807509007891
:109E20000812213F7C007D60EE2406FAEF3401FB2E
:109E3000120FEE7402121EEB906195E0C0E0EE246A
:109E400086F582EF3401F583D0E0F0906196E0C0B2
:109E5000E0EE2487F582EF3401F583D0E0F09061E5
:109E600097E0C0E0EE2488F582EF3401F583D0E07E
:109E7000F0906198E0C0E0EE2489F582EF3401F5BE
:109E800083D0E0F0E5162404FEE5173400FF8E824F
:109E90008F83E0F91210668E828F83E0900603F0C4
:109EA000AA14AB15029F579007A0E0540770030255
:109EB0009F5AA3E0F91210308A088B09AE08AF0947
:109EC0008E828F83E064016003029F5A120F041296
:109ED00010BA8A088B098C0A8D0B9084EF780812CF
:109EE0001D31780812213B8E828F83A3A3121DC3DC
:109EF0001228497404121EEBE970521210BA8A0833
:109F00008B098C0A8D0B9084B77808121D319084D0
:109F1000BB7808121D7F8E828F83A3A37808121D41
:109F2000B49005D5E0640270118E828F83A3A3786C
:109F300008121DA590849F029AEE9084DF121DC323
:109F4000EE240EF582EF3400F583121DCF9007A1A9
:109F50007401F0EEFAEFFB12102A7F10021FFE745C
:109F6000F0121F2CEAFEEBFFEE2402F8EF3400F9AA
:109F700088088909EE2406F8EF3400F9880A890B6D
:109F80008882F583122156850882850983121DC3B4
:109F90001210967402121EEB850A82850B83122121
:109FA00056850882850983121DC312108A74021215
:109FB0001EEBEE240EF582EF3400F583121DC31262
:109FC000109C8E828F83E06440701CEE2412F8EFA8
:109FD0003400F988828983E0906064F08882898304
:109FE000A3E09060658006906064E4F0A3F09007C1
:109FF000A2EEF0A3EFF0EE2416F582EF3400F58325
:10A00000E0F8A3E0F5838882121F2A906054E4F000
:10A01000A3F0A3F0A3F0A3F0A3F0A3F0A3F0A3F0A8
:10A02000A3F0A3F0A3F0906182E0C2E6F07591BFC7
:10A03000EE2415F582EF3400F583E064017003121D
:10A0400010CCE5E170FCEE2414F582EF3400F583CA
:10A05000E0F46003E0F5E1EE2415F582EF3400F55D
:10A06000837401F09005DBE06401706F1210BA8A0E
:10A07000088B098C0A8D0B780812213B8E828F8306
:10A08000A3A3121DC31228A67404121EEB8A088B08
:10A09000098C0A8D0B90848F780C121DA578087995
:10A0A0000C121BE274037808121CE6E50824F4F590
:10A0B00008E5093401F509900771E0600312051AFB
:10A0C000E4F50AF50B780812213B7A207B00900515
:10A0D000D4E0F91205687404121EEB7F08021FFE1B
:10A0E00074F0121F2C890874FF6508600302A26CCB
:10A0F0009007A0E05407700302A7387A00789F7990
:10A100000788828983A3A3A3A3A3E064047050EA11
:10A1100075F018A4F8A9F074A528F582740739F52C
:10A1200083E0640170487A00789F79078882898388
:10A13000A3A3A3A3A3E06404600302A1C48882894B
:10A1400083A3A3A3A3A3A3E064017078EA75F01826
:10A15000A4F8A9F074A428FA740739FB02A73C0AF2
:10A16000E82418F8E93400F9EAC3940240937A002D
:10A17000789F790788828983A3A3A3A3A3E06401BE
:10A180007057EA75F018A4F8A9F074A528F5827440
:10A190000739F583E06401704F7A00789F7907886A
:10A1A000828983A3A3A3A3A3E06401600302A2485E
:10A1B00088828983A3A3A3A3A3A3E064016003020D
:10A1C000A24880880AE82418F8E93400F9EAC39420
:10A1D00002500302A12C02A7380AE82418F8E93437
:10A1E00000F9EAC39402408C7A00789F790788824C
:10A1F0008983A3A3A3A3A3E064027061EA75F018A6
:10A20000A4F8A9F074A528F582740739F583E064F1
:10A210000170597A00789F790788828983A3A3A364
:10A22000A3A3E06402707A88828983A3A3A3A3A373
:10A23000A3E06401706BEA75F018A4F8A9F074A4A7
:10A2400028FA740739FB806F0AE82418F8E934000B
:10A25000F9EAC39402500302A19F02A7380AE82436
:10A2600018F8E93400F9EAC3940240827A00789F32
:10A27000790788828983A3A3A3A3A3E06508703D1F
:10A2800088828983A3A3A3A3A3A3E06401702EEA19
:10A2900075F018A4F8A9F074A428FE740739FF809B
:10A2A0002F0AE82418F8E93400F9EAC394025003AD
:10A2B00002A2197A007B0002A73C02A7380AE82410
:10A2C00018F8E93400F9EAC3940240A67E007F0042
:10A2D0007A00789F790788828983A3A3A3A3A3E048
:10A2E0006508701BEA75F018A4F8A9F074A528F5A4
:10A2F00082740739F583E0640170137A0180110AD2
:10A30000E82418F8E93400F9EAC3940240C87A0056
:10A31000E50814600F14700302A4D524FE70030234
:10A32000A62F80967B00789F790788828983A3A3D4
:10A33000A3A3A3E064027055EB75F018A4F8A9F08C
:10A3400074A528F582740739F583E06401704D7BAC
:10A3500000789F790788828983A3A3A3A3A3E064DD
:10A3600002600302A40B88828983A3A3A3A3A3A3EF
:10A37000E06401600302A40BEB75F018A4F8A9F0E7
:10A3800074A428F50A740739F50B02A4230BE824FA
:10A3900018F8E93400F9EBC39402408E7B00789FF3
:10A3A000790788828983A3A3A3A3A3E0640460033D
:10A3B00002A45FEB75F018A4F8A9F074A528F58243
:10A3C000740739F583E06401600302A4717B0078AF
:10A3D0009F790788828983A3A3A3A3A3E064046071
:10A3E0000302A47C88828983A3A3A3A3A3A3E0641C
:10A3F00001600302A47CEB75F018A4F8A9F074A422
:10A4000028F50A740739F50B02A4940BE82418F810
:10A41000E93400F9EBC39402500302A355750A0016
:10A42000750B00EAA2E0400302A4C7850A82850BEF
:10A4300083A3A3780C121DA5908493780C121D3170
:10A44000780C12213B8E828F83A3A3121DC3122886
:10A45000497404121EEBE9706EEEFAEF02A15B0B79
:10A46000E82418F8E93400F9EBC39402500302A37E
:10A47000A2EAA2E05058EEFAEFFB80560BE824184F
:10A48000F8E93400F9EBC39402500302A3D3750A30
:10A4900000750B00EAA2E0502E850A82850B83A38B
:10A4A000A3780C121DA5908493780C121D31780CA2
:10A4B00012213B8E828F83A3A3121DC312284974DD
:10A4C00004121EEBE96092AA0AAB0B02A73C7A00C9
:10A4D0007B0002A73C7B00789F790788828983A351
:10A4E000A3A3A3A3E064047052EB75F018A4F8A929
:10A4F000F074A528F582740739F583E06401704A89
:10A500007B00789F790788828983A3A3A3A3A3E014
:10A510006404600302A5A388828983A3A3A3A3A3E1
:10A52000A3E06401707DEB75F018A4F8A9F074A4A1
:10A5300028F50A740739F50B02A5BB0BE82418F8B7
:10A54000E93400F9EBC3940240917B00789F7907CE
:10A5500088828983A3A3A3A3A3E06401600302A567
:10A56000F7EB75F018A4F8A9F074A528F582740724
:10A5700039F583E06401600302A6097B00789F79C6
:10A580000788828983A3A3A3A3A3E06401600302D5
:10A59000A61488828983A3A3A3A3A3A3E064017064
:10A5A0007380830BE82418F8E93400F9EBC39402B4
:10A5B000500302A506750A00750B00EAA2E04003ED
:10A5C00002A4C7850A82850B83A3A3780C121DA55C
:10A5D000908493780C121D31780C12213B8E828F5F
:10A5E00083A3A3121DC31228497404121EEBE96051
:10A5F0000302A4C702A4590BE82418F8E93400F9AF
:10A60000EBC39402500302A550EAA2E0501AEEFAFE
:10A61000EFFB80180BE82418F8E93400F9EBC39439
:10A6200002500302A581808D7A007B0002A73C7B4B
:10A6300000789F790788828983A3A3A3A3A3E064FA
:10A64000017040EB75F018A4F8A9F074A528F58204
:10A65000740739F583E0640170387B00789F7907CF
:10A6600088828983A3A3A3A3A3E06401600302A655
:10A67000F488828983A3A3A3A3A3A3E064017074D5
:10A6800002A5260BE82418F8E93400F9EBC394027C
:10A6900040A37B00789F790788828983A3A3A3A323
:10A6A000A3E064027063EB75F018A4F8A9F074A538
:10A6B00028F582740739F583E06401705B7B0078CC
:10A6C0009F790788828983A3A3A3A3A3E064027070
:10A6D0004F88828983A3A3A3A3A3A3E0640170404E
:10A6E000EB75F018A4F8A9F074A428F50A740739DA
:10A6F000F50B80410BE82418F8E93400F9EBC3941A
:10A7000002500302A66002A5B50BE82418F8E9344C
:10A7100000F9EBC394024080EAA2E0501B02A45966
:10A720000BE82418F8E93400F9EBC394024094755F
:10A730000A00750B0002A5BB7A007B0002A0DB7447
:10A74000F6121F2C8909750800789F79078882897D
:10A7500083A3A3A3A3A3A3E0600302A81BE508753A
:10A76000F018A4F8A9F074A428FE740739FF8E82AB
:10A770008F83A37401F08E828F83E509F01210BAE3
:10A780008E828F83A3A3121DCF8E828F83A3A3A358
:10A79000A3A3A3E4F0A3F09084DF121DC3EE240E64
:10A7A000F582EF3400F583121DCFEE2414F582EF0D
:10A7B0003400F5837401F0EE2415F582EF3400F5D2
:10A7C000837401F0EE2416F582EF3400F583E4F093
:10A7D000A3F09007A0E04509F090079FE004F06423
:10A7E00001600C748065096006744065097019E5A4
:10A7F0000875F018A4F8A9F074A428F8740739F9BA
:10A800009007A2E8F0A3E9F0E50875F018A4F8A90C
:10A81000F074A428FA740739FB80180508E8241896
:10A82000F8E93400F9E508C39402500302A74D7A11
:10A83000007B0080007F02021FFEC082C0838A82EC
:10A840008B83E0F8A3E0F98A828B83E4F0A3F0889D
:10A85000828983A3F088828983E0F4F89007A0E0DE
:10A8600058F090079FE014F0700B9007A2E4F0A35B
:10A87000F09005D5F0801CC082C08390079FE060F7
:10A880000A9007A2E0FAA3E0FB80047A007B008034
:10A8900002E0F9D083D082020122C082C083E9FBAA
:10A8A0007A00789F790788828983A3A3A3A3A3E072
:10A8B0006B7016EA75F018A4F8A9F074A528F58253
:10A8C000740739F583E0F980110AE82418F8E934AF
:10A8D00000F9EAC3940240CE790080B7C082C083F9
:10A8E0009007A080ACC082C08390079F02A891749B
:10A8F000F6121F2CEAFEEBFF9061D0E0C0E0EE24E0
:10A9000000F582EF3401F583D0E0F09061D7E0FAF2
:10A910009061D5E0C39A547FC0E0EE2401F582EF48
:10A920003401F583D0E0F0EE2402F8EF3401F99021
:10A9300061D6E0C39A547F88828983F0701A90614F
:10A94000C5E0A2E45012E0A2E7500DEE2402F58229
:10A95000EF3401F5837480F012115CEE2401F5826E
:10A96000EF3401F583E07034EE2402F582EF340118
:10A97000F583E070279061C5E0A2E4501FE0A2E7F4
:10A98000501AEE2402F582EF3401F5837480F0EE64
:10A990002401F582EF3401F5837480F075E1957838
:10A9A00000EE2400F582EF3401F583E0602790612A
:10A9B000D3E0C0E08808EE2508F582EF3400F58387
:10A9C000D0E0F008EE2400F582EF3401F583E0F9E1
:10A9D000E8C39940D975E19102A83574F6121F2C8D
:10A9E000EAFEEBFF9061C8E0C0E0EE2403F582EFE1
:10A9F0003401F583D0E0F09061CFE0FA9061CDE0D2
:10AA0000C39A547FC0E0EE2404F582EF3401F5834D
:10AA1000D0E0F0EE2405F8EF3401F99061CEE0C308
:10AA20009A547F88828983F0701A9061C5E0A2E011
:10AA30005012E0A2E3500DEE2405F582EF3401F54B
:10AA4000837480F0121162EE2404F582EF3401F574
:10AA500083E07034EE2405F582EF3401F583E07075
:10AA6000279061C5E0A2E0501FE0A2E3501AEE2457
:10AA700005F582EF3401F5837480F0EE2404F5824D
:10AA8000EF3401F5837480F01211687A00EE24032C
:10AA9000F582EF3401F583E0602F9061CBE0C0E0F8
:10AAA0008A08EE2508F8EF3400F9E82480F582E9F9
:10AAB0003400F583D0E0F00AEE2403F582EF340190
:10AAC000F583E0F8EAC39840D175E18102A83574B6
:10AAD000F2121F2C8908A808E875F08AA4C8AAF009
:10AAE0002AF974D428F8740739F99061C6E0FDE0BA
:10AAF00054F0F075E1817C00E82403F582E934012B
:10AB0000F583E0602B8C0AE8250AFAE93400FBEAB9
:10AB10002480F582EB3400F583E09061CAF00CE804
:10AB20002403F582E93401F583E0FAECC39A40D5B9
:10AB3000E82405F582E93401F583E060049061CEF4
:10AB4000F0E82404F582E93401F583E060049061C3
:10AB5000CDF0ED9061C6F0A808E875F08AA4C8AA07
:10AB6000F02AF974D428F8740739F9E0FCE0540F9E
:10AB7000F075E1917A00E82400F582E93401F5836B
:10AB8000E060238A0AE8250AF582E93400F583E0CB
:10AB90009061D2F00AE82400F582E93401F583E0FF
:10ABA000FBEAC39B40DDE82402F582E93401F5832A
:10ABB000E060049061D6F0E82401F582E93401F503
:10ABC00083E060049061D5F0EC9061C6F085088266
:10ABD000AE82EEF875F08AA4C8AAF02AF974D428D7
:10ABE000F50A740739F50B750C80750D00780C1299
:10ABF000213FE50A2406FCE50B3401FD7A007B6069
:10AC0000120FEE7402121EEBA80AA90BE82486F5B7
:10AC100082E93401F583E0906195F0E82487F582BC
:10AC2000E93401F583E0906196F0E82488F582E943
:10AC30003401F583E0906197F0E82489F582E934E6
:10AC400001F583E0906198F0EE75F004A4CEA8F0D1
:10AC500028FF74052EF58274063FF583E0F8A3E023
:10AC6000F5838882E0648070079005D57408803F82
:10AC7000900C38746CF0A37410F0A3746CF0A3748F
:10AC800010F0A3746CF0A37410F0A3746CF0A374B0
:10AC900010F0A37418F0A37410F0A3746CF0A374F4
:10ACA00010F0A37472F0A37410F09005D57407F03F
:10ACB000900C467418F0A37410F0A37418F0A374E9
:10ACC00010F0A37418F0A37410F0A37418F0A37418
:10ACD00010F0A37418F0A37410F0A37418F0A37408
:10ACE00010F07F06021FFE74F0121F2C74FD121E5E
:10ACF000D57402121F20E9F08A088B098C0A8D0B8B
:10AD00007415121F20E0FEA3E0FF851882851983C9
:10AD1000E4F0A3F08E828F83A3AA82AB83900C7C95
:10AD2000780C121DA57808790C12157970188E828E
:10AD30008F83746912B1C6746EF0A37466F0A30AAF
:10AD40000AAB8302B1617808790812157960118E17
:10AD5000828F83746E12B1C67461F0A3746E80DD4D
:10AD6000900C80780C121DA57808790C1215A5504E
:10AD70000302AE119084E3780C121DA57808790CBB
:10AD8000121579600302AE657417121F20E070037C
:10AD900002AEA7851882851983C082C083741312FE
:10ADA0001F2012BC04D083D08212B19F502C851872
:10ADB00082851983C3E094FCA3E094FFA2D265D0FE
:10ADC0003340177402121F20E412BCD8F974131216
:10ADD0001F20C3E098F0A3E099F07413121F201213
:10ADE000B1BC7418121F20E0700302AEA4741712D5
:10ADF0001F20E402AEA6900C84780C121DA57808E2
:10AE0000790C1219FC851882851983E0240A12BD79
:10AE100015900C88780C121DA57808790C1215A5D0
:10AE200040D4900C8C780C121DA57808790C121562
:10AE3000A5400302AD88900C8C780C121DA57808F3
:10AE4000790C1219FC12BD0C80D8900C84780C126D
:10AE50001DA57808790C121640851882851983E0A3
:10AE600024F612B1BF900C90780C121DA5780879C9
:10AE70000C1215F440D4900C80780C121DA57808A3
:10AE8000790C1215F4400302AD88900C8C780C12EA
:10AE90001DA57808790C1216408518828519831231
:10AEA000B1BC80D27401F07402121F20E060077AF6
:10AEB000007B0002AFB312B1AB507D8E828F8374E2
:10AEC00030F0EAFEEBFF7413121F20E0FCA3E0FD5C
:10AED000EC4D70087418121F20E0600B8E828F8377
:10AEE000742EF0A30EAF837A007B0080118E828FC8
:10AEF00083743012B1E77413121F2012B1BCEA241C
:10AF0000FF1AEB34FFFB85188285198312B1935029
:10AF10000B7413121F2012BC084970D1851882854A
:10AF2000198374FFC39CF874FF9DF912B19F5003FD
:10AF300002B0817A0102AEB185188285198312BCF4
:10AF400004C3E498FAE499FB806985080C85090D2F
:10AF5000850A0E850B0F780C12148EAC0CE50D33A0
:10AF600095E0F50EF50F780C1214167808790C128E
:10AF700017C0900C8C780C121DA57808790C12164D
:10AF800040EC12B1E1EAF8EBF9E824010AE93400F7
:10AF9000FBE849701E7413121F2012BC0849700888
:10AFA0007418121F20E0600B8E828F83742EF0A322
:10AFB0000EAF837413121F2012B193508D900C9416
:10AFC000780C121DA57808790C1215A5400302B063
:10AFD000817C01EE24FFF8EF34FFF97415121F2075
:10AFE000E0F508A3E0F50988828983E0642E60100B
:10AFF000E02CF0643A70077430F07C0180027C0031
:10B00000E8FAE9FBEA24FF18EB34FFF9C3E5089AF4
:10B01000E5099B40D2ECA2E050677402121F20E0C9
:10B020006036EEF8EF800A12B17EE824FF18E934AA
:10B03000FFF9C3E50898E50999501812B16BE0646F
:10B040002E70E4E824FEF582E934FFF58312B1782E
:10B05000F980D712BD0C801E8E828F83A3AE82AF83
:10B0600083EEF8EF800612B16B12B178F9C3E508F0
:10B0700098E5099940F07415121F2012BC23743111
:10B08000F07417121F20E07005801A1EAF83EE24A3
:10B09000FFF582EF34FFF583E0643060EEE0642E6C
:10B0A00070031EAF837402121F20E0700302B15DB3
:10B0B00012B1E3A3A98312B1AB8E828F83501474B3
:10B0C0002DF00EE9FF85188285198312BC4C12B150
:10B0D000D48006742BF00EE9FF7C007D00EE240A7C
:10B0E000FEEF3400FFEC24010CED3400FD12B185BD
:10B0F000121E42EA12B1E112B185121E4212B1EEE5
:10B100004970E2C3EC9402ED12BBB540D8ECFAED05
:10B11000FBC3E49CF8E49DF9EE28F582EF39F58352
:10B12000E0C0E0C3E49AF8E49BF9EE28F8EF39F9BF
:10B13000E82CF8E93DF9E824F5F582E934FFF583D8
:10B14000D0E0F0EC24FF1CED34FFFDC3EC9401EDE6
:10B1500012BBB550BCEE24F6FEEF34FFFFEEFAEF63
:10B16000FB7403121EEB7F08021FFEE824FFFAE9BE
:10B1700034FFFB8A828B832212B17E18EB22E08897
:10B18000828983F02285188285198312BC597A0A34
:10B190007B0022C3E09AA3E09BA2D265D03322C3F6
:10B1A000E098A3E099A2D265D03322851882851950
:10B1B00083C3A3E09400A2D265D03322E024FFF041
:10B1C000A3E034FFF022F0EAFEEBFF8E828F8322B1
:10B1D000A3E03400F9851882851983E8F0A3E9F02B
:10B1E0002224308E828F83F0A3AE82AF8322851813
:10B1F0008285198312B1F822E8F0A3E9F08518825C
:10B20000851983E02274F0121F2C74B0121ED585AC
:10B21000188285198312BCBE7418121F20ECF0A38B
:10B22000EDF0740F121F20E4F0A380227460121F4F
:10B230002012BBF47404121F20E0F97418121F20AE
:10B2400012BC23121F2A740F121F2012BBBDF01252
:10B25000BC37FA12BCF7121F20EAF074256A60109E
:10B26000E070C9740F121F2012BBF4745002B16356
:10B2700012BC3764257019851882851983E0240172
:10B280000812B1D07460121F2012BBF4792580AB74
:10B29000740E121F20E4F0740D121F20E4F0740CE1
:10B2A000121F20E4F07405121F20E4F0741E121F18
:10B2B00020A882A9837402121F2080157405121F12
:10B2C00020E070077405121F20EAF08518828519A6
:10B2D0008312B1F412BBEB12BC7EFA24E060DD24D1
:10B2E000FD601724F860DD24FE600624FD600F80F9
:10B2F00011740C121F20E00480D0740D80F5740EC0
:10B3000080F112BC7E642A705B7462121F2012BC32
:10B3100089FB8A828B83E0FCA3E0FD740A121F2064
:10B32000ECF0A3EDF0EA24020A0AEB3400FB7462AD
:10B33000121F2012BCB6740A121F2012B1B1501F86
:10B34000740A121F2012BBF4C3E49AFAE49BFB7444
:10B350000A121F2012BCBE740C121F20E004F0124F
:10B36000B1D5804A740A121F20E4F0A3802D740A1C
:10B37000121F2012BC0875F00AA4F8AAF075F00A92
:10B38000E9A42AF9E50828F8E439F9E824D0F8E92D
:10B3900034FFF9740A121F2012BD1C12BCD8F583A9
:10B3A0008882E0F50874D02508C3940A40C0740C64
:10B3B000121F20E06007740E121F20E4F012BC3749
:10B3C000642E600302B450851882851983E024013D
:10B3D00008A3E03400F912B1EE12BC28E0642A7030
:10B3E0002C7462121F2012BC3DF8A3E0F9888289F8
:10B3F00083E0FEA3E0FFE824020808E93400F974C2
:10B4000062121F2012BC7112BD1CF080477E007FAB
:10B410000085188285198312BC4674D02508C39410
:10B420000A5031EE75F00AA4FEA8F075F00AEFA4F8
:10B4300028FFE5082EF8E43FF9E824D0FEE934FFC0
:10B44000FF851882851983E02401F812B1D080C1EC
:10B450007EFF7FFF7A0085188285198312BBE685FF
:10B460001882851983E0FBA3E0F5838B82E024B486
:10B47000600824E4600524FC70040A12B1D512BCF3
:10B4800037FB12BCF7121F20EBF0700302BA5B24EB
:10B49000BB700302B92124FE700302B90324EF70CC
:10B4A0000302B64D24F5700302B55214700302B6C0
:10B4B000F214700302B92114700302B91F1470034F
:10B4C00002B90324FE700302B6F224FB6024147058
:10B4D0000302B63D14700302B64D24FD700302B59D
:10B4E0008B24FE700302B64D24FD700302B64D029C
:10B4F000BA677462121F2012BCB0121F2012B1DB97
:10B50000EAA2E0740F5033121F20E0FCA3E0FD33E9
:10B5100095E0FE7406121F2012BC91ECF0A3EDF032
:10B52000A3EEF0A3F07462121F2012BC98121F2029
:10B5300012BC71E8F0A3E902B24E121F2012BC0443
:10B540007406121F2012BC89F5838A82E8F0A3E9F1
:10B5500080D27462121F2012BC91E0C0E0741E12EF
:10B560001F20D0E0F07462121F2012BC98121F201E
:10B5700012BC7112B1DB741F121F20A882A9837440
:10B5800012121F20E8F0A3E902BA7E7462121F2093
:10B5900012BCB0121F2012B1DB7406121F2012BCA5
:10B5A000B0121F20E02402FAA3E03400FB74621200
:10B5B0001F2012BCB67402121F2012B1DBE84970C2
:10B5C0000C7402121F207469F0A3740CF012BBB348
:10B5D00050047E107F277408121F20E4F0A3800817
:10B5E0007408121F2012BBBDF07402121F2012BC7F
:10B5F0000488828983A3AA82AB837402121F20125B
:10B60000BCBE88828983E0600A7408121F2012BCC5
:10B610000D40CD7402121F2012BBD47412121F20D1
:10B6200012B1DB7408121F2012BC4CF97412121FE5
:10B6300020E028F8A3E039F9740202B581740D12F4
:10B640001F20E06008EE4F70047E017F00746212DC
:10B650001F2012BCB0121F2012BD04121F20E06474
:10B660007070387406121F2012BCA6121F2012BC64
:10B67000DF121F20E0240212BC68121F2012BC71CE
:10B6800012B1DB900C98121DC3741A121F20121DE8
:10B69000CF7405121F20E4F002B782EAA2E074061C
:10B6A000501B121F2012BC23121DC37414121F2022
:10B6B000121DCF7406121F20E024048012121F20D6
:10B6C00012BCA6121F2012BCDF121F20E02402129F
:10B6D000BC68121F2012BC7112BD04121F20E0644E
:10B6E0006F7005900C9C809EE0647570969084EF5E
:10B6F00080947462121F2012BCB0121F2012B1DBA2
:10B70000EAA2E074065016121F2012BC2378081219
:10B710001DA57406121F20E02404F8801B121F20B0
:10B7200012BC46A3E0F5093395E0F50AF50B740663
:10B73000121F20E02402080812BC69121F2012BC4C
:10B74000EC121F207808121DB49084E378081213BD
:10B75000B140217405121F20742DF07414121F20A3
:10B760007808121DA57808121CD57414121F2078B1
:10B7700008121DB49084EF121DC3741A121F2012F8
:10B780001DCF744F121F20A882A9837402121F209C
:10B7900012B1DB7412121F2012BCEF121F207808A6
:10B7A000121DA5E5084509450A450B6009741112EB
:10B7B0001F20740180067411121F20E4F0EE4F70F8
:10B7C00008E0A2E0400302B8767402121F2012BC07
:10B7D0001D121F2012BCEF121F20780C121DA57421
:10B7E0001A121F207808121DA5780C7908121C6205
:10B7F00074582508F582740C3509F583E0C0E074AF
:10B8000002121F2012BC23D0E0F07414121F207803
:10B810000C121DA5741A121F207808121DA5780C91
:10B820007908121C627414121F20780C121DB47453
:10B8300014121F207808121DA5E5084509450A4580
:10B840000B708612BBB3502E740E121F20E06026C0
:10B850007405121F20E06004D2F08002C2F0740A66
:10B86000121F2012BBC6800E7402121F2012BCD001
:10B87000121F2012BC307402121F2012BBD4744F4E
:10B88000121F20C082C0837402121F2012BBF4D08A
:10B8900083D082E582C39AFAE5839BFBC3EA9EEBE1
:10B8A00012BC1640C3740D121F20E0700302BA7F51
:10B8B0007411121F20E0A2E0400302BA7F74041248
:10B8C0001F20E064786005E06458701E12B17EE8C5
:10B8D00024FF18E934FFF97402121F2012BCD012A1
:10B8E0001F2012BC23743002BA7EE0646F60030232
:10B8F000BA7F7402121F2012BC846430700302BA33
:10B900007F80D47408121F207401F0A3E4F0740443
:10B91000121F20E024FEF0EE4F700F7E018012E433
:10B92000F07408121F20E4F0A3F012BBB350047EA1
:10B93000067F007462121F2012BCB0121F2012B1C9
:10B94000DB7406121F2012BC23780C121DA574068E
:10B95000121F20E0240412BC68121F2012BCEC123B
:10B960001F20780C121DB49084E37808121DA5786E
:10B970000C79081215F450227405121F20742DF052
:10B980007414121F207808121DA5E50BB2E7F50B01
:10B990007414121F207808121DB4740A121F20128A
:10B9A000BC04741E121F20E58228F8E58339F9745F
:10B9B00002121F2012B1DB740D121F20E0F508786F
:10B9C000081221437409121F20E0F508780812219B
:10B9D000437404121F201221568E088F0978081212
:10B9E000213F740A121F20E0F9741A121F20121D41
:10B9F000C31213907406121EEB7412121F2012BC95
:10BA0000BE740E121F20E060767405121F20E060E5
:10BA100004D2F08002C2F0740A121F2012BBC67456
:10BA200012121F20C082C0837402121F2012BC0495
:10BA3000D083D082E0C398F8A3E099F9C3E89EE9E7
:10BA400012BC16503A7402121F2012BC1D121F2085
:10BA500012BCD0121F2012BC3080C48518828519F8
:10BA60008312BBDD12B1D47402121F207478F0A3CC
:10BA7000740CF07412121F20747BF0A3740CF07419
:10BA800012121F20C082C0837402121F2012BC0435
:10BA9000D083D082E0C398FEA3E099FF740A121FFE
:10BAA0002012BC0D500A7408121F20E4F0A380304D
:10BAB0007405121F20E06004D2F08002C2F0740A04
:10BAC000121F20E0C39EF8A3E09FF9A2F0E433FA2E
:10BAD000E89AF8E99400F97408121F20E8F0A3E945
:10BAE000F0740C121F20E0702B80197460121F205C
:10BAF00012BBFA121F2012BC23121F2A740F121F2E
:10BB00002012BD127408121F2012BCC4121F201272
:10BB1000B1B150D77405121F20E060507460121F3D
:10BB20002012BBF47405121F20E0F97418121F20B4
:10BB300012BC23121F2A802C7460121F2012BBF427
:10BB40007402121F2012BC3DF97418121F2012BC7F
:10BB500023121F2A7402121F2012BBE67402121F46
:10BB60002012B1DB740F121F2012BD12EE24FF1E33
:10BB7000EF34FFFFC312BBB550BE740C121F20E0A0
:10BB8000700302B24F7408121F2012BCC4121F208F
:10BB900012B1B1500302B24F7460121F2012BBFAEF
:10BBA000121F2012BC23121F2A740F121F2012BD55
:10BBB0001280D2C3EF9400A2D265D03322E02401D8
:10BBC000F0A3E0340022A2F0E433F8E098FEA3E012
:10BBD0009400FF2212BBD82212BBDDF922E024FF21
:10BBE000F8A3E034FF22E012BBEB222401F8A3E02B
:10BBF0003400F922E0FAA3E0FB22E0FAA3E0FB79AB
:10BC00002074182212BC592212BC59E822C3E09EAB
:10BC1000A3E012BC16229FA2D265D0332212BBD859
:10BC200074022212BC2722E0F8A3E0F58388822266
:10BC300012BC277430F02285188285198312BC410A
:10BC40002212BC5FE02212BC41F5082212BC59C38B
:10BC5000E498F8E4992212BC5FE0F8A3E0F922E04E
:10BC6000F8A3E0F583888222F8A3E03400F9746237
:10BC70002212BC7522E0FAA3E0F5838A822285189D
:10BC80008285198312BC75E02212BC75E0FAA3E02C
:10BC90002212BC4112BC282212BC412402F8A3E0AB
:10BCA0003400F974622212BC56E8FAE9FB741422DB
:10BCB00012BC56740622E0FCA3E0F5838C82EAF005
:10BCC000A3EBF022E024FFF0A3E034FFF07408229D
:10BCD000E8F0A3E9F074022212B1FCF8A3E022EA32
:10BCE000F0A3EBF0A3E4F0A3F074062212BC75E815
:10BCF000F0A3E9F0741422851882851983E02401E9
:10BD00000812BD2AE8F0A3E9F074042285188285A0
:10BD10001983E02401F0A3E03400F02212B1F824EA
:10BD200001F812BD2AE8F0A3E922A3E03400F98566
:10BD300018828519832274F6121F2C9004E474FE75
:10BD4000F0A304F09004E7F09004E6F07A018A088A
:10BD500075090074027808121EC212CB57EA888255
:10BD60008983700774FEF0A304800474FFF0A3F0CD
:10BD700088828983A3A3A3F088828983A3A3F00A7E
:10BD8000EAC3940240C87AFC7B0A120B507A4A7BC1
:10BD90000B120DF0790002C8F974F2121F2CEAFEA2
:10BDA000EBFF8E828F8312C373604612CA8912BE64
:10BDB000D3750B00780A12213F8A828B83A312214C
:10BDC0005612C32B121EEBE9702C8508828509835D
:10BDD00012BED3780A12213F8A828B83A312215686
:10BDE0007C027D007A2E7B8512C333121EEBE97034
:10BDF00005790202BEBF900C1412C373600CC3E439
:10BE000098FAE499FB12BEC45005790102BEBF7ACC
:10BE1000067B001205328A0A8B0BEA450B70057906
:10BE20001302BEBF7A007B008040900C1412C847FA
:10BE30008A0C8B0D7403780C121EC285088285094A
:10BE400083E0250CF8A3E0350D8882F583A3A3A336
:10BE5000A3ECF0A3EDF0900C14E02401F0A3E03487
:10BE600000F0EA24010AEB3400FB12BEC440BB859B
:10BE70000A82850B83E4F0A3F0750804F5097808BD
:10BE800012213FEEFCEFFDE50A2402FAE50B12C891
:10BE90003A121EEB9004EC12C3739004EC6017E0AE
:10BEA000FAA3E08003E8FAE9FB8A828B8312C3736A
:10BEB00070F38A828B83E50AF0A3E50BF079007FAB
:10BEC00006021FFE8E828F83E0F8A3E0F9C3EA9892
:10BED000EB992212CA9E8A828B83E0F50A22C082E5
:10BEE000C083E9900C13F0D083D08202012274F752
:10BEF000121F2CE9FE74145E60077910120E1A806E
:10BF00000BEEA2E040047902800279007F01021F5B
:10BF1000FE74F7121F2CECFEEDFFE9A2E550077945
:10BF200010120E1A8034A2E350267910120E1AE96C
:10BF30006026EE2418F582EF3400F583E0601BEEF6
:10BF40002417F582EF3400F583E06401600A800A6B
:10BF5000A2E1400479038002790080B074F4121FDA
:10BF60002C74E9121ED5EAFEEBFF8908E4F50AF508
:10BF70000B780A12213F750A02780A12213F750ACE
:10BF80001C750B85780A12213F7CFF7DFF7A017BAF
:10BF90000012CA83121EEB8A828B83E5824583607E
:10BFA0005412C9C185188285198312CB1A740212E2
:10BFB0001F207404F014121F207401F07404121F67
:10BFC00020E4F07405121F2074FFF07406121F2085
:10BFD00074FFF0E508F5097809122143790074012E
:10BFE000121F20AC82AD83EEFAEFFB120AEA740155
:10BFF000121EEB800279017417121EEB7F04021FE0
:10C00000FE74E8121F2C8A168B178C128D1374186D
:10C01000121F20E0F514A3E0F515741A121F20E09A
:10C02000F50AA3E0F50B741C121F20E0F510A3E045
:10C03000F5119004EC8006850882850983E0F508F7
:10C04000A3E0F509E5084509700302C0EE7E007F14
:10C0500000E5082404F50EE5093400F50F8008EE2C
:10C0600024010EEF3400FF85088285098312C9C3BD
:10C07000C3EE98EF9950C08E0C8F0D7403780C129C
:10C080001EC2850E82850F83E0250CF50CA3E035DA
:10C090000DF50D850C82F58312C9C1C3E89516E92B
:10C0A000951740BBC3E51298E5139940B2E50A45E0
:10C0B0000B6020780A12213F781412213F850C82F0
:10C0C000850D83E0FC7D0012CA9912C333121EEB6A
:10C0D000E9608CE5104511600F850E82850F831293
:10C0E000C67112C9C112CB14AA0CAB0D80047A0020
:10C0F0007B007F10021FFE74EE121F2CECFEEDFF82
:10C100009004ECE0FCA3E0800A8C828D8312C9C508
:10C11000E8FCE9FDEC4D700302C1B88C828D8312FE
:10C12000C9C1880889098882F583A3A3A3A3E0F580
:10C130000CA3E0F50DC3EA950CEB950D40CB8C827A
:10C140008D83A3A3E0F50EA3E0F50FE50C250EF813
:10C15000E50D350FF9C3EA98EB9950AD750A0075F6
:10C160000B00800CE50A2401F50AE50B3400F50B01
:10C17000C3E50A950EE50B950F508E850A10850BC9
:10C180001174037810121EC2E5082510F8E5093570
:10C1900011F988828983A3A3A3A3E06A7003A3E0B3
:10C1A0006B70C1EE4F600B8E828F83E50CF0A3E5C0
:10C1B0000DF0E8FAE9FB80047A007B007F0A021F99
:10C1C000FE74EC121F2C74FE121ED5EAFEEBFF74F7
:10C1D00016121F20E0F50EA3E0F50F7418121F20B1
:10C1E000E0F510A3E0F511750800750900851882C7
:10C1F000851983E4F0A3F0EE2404F50CEF3400F588
:10C200000D850C82F58312C9B9A385820A85830B3B
:10C2100074FF6A700374FF6B603B85188285198315
:10C22000858208858309780812213F8E828F83E0FA
:10C23000F508750900780812213F850A82850B836D
:10C24000122156EA24010AEB3400FB12CA83121EA3
:10C25000EB8A088B098E828F83E0F51275130078C4
:10C260001212213F850A82850B8312215612C32B9D
:10C27000121EEBE970268E828F83E0F5127812127F
:10C28000213F850A82850B831221567C027D007A2C
:10C290002E7B8512C333121EEBE96016850C828556
:10C2A0000D8312CA9A120AF68A0A8B0BA80AA90BE6
:10C2B00080628E828F83E0F512781212213F850A08
:10C2C00082850B831221567C027D007A4C7B85127D
:10C2D000C333121EEBE96031E5084509601185188A
:10C2E00082851983E0650E7004A3E0650F6006AADD
:10C2F0000EAB0F80B0850882850983A3A3A3A3E0BA
:10C3000024FFF8A3E034FF800A850C82850D83E0CA
:10C31000F8A3E0F9E5104511600312CB14AA08ABAD
:10C32000097402121EEB7F0C021FFE7C027D007A54
:10C33000307B8512090A740422C082C0839004EC09
:10C3400012C373602788828983A3A3A3A3E0FCA3FD
:10C35000E0F5838C82A3A3A3A3E06A7003A3E06B40
:10C360008882898370DAA312CA9980047A007B00DC
:10C3700002BEE7E0F8A3E0F9E8492274F3121F2CAB
:10C3800074FE121ED5EAFEEBFF8C088D09890A7433
:10C390000F121F20E0F50B851882851983AC82AD42
:10C3A00083120B38E9F50C7064E50A600E7910EE23
:10C3B000FAEFFB120E1AE9F50C7052AC08AD09EE5B
:10C3C000FAEFFB12087AE9F50C704285188285199C
:10C3D00083E0FEA3E0FF74FF650B6031EE2402F5FD
:10C3E00008EF12C8AD12213F75081E7509007808C4
:10C3F00012213FEEFCEFFD7A447B0B120B6E7404AE
:10C40000121EEB8E828F83A3A3A3E50BF0A90C74FD
:10C4100002121EEB7F05021FFE74F5121F2C74FE24
:10C42000121ED5EAFEEBFF8C088D09890A85188259
:10C43000851983AC82AD83120B387417696010E5DF
:10C440000A60167910EEFAEFFB120E1AE9600A7410
:10C4500002121EEB7F03021FFEAC08AD09EEFAEFDD
:10C46000FB12087480E974F6121F2CEAFEEBFF122F
:10C470000AE4EA4B600FEE24FFF8EF34FFF9EA28F4
:10C48000FAEB398003EEFAEFFB02C8F974F0121FE1
:10C490002C74E3121ED58A088B09EC2402FEED12DF
:10C4A000CBB2F50E741E650E7053120B3E8A0A8BCA
:10C4B0000BEA450B6042EA2403F50CEB3400F50D62
:10C4C000E4F50EF50F780E12213F8E828F83E0FD8A
:10C4D0007C00AA08AB09850C82850D8312CBC112A2
:10C4E0001EEBE50A2402FAE50B3400FB120B7485FF
:10C4F0000C82850D8374FFF0790002C66C900C13DA
:10C50000E0F46065E50EC39419505EE50EC333F8A0
:10C51000E433F9E854FCF8742828F8748239F9E80F
:10C5200024FCFAE934FFFB8A0C8B0D8A82F5831216
:10C53000CA9AEA4B6033E824FEF582E934FFF583BA
:10C5400012C37360248C828D83A385820A85830B3A
:10C550008C828D83E0F9700B850A82850B83E06401
:10C5600001700B7412650E6005790602C66C7404C6
:10C57000121F2085820E85830F780E12213F8C8238
:10C580008D83A3A3A31221568C828D83A3A3A3A37F
:10C59000A312C847850A82850B83E0FA850C828541
:10C5A0000D8312C671121F2A7404121EEBE9F50CDA
:10C5B000600302C66A7404121F20AC82AD83AA080D
:10C5C000AB098E828F83E0C333F8E433F9E854FC7F
:10C5D000F8742628F582748239F58312C671121F09
:10C5E0002AE9F50C702C8E828F83E0FD74046D6057
:10C5F000797404121F2085820A85830B780A122120
:10C600003F7C00AA08AB09900C1312CBC1121EEBA1
:10C610008058850A82850B83E0704F8E828F83E07D
:10C62000851882851983F07403121F20E9F08E8229
:10C630008F83E0F8740468600D74066860087408FD
:10C640006860037410687404121F2012C9C5740155
:10C65000121F2012CB1A851882851983AC82AD83F4
:10C66000AA08AB0912082C750C00A90C741D02C98C
:10C67000DAE0F8A3E0F583888222790002012274CF
:10C68000F0121F2C74EA121ED58A0C8B0D8C828D31
:10C690008312CA9A750A00EC2402FEED3400FF8E64
:10C6A000828F83C3E09AA3E09B4004EA4B70057934
:10C6B0000102C82F851882851983E4F0E4F508F596
:10C6C00009780812213F780812213F780812213F8B
:10C6D0008E828F8312C84712CA83121EEB8A088B80
:10C6E00009A808A909E849700302C8158882898346
:10C6F000A3AA82AB83E82404F508E93400F5098590
:10C700001882851983E0707188828983E0640270E1
:10C710000A7401121F207401F080687401121F2036
:10C720007402F012C84D75F012A4F885F00BA90B35
:10C73000E58228F582E58339F583A3A3ECF0A3ED28
:10C74000F0750E10750F00780E12213F12C8437459
:10C7500002121F20E075F012A4F8A9F0E58228F873
:10C76000E5833912C834121EEB851882851983E0DF
:10C7700004F0600302C7FA80727401121F20E064A3
:10C780000170A088828983E06402600302C81512E8
:10C79000C84DF50E750F007402780E121EC2E582A8
:10C7A000250EF582E583350FF583A3A3ECF0A3ED09
:10C7B000F0750E02750F00780E12213F12C84374F7
:10C7C00002121F20E0F50E7402780E121EC2E582DE
:10C7D000250EF8E583350F12C834121EEB8518823A
:10C7E000851983E004F0C39405500F8508828509FC
:10C7F00083E0F47003A3E0F47003750A01850882F6
:10C80000850983E02401FAA3E03400FBE50AA2E0F5
:10C81000400302C6BC851882851983E07004790A3A
:10C82000800DAC82AD83AA0CAB0D12083879007470
:10C830001602C9DAF9E82404FAE93400FB12049676
:10C840007402228A828B83E0FCA3E0FD22850882A9
:10C85000850983E0FCA3E0FD851882851983E02229
:10C8600074F6121F2C12C8FE4004EA4B70047901C2
:10C870008033E4F508F509780812213F8C828D8316
:10C88000A3A3A3A3E0F508780812213F12C8A712BA
:10C89000213F12CA7F121EEB8B09EA450970047909
:10C8A0000A800279008052EC2405F508ED3400F589
:10C8B0000978082274F6121F2C12C8FE4004EA4BB5
:10C8C000700479018033E4F508F509780812213FF6
:10C8D0008C828D83A3A3A3A3E0F508780812213FDF
:10C8E00012C8A712213F12CA7F121EEB8B09EA451C
:10C8F000097004790A800279007F02021FFE8C828F
:10C900008D83A3A3E0FEA3E0FF8C828D8312CA9ED9
:10C91000C3EE9AEF9B2274F6121F2CEAFEEBFF8CFB
:10C92000828D837C007D0012C9CB70047901800C5C
:10C93000A3A3A3E0F9EEFAEFFB120AC080BB74F0E8
:10C94000121F2C8A0A8B0BECFEEDFF750C00800287
:10C95000050CEE2416F582EF3400F583E0F8E50CC3
:10C96000C3985051E50CC333F8E433F9EE28F508C9
:10C97000EF39F5097C007D00850882F58312C9CB6B
:10C98000701485088285098312C9C58E828F83122F
:10C99000CB1A79018021A3A3A3E0F9AA0AAB0B1259
:10C9A0000AC0E960AB85088285098312C9B9EAF03B
:10C9B000A3EBF080027900802412CA9E8E828F83BE
:10C9C00022A3A3A3A3E0F8A3E0F92212CA9E120AAD
:10C9D000D88A828B83E582458322121EEB7F080270
:10C9E0001FFE74F0121F2CECFEEDFF8E828F83125F
:10C9F000C9C512CA89C3E098A3E0994004E8497008
:10CA00000479018077EE2405F50CEF3400F50DEE86
:10CA10002404F50AEF3400F50B850A82F583E0F56E
:10CA20000E750F00780E12213F780C12213F12C3B1
:10CA30002B121EEBE9700479108041E4F50E780E9C
:10CA400012213F850A82850B83E0F50A750B007879
:10CA50000A12213F780C12213F8508828509831232
:10CA6000C8478E828F8312CA9A12CA83121EEB8B1A
:10CA700009EA45097004790A8002790002C9DDEEED
:10CA8000FCEFFD120AD2740622EE2402F508EF3400
:10CA900000F509850882F58322A312CA9E22E0FAD6
:10CAA000A3E0FB2274F4121F2C8A088B09ECFEED24
:10CAB000FF7C007D008E828F8312C9CB70047901C8
:10CAC0008010EEFCEFFDA3A3A3E0F9AA08AB0912C6
:10CAD0000AC602BFFC02C67A74F6121F2CECFEEDE9
:10CAE000FF12CC856029EE4F60078E828F8312CBB8
:10CAF0001A88828983A3A3E0F874FE68700479170A
:10CB0000800F74FF687004790080067916800279BE
:10CB10000202C8F9851082851183E8F0A3E9F022AA
:10CB200074F6121F2C7C008C0875090074027808BA
:10CB3000121EC212CB5788828983E06A7003A3E079
:10CB40006B7006E8FAE9FB800B0CECC3940240D74B
:10CB50007A007B0002C8F974E42508F874043509EA
:10CB6000F92274F4121F2CEA4B6044EA2402FEEB13
:10CB700012CBB2F46039E064FE6034EA2403F508B5
:10CB8000EB3400F509E4F50AF50B780A12213F7D34
:10CB90001E7C178A828B8312CA9A12CBBB121EEBA1
:10CBA0008E828F8374FEF085088285098304F002EB
:10CBB000BFFC3400FF8E828F83E0228508828509C6
:10CBC00083E0F9120B6874022274F0121F2C8A0A97
:10CBD0008B0B890C74FE650A700474FF650B70037F
:10CBE00002CC82E97025120B3E8B09EA45096003ED
:10CBF00002CC827AFF7BFF12CC85700302CC828844
:10CC0000828983E50AF0A3E50B80767401650C70D8
:10CC10001012CC85606C8882898374FFF0A3F08049
:10CC2000177402650C705B7901120E0EE97053AA3D
:10CC30000AAB0B12CC85604AE82402FEE912CBB2A3
:10CC4000FA74FF6A603CE82403F508E93400F5094A
:10CC500074FE6A6018E4F50EF50F780E12213F7D20
:10CC60001E7C14AA0AAB0B12CBBB121EEBEEFAEF22
:10CC7000FB120B7485088285098374FFF08E828F06
:10CC800083F002C9DD120B3E8A088B09A808A909A6
:10CC9000E8492274F4121F2CE99005D4F01210C652
:10CCA000907800E0C4540F540764037004793F8007
:10CCB00002797F750806750900780812213F7CC249
:10CCC0007D057AEA7B0712069A7402121EEB900524
:10CCD000C2E0F47049A3E0F47044A3E0F4703FA311
:10CCE000E0F4703AA3E0F47035A3E0F4703090788B
:10CCF0000EE09005C2F090780FE09005C3F09078B8
:10CD000010E09005C4F0907811E09005C5F090789F
:10CD100012E09005C6F0907813E09005C7F09005FA
:10CD2000C874FFF0A3F0A3F0A3F0A3F0A3F0900564
:10CD3000C2E09005CEF09005C3E09005CFF09005DD
:10CD4000C4E09005D0F09005C5E09005D1F09005C5
:10CD5000C6E09005D2F09005C7E09005D3F09005AD
:10CD6000F27406F0A3740DF0A3E4F0A37432F0A300
:10CD70007401F090071B74FFF0A3F0A3F0A3F0A3DD
:10CD8000F0A3F090071AE4F0900721F0A374A0F04C
:10CD9000A3E4F0A37403F0A37407F0A3E4F0A37476
:10CDA00028F0A3E4F0A304F0A3E4F090074AF09085
:10CDB000076D74FFF0A3E4F090076FF09007710423
:10CDC000F0120EF2120E3812108479017A727B077B
:10CDD000120FD0900772E075F01484E5F004F0793A
:10CDE0000C7A937B07120FD0120FE87A009005D4CB
:10CDF000E0F912054A907803E06442705E90077291
:10CE0000E014F07056C2AF12CE0A00782AD0E0F6D5
:10CE100018D0E0F6E59F5407F9700590847F8003F1
:10CE20009084837808121DA5E9C4C0E07829E655EE
:10CE300008F50808E65509F509740B7808121EB3C1
:10CE4000D0E02508F8906270E0A2E740F8E8C3332C
:10CE5000906272F0906270E0D2E0F09005FFE4F032
:10CE6000A3F07A80FB9005D4E0F91204F002D96AAD
:10CE700074F6121F2CEAFEEBFFEEA2E0504890057C
:10CE8000D6E0C39480E0500FC333F8E433F974382C
:10CE900028F582740C800EF4C333F8E433F9744639
:10CEA00028F582740C39F583E0F8A3E0F5838882D5
:10CEB000121F2A7A009005D4E0F912054AEE6401A7
:10CEC000FAEFFB02D0685402603F75080078081240
:10CED0002143E4F509780812213F780812213F78B0
:10CEE0000812213F75080A750907780812213F903A
:10CEF0000709E0FD7C017A007B00793C120D127479
:10CF000009121EEBEE640280B7EE5404700302CFE8
:10CF1000AE900603E0F875F004A4C8AAF02AF974EC
:10CF20000528FA740639FBEA242AF582EB3400F569
:10CF300083E0F5087808122143EA2432F582EB34C5
:10CF400000F583E0F508A3E0F50974047808121EE3
:10CF5000B3780812213FEA2420F582EB3400F583F0
:10CF6000122156EA242EF582EB3400F583E0F50811
:10CF7000A3E0C313F509E50813F508780812213F6B
:10CF800075080A750907780812213F900709E0FD26
:10CF90007C018A828B83A3A3A3A3E0FA7B007900A0
:10CFA000120D127409121EEBEE640402CEC0EE5490
:10CFB0004060407508007808122143E4F5097808BC
:10CFC00012213F780812213F780812213F75080A84
:10CFD000750907780812213F900709E0FD7C017A66
:10CFE000007B00793B120D127409121EEBEE6440B7
:10CFF00002CEC0EE5480602179001205449084C7AF
:10D000001221527A007B019005D4E0F91205687470
:10D0100004121EEBEE64808092EF5401600D7901E2
:10D02000120544EEFAEF640102CEC29005DBE06423
:10D03000017031EE5420602C9005D5E024F9600396
:10D0400014701B793F900603E0FA75F004A4CAA897
:10D05000F028FB74052AFA74063BFB120F94EE6469
:10D060002002CEC07A007B0002D805C082C083C2F5
:10D07000AF1210A8E5E170FC75E101120EE0120E8E
:10D08000DA75E1F11210D279071211447901121107
:10D090004A79021210FC12111A1211387900121179
:10D0A0003E790112113E9084C3121DC31210E49008
:10D0B0000709E4F0A3F0A3F0A3F0A3F0A3F0A3F01A
:10D0C000900721F0A3F0A3F09007257407F09007D4
:10D0D000247403F090072AE4F0900729F090074A9F
:10D0E000F0120F8212101E120F9A79001211509036
:10D0F000071074FFF0A3F0A3F0A3F0A3741FF09047
:10D100006012E4F0A3F0906063F07521009005D503
:10D11000F09005D7F0A3F0900715F090071604F0F3
:10D12000900717E4F09005DAF09005DB04F0900525
:10D13000F104F0900770E4F0D2AFF902DB59C0823D
:10D14000C0839005C2E08A828B83F09005C3E08A99
:10D15000828B83A3F09005C4E08A828B83A3A3F023
:10D160009005C5E08A828B83A3A3A3F09005C6E057
:10D170008A828B83A3A3A3A3F09005C7E08A828B46
:10D1800083A3A3A3A3A302DB56C082C0838A828B9E
:10D1900083E09005C8F08A828B83A3E09005C9F0F4
:10D1A0008A828B83A3A3E09005CAF08A828B83A333
:10D1B000A3A3E09005CBF08A828B83A3A3A3A3E073
:10D1C0009005CCF08A828B83A3A3A3A3A3E0900550
:10D1D000CD02DB56C082C083120EFEE9700512112B
:10D1E0001A790002DB5974F7121F2CEAFEEBFF8953
:10D1F00008120EFEE9702CE508600A7401650860EB
:10D200000A7912801E7C00790080047C007901EE8E
:10D21000FAEFFB121120E9F87403687004790780B3
:10D2200002790002D3CA74F6121F2C740A121F204E
:10D23000E0F508A3E0F509EA4B600AEC4D6006E56D
:10D2400008450970047912800F780812213F120FE7
:10D25000E27402121EEB790002D80574F4121F2C3E
:10D26000EAFEEBFF89089005D5E064096014E064EC
:10D270000A600FE0640B600AE0640C6005E0640D76
:10D280007004790C801E1210428B0BEA450B700B58
:10D29000A908EEFAEFFB120FD080099005D7E04401
:10D2A00040F0790D02D96A74F6121F2CEA4B600324
:10D2B000E970047912801CEAFEEBFF8908120FCA9C
:10D2C000E98E828F83F0A3AE82AF831508E50870E4
:10D2D000EC790002D805C082C083E9F87401687057
:10D2E0000B9007707401F0790002DB59E87006902A
:10D2F0000770E480F1791280F0C082C0839005D578
:10D30000E0640C701290618EE0F974806970258C75
:10D31000828D83747F8029C3EB940F5013EA4B7086
:10D320000F900608E070047902801890066E80D88D
:10D330007912800F9005D9E0F8E9C3988C828D832B
:10D34000F0790002DB5974F7121F2CE9FE74056EA8
:10D35000602274136E601D74146E601874156E6014
:10D3600013741A6E600E74296E6009743B6E60044B
:10D3700079128054C3EB940F50F6EA4B70F290068A
:10D3800008E070047902804090066FE0640170212B
:10D39000A3E064027004793A802EEE9006FAF090D1
:10D3A0000622E4F0A3F079027A057B06120F708062
:10D3B00015EE9006FAF0900622E4F0A3F079027AD6
:10D3C000057B06120F64790080007F01021FFE7446
:10D3D000EE121F2C8C0A8D0B89107412121F20E084
:10D3E000F508EC450B6010E9C3941C500AE5086091
:10D3F0000B740165086005791202D5D7C3EB940F51
:10D4000050F5EA4B70F1900608E07005790202D5FC
:10D41000D790066AE0F8A3E0F9E84970DAA2AFE431
:10D4200033F511C2AF1210428A0C8B0DAE0CAF0D4A
:10D430008E828F83E064406011E06480600302D5D7
:10D44000BB900603E0600302D5BB1210BA8A0C8BB6
:10D450000D8C0E8D0F9084F3780C121D31780C1208
:10D46000213B8E828F83A3A3121DC312284974040B
:10D47000121EEBE96401600302D5BBE508F50978EB
:10D4800009122143A910AC0AAD0B7A057B06120FD5
:10D49000B87401121EEBE9600302D5BB900716E0D9
:10D4A0006401600302D5B1900622E0F8A3E0F9E838
:10D4B00049700302D5B11210BA8A088B098C0A8D03
:10D4C0000B900633E0F50CA3E0F50DE4F50EF50F37
:10D4D0007808790C121D1E9084BF7808121D3178CF
:10D4E0000812213B8E828F83A3A3121DC3122849E9
:10D4F0007404121EEBE96401600302D5B1EE240846
:10D50000F50CEF3400F50D850C82F583122152AA3B
:10D5100008AB09AC0AAD0B1228A67404121EEB90DE
:10D5200006331221561227F87402121EEB8A088B5A
:10D53000098C0A8D0B74107808121CE690060EE018
:10D54000F8A3E0F990060AE8F0A3E9F0E82508F866
:10D55000E93509F9A3E8F0A3E9F0850C82850D838C
:10D56000C082C083900633E0F50CA3E0F50D780887
:10D57000790C121BE2D083D0827808121D3190847E
:10D58000BB7808121D7F8E828F83A3A3E508F0A3CA
:10D59000E509F0A3E50AF0A3E50BF090063AE09068
:10D5A0000639F07A057B0612238FEEFAEFFB121094
:10D5B0002AE511A2E092AF7900801C90066AE50A84
:10D5C000F0A3E50BF0E510900668F0E508A3F0E5A0
:10D5D00011A2E092AF79077F0A021FFE74F3121FB7
:10D5E0002CEAFEEBFF8908740D121F20E0F5097488
:10D5F0000E121F20E0F50A740F121F20E0F8A3E0BE
:10D60000F97411121F20E0F50B7412121F20E0F5BF
:10D610000CE50860497401650860337403650860AF
:10D620000974026508600302D6ADEE2460FAEF3497
:10D63000FFFBC3EA9461EB943F5072EC2460FAED77
:10D6400034FFFBC3EA9461EB943F4034805FE849C8
:10D65000605BE50A602A7401650A70518022EE243D
:10D66000E0FAEF34FFFBC3EA94E1EB943F503EEC69
:10D6700024E0FAED34FFFBC3EA94E1EB943F502D34
:10D68000C3EC9EED9F4026E50960067401650970B4
:10D690001CE50C60127401650C600C7402650C6072
:10D6A000067403650C70067407550B700579120239
:10D6B000D7C2900721E064017005790C02D7C2E55A
:10D6C00008900724F07407550BA3F0E50CA3F0E5D0
:10D6D0000990071A702FE4F09005C2E090071BF044
:10D6E0009005C3E090071CF09005C4E090071DF082
:10D6F0009005C5E090071EF09005C6E090071FF06A
:10D700009005C7802E7401F09005C8E090071BF0CB
:10D710009005C9E090071CF09005CAE090071DF045
:10D720009005CBE090071EF09005CCE090071FF02D
:10D730009005CDE0900720F0740165087053E50A6C
:10D74000900709F088828983E090070AF08882892F
:10D7500083A3E090070BF088828983A3A3E090075E
:10D760000CF088828983A3A3A3E090070DF0888240
:10D770008983A3A3A3A3E090070EF088828983A3E3
:10D78000A3A3A3A3E090070FF0900722E4F0A380E7
:10D790002EE50C70047900801C7401650C7004790E
:10D7A0000180127402650C700479028008740365AC
:10D7B0000C70057903121126900722EEF0A3EFF00A
:10D7C00079007F05021FFE74F6121F2CE9FEC39438
:10D7D0002040047912802EEE90072AF0601FEA4B59
:10D7E00060F1E0F508750900780812213FEAFCEBCA
:10D7F000FD7A2B7B071204967402121EEB90072908
:10D800007401F079007F02021FFE74F4121F2CE9EC
:10D81000FE9005D5E064096014E0640A600FE064DE
:10D820000B600AE0640C6005E0640D70057921026C
:10D83000D96A900724E0600E6401600AE064036026
:10D8400005E06402702490071AE060046401701A15
:10D85000900724E064036005E064027012900722E0
:10D86000C3E094A0A3E094005005791202D96AEEB7
:10D87000700302D90A1470F2900721E0640160ADD0
:10D88000900724E060046401700812104EE954FD12
:10D89000709B7901121036900718EAF0A3EBF09014
:10D8A00007217401F09005D5E0600302D9681210D9
:10D8B000BA8A088B098C0A8D0B9084B77808121DE0
:10D8C000319084BB7808121D7F900718E0F8A3E020
:10D8D000F5838882A3A37808121DB4900718E0F896
:10D8E000A3E0F5838882A3A3A3A3A3A3E4F0A3F0FA
:10D8F000120F04E9600F7A187B0712103C90072181
:10D90000E4F002D82D121024805E900721E070030D
:10D9100002D82DA2AFE433FFC2AF7A187B071210F2
:10D920003C900721E4F0121054E970371210A890CF
:10D930006182E0C2E6F0E5E170FC75E1017591BF3E
:10D9400075E1F19005DBE0640170187A207B0090AE
:10D9500005D4E0F91205747A207B009005D4E0F933
:10D960001204F6EFA2E092AF79007F04021FFE746A
:10D97000F6121F2CE9FEC3942040047912802EEE8B
:10D9800090074AF0601FEA4B60F1E0F50875090066
:10D99000780812213FEAFCEBFD7A4B7B07120496D4
:10D9A0007402121EEB9007297401F0790002D80569
:10D9B000C082C0839005D5E064076004790C806064
:10D9C000EC4D700479128058C3EB940F50F6EA4B7B
:10D9D00070F2900608E07004790280447A008C822C
:10D9E0008D83E0C0E0EAF8C3E498F895E0F974D3D9
:10D9F00028F582740639F583A3A3A3A3D0E0F00A27
:10DA00008C828D83A3AC82AD83EAC3941040CF9007
:10DA100006D97401F079057A057B06120F64790046
:10DA200002DB59C082C0839005D5E06407600479A9
:10DA30000C8039C3EB940F5020EA4B701C90060801
:10DA4000E07004790280259006E2E06401700E9097
:10DA500006FA7406F07902800A7912800FA3740620
:10DA6000F0790D7A057B06120F64790002DB59C04C
:10DA700082C083C3EB940F5004EA4B600479128098
:10DA80000C900608E0700479028002790002DB59EC
:10DA900074F0121F2C890AEAFEEBFF1210428A086A
:10DAA0008B091210BA8A0C8B0D8C0E8D0F8E828F03
:10DAB000837401F0E50A60117401650A600B740259
:10DAC000650A6005791202DB51E508450960457871
:10DAD0000C12213B850882850983A3A3121DC31262
:10DAE00028497404121EEBE96031780C12213B8541
:10DAF0000882850983A3A3121DC31228A6740412E9
:10DB00001EEB8A0C8B0D8C0E8D0F9084AF780C124F
:10DB100013F75007A90A120EEC8034E50A600B14C3
:10DB2000601014601514601A801F9005D7E044043B
:10DB300080169005D7E04408800E9005D7E0441089
:10DB400080069005D7E04420F08E828F83E4F07940
:10DB5000007F08021FFEF07900D083D082020122EC
:10DB6000C082C083E9F8900771E07004790C800EE0
:10DB7000E8600D1470109005DA7401F0790080D916
:10DB80009005DAE480F5791280F474F4121F2C8980
:10DB900008EAFEEBFF75091274FE6E700374FF6FE6
:10DBA000701B9004B512E1A7606412DC15605F7A07
:10DBB000FE7BFFA908121F2AE9F509805174FF6E48
:10DBC000700374FF6F702F9004B512E1A7601B12F1
:10DBD000DC1560167AFF7BFFA908121F2AE9F509F8
:10DBE0007008E5089004B7F08024A9081209E2E95A
:10DBF000F509701A80EC12E3656013E06508700B9C
:10DC00007913EEFAEFFB120C4080AD750903A909F8
:10DC10007F04021FFEE0F5838882E0F8A3E0F98824
:10DC2000828983E58245832274F2121F2C890AECD3
:10DC3000FEEDFF900494E064026005E0640170046E
:10DC400079128050EE4F70047902804812E63970E4
:10DC5000047914803FE50A600B8A828B83A3A3A317
:10DC6000E0D2E1F0750C10750D00780C12213FEE3A
:10DC7000FCEFFDEA240DFAEB12DC97121EEB12E228
:10DC80008B121DC3E508241DF582E50912E9E41293
:10DC90001DCF790002E1983400FB12049674022231
:10DCA00074F2121F2C8A088B09ECFEEDFF9004948D
:10DCB000E06402600EE064016009E064087009EE4F
:10DCC0004F6005791202DD9AEA4509700579020272
:10DCD000DD9A12E1A46005791102DD9A8A828B83B4
:10DCE00012E19D8A0A8B0BEA450B7005791402DD5F
:10DCF0009A7A1F7B001205329004B3EAF0A3EBF08E
:10DD000012E1A47005791302DD9A7C1F7D00790071
:10DD10001204AE12E53E12DD9DA3EAF0A3EBF0750E
:10DD20000C16750D00780C12213FE5082402FCE565
:10DD3000093400FD9004B3E02403FAA3E012DC9759
:10DD4000121EEB12DD9D7402F0900494E0A2E350E9
:10DD500004D2F08002C2F09004B3E02403F50CA3D7
:10DD6000E03400F50D780C12213F12DDA99004BEBD
:10DD7000E0FAA2F0E433F91211F27402121EEBE998
:10DD8000F508EE4F600BEEFCEFFDAA0AAB0B12128A
:10DD90002EE50860031209EEA90802E1989004B389
:10DDA000E0F8A3E0F583888222850882850983E074
:10DDB000FCA3E0FD2274F4121F2C74FF121ED5EA9E
:10DDC000FEEBFF8908120E028B0BEA450B700479FB
:10DDD000148014851882851983E508F0AC82AD8320
:10DDE000EEFAEFFB1212167401121EEB02DC107435
:10DDF000F0121F2C74F0121ED58A0C8B0D8C0E8D18
:10DE00000F7420121F20E0FEA3E0FFEEFAEFFB12DA
:10DE10000E028B09EA450970047912807190849B87
:10DE2000780C1213F75004790280637C107D00791E
:10DE300000851882851983AA82AB831204AE8518E7
:10DE400082851983E50CF0850D09E509F508740153
:10DE5000121F20E508F0850C08850E0A850F0B744B
:10DE6000107808121CE67402121F20E508F07418DE
:10DE7000780C121CE67403121F20E50CF0EEFCEF88
:10DE8000FD851882851983AA82AB831211F874105C
:10DE9000121EEB7F08021FFE74F0121F2C8A0A8BE1
:10DEA0000B890E8C0C8D0D7410121F20E0F50F9055
:10DEB0000494E064026005E064017005791202DFF9
:10DEC0006AEC450D7005790202DF6A120E028A08BB
:10DED0008B09AE08AF09EE4F7005791402DF6AEEC8
:10DEE0002421F508EF12E0C6850882F58312E9EFD8
:10DEF00060031205387C1B7D00AA0CAB0D1204A236
:10DF0000850882850983EAF0A3EBF012DDA9EC4DC8
:10DF1000700479138054900494E0A2E35036E50F26
:10DF20006032EC2412F508ED12E0C6780812213FA9
:10DF3000EC2410F582ED12E9E4122156EC241AF5D6
:10DF400082ED12E0CBF9AA0AAB0B12123474041260
:10DF50001EEB80027900EE2403F582EF12E0CBD2B3
:10DF6000E2F0E50E6004E0D2E1F002DE9374EA1222
:10DF70001F2C8A0E8B0FEA450F700302E0BD900440
:10DF8000B112E1A7600512DDA38003900B59E0F503
:10DF90000C9004BF12E1A7600F12DDA3A3A312DC53
:10DFA0001A60057900121F2AE50E2407F50AE50F0D
:10DFB0003400F50BE50E2408F508E50F12E0C6AABB
:10DFC00008FB850A82850B83E0F9120946E9FB8587
:10DFD0000A82850B83F0E50E2403FEE50F3400FF73
:10DFE000E50E2404F512E50F3400F513E50E240EBA
:10DFF000F510E50F3400F511E50E2414F582E50F58
:10E0000012E0CBF514751500781412213FE50E24AB
:10E0100012F582E50F12E9E4122156E50E2410F5FF
:10E0200082E50F12E9E412215685108285118312D0
:10E030002156851282851383122156AC08AD09AA98
:10E040000C8E828F83E0F91209D0740A121EEB8EB7
:10E05000828F83E07031851082851183122156787A
:10E060000812213F850A82850B83E0FD7C01851221
:10E070008285138312E544A90C120DF67404121E56
:10E08000EBE98E828F83F09004B112E1A7602E122B
:10E0900009F49004B7E06025F91209E2E9601E8EE8
:10E0A000828F83E0FB85128285138312DDAF90049B
:10E0B000B7E0FAEBF91209D69004B7E4F07F0E024C
:10E0C0001FFEF508E5093400F509223400F583E068
:10E0D0002274F7121F2CEAF8EBF988828983A3A334
:10E0E000A3A3A3A3A3A3A3A312215688828983A3D6
:10E0F000A3A3A3A3A3A3A312215688828983A3A3C6
:10E10000A3A3A3A312DDAF88828983A3A3A3A31231
:10E11000E54488828983A3A3A3E0F91209DC74048F
:10E12000121EEB7F01021FFE74F2121F2CEAFEEB9F
:10E13000FF750A00EE2403F8EF3400F98808890916
:10E140008882F58312E19D8A828B83E58245836014
:10E1500009E0F50A12E53E120DFC9004B7E06011EB
:10E16000650A700DE0F91209E2E960249004B7E451
:10E17000F0E50A601B8E828F83A3A3A3A3A3E0FB19
:10E1800012DDA9AA0A8E828F83A3A3E0F91209D611
:10E1900012E1A460031209EE7F06021FFE12E54899
:10E1A000120E02229004B3E0F8A3E0F9E8492274C9
:10E1B000E8121F2C890B8A0E8B0A8C0C8D0D741A99
:10E1C000121F20E0F516A3E0F517741C121F20E0C3
:10E1D000F514A3E0F515741E121F20E0F510A3E05E
:10E1E000F5117420121F20E0F5087A1312E3557020
:10E1F0000302E2868E828F8374D0F0A3E50B12E7D0
:10E2000003740512E70BE50AF0EE2404FAEF34007C
:10E21000FBE50C450D601775120675130078121298
:10E22000213FAC0CAD0D12DC9A121EEB80097C066E
:10E230007D0079001204AE7418121F20E0F8A3E0EC
:10E24000F98E828F83A3A3A3A3A3A3A3A3A3A3E86D
:10E25000F0A3E912E7F2E516F0A3E517F0EE240EBD
:10E2600012E9E1E514F0A3E515F012E28BE510F0F8
:10E27000A3E511F0EE241212E9E1E508F0EEFAEF61
:10E28000FBA90E1204CC7F10021FFEEE2410F582B3
:10E29000EF3400F5832274F2121F2C89098A08ECEE
:10E2A000FEEDFF8B0A7A067B001204C0EA4B602762
:10E2B0008A828B8374D0F0A3E509F08A828B83A3D2
:10E2C000A3740612E2DAEEF0A3EF12E2DAA3A3E5FA
:10E2D0000AF0A9081204CC02E198F08A828B83A389
:10E2E000A3A32274EC121F2C89108A088B098C0AB4
:10E2F0008D0B7414121F2012E54E7416121F20E0AD
:10E30000F50EA3E0F50F7A0C12E3556045AA08ABB1
:10E310000912E3657003900B59E0F98E828F8374C4
:10E32000D0F0A3E51012E703740712E71CE508F02C
:10E3300012E721A3E50B12E72BE50CF0A3E50D1284
:10E34000E72BA3A3E50EF0A3E50FF0EEFAEFFB1227
:10E3500004CC02E50E7B001204C08A128B13AE12AD
:10E36000AF13EE4F22120E028A828B83E582458321
:10E370002274F6121F2C120E088A828B83E58245C6
:10E3800083600B7913A312E544120C4080027912CA
:10E390007F02021FFE74EC121F2C89118A088B0960
:10E3A0008C107414121F2012E54E120E028A0E8B6E
:10E3B0000FEA450F700302E50E12E1A4700302E5B7
:10E3C0000E7A0E7B0012EA2360027A299004B3E0F1
:10E3D000241B12EA296008EA2416FAE43400FB90B0
:10E3E00004B3E0241D12EA296008EA2414FAEB348D
:10E3F00000FBE50C450D6008EA241BFAEB3400FB3A
:10E400001204C08A0A8B0BEA450B700302E50E7CEE
:10E410000E12E6F48A128B13AE12AF13EE4F700891
:10E42000850E82850F83E0FE850A82850B8374D07A
:10E43000F0A3E51112E518740A12E513E508F0A33C
:10E44000E50912E513A3A3E510F0E50A240EF5088B
:10E45000E50B12E0C612EA236023E50A240612E562
:10E4600022241B12E0C2750E1B750F00780E1221BC
:10E470003F9004B3E0241912E556121EEB9004B34A
:10E48000E0241B12EA296023E50A240812E522246D
:10E490001612E0C2750E16750F00780E12213F900D
:10E4A00004B3E0241B12E556121EEB9004B3E024E3
:10E4B0001D12EA296023E50A240A12E52224141217
:10E4C000E0C2750E14750F00780E12213F9004B350
:10E4D000E0241D12E556121EEBE50C450D6023E508
:10E4E0000A240C12E52875081B750900780812210A
:10E4F0003FAC0CAD0D8A828B8312E54412DC9A127C
:10E500001EEBAA0AAB0BEEF91204CC1209EE7F0C3B
:10E51000021FFE12E518A322F0850A82850B83A351
:10E52000A32212E528E50822F8E50B3400F9E8FA01
:10E53000E9FB8A828B83E508F0A3E509F0228508D0
:10E540008285098312E54822E0FAA3E0FB22E0F588
:10E550000CA3E0F50D2212EA17FCA3E0FD8A828BE2
:10E560008312E548120496740222C082C08312E12D
:10E57000A4603112EA0760031205389004B3E02466
:10E580001B12EA0D60031205389004B3E0241D123B
:10E59000EA0D60031205389004B312E5C69004B387
:10E5A000E4F0A3F0D083D082020122C082C0839025
:10E5B00004B112E1A7600D9004B112E5C69004B158
:10E5C000E4F0A3F080DE12E5481205382274F01260
:10E5D0001F2C890C8A0A8B0B12E63960597A257B2D
:10E5E0000012091C8A0E8B0FAE0EAF0FEE4F700893
:10E5F000850882850983E0FE7A057B001204C08AC3
:10E60000088B09EA4509602E7C057D00790012041B
:10E61000AE85088285098374D0F0A3E50C12E64428
:10E62000740E12E644A3E50AF0A3E50BF0AA08ABCA
:10E6300009EEF91204CC02DE93120E028A088B094D
:10E64000EA450922F0850882850983A3A32274EC98
:10E65000121F2C89088A0E8B0F8C098D0A741412D4
:10E660001F20E0F50C7415121F20E0F50B120E02AE
:10E670008A128B13EA451360787A0B7B001204C070
:10E680008A108B11AE10AF11EE4F60657C0B12E655
:10E69000F48A108B11A810A911E84970088512821C
:10E6A000851383E0F88E828F8374D0F0A3E508127F
:10E6B000E703740F12E70BE50EF0A3E50F12E71C5A
:10E6C00012E7218E828F83A3A3A3A3A3A3A3E50CA8
:10E6D00012E72BE50BF07416121F20EE2409FCEF55
:10E6E0003400FD7402121DE8EEFAEFFBE8F91204A3
:10E6F000CC02E50E7D0079001204AE7A257B001273
:10E70000091C22F08E828F83A3A32212E70F22120C
:10E71000E71322F08E828F83A3A3A32212E70FA315
:10E7200022A3E50912E731E50AF02212E731A3A39B
:10E730002212E713A3A3A32274EE121F2C8A0A8BC2
:10E740000B890E120E028A0C8B0DEA450D70030226
:10E75000E7ED7A0D7B001204C08A088B09AE08AF82
:10E7600009EE4F700302E7ED7A257B0012091C8A3F
:10E77000088B09EA45097009850C82850D83E0F54F
:10E78000088E828F8374D0F0A3E412E703740BF039
:10E79000751006751100781012213FE50C2405FC58
:10E7A000E50D3400FDEE2403FAEF12DC97121EEBA8
:10E7B0008E828F83A3A3A3A3A3A3A3A3A3E50AF09D
:10E7C000A3E50BF0EE240B12E9E1E50EA2E0500404
:10E7D00074018001E412E7F2E50EA2E15004740135
:10E7E0008001E4F0EEFAEFFBA9081204CC7F0A02E4
:10E7F0001FFEF0EE240CF582EF3400F5832274E85E
:10E80000121F2C89148A118C088D098B1074181210
:10E810001F2012E54E741A121F20E0F50EA3E0F53A
:10E820000F741C121F20E0F516A3E0F517741E12DA
:10E830001F20E0FEA3E0FFAA08AB09120E028A0A1D
:10E840008B0BEA450B700302E910E514600302E943
:10E8500010EA2403F582EB12E0CBD2E4F0E510A23B
:10E86000E2E05004D2E18002C2E1F0E50C450D7017
:10E8700010E50E450F700AE51645177004EE4F605F
:10E8800060E0D2E2F0EE4F603012E28B121DC3E581
:10E890000A241DF582E50B12E9E4121DCF75121052
:10E8A000751300781212213FEEFCEFFDE50A240DEE
:10E8B000FAE50B12DC97121EEBE50A2421F50AE5B6
:10E8C0000B3400F50BE50C450D601BE511701712BC
:10E8D000E9E960031205387C1B7D00AA0CAB0D80B2
:10E8E00021E0C2E28029E50E450F60247401651124
:10E8F000701E12E9E960031205387C1B7D00AA0E28
:10E90000AB0F1204A2850A82850B83EAF0A3EBF019
:10E9100012E1A4700302E9D0E50C450D602912EA6A
:10E9200023700A7A1B12E9D3241912E9F512EA07B7
:10E930006015750A1B750B00780A12213FAC0CADEF
:10E940000D12DC9A121EEBE516451760359004B3E4
:10E95000E0241B12EA29700A7A1612E9D3241B124A
:10E96000E9F59004B3E0241B12EA0D6015750A1650
:10E97000750B00780A12213FAC16AD1712DC9A1203
:10E980001EEBEE4F60359004B3E0241D12EA2970AF
:10E990000A7A1412E9D3241D12E9F59004B3E02495
:10E9A0001D12EA0D6015750A14750B00780A122104
:10E9B0003FEEFCEFFD12DC9A121EEB780E12213FA7
:10E9C000AC10AA08AB09A9141209E87402121EEBD4
:10E9D00002E2867B001205328A0A8B0B9004B3E0B8
:10E9E00022F582EF3400F58322850A82850B83129B
:10E9F000E548EA4B22FAA3E03400FB8A828B83E5E8
:10EA00000AF0A3E50BF0229004B3E0241912EA17F0
:10EA1000FAA3E0FBEA4B22F8A3E03400F9888289EC
:10EA200083E0229004B3E0241912EA17F8A3E0F976
:10EA3000E8492274EE121F2C890B8A0C8C0E8D0F64
:10EA40007412121F20E0F508A3E0F509750A001200
:10EA5000EB396005791102EB17E5084509603C7A4E
:10EA6000217B0012091C8A108B11A810A911E5083E
:10EA70002415FEE5093400FF8E828F83E0C398E4FD
:10EA80009940187A227B0012091C8A108E828F838B
:10EA9000E0FAC3E5109AEB94005004790280787A8A
:10EAA000637B00120532900961EAF0A3EBF012EBF0
:10EAB000397004791380607C637D0079001204AEA4
:10EAC00012EB1CE4F0900961E012F8A5E50B12EBE3
:10EAD00031E50C12EB31A3E50EF0A3E50FF0900940
:10EAE0006112F217A3E508F0A3E509F012F59FE41F
:10EAF000F0A3F0900961E0241A12F7A6E4F0E50B08
:10EB0000600612123AE9F50A12EB1C7401F0E50AEC
:10EB10006003121270A90A7F0A021FFE12EB202264
:10EB200090096112EB2722E0F8A3E0F5838882A325
:10EB300022F012EB20A322E9FE900961E0F8A3E0A5
:10EB4000F9E8492274F6121F2C7E0012EB39700589
:10EB5000791202EC0C900961E0241A12F7B9F874EA
:10EB60000268600A740368600574046870E212EC5D
:10EB70001D6C7003A3E06D6005790202EC0C750852
:10EB8000108E09780812213FEAFCEB12EC0F12F20A
:10EB9000ED121EEB7910900961E0242BFAA3E0340A
:10EBA00000FB1211C2900961E0241BF508A3E034B8
:10EBB00000F509780812213F12F2F312EC0F12123D
:10EBC000287402121EEB900961E0240112F7B9FAD1
:10EBD000900961E0FBA3E0F5838B82E0600D740394
:10EBE0006A7027888289837402801974046A7009A4
:10EBF000888289837402F0801174036A700C8882A1
:10EC000089837405F0121240E9FEEEF902F663FD05
:10EC1000900961E02407FAA3E03400FB2290096127
:10EC2000E0F8A312F5C0E022C082C083900963021D
:10EC3000EF9074F7121F2C12EB37601312EC236A5B
:10EC40007003A3E06B700874016E70031212707F82
:10EC500001021FFEC082C083791712127602EF955F
:10EC600074F4121F2C74ED121ED5EAF8EBF9851816
:10EC700082851983E4F088828983A3A3A3A3A3A335
:10EC800012F63F8A828B83E0F50AE824020808E93D
:10EC90003400F9E8FEE9FFE50A1460361460331425
:10ECA000604F14607A14700302ED2D14700302EDAE
:10ECB0003B14700302ED4914700302ED5714700306
:10ECC00002ED6514700302ED7314700302ED82020D
:10ECD000ED917401121F20AC82AD831212D6E9F8B7
:10ECE000741268701A8518828519837406F002ED13
:10ECF000EA7401121F20AC82AD831212E2E9F8E837
:10ED0000600302EDE1750B078E828F8312F63F12CE
:10ED10000E02EA4B600302ED9C75080802EDD87400
:10ED200001121F20AC82AD831212EE80D07401124A
:10ED30001F20AC82AD831212FA80C27401121F2010
:10ED4000AC82AD8312130680B47401121F20AC8212
:10ED5000AD8312131280A67401121F20AC82AD8302
:10ED600012132480987401121F20AC82AD831213F9
:10ED70002A808A7401121F20AC82AD8312133602DE
:10ED8000ECFD7401121F20AC82AD8312134202EC21
:10ED9000FD851882851983740702ECED900494E0D8
:10EDA000A2E35005900965800390096312EB3C6073
:10EDB0002412F270F8A3E0F98909E8450960167495
:10EDC00001121F20AC82AD83A90A888285098312B3
:10EDD0001F2AE9F50B850B08851882851983E5083C
:10EDE000F0851882851983E0600DAC82AD838E8238
:10EDF0008F8312F1B7800312119E7413121EEB7FE2
:10EE000004021FFE74F6121F2CECFEEDFF7508F4D1
:10EE1000750912780812213F790212F66C121EEB66
:10EE2000E9F5088E828F83E0F9121276A90802F6BE
:10EE30006374F4121F2CEAFEEBFF890812EB3970A1
:10EE40000302EF1D12EC236E7003A3E06F60030258
:10EE5000EF1D900961E0240108A3E03400F9E8FA0D
:10EE6000E9FB8A828B83E0F8740668600302EF0D89
:10EE700012F0E0607C90096212F5B9F8A3E0F99015
:10EE80000961E02418FCA3E03400FD8C828D83E04E
:10EE9000FCA3E0FDE8241312F89CF8A2E050178CC4
:10EEA000828D83A3A3A3A3A3E0A2E050098A828B4F
:10EEB000837407F0804BE8540260168C828D83A324
:10EEC000A3A3A3A3E0540260088A828B8374098001
:10EED000E2E8540460168C828D83A3A3A3A3A3E06D
:10EEE000540460088A828B83740B80C79009658004
:10EEF0000390096312EB3C600812EF7D6003121F60
:10EF00002A12EF76703C79001212768035741168FF
:10EF1000700BE5086003750832A90880EBE50870FE
:10EF200018EEFAEFFB120E028A828B83E58245838C
:10EF30006007A3A3A3E0D2E4F0EEFAEFFBA9081266
:10EF400009FA790102EDFFC082C08312EB39602417
:10EF500012F2707005900963800390096512EB3C12
:10EF6000600812EF7D6003121F2A12EF7670057998
:10EF700000121276801F12EB20E064122212F8AB0E
:10EF8000A3A3E0F8A3E0F988828983E58245832280
:10EF9000EAF0A3EBF0D083D08202012274E8121FC2
:10EFA0002C74E9121ED5851882851983EAF0A3EB2B
:10EFB000F08C168D17742F121F20E0F514A3E0F5C6
:10EFC0001512EB397005791202F0D612F275120E95
:10EFD000028A088B09AE08AF09EE4F70057914025A
:10EFE000F0D67402121F20AA82AB8312128212F58D
:10EFF000A9FAA3E0FBEE2405F512EF3400F513EEB9
:10F000002404F510EF3400F51112F0E0602F7402C3
:10F01000121F2085820C85830DEAFEEBFF12096A20
:10F02000E9F50E79001209708A0A8B0B851082852A
:10F030001183E0F50F851208851309802B8A0C8B4C
:10F040000D7402121F20AE82AF8312096AE9F50F18
:10F0500079001209708A088B09851082851183E076
:10F06000F50E85120A85130B7410121F20AC82ADA9
:10F0700083EEFAEFFB1212CA7409121F20AC82ADA4
:10F0800083AA0CAB0D1212C4781412213F78081217
:10F09000213FE50FF5087808122143780A12213F35
:10F0A0007410121F20858208858309780812213F79
:10F0B0007419121F20858208858309780812213F60
:10F0C000A90EAC16AD17740B121F2012F63F1211C9
:10F0D000B0740B121EEB7417121EEB7F10021FFE92
:10F0E000900961E0F8A312F8ABE02274F6121F2C2D
:10F0F00074F7121ED5EAFEEBFF8C088D09900963A8
:10F1000012EB3C700302F1B212F8A712EB3C700351
:10F1100002F1B28C828D83E0C0E07402121F20D015
:10F12000E0F08C828D83A3E0C0E07403121F20D036
:10F13000E0F08C828D83A3A3E0F97404121F20AA4F
:10F1400082AB831211CE850882850983A3A3A3E035
:10F15000C0E07406121F20D0E0F085088285098384
:10F16000A3A3A3A3C082C0837407121F20AC82ADE7
:10F1700083D083D0827402121DE87402121F20AC67
:10F1800082AD837901EEFAEFFB90096312F0E3128E
:10F19000F8A5121F2AE9851882851983F060137477
:10F1A00001121F20E9F0AC82AD838E828F83A312FF
:10F1B000F1B7740902F660E0FAA3E0FB121216221E
:10F1C00074F2121F2C8908740E121F20E0F50AA396
:10F1D000E0F50B7410121F20E0F50CA3E0F50D9084
:10F1E000096512EB3C602990096512F217E0FEA355
:10F1F000E0FFEE4F601A780C12213F780A12213F8F
:10F20000A9088E828F83121F2A7404121EEB8002BB
:10F2100079027F06021FFE12F281A32274F6121FEA
:10F220002C74F9121ED512EB39603B8518828519B2
:10F2300083AA82AB8312128212F27512F26D601EE3
:10F240007508C4750912780812213F7402121F2034
:10F25000AC82AD83790712F66C121EEB800A75083A
:10F26000CA75091280E07901740702F6609009629C
:10F2700012F8ABE02290096112F281E0FAA3E0FB00
:10F280002212EB27A3A32274F6121F2C74F0121E75
:10F29000D5750810750900780812213F900961E0C2
:10F2A000241BFCA3E03400FD7402121F2012F2E9BB
:10F2B000121EEB7508DC75091202F64574F6121F72
:10F2C0002C74F0121ED575081075090078081221EB
:10F2D0003F12F2F3FD7402121F2012F2E9121EEB2C
:10F2E0007508E875091202F645AA82AB83120496E6
:10F2F000740222900961E0242BFCA3E03400227404
:10F30000F0121F2C8A088B09750A007A077B0012FD
:10F31000053212F59FEAF0A3EBF088828983E0FAC8
:10F320004B700302F57112F5B3FEA3E0FF750C07F5
:10F33000750D00780C12213FAC08AD0912F2ED12E8
:10F340001EEB12F0E0600302F4D0EE2413FCEF3465
:10F3500000FD12F5A92405F50CA3E03400F50D8C91
:10F36000828D83E0F8A3E0F9850C82850D83E0A20D
:10F37000E092F0E8A2E020F001B35007A2E0E4330D
:10F38000FA80027A00E854FE4AF88C828D8312F5E6
:10F390008DC313A2E092F0E8C313A2E020F001B302
:10F3A0005012E854026004D2F08002C2F0A2F0E4ED
:10F3B00033FA80027A00E854FDF8EAC333FAE43302
:10F3C000FBE84AF8E94B12F599543FA2E092F0E8C5
:10F3D0001313543FA2E020F001B35013E85404602B
:10F3E00004D2F08002C2F0A2F0E433F50E8003757F
:10F3F0000E00750F00E854FBFAE9FB7402780E1258
:10F400001EC2EA450EF8EB450F12F59913541FA2E0
:10F41000E092F0E8131313541FA2E020F001B35060
:10F4200013E854086004D2F08002C2F0A2F0E43382
:10F43000F50E8003750E00750F00E854F7FAE9FB2E
:10F440007403780E121EC212F57B540FA2E092F0E4
:10F45000E8C4540FA2E020F001B35013E854106048
:10F4600004D2F08002C2F0A2F0E433F50E800375FE
:10F470000E00750F00E854EFFAE9FB7404780E12E1
:10F480001EC212F57B135407A2E092F0E8C4135495
:10F4900007A2E020F001B35013E854206004D2F03A
:10F4A0008002C2F0A2F0E433F50C8003750C007505
:10F4B0000D00E854DFFAE9FB7405780C121EC2EA6D
:10F4C000450CF8EB450DF98C828D83E8F0A3E9F04B
:10F4D000900961E0241AF8A3E03400F985088285D8
:10F4E0000983A3E060118E828F83A3E06009888284
:10F4F00089837405F0807D850882850983A3A3E054
:10F5000054047015EE2412F582EF12F89FA2E24027
:10F510000888828983740180DB850882850983E0FD
:10F52000FA8E828F83E0FB900961E0FCA3E0F58313
:10F530008C82E06006EBFEEAFD8004EBFDEAFEEE65
:10F54000C394055027EDC3940550218E08ED75F046
:10F5500005A4FAABF074782AFA74823BFBEA25081A
:10F56000F582EB12F89F888289838088750A18805B
:10F5700003750A13A90A7F08021FFEEA450EF8EB7D
:10F58000450F12F587C422F98C828D83E8F0A3E938
:10F59000F0850C82850D83E02212F58713132290EB
:10F5A0000961E0241812F7AA22900961E0241812D8
:10F5B000F7BD22900961E0F8A312F5C0A3A3E022F1
:10F5C000E0F5838882A3A3A32274F6121F2C75088A
:10F5D00000750913780812213F791112F66C02F6B2
:10F5E0006074F6121F2C74EE121ED5EAFEEBFF7447
:10F5F0001C121F2012F63F851882851983ECF0A398
:10F60000EDF0750808750900780812213FEAFCEB57
:10F61000FD7404121F2012F2E9121EEB75080C751E
:10F620000913780812213F7402121F20AC82AD83A7
:10F63000790B12F668121EEB74128024900961E0B7
:10F64000FAA3E0FB22780812213F7402121F20ACBB
:10F6500082AD83791112F27512F66C121EEB7410E2
:10F66000121EEB7F02021FFEEEFAEFFB121348742C
:10F67000022274F6121F2C75081875091302F5D4AE
:10F6800074F4121F2C74F9121ED5EAFEEBFF8518D4
:10F6900082851983E9F0750A06750B00780A122134
:10F6A0003F7403121F2012F2E9121EEB750A1E7539
:10F6B0000B13780A12213F7402121F20AC82AD8313
:10F6C000790812F668121EEB740702EDFC74F6124C
:10F6D0001F2C75083075091302F5D4C082C083123F
:10F6E000EB396053900961E0241812F73D60031272
:10F6F0000538900961E0245B12F73D60031205387C
:10F70000900961E0245D12F73D600312053890090D
:10F7100061E0245F12F73D6003120538900961E053
:10F72000246112F73D600312053812F63C120538C9
:10F73000900961E4F0A3F01211A402EF9512F7BD55
:10F74000FAA3E0FBEA4B2274F7121F2C12EB37608E
:10F7500052900961E0246112F7A6122156900961C6
:10F76000E0245F12F7A6122156900961E0245D1291
:10F77000F7A6122156900961E0245B12F7A6122128
:10F7800056900961E0241712F7B9FB12EC1DFCA397
:10F79000E0FD12F26DFAEEF9120A0C7408121EEB7B
:10F7A00012127002EC4F12F7AA2212F7AE22F8A33F
:10F7B000E03400F9888289832212F7BD2212F7AE65
:10F7C000E022C082C083791012F63CEA4B60479079
:10F7D0000961E02418FAA3E03400FB8A828B8312CB
:10F7E000F63FEA4B603012F5B3FCA3E0FDEC4D6050
:10F7F00025EC2415F8ED3400F9EA2404FAEB340082
:10F80000FB88828983E0FC8A828B83E0C39C40046E
:10F8100088828983E0F902EF9574F6121F2CEAFEC4
:10F82000EBFF12EB39606912F8A7A3A3A3A3A312FD
:10F83000EB3C605C8808890988828983E08E828F2E
:10F8400083F088828983A3E08E828F83A3F0E824EB
:10F850001212F89CF9EE24020A0AEF3400FB12118E
:10F86000CEE5082415F582E50912F89F8E828F8374
:10F87000A3A3A3A3F0E5082413F582E5093400F55A
:10F8800083EE2405FCEF3400FD7402121DE88009AC
:10F890007C077D0079001204AE02F663F582E9343C
:10F8A00000F583E022F8A312F8AB22E0F58388820A
:10F8B00022C082C083790102FC2CC082C0837902FD
:10F8C00002FC2C74F5121F2C8A088B09ECFEEDFF4C
:10F8D000EE4F6005EA45097005790202F97D8E82D6
:10F8E0008F83E912FC9E8A828B8312F9838A828B32
:10F8F0008312F982EA24020A0AEB3400FB1211C8CF
:10F90000E912F984850882850983A3A3A312F982E9
:10F9100012FB3788828983E054086004D2F08002A9
:10F92000C2F0A2F012F98E541060047A0280027ABA
:10F93000008E828F83E04A12F994542060047A0486
:10F9400080027A008E828F83E04A12F98888828949
:10F9500083E0A2E012F98E540260047A0280027AF7
:10F96000008E828F83E04A12F99454046004780474
:10F97000800278008E828F83E048F079007F030256
:10F980001FFEA3E08E828F83F0A30EAF8322E433A9
:10F990008E828F83F088828983E02274ED121F2C7F
:10F9A000EAFEEBFF8C088D09EE4F6005EC4509700F
:10F9B00005790202FB328E828F83A3AE82AF83E091
:10F9C0008C828D8312FB428C828D83A385820A8573
:10F9D000830B8E828F83E0850A82850B8312FB4224
:10F9E000E0F9EC2402FAED3400FB1211CE8E828F86
:10F9F00083A30EAF83E5082404F50CE5093400F574
:10FA00000DE0850C82850D83F08E828F83A3E0F557
:10FA100012A30E0EAF83A2E0E433F50E750F00E5DE
:10FA200012A2E15004D2F08002C2F0A2F0E433F559
:10FA300010751100E512A2E25004D2F08002C2F06B
:10FA400012FB37E8FAE9FB8A828B83E054F7FCA3C8
:10FA5000E0FD7403780E121EC2EC450E54EFFC74E8
:10FA6000047810121EC2EC451054DFFCA2F0E433FF
:10FA7000F50E7405780E121EC2EC450EFC8A828BC0
:10FA800083F0A3EDF08E828F83E0F512A2E0E433E1
:10FA9000FEE512A2E15004D2F08002C2F0A2F0E42E
:10FAA00033F8E512A2E25004D2F08002C2F0EC5426
:10FAB000FE4E54FDFCE8C333F8EC48F8EDF9E85489
:10FAC0003BFCA2F0E433F50E7402780E121EC2EC79
:10FAD000450E8A828B83F0A3E9F07A217B0012091C
:10FAE0001C8A0E8B0FA80EA90F850C82850D83E052
:10FAF000C398E499401A7A227B0012091C8A0E8569
:10FB00000C82850D83E0FAC3E50E9AEB9400500455
:10FB10007912801E850882850983E0C39405500C04
:10FB2000850A82850B83E0C3940240047918800221
:10FB300079007F0B021FFEE5082405F8E509340073
:10FB4000F922F08E828F83A30EAF832274F6121FE8
:10FB50002CECFEEDFFEE4F6004EA4B70047902805E
:10FB6000188E828F83740312FC9212213FEAFCEB01
:10FB7000FD12FDA4121EEB790002FD6774F6121F40
:10FB80002CECFEEDFFEA4B6004EE4F70047902802E
:10FB900013750810750900780812213F12FD9B1299
:10FBA0001EEB790002FD6774F6121F2CECFEEDFFD0
:10FBB000EE4F6004EA4B7004790280188E828F83C6
:10FBC000740412FC9212213FEAFCEBFD12FDA41218
:10FBD0001EEB790002FD6774F6121F2CECFEEDFFA0
:10FBE000EA4B6004EE4F70047902801375081075BB
:10FBF0000900780812213F12FD9B121EEB790002CA
:10FC0000FD67C082C083EC4D6004EA4B700479024A
:10FC100080188C828D837405F0A3AC82AD838A82B8
:10FC20008B83E08C828D83F0790080031212D0D018
:10FC300083D082020122C082C083EA4B6004EC4D73
:10FC400070047902801A8A828B83A3E0F88C828DFB
:10FC500083F0C3940A5003E8700479188002790095
:10FC600080CD74F6121F2CECFEEDFFEE4F6004EA1F
:10FC70004B7004790280188E828F83740612FC9276
:10FC800012213FEAFCEBFD12FDA4121EEB790002EB
:10FC9000FD6712FC9E750810750900780822F0A314
:10FCA000AE82AF832274F6121F2CECFEEDFFEA4BFE
:10FCB0006004EE4F70047902801375081075090016
:10FCC000780812213F12FD9B121EEB790002FD679E
:10FCD00074F6121F2CEAFEEBFFECFAEDFBEA4B6028
:10FCE00004EE4F70047902802C8A828B8374071291
:10FCF000FDEF8E828F83A312FDFD75080875090044
:10FD0000780812213FEE2402FCEF3400FD12FDA81A
:10FD1000121EEB7900805074F6121F2CECFEEDFFE2
:10FD2000EA4B6004EE4F70047902803B8A828B8339
:10FD3000A3AA82AB83E0FCA3E0F8E4C8F9EC8E82CE
:10FD40008F83F0A3E9F07508088809780812213F2D
:10FD5000EA2402FCEB3400FDEE2402FAEF34001238
:10FD6000FDA7121EEB79007F02021FFE74F6121F20
:10FD70002CECFEEDFFEE4F6004EA4B70047902803C
:10FD8000188E828F83740812FC9212213FEAFCEBDA
:10FD9000FD12FDA4121EEB790080CC8A828B83A316
:10FDA000AC82AD83EEFAEFFB12049674022274F675
:10FDB000121F2CEAFEEBFFECFAEDFBEA4B6004EEBF
:10FDC0004F7004790280258A828B83740912FDEFBB
:10FDD000750806750900780812213F8E828F83A36B
:10FDE000AC82AD8312FDA8121EEB790002FD67F014
:10FDF000A3AA82AB838E828F8312FDFD22E08A82CA
:10FE00008B83F0A30AAB832274F6121F2CECFEED59
:10FE1000FFEA4B6004EE4F700479028013750810FE
:10FE2000750900780812213F12FD9B121EEB790024
:10FE300002FD6774F6121F2CECFEEDFFEA4B600426
:10FE4000EE4F7004790280378A828B83A3AA82AB3B
:10FE500083E08E828F83F08A828B83A30AAB8375C3
:10FE60000806750900780812213FEAFCEBFD8E8236
:10FE70008F83A3AA82AB8312FDA8121EEB79000226
:10FE8000FD6774F6121F2CECFEEDFFEE4F6004EAE6
:10FE90004B7004790280188E828F83740A12FC9250
:10FEA00012213FEAFCEBFD12FDA4121EEB790002C9
:10FEB000FD6774F6121F2CECFEEDFFEA4B6004EEBA
:10FEC0004F700479028013750810750900780812C4
:10FED000213F12FD9B121EEB790002FD6774F712A1
:10FEE0001F2CECFEEDFFEE4F6004EA4B700479022C
:10FEF00080148E828F83740B12FC9E1211C8E98EBF
:10FF0000828F83F079007F01021FFEC082C083EAE6
:10FF10004B6004EC4D7004790280108A828B83A3BD
:10FF2000E0F9ECFAEDFB1211CE790002FC2F74F32C
:10FF3000121F2C74FA121ED58A088B09890CECFE4C
:10FF4000EDFF7413121F20E0F8A3E0F9880A890B73
:10FF50008518828519837406F0A3E4F0850C82AAC3
:10FF600082FB7404121F20EAF0A3E4F0120DE47483
:10FF700002121F20EAF0A3EBF07402121F20E0FC33
:10FF8000A3E0FDEC4D6036EEFAEFFB850A82850BAF
:10FF900083121F2AE9FE7013851882851983AC82AB
:10FFA000AD83AA08AB09120D42E9FEEE601174029E
:10FFB000121F20E0FAA3E0FB12074280027E131218
:10FFC000119EEEF97406121EEB7F05021FFE74F7F8
:10FFD000121F2C7409121F20E0F8A3E0F98A828B0B
:10FFE000838003ECF0A3E8FEE9FFEE24FF18EF3472
:0EFFF000FFF9EE4F70ED7F01021FFE020122AD
:020000040001F9
:1000000074F6121F2CE9FE74FF2EF50804C313FECC
:100010006039EA2508FCEB3400FDEAF8EBF9EEFF65
:1000200088828983E0FA8C828D83E088828983F0DC
:10003000EA8C828D83F088828983A3A882A983ECCD
:1000400024FFED34FF1CFD1FEF70D57F02021FFE61
:10005000C082C08390618FE0F902819A74F7121F09
:100060002C74FE121ED5E9FE7005791202813153FF
:10007000B4F390619A743FF0A3745AF09061A0E4D5
:10008000F0906184F0E5E170FC75E1027F00906121
:10009000BFE070070FEFC394FA40F374FA6F700576
:1000A000791F0281317F009061BFE0851882851938
:1000B00083F09061BFE0F87401121F20E8F085180A
:1000C00082851983E0FCE8F9ECF849600A7403685A
:1000D000700374806970070FEFC394FA40C974FA13
:1000E0006F60BDEAF8EBF9EEFF9061BFE0F5BDE0AF
:1000F000F5BDE0F5BDE0F5BDE0F5BDE0F5BDE0F531
:10010000BDE0F5BDE5BC88828983F0A3A882A98300
:100110001FEF70D5E5E170FC75E1017401121F203D
:10012000E0F5BC851882851983E0F5BC120EDA79FA
:10013000007402121EEB02821BC082C08378937986
:100140000788828983E08A828B83F088828983A3EF
:10015000A882A9838A828B83A3AA82AB83E8649B4B
:100160007003E9640770DA8031C082C083789B79BC
:100170000788828983E08A828B83F088828983A3BF
:10018000A882A9838A828B83A3AA82AB83E8649F17
:100190007003E9640770DA8001F0D083D082020135
:1001A0002274F7121F2C7409121F20E0F8A3E0F943
:1001B000E5B3548F4440F5B3EB900385F0EAA3F028
:1001C00090038A7410F0900389E054E0F053D1FD5D
:1001D00075D602E5B354F84404F5B343B301E5B36F
:1001E000A2E350FAED900385F0ECA3F0E990038FC1
:1001F000F0E8A3F09003927410F0900391E054E0C3
:10020000F053D1FD53D1FB75D60275D60453B3F824
:1002100043B301E5B3A2E350FA80007F01021FFE61
:10022000C082C0839003877470F0A374B1F0A3E020
:10023000541FF090038B741DF0A37442F0A37470EC
:10024000F0A374B2F0900391E0541FF09003937404
:100250001EF0A3741202819974F7121F2C740912F4
:100260001F20E0F8A3E0F9EA6C7002EB6D603890B3
:100270000381E0541FF09003837420F0A37452F0C4
:10028000ED90037DF0ECA3F0EBA3F0EAA3F0E8908F
:100290000382F0E9900381F053D1FE75D60175D742
:1002A00001E5D1A2E050FA02821BC082C083E5B30F
:1002B000548F4450F5B37482900385F07458A3F0C2
:1002C00090038A7410F0900389E054E0F053D1FD5C
:1002D00075D602E5B354F84406F5B343B301E5B36C
:1002E000A2E350FA02819A74F4121F2C74E0121ED9
:1002F000D58908742C121F20E0FEA3E0FF740F556F
:10030000086004780180027800E9C4540F28F509D8
:10031000851882851983E58264587004E5836482B8
:100320006047900381E0541FF09003837420F0A392
:100330007452F0748290037DF07458A3F085198391
:10034000E58390037FF0851882E582900380F0902A
:1003500003827410F0900381E4F053D1FE75D6014E
:1003600075D701E5D1A2E050FA851882851983740A
:1003700001F0121F20E5826A7003E5836B604990EB
:100380000381E0541FF09003837420F0A37452F0B3
:10039000EB90037DF0EAA3F07401121F20E5839037
:1003A000037FF07401121F20E582900380F0900318
:1003B00082740DF0900381E4F053D1FE75D601757F
:1003C000D701E5D1A2E050FAE5B3548F4410F5B35C
:1003D000851983E583900385F0851882E582900373
:1003E00086F090038A7410F0900389E054E0F05393
:1003F000D1FD75D602E5B354F84406F5B343B30115
:10040000E5B3A2E350FAEF900385F0EEA3F0741089
:10041000121F20E58390038FF07410121F20E582D5
:10042000900390F09003927410F0900391E054E0E8
:10043000F053D1FD53D1FB75D60275D60453B3F8F2
:1004400043B301E5B3A2E350FA740F121F20740105
:10045000F0E5B3548F4430F5B3851983E5839003F9
:1004600085F0851882E582900386F053D1FD75D61C
:1004700002E5B354F84406F5B343B301E5B3A2E390
:1004800050FAEDF8900385F0ECF9A3F0E509C454B7
:10049000F0FA90038AF0E890038FF0E9A3F0EA9075
:1004A0000392F053D1FD53D1FB75D60275D604E506
:1004B000096012150953B3F843B301E5B3A2E35041
:1004C000FAE50970EE85080AEC250AF8ED3400F922
:1004D0007410121F20E088828983F07411121F208B
:1004E000E088828983A3F07412121F20E088828939
:1004F00083A3A3F07413121F20E088828983A3A32F
:10050000A3F07420121EEB7F04021FFE74F4121F6E
:100510002C74E0121ED58908742C121F20E0FEA353
:10052000E0FF740F55086004780180027800E9C488
:10053000540F28F509851882851983E5826458705F
:1005400004E58364826047900381E0541FF09003C8
:10055000837420F0A37452F0748290037DF0745879
:10056000A3F0851983E58390037FF0851882E582E7
:10057000900380F09003827410F0900381E4F053B4
:10058000D1FE75D60175D701E5D1A2E050FA8518E4
:10059000828519837401F0121F20E5826A7003E5D9
:1005A000836B6049900381E0541FF09003837420B3
:1005B000F0A37452F0EB90037DF0EAA3F074011203
:1005C0001F20E58390037FF07401121F20E58290C5
:1005D0000380F0900382740DF0900381E4F053D116
:1005E000FE75D60175D701E5D1A2E050FAE5B35406
:1005F0008F4410F5B3851983E583900385F0851842
:1006000082E582900386F090038A7410F09003894B
:10061000E054E0F053D1FD75D602E5B354F844063A
:10062000F5B343B301E5B3A2E350FAEF900385F0CD
:10063000EEA3F07410121F20E58390038FF0741066
:10064000121F20E582900390F09003927410F090B6
:100650000391E054E0F053D1FD53D1FB75D6027500
:10066000D60453B3F843B301E5B3A2E350FA7410D0
:10067000121F20E08E828F83F07411121F20E08EF3
:10068000828F83A3F07412121F20E08E828F83A3C7
:10069000A3F07413121F20E08E828F83A3A3A3F014
:1006A000740F121F207401F0E5B3548F4430F5B37A
:1006B000851983E583900385F0851882E582900390
:1006C00086F090038A7410F0900389E054E0F053B0
:1006D000D1FD75D602E5B354F84406F5B343B30132
:1006E000E5B3A2E350FAEDF8900385F0ECF9A3F03E
:1006F000E509C454F0FA90038AF0E890038FF0E91A
:10070000A3F0EA900392F0900391E054E0F053D10B
:10071000FD53D1FB75D60275D604E509601715099E
:10072000E5B354F84402F5B343B301E5B3A2E35093
:10073000FAE50970E902850274F1121F2C74E012C7
:100740001ED5EAFEEBFF890C8C0D742F121F20E0E2
:10075000F508A3E0F5097431121F20E0F50AA3E0C3
:10076000F50B740F550D6004780180027800ECC41D
:10077000540F28F50E120FF4851882851983E5822F
:1007800064587004E58364826047900381E0541FDD
:10079000F09003837420F0A37452F0748290037D70
:1007A000F07458A3F0851983E58390037FF08518D2
:1007B00082E582900380F09003827420F0900381A0
:1007C000E4F053D1FE75D60175D701E5D1A2E05012
:1007D000FA8518828519837449F07401121F20E587
:1007E000826E7003E5836F6049900381E0541FF0CF
:1007F0009003837420F0A37452F0EF90037DF0EE29
:10080000A3F07401121F20E58390037FF07401129E
:100810001F20E582900380F0900382740DF0900316
:1008200081E4F053D1FE75D60175D701E5D1A2E080
:1008300050FA740F121F20E50DF07411121F20746E
:1008400001F07412121F20E50CF0851983E58390E6
:100850000385F0851882E582900386F090038A7400
:1008600020F0900389E054E0F053D1FD75D6025397
:10087000B3F843B301E5B3A2E350FA53B3F843B37B
:1008800001E5B3A2E350FAE509900385F0E508A37A
:10089000F0E50EC454F090038AF0851983E5839047
:1008A000038FF0851882E582900390F09003927494
:1008B00010F0900391E054E0F053D1FD53D1FB755B
:1008C000D60275D604E50E6025E5B3FA150EE50EE1
:1008D0006004785080027800748F5A48F5B353B39F
:1008E000F843B301E5B3A2E350FAE50E70DB8518D7
:1008F00082851983E0850A82850B83F07401121FBB
:1009000020E0850A82850B83A3F07402121F20E089
:10091000850A82850B83A3A3F07403121F20E08550
:100920000A82850B83A3A3A3F07420121EEB7F071A
:10093000021FFE74F0121F2C74F8121ED5EAFEEB93
:10094000FF89098C087418121F20E0F50CA3E0F54C
:100950000DEE24B3F8EF3400F9E5B3548F4440F5BD
:10096000B3E9900385F0E8A3F090038A7410F09047
:100970000389E054E0F053D1FD75D602E5B354F895
:100980004404F5B343B301E5B3A2E350FA9005D5AF
:10099000E06408705DEE24A6F8EF3400F9EE24D58B
:1009A000F582EF3400F583121DC385188285198303
:1009B000121DCF851882851983E088828983F0749F
:1009C00001121F20E088828983A3F07402121F2085
:1009D000E088828983A3A3F07403121F20E0888239
:1009E0008983A3A3A3F088828983A3A3A3A374808C
:1009F000805AEE24A6F8EF3400F9EE24D5F582EF04
:100A00003400F583121DC3851882851983121DCF0A
:100A1000851882851983E088828983F07401121F0A
:100A200020E088828983A3F07402121F20E088826C
:100A30008983A3A3F07403121F20E088828983A313
:100A4000A3A3F088828983A3A3A3A3E4F0850882EB
:100A5000AA827420C39AF895E0F9E50C2AFCE50D0A
:100A60003400FDEC64587003ED6482603A900381B9
:100A7000E0541FF09003837420F0A37452F074824A
:100A800090037DF07458A3F0EDA3F0ECA3F0E89090
:100A90000382F0E9900381F053D1FE75D60175D73A
:100AA00001E5D1A2E050FAEE24A6F50AEF3400F5F4
:100AB0000B7404121F2085820E85830F780E12217D
:100AC0003F780C12213FAC08A909AA0AAB0B1210FF
:100AD000067404121EEB780E12213FAC0CAD0DA96A
:100AE00008AA0AAB0B120FFA7402121EEB9084F3E1
:100AF000780C121DA5EE24D5F582EF3400F583782D
:100B00000C121D447408121EEB7F08021FFE74F0C5
:100B1000121F2C74F4121ED5EAFEEBFF89098C0813
:100B2000741C121F20E0F50AA3E0F50BEE24B3F8C5
:100B3000EF3400F9E5B3548F4440F5B3E9900385F1
:100B4000F0E8A3F090038A7410F0900389E054E079
:100B5000F053D1FD75D602E5B354F84404F5B34320
:100B6000B301E5B3A2E350FA9005D5E06408705CE8
:100B7000EE24A6F8EF3400F9EE24D9F582EF340024
:100B8000F583121DC3851882851983121DCF851820
:100B900082851983E088828983F07401121F20E026
:100BA00088828983A3F07402121F20E088828983DF
:100BB000A3A3F07403121F20E088828983A3A3A358
:100BC000F088828983A3A3A3A3E4805BEE24A6F824
:100BD000EF3400F9EE24D9F582EF3400F583121DCD
:100BE000C3851882851983121DCF851882851983C4
:100BF000E088828983F07401121F20E08882898353
:100C0000A3F07402121F20E088828983A3A3F074EA
:100C100003121F20E088828983A3A3A3F08882891E
:100C200083A3A3A3A37480F0850882AA82E50A2A7D
:100C3000FCE50B3400FD8C828D83E0C0E07404126F
:100C40001F20D0E0F08C828D83A3E0C0E0740512F9
:100C50001F20D0E0F08C828D83A3A3E0C0E0740657
:100C6000121F20D0E0F08C828D83A3A3A3E0C0E00C
:100C70007407121F20D0E0F07420C39AF895E0F9B1
:100C8000EC64587003ED6482603A900381E0541F75
:100C9000F09003837420F0A37452F0748290037D6B
:100CA000F07458A3F0EDA3F0ECA3F0E8900382F009
:100CB000E9900381F053D1FE75D60175D701E5D1D6
:100CC000A2E050FA7404121F2085820C85830D78EF
:100CD0000C12213FAC0AAD0BA908EE24A6FAEF34A2
:100CE00000FB1210007402121EEB850882AA8274A7
:100CF00020C39AF895E0F9E50A2AFCE50B3400FDDB
:100D0000EC64587003ED6482603A900381E0541FF4
:100D1000F09003837420F0A37452F0748290037DEA
:100D2000F07458A3F0EDA3F0ECA3F0E8900382F088
:100D3000E9900381F053D1FE75D60175D701E5D155
:100D4000A2E050FA7408121F2085820C85830D786A
:100D50000C12213F780A12213FAC08A909EE24A603
:100D6000FAEF3400FB1210067404121EEB74041226
:100D70001F20E0F87408121F20E06870307405121C
:100D80001F20E0F87409121F20E06870207406121A
:100D90001F20E0F8740A121F20E068701074071218
:100DA0001F20E0F8740B121F20E0686004790080B7
:100DB000199084F3780C121DA5EE24D9F582EF3436
:100DC00000F583780C121D447901740C028B067FA8
:100DD00001021FFE74F4121F2C74FD121ED5EAFED0
:100DE000EBFF8C088D09EE4F6005EC450970047926
:100DF00002805E7903851882851983AA82AB8312EB
:100E000011C27402121F20E0543F4440F0780812CF
:100E1000213F7402121F20AC82AD83EEFAEFFB1269
:100E200011AA7402121EEBE9FE7024750A03750BF9
:100E300000780A12213F7402121F20AC82AD83E5B4
:100E4000082403FAE5093400FB12999B121EEBEE0D
:100E5000F97403028EF774F4121F2C74FA121ED563
:100E60008A088B09ECFEEDFFEA45096004EE4F703D
:100E7000047902807E750A03750B00780A12213FFF
:100E8000EE24030C0C0CEF3400FD7402121F201230
:100E90009997121EEB7402121F20E0543F4440F059
:100EA0007403121F2085820A85830B780A12213F62
:100EB0007402121F20AC82AD83AA08AB091211AADA
:100EC0007402121EEBE9702B75080375090078088F
:100ED00012213FEEFCEFFD7405121F20AA82AB83A6
:100EE0001204A87402121EEBE964017004790080F8
:100EF00002790174068000121EEB7F04021FFE744B
:100F0000E8121F2C74E8121ED58A0A8B0B89178CE5
:100F1000088D09EA450B6005EC4509700579020268
:100F2000903874042517F51612924470030290331A
:100F30001209588A0C8B0D8C0E8D0F8517107511A8
:100F400000781012213FAC0AAD0BEE2404FAEF3406
:100F500000FB1295FD121EEB8E828F83A3A3A3E5E7
:100F60000CF0E50DF5158E828F83A3A3F0850C1090
:100F7000F511850E12850F1374107810121CE6E51A
:100F800010F5148E828F83A3F0850C10850D11F55A
:100F900012850F1374187810121CE6E510F50A8EEE
:100FA000828F83F0751010781012213F120952EAD7
:100FB000FCEBFD740A121F201295F9121EEB851826
:100FC00082851983858210858311781012213FA9AB
:100FD00016EEFCEFFD740A121F20AA82AB831211D9
:100FE000DA7402121EEBE9F50B703F850882850961
:100FF00083E50CF0A3E51512903DE51412903DA396
:10100000E50AF0750C08750D00780C12213F74028A
:10101000121F20AC82AD83E5082404FAE5093400F0
:10102000FB1295FD121EEB12095EEEFAEFFB1205A4
:10103000388003750B13A90B74180295F1F085081D
:1010400082850983A3A32274E8121F2C74DD121E6B
:10105000D57401121F20EAF0A3EB1299A18C168D12
:1010600017743B121F20E0F50B743C121F201296E0
:1010700003EC45176006E508450970057902029200
:101080003F7401121F20129329120E028A148B152D
:10109000EA45157005791402923F85088285098317
:1010A000E0F510E4F511F512F513A3E0F50CE4F505
:1010B0000DF50EF50F7408780C121CFF7810790CE2
:1010C000121D1E850882850983A3A3E0F50CE4F5B3
:1010D0000D7410780C121CFF7810790C121D1E85EF
:1010E0000882850983A3A3A3E0F50CE4F50E741828
:1010F000780C121CFF7810790C121D1EEA241DF5C5
:1011000082EB129B0C780C121DA57810790C12132F
:10111000D7400D9084DF780C12139C600302907C02
:10112000851882851983E060118A828B83A3A3A32B
:10113000E0A2E14005790102923F7C087D00790040
:101140007403121F20AA82AB831204AE7404250B11
:10115000F50A1292447005791302923F850B0C75C3
:101160000D00780C12213FAC16AD17EE2404FAEFF7
:101170003400FB1295FD121EEB750C04780C122145
:101180003FAC08AD09EEFAEFFB1295FD121EEB75B0
:101190000C10780C12213FE514240DFCE5153400E9
:1011A000FD7415121F201295F9121EEB7403121F05
:1011B0002085820C85830D780C12213FA90AEEFC54
:1011C000EFFD7415121F20AA82AB831211DA74028C
:1011D000121EEBE9F50A705E750C08750D00780CAF
:1011E00012213F7405121F20AC82AD83740D121FB3
:1011F000201295F9121EEB780C12213FE508240409
:10120000FCE5093400FD740D121F20AA82AB831285
:1012100004A87402121EEBE964016005750A0180DE
:1012200015781012213B7405121F20129329120900
:10123000647404121EEBEEFAEFFB120538A90A746F
:10124000230295F1FA7B001205328A0C8B0DAE0C4D
:10125000AF0DEE4F2274F4121F2C89081293877081
:1012600003029318E508704B129335E0750A087570
:101270000B00780A702512213FEAFCEBFD90095F14
:10128000E0240212931D121EEB120C82E970071269
:10129000932F7401807D750801801312213FEAFCB1
:1012A000EBFD90095FE0240A12931D121EEB1293CE
:1012B0008760617A127B001204C08A0A8B0BAE0A27
:1012C000AF0BEE4F603E8E828F8374C1F0A3E508B2
:1012D000F0750A10750B00780A12213F90095FE043
:1012E0002402FCA3E03400FDEE24020A0AEF3400DD
:1012F000FB12999B121EEBEEFAEFFB12932FA3E069
:10130000F91204CC90095F12932912053890095FF5
:10131000E4F0A3F0790180027900028EFAFAA3E0EA
:101320003400FB120496740222E0FAA3E0FB229040
:10133000095FE0F8A3E0F58388822274F2121F2C83
:101340007A207B0012091C8A088B09E4F50AF50B48
:101350008B0DEA450D6016780812213B7A017B005F
:10136000900967E0F91205687404121EEB029436C6
:10137000C082C0837A017B00900967E0F91205748E
:10138000D083D08202012290095FE0F8A3E0F9E85F
:10139000492274F2121F2C74D0121ED58A0A8B0BAC
:1013A000ECFEEDFF743E121F201293F412213FACAD
:1013B0000AAD0B7402121F201295F9121EEB750A6A
:1013C00003750B00780A12213FEEFCEFFD741F122B
:1013D0001F201295F9121EEB1293E4780A12213F96
:1013E000742F803A851882851983AA82AB831211E3
:1013F000D4E9FE22E0F508A3E0F5097C307D007910
:1014000000851882851983AA82AB831204AE750CFD
:1014100010750D00780C22780A12213F7422121FD9
:1014200020AC82AD83AA08AB091295FD121EEBEE2B
:10143000F97430121EEB7F06021FFE74E8121F2C97
:1014400074B0121ED5EAFEEBFF8C168D17890A7454
:1014500068121F20129603746A121F20E0F50CA375
:10146000E0F50D746C121F20E0F510A3E0F5117487
:101470006E121F20E0F50B746F121F20E0F514A30D
:10148000E0F5157471121F20E0F50EA3E0F50F7C56
:10149000307D0079007420121F20AA82AB831204D1
:1014A000AE751210751300781212213FEEFCEFFD9D
:1014B0007422121F201295F9121EEB7C107D007908
:1014C00000851882851983AA82AB831204AE751237
:1014D00007781212213FAC08AD097402121F2012C6
:1014E00095F9121EEB750807750900780812213F5F
:1014F000AC0CAD0D7409121F201295F9121EEBE50C
:101500000B6009740E121F2074018006740E121FE6
:1015100020E4F0E50A6009740F121F2074018006B0
:10152000740F121F20E4F07C107D007900EC121F74
:1015300020AA82AB831204AE750806780812213FF8
:10154000AC10AD117416121F201295F9121EEB7813
:101550000812213FAC14AD15741C121F201295F90E
:10156000121EEB750810780812213FAC16AD1774E7
:1015700032121F201295F9121EEB851882851983ED
:10158000AC82AD837430121F20AA82AB831211B6D5
:101590007420121F201293EA780812213F7442121D
:1015A0001F20AC82AD837432121F20129997121E35
:1015B000EB7410121F20AC82AD837430121F20AA6E
:1015C00082AB831211B67420121F20AA82AB831241
:1015D00011D4E9FF780812213F7442121F20AC8217
:1015E000AD83AA0EAB0F1295FD121EEBEE4FF974F0
:1015F00050121EEB7F10021FFEAA82AB8312049CC6
:10160000740222E0F508A3E0F5092274F7121F2CFA
:1016100079108C828D83E0F88A828B83E068F0A356
:10162000AA82AB838C828D83A3AC82AD8319E970CF
:10163000E1028DCF74F2121F2C74D0121ED58C0AC9
:101640008D0B743E121F20E0FEA3E0FF7440121FBA
:1016500020129603750C10750D00780C12213FEACC
:10166000FCEBFD7402121F201295F9121EEB750C93
:1016700008780C12213FAC0AAD0B7412121F201215
:1016800095F9121EEB750A08750B00780A12213FB6
:10169000EEFCEFFD741A121F201295F9121EEB12C8
:1016A00096A50294171293E4750A102274F4121F7F
:1016B0002CEAFEEBFF890B750A0080181204BA129F
:1016C0009B03EBF0050AE50AC3950B5007129B0339
:1016D000EAF0050AE50AC3950B40E1028EFAC082E2
:1016E000C0838A828B83E0F902938074F6121F2CE8
:1016F0008982AE82E9A2E25004D2F08002C2F08A6E
:10170000828B83E054FCFCA3E0FDEC4E5403FCA26E
:10171000F0E433F50875090074027808121EC2EC73
:101720004508FEE954F8FCEE4C8A828B83F0A3ED69
:10173000F07F02021FFE74F6121F2CEA2420F50827
:10174000EB3400F509780812213FEA2410FCEB3451
:1017500000FD129A8E121EEB80D774E8121F2C74B3
:10176000ED121ED57401121F20ECF0A3ED1299A109
:101770008A168B177A107B001205328A128B137A25
:10178000107B001205328A108B11E512451370038D
:10179000029973EA45117003029973781012213F80
:1017A000AC12AD13AA16AB171211E07402121EEBA5
:1017B000E9F50A600302997C129AA28A0E8B0FE562
:1017C0000C450D7003029954EA450F7003029954B9
:1017D000851882851983E0240FF8E43400F97A1023
:1017E0007B00121E4288088909AE08AF09E0540F39
:1017F000FCEE4F70067E017F008007EC70047801DC
:1018000080027800EE14C454F0FA7401121F20E034
:101810002AFAA3E03400FBE8A2E0500B780E122174
:101820003FAC12AD1380588C0B750800850882AC54
:10183000827403121F20E5822CF8E5833400F9EC52
:10184000C3950B500FEA2CF582EB129B0CE08882BB
:101850008983800FE50B6508888289837004748012
:101860008001E4F00508E508C3941040BF780E122B
:10187000213FAC10AD117405121F20AA82AB831258
:101880009A9C121EEB7C107D007900AA0CAB0D1205
:1018900004AE750800750900804C7403121F208582
:1018A0008214858315781412213FE508C454F0F89A
:1018B0007403121F20E028FCA3E03400FDAA0CAB47
:1018C0000D129A9C121EEB780C12213F7405121F08
:1018D00020129A86121EEBE9F50AE5082401F508A4
:1018E000E5093400F509EE24FFF8EF34FFF9C3E50C
:1018F0000898E50999A2D265D0335004E50A609AA8
:10190000E50A70597403121F2085820885830978BF
:101910000812213FAC0EAD0FAA0CAB0D129A9C120F
:101920001EEB780C12213F7405121F20129A8612AA
:101930001EEBE9F50A750808750900780812213FC1
:10194000AC0CAD0D742D121F2012932912999B120D
:101950001EEB8009750A13E50C450D6007AA0CAB58
:101960000D120538E50E450F6012AA0EAB0F1205D9
:10197000388009750A13E51245136007AA12AB13E4
:10198000120538E51045116007AA10AB1112053891
:10199000A90A74130295F1AA82AB83120496740209
:1019A00022F0E9851882851983F02274EE121F2C2B
:1019B0008A088B098C0E8D0F7412121F20E0F5100F
:1019C000A3E0F511129AA28A0A8B0BAE0AAF0BE5BF
:1019D0000C450D7003029A64EE4F7003029A647C0A
:1019E000107D0079001204AE780C12213FEEFCEF5E
:1019F000FDAA08AB09129A8E121EEBE9F50A706D6A
:101A0000750833750983850C82850D83E0A2E74054
:101A10000DAC0EAD0FAA0CAB0D1211EC8016EEFC46
:101A2000EFFDAA0CAB0D1211EC780E12213F129AA9
:101A300094121EEB850E82850F83E0A2E7400DAC69
:101A400010AD11AA0EAB0F1211EC8021EEFCEFFDD0
:101A5000AA0EAB0F1211EC781012213F129A9412B9
:101A60001EEB8009750A13E50C450D6007AA0CAB47
:101A70000D120538EE4F6007EEFAEFFB120538A99C
:101A80000A7F0A021FFEAC82AD83AA16AB17120EA4
:101A900056740222AC08AD09EEFAEFFB1211E6749F
:101AA00002227A107B001205328A0C8B0D7A107B91
:101AB000001205322274F6121F2C740A121F20E045
:101AC000F8A3E0F9750900850982AE82EC2EF58253
:101AD000ED129B0CC082C083EA2EF582EB129B0CA8
:101AE000E0D083D082F508E06508C0E0E82EF582FA
:101AF000E9129B0CD0E0F00509E509C3941040C73A
:101B0000029731850A08EE2508F582EF3400F58347
:101B10002274F5121F2C75090075080FE508F833BB
:101B200095E0F9EC28FEED39FFEA28F8EB39F98861
:101B3000828983E0C3338E828F83F04509F08882E7
:101B40008983E0A2E7E433F50974FF2508F508C3AB
:101B50009400A2D265D03350C37F03021FFEC0821F
:101B6000C08390055974FFF0A3F0A3F0A3F0A3F095
:101B7000A3749FF0A3E4F0A37420F090055814F030
:101B8000D083D08202012274F6121F2CE9FE12A724
:101B90002C6008129E53741A129E3D7F02021FFE93
:101BA00074EE121F2C890AEAFEEBFF8C088D099057
:101BB000096BE06003029CB3E9333354FC04F50B7A
:101BC0007407250BFA7B001204C08A0C8B0DAC0C39
:101BD000AD0DEC4D7003029CB38C828D837401F0CB
:101BE000A374FFF0EC2402F8ED3400F9880C890DA1
:101BF000EC24040808ED3400F9850C82850D83E897
:101C0000F0A3E9129CD47404129CD4A37413129C04
:101C1000DFE50B129CDFA3E50AF0750B00029CA325
:101C2000850B8285820E750F00E50EC333FAE4330F
:101C3000FBEE2AF8EF3BF9881089117402780E1236
:101C40001EC2A80EA90F851082851183E0F50EC073
:101C50000E129CBDD0E0F0851082851183A3E0F5C3
