:020000040000FA
:10080000C0DFFFFF0000007C41414141FFFFFFFFCF
:10081000FFFFFFFFFFFFFFFFFFFFFFFFFFFFFFFFE8
:10082000000102030405060708090A0BFFFFFFFF8A
:10083000020C98021767FFFFFFFFFFFFFFFFFFFF9C
:10084000FFFFFFFFFFFFFFFFFFFFFFFFFFFFFFFFB8
:10085000FFFFFFFFFFFFFFFFFFFFFF021EAAFFFFDB
:10086000FFFFFF021E8CFFFFFFFFFFFFFFFFFFFFE9
:10087000FFFFFFFFFFFFFFFFFFFFFFFFFFFFFFFF88
:10088000FFFFFF0217DAFFFFFFFFFFFFFFFFFFFF82
:10089000FFFFFFFFFFFFFFFFFFFFFF021E63FFFFE2
:1008A000FFFFFFFFFFFFFFFFFFFFFFFFFFFFFFFF58
:1008B000FFFFFF02161B01FF0000B4000028002804
:1008C00000283075A000A000A000A00000080008CB
:1008D000E001F000100010001000100010001000E7
:1008E00050005000500010001000D0070000000021
:1008F00000000F0001000500307507001000010026
:1009000081FF0000FFC420E220CA20FF020202088B
:10091000025000A0000000E80302A6850100007755
:1009200085028A850100009909028685010000B1CF
:1009300002028A850100009A09028485010000C72D
:1009400002028A850100009B09028285010000C91C
:1009500002028A850100009C09028085080000CA05
:1009600002028A850100009D09028E850100009E19
:1009700009FF0100FF2002A6850100007185028A9F
:1009800085010000020A0294850000000000028830
:10099000850300001703B826B826B826B826B8265F
:1009A000B826B826B826B826B826B826B826B82657
:1009B00046295E294029FFFF0202020202020202CA
:1009C00002010D000000100102A6850100007485DF
:1009D000028A85010000450A02A885010000770708
:1009E000028A85010000460A02A485010000ED8309
:1009F000028A85010000470A02A2850100009E8349
:100A0000028A85010000480A02A085010000ED82EB
:100A1000028A85010000490A029E85010000DB82EE
:100A2000028A850100004A0A029C85010000C982F1
:100A3000028A850100004B0A029A85010000FF82AC
:100A4000028A850100004C0A02988501000090830B
:100A5000028A850100004D0A0296850100004E0AB7
:100A600001E803053F101C02A6850100007A8502FB
:100A70008A85010000F30A1058820200005F080214
:100A80008885030000610802BA85010000B983026D
:100A90008A85010000F30A106882020000600802E3
:100AA0008885030000670802BA850100006484FF9E
:100AB000FFFF000130750302010600000000000086
:100AC0000000000000000000000000000000000026
:100AD000000000000000FFFF0600800CE80314097E
:100AE00053696D706C65424C4550657269706865FC
:100AF00072616C051250002003020A000201060315
:100B000002F0FF69426561636F6E00000000000043
:100B10000000000000000000082E00000E2E030A56
:100B200043686172616374657269737469632031CB
:100B3000000243686172616374657269737469630A
:100B4000203200084368617261637465726973746E
:100B50006963203300104368617261637465726970
:100B60007374696320340002436861726163746561
:100B700072697374696320350002A6850100007DE7
:100B800085028A85010000AC0B02B28503000035A6
:100B90000902BA85010000AD0B028A85010000BE82
:100BA0000B02B485010000360902BA85010000BFBE
:100BB0000B028A85010000D00B02B68502000037C7
:100BC0000902BA85010000D10B028A85010000E20A
:100BD0000B02B8850000003809028885030000393F
:100BE0000902BA85010000E30B028A85010000F4C6
:100BF0000B02AC850400003F0902BA85010000F534
:100C00000BE5C754F84405F5C779012200000080C0
:100C1000FB120C01B90003020C82E479217808B8B8
:100C200000028004F709D8FCE479297802B80002B0
:100C30008004F709D8FCE490028078C57907800227
:100C4000F0A3D8FCD9FA781C9008B67A01BA000251
:100C50008007E493A3F608DAF9900944AA82AB83EB
:100C60009008B7784B79048015E493A3AC82AD83E8
:100C70008A828B83F0A3AA82AB838C828D83D8E98E
:100C8000D9E77582BB7583A77407120CAA75820C0D
:100C900075830C7400120CAA75D00075813F751A0B
:100CA00080751B02759F00020C11C09FF59FE473B5
:100CB000D09F22D083D082C09FE493C0E074019380
:100CC000C0E0740293F59F22E066701008A3E0660E
:100CD000700A08A3E066700408A3E06622C3E796E2
:100CE0000809E7960809E7960809E79622C3E096FF
:100CF00008A3E09608A3E09608A3E09622C00AC3E2
:100D0000E096F50A08A3E096420A08A3E096420A94
:100D100008A3E096450A7001D3D00A22080808EA21
:100D2000C0E0EBC0E086F0E7A4FA180986F0E7A47B
:100D30002AFA180986F0E7A42AFA180986F0E7A427
:100D40002AFA1986F0E7A4FBE5F02AFA190886F0DA
:100D5000E7A42BFBE5F03AFA190886F0E7A42BFB91
:100D6000E5F03AFA18180986F0E7A4C5F02BFBE481
:100D70003AFA1908E7C5F0C6A426F6E5F03BFBE40D
:100D80003AFA1886F0E7A4F6E5F00826F6E43B0800
:100D9000F6E43A08F6D0E0FBD0E0FA22E4CFC0E077
:100DA000E4CEC0E0E4CDC0E0E4CCC0E075F020C308
:100DB000E633F608E633F608E633F608E633F618C7
:100DC0001818EC33FCED33FDEE33FEEF33FFC3ECCC
:100DD0009709ED9709EE9709EF97191919400FFF39
:100DE000EC97FC09ED97FD09EE97FE191906D5F071
:100DF000BEECF709EDF709EEF709EFF7191919D06D
:100E0000E0FCD0E0FDD0E0FED0E0FF226016080854
:100E100008C6C313C618C613C618C613C618C61309
:100E2000C6D5E0EA227009080808226016181818CA
:100E3000C6C333C608C633C608C633C608C633C6DB
:100E4000D5E0EA22E627F60809E637F60809E6378C
:100E5000F60809E637F622E026F608A3E036F6089B
:100E6000A3E036F608A3E036F622E026F008A3E079
:100E700036F008A3E036F008A3E036F022C3E69788
:100E8000F60809E697F60809E697F60809E697F6E0
:100E900022C3E096F008A3E096F008A3E096F008DD
:100EA000A3E096F022E056F608A3E056F608A3E089
:100EB00056F608A3E056F622E056F008A3E056F0F6
:100EC00008A3E056F008A3E056F022E0F608A3E0FD
:100ED000F608A3E0F608A3E0F622E6F008A3E6F0A1
:100EE00008A3E6F008A3E6F022E0FAA3E0FBA3E003
:100EF000FCA3E0FD22EAF0A3EBF0A3ECF0A3EDF0FD
:100F000022CAC0E0E6F0A308DAFAD0E0FA22CAC0AA
:100F1000E0E0A3C582CCC582C583CDC583F0A3C55F
:100F200082CCC582C583CDC583DAE6D0E0CA22C3B0
:100F3000E498F8E499F9120F708026C3E49AFAE471
:100F40009BFBE920E7E9120F70E498F8E499F92295
:100F5000C3E498F8E499F9120F70E498F8E499F969
:100F6000C3E49AFAE49BFB22EB20E7CFE920E7E019
:100F7000B90010BB0008E88AF084F8AAF022E4FB6C
:100F8000C8FA22EB70227B10C833C8C933C933506A
:100F900007C39AC3DBF280069A50012ADBEAC83302
:100FA000F4C8C933F4C9FA2275F008E4C833C8C9D3
:100FB00033C933C99AC99B5004C92AC93BD5F0EC3F
:100FC000FBC833F4C8E4C9FA22600D08C6A2E713CF
:100FD000C618C613C6D5E0F322600C08C6C313C6F4
:100FE00018C613C6D5E0F422700422600D18C6C3DB
:100FF00033C608C633C6D5E0F41822251A10AF0848
:10100000F51A4002151B8008F51A4002151BD2AFD5
:1010100022C0D0251A10AF08F51A5002051B80080F
:10102000F51A5002051BD2AFD0D022251AF5821036
:10103000AF08F51A4002151B8008F51A4002151B6F
:10104000D2AF851B8322251AF582E4351BF5832256
:10105000E473251AC582C0E0E51B34FFC583C0E0F8
:10106000E51AC3958224F810AF0885831B85821A80
:10107000800885831B85821AD2AFCEF0A3E520F0CD
:10108000A3780AE608F0A3DEFAEFF0A3E58124FADC
:10109000F8E608F0A3E608F0A3E608F0A30808E6DF
:1010A00008F0A3E608F0A315811581D0E0FED0E09A
:1010B000F8158115811581E8C0E0EEC0E022251AFF
:1010C000C582C0E0E51B34FFC583C0E0E51AC395C7
:1010D0008224F910AF0885831B85821A80088583D6
:1010E0001B85821AD2AFCEF0A3E520F0A3780AE6E2
:1010F00008F0A3DEFAEFF0A3E58124FBF8E608F0A0
:10110000A3E608F0A30808E608F0A3E608F0A31594
:10111000811581D0E0FED0E0F815811581E8C0E0AE
:10112000EEC0E022851B83851A82E0A3FEE0A3F5D2
:1011300020780AE0A3F608DFFAE0A3FFE0A3C0E00E
:10114000E0A3C0E0E0A3C0E0E0A3C0E0E0A3C0E013
:1011500010AF0885821A85831B800885821A8583D3
:101160001BD2AFD083D082020CB0851B83851A823C
:10117000E0A3FEE0A3F520780AE0A3F608DFFAE09A
:10118000A3FFE0A3C0E0E0A3C0E0E0A3C0E0E0A3D1
:10119000C0E010AF0885821A85831B800885821AFB
:1011A00085831BD2AFD083D08222C0D0251AC582BE
:1011B000C0E0E51B34FFC583C0E0E51AC395822477
:1011C000F310AF0885831B85821A800885831B85F1
:1011D000821AD2AFC8F0A3E9F0A3EAF0A3EBF0A320
:1011E000790AE709F0A3D8FAECF0A3EDF0A3EEF04A
:1011F000A3EFF0A3D0E0F0A3D0E0F0A3D0E0F0A301
:10120000E520F0A3E5F0F0A322851B83851A82E098
:10121000C0E0A3E0F9A3E0FAA3E0FBA3780AE0F6BC
:1012200008A3DFFAE0FCA3E0FDA3E0FEA3E0FFA338
:10123000E0C0E0A3E0C0E0A3E0F5D0A3E0F520A388
:10124000E0A3F5F010AF0885831B85821A8008851E
:10125000831B85821AD2AFD082D083D0E0F8D0E051
:101260003274048006740280027401C0E0F4041237
:10127000102BD0E0120F012274048004740280004D
:10128000CCC0E0EDC0E0E51AC39CCCAD1B50011D05
:1012900010AF068C1A8D1B80068C1A8D1BD2AF12D4
:1012A0000F0ED0E0FDD0E0FC22D083D082E9C0E078
:1012B000E493A3C386F0C5F095F0F908E493A38600
:1012C000F0C5F095F0700BE493A3C3994005E904D1
:1012D0008002A3E475F002A42582F582E5F035834F
:1012E000F583D0E0F9E493A3C0E0E493C0E022D01A
:1012F00083D082ECC0E0EDC0E0E493A3FCE493A3D0
:10130000FDED4C600D12133BEC24FFFCED34FFFDB2
:1013100080EFE493A3FCE493A3FDED4C600D121366
:101320007AEC24FFFCED34FFFD80EFD0E0FDD0E04F
:10133000FCE493A3C0E0E493C0E022C0E0C3E493E4
:1013400096087401939618400FE493667008087429
:101350000193661870007019A3A3C3E493960874F0
:1013600001939618A3A3400DD0E0D0E0D0E0021383
:101370002BA3A3A3A3A3A3D0E022C0E0C0F088F0D6
:10138000E4936670080874019366187000A8F0A3CF
:10139000A3700BD0F0D0E0D0E0D0E002132BA3A3D9
:1013A000D0F0D0E022FFFFFF74F51210BEEAFEEB92
:1013B000FFEE2434F8EF3400F9880A890BEE243567
:1013C000F582EF3400F583E0F8EE2437F582EF3450
:1013D00000F583E0F50CEC850CF0A4FCAAF0850C7C
:1013E000F0EDA42AFDE82CF8E43DF97A257B001203
:1013F0000F70EA850A82850B83F05407F87401B8F0
:1014000000028004C333D8FCC0E0E0131313541F60
:10141000F8EE28F8EF3400F9E8245DF582E93400AD
:10142000F583D0E0F8E0586008EE2434F582EF80D0
:101430001EEE2436F582EF3400F583E0F5F0EA8401
:10144000A8F0EE28F8EF3400F9E82438F582E93402
:1014500000F583E0F97F0402116A74F51210BEEA08
:10146000FEEBFFEE2434F582EF3400F583E0C0E0BC
:10147000EE2435F582EF3400F583D0E0F08E828FD4
:1014800083A3A3A3A3A3A3A3C082C0838E828F83BD
:10149000A3A3A3A3A3E0F8A3E0F9D083D082E0C381
:1014A00098F50AA3E099F50BEE2480F582EF34005D
:1014B000F583E064017069EE2481F582EF3400F574
:1014C00083E0F8A3E0F98E828F83A3A3A3A3A3A351
:1014D000A3E0FCA3E0FD8E828F83A3A3A3A3A3E0DC
:1014E000FAA3E0FBC3EA9CEB9D5027C3EC98ED996F
:1014F000402EC3EA98EB9950277CFC7D04EEFAEF6E
:10150000FB122616EE2480F582EF3400F583E4F01A
:10151000800EC3EA98EB9940E0C3EC98ED9950D95E
:10152000EE2434F8EF3400F9E8FCE9FDEE2435F55B
:1015300082EF3400F583E0F8EE2437F582EF3400D3
:10154000F583E0F50CE50A850CF0A4F50AAAF08510
:101550000CF0E50BA42AF50BE8250AF8E4350BF9A5
:101560007A257B00120F70EA8C828D83F05407F885
:101570007401B800028004C333D8FCC0E0E0131348
:1015800013541FF8EE28F8EF3400F9E8245DF582D3
:10159000E93400F583D0E0F8E0586008EE2434F533
:1015A00082EF801EEE2436F582EF3400F583E0F5FD
:1015B000F0EA84A8F0EE28F8EF3400F9E82438F5D2
:1015C00082E93400F583E0F9121E55021455C082F9
:1015D000C083851A82851B83E0F8A3E0F9C3EA9CE7
:1015E000EB9D5012C3EC98ED994019C3EA98EB9922
:1015F000501279018010C3EA98EB9940F5C3EC983A
:10160000ED9950EE7900D083D08222EAC39CFAEBA8
:101610009DFB22FF8521878522C622C0E0C0D0E83D
:10162000C0E0E9C0E0EAC0E0EBC0E0ECC0E0EDC043
:10163000E0C00AC00BC00CC00DC082C083C0F075F2
:101640009B00906182E0A2E640030216F9E591A2B8
:10165000E640030216F97591BF9003C1E06405707E
:101660000812274E12275A800312275475210012A0
:1016700027B4E99003C2F079001227A81225867AD0
:10168000017B009003C0E0F9122A7E907803E064A9
:1016900042600302174290055EE014F060030217F7
:1016A00042C2AF1216A600782AD0E0F618D0E0F6B3
:1016B000E59F5407F9700590854580039085417832
:1016C0000A120ECBE9C4C0E07829E6550AF50A08EB
:1016D000E6550BF50B740B780A120FD9D0E0250AEA
:1016E000F8906270E0A2E740F8E8C333906272F0CD
:1016F000906270E0D2E0F08049E0A2E55024E591EC
:10170000A2E5501E7591DF9003C1E0640D70139047
:1017100003E3E004F064287002E4F07A00E0F912D8
:101720002826906181E0A2E35009E5E9A2E3500395
:1017300075E9F7A3E0A2E75009E591A2E750037528
:10174000917FD0F0D083D082D00DD00CD00BD00AB6
:10175000D0E0FDD0E0FCD0E0FBD0E0FAD0E0F9D062
:10176000E0F8D0D0D0E032C0E0C0D0C082C08390DA
:101770006183E0A2E05009E5BFA2E0500375BFFE1F
:10178000E0A2E15009E5BFA2E1500375BFFDE0A270
:10179000E25009E5BFA2E2500375BFFBE0A2E350AF
:1017A00009E5BFA2E3500375BFF7E0A2E45009E5E5
:1017B000BFA2E4500375BFEFE0A2E55009E5BFA268
:1017C000E5500375BFDFE0A2E65009E5BFA2E65091
:1017D0000375BFBFD083D0828088C0E0C0D0E8C08E
:1017E000E0E9C0E0EAC0E0EBC0E0ECC0E0EDC0E062
:1017F000C0F0E5A7A2E6500FE5A1A2E6500953A765
:10180000BF75A1BF12183FE5A7A2E5500CE5A1A244
:10181000E5500653A7DF75A1DFE5A7A2E15009E572
:10182000A1A2E1500375A1FDE5A7A2E2500CE5A13C
:10183000A2E2500653A7FB75A1FBD0F0021750742B
:10184000F81210BE7521019003C1E06406701512F4
:1018500026E28A828B83A3A3A3A3A3A3E0FAA3E037
:10186000FB12273CA2AFE433FED2AF9003C7E06483
:101870000170187A207B009003C0E0F9122B087ADF
:10188000207B009003C0E0F9122A84906182E0D2AC
:10189000E6F090055DE0602185C62280169003C6C3
:1018A000E064017008E5C654F84405F5C653BEFC73
:1018B0001216147401652160E4EEA2E092AF7F017C
:1018C00002116AFF8E238F24858228858327851A3B
:1018D00082851B83E0CEA3E0CF852882852783EB1A
:1018E000C9EAC8EDCBECCA75F010C3E833C8E933D8
:1018F000C9EA33CAEB33CBC3EA9EF526EB9FF52545
:10190000B35004AB25AA26EC33CCED33CDD5F0DAB9
:10191000AE23AF242274EB1210BE74FA120FFB8AAE
:101920000A8B0B8C168D179003C1E024F7C3940526
:1019300050069084E1021A771226E28A0C8B0DAED3
:101940000CAF0DEE4F7003021A74AC0AAD0B851A82
:1019500082851B83AA82AB8312276C8E828F83A31E
:10196000A3780A120ECB9084F5780A120EA5851A78
:1019700082851B83780E120ECB9084F5780E120EA2
:10198000A5780A790E120CDD501F780A790E120E16
:101990007D908519780A120CFD4047850A12850B47
:1019A00013850C14850D158041850E12850F138546
:1019B00010148511157812790A120E7D9085197808
:1019C00012120CFD501C7512007513007514007571
:1019D00015017812790E120E7D7812790A120E44D2
:1019E00080089084E17812120ECB74097812120EDE
:1019F0002590854D780A120ECB7812790A120D9C2B
:101A00008E828F83A3A3A3A3A3A3E0F8A3E0F97A14
:101A1000D07B03120F70880A890BE4F50CF50D7862
:101A200012790A120E447404121046E0F8A3E0F989
:101A30007AD07B03120F70E8FA8A0AE4F50B781269
:101A4000790A120CDD50077812790A120E7D900384
:101A5000C1E06408600AE064066005E06405701C8B
:101A60009085157812120CFD50129085097812128B
:101A70000E5780089084F97812120ECB8516828555
:101A800017837812120EDA74061210117F0E0211EB
:101A90006A74F71210BE12277E90055BE064017035
:101AA00010906245E4F0A3F053F4F343FE0C53901E
:101AB000F312272AE5C654804449F5C6E59E547FB3
:101AC000644970F8906185740FF0900559E0F470E6
:101AD00002A3E0604E90055AE0600814601B146099
:101AE0002E8040750A01750B00900559E0780A12A6
:101AF0000FE8E50AF45280802A750A01750B009000
:101B00000559E0780A120FE8E50AF452908014753E
:101B10000A01750B00900559E0780A120FE8E50AF2
:101B2000F452A079007F0202116A74F71210BEE924
:101B3000FEEAFF74016E700C7A807B009003C0E0B7
:101B4000F9122A7E902E60E493F46008E493F9126F
:101B5000257A800953C680E59E547F70FA1227309B
:101B600090055BE064017003122598900559E0F43C
:101B70007002A3E0604B90055AE0600814601A14EC
:101B8000602C803D750A01750B00900559E0780ABC
:101B9000120FE8E50A42808028750A01750B009053
:101BA0000559E0780A120FE8E50A42908013750A99
:101BB00001750B00900559E0780A120FE8E50A421A
:101BC000A012277E1226E28A0A8B0BA80AA90BE82C
:101BD000496015E5E170FCE82414F582E93400F56C
:101BE00083E0F46003E0F5E174016F700A7A01901C
:101BF00003C0E0F9122AD2021B2574F11210BE8A2A
:101C00000A8B0B8C0C8D0D740F121046780E120E71
:101C1000CB9084F5780A120EA59084F5780E120EFA
:101C2000A5780A790E120CDD5015780A790E120E7D
:101C30007D908519780A120CFD4015790180137882
:101C40000E790A120E7D908519780E120CFD40EB6C
:101C500079007F0802116A74ED1210BE8A0A8B0B9C
:101C60008C0C8D0D7413121046780E120ECB9084CE
:101C7000F5780A120EA59084F5780E120EA5780E4E
:101C8000790A120CDD4011780A790E120E7DAA0A2B
:101C9000AB0BAC0CAD0D80227512007513007514E2
:101CA000007515017812790E120E7D7812790A12DC
:101CB0000E44AA12AB13AC14AD157F0C02116A903E
:101CC00084F5780A120ECB8A828B83780A120EB8BA
:101CD0007F0402116A74F51210BE8C828D83780A1B
:101CE000120ECB8A828B83780A120E91EA2404F8B2
:101CF000EB3400F98C828D83A3A3A3A3E0FCA3E0C3
:101D0000FD88828983C3E09CF0A3E09DF0888289EE
:101D100083C3E09420A3E0944E4022908511780A7A
:101D2000120ECB8A828B83780A120E6A8A828B8388
:101D3000A3A3A3A3E02420F0A3E0344EF08080749A
:101D4000F51210BEE9FE900513E0FAA3E0FBEEC326
:101D500033F8E433F9743328F582748339F583E07A
:101D60002AF50AA3E03BF50B780A12126590850D5F
:101D7000120EE91218C474021210118A0A8B0B8C0D
:101D80000C8D0D7410780A120E0CAA0AAB0B7F048E
:101D900002116A74F11210BE8A0E8B0F8C108D1115
:101DA000740F121046E0FAA3E0FB7411121046E023
:101DB000F50AA3E0F50B7413121046E0FEA3E0FF52
:101DC000780A121265EA2401F50AEB3400F50BE4F7
:101DD000F50CF50D780E790A120D1C9084E9780A3D
:101DE000120ECB780E790A120D1CAA0EAB0FAC1096
:101DF000AD111218C474021210118B0BEA450B605E
:101E0000047A0180027A00EC2AFCED3400FDECF843
:101E1000EDF97A717B02120F70880A890BE4F50CD8
:101E2000F50D8E828F83780A120EDAECF8EDF97ACE
:101E3000717B02120F708A0A8B0B7405780A120FDD
:101E4000E88E828F83A3A3A3A3E50AF0A3E50BF09A
:101E50007F0802116AC082C083E9906000F0D083DD
:101E6000D08222C0E074F21211AAA2AFE433FED2F3
:101E7000AFE589A2E15003122C70758900C2C575C7
:101E80001C00EEA2E092AF7F01021209C0E074F2E2
:101E90001211AAA2AFE433FED2AFE58BA2E0500349
:101EA000122C70758B00C2E880D5C0E0C0D0E8C0AD
:101EB000E0E5A8D2AFC2C7751C00A2E792AFD0E0A0
:101EC000F8D0D0D0E032120CB3509A07120CB3679E
:101ED0009A07120CB3969A07120CB3CF9A07120CFA
:101EE000B3F79A07120CB3259B07120CB33C9B0760
:101EF000120CB3539B07120CB3699B07120CB390DF
:101F00009B07120CB3A39B07120CB3B99B07120CCF
:101F1000B3CC9B07120CB3F19B07120CB3E2A506DE
:101F2000120CB3E1A606120CB316A706120CB337B7
:101F3000A706120CB347A706120CB368A706120C2B
:101F4000B374A806120CB341A906120CB3B4A906C7
:101F5000120CB33AAA06120CB37DAA06120CB3B443
:101F6000AA06120CB33AAB06120CB30CAC06120C58
:101F7000B36AAC06120CB382AC06120CB3FCAC060E
:101F8000120CB3FFAC06120CB302AD06120CB3A9CF
:101F9000AD06120CB3C1AD06120CB3F1AD06120CB6
:101FA000B311AE06120CB3FFAE06120CB3B5AF06FA
:101FB000120CB3F1E606120CB319E706120CB34784
:101FC000E706120CB37EE706120CB3E6E706120C26
:101FD000B32FE806120CB37AE806120CB3B8E80681
:101FE000120CB3F5E806120CB323E906120CB3CABF
:101FF000E906120CB3D4E906120CB3E1E906120C9F
:10200000B314EA06120CB3D6EA06120CB3E2EA06DF
:10201000120CB3FAEA06120CB304EB06120CB3B5B9
:10202000A407120CB3C3A407120CB3DBA407120C51
:10203000B3F3A407120CB346BC05120CB3E4BC0501
:10204000120CB35CBD05120CB371BE05120CB3AB20
:10205000BE05120CB354BF05120CB329C005120CF7
:10206000B38DC105120CB3E4C105120CB36BC205EC
:10207000120CB352C305120CB39FC305120CB32D3F
:10208000C405120CB351C405120CB326C605120CBC
:10209000B367C605120CB389C605120CB30AC7058F
:1020A000120CB3F4C705120CB3BAC805120CB3FA7C
:1020B000C806120CB3CCC906120CB375CA06120CB2
:1020C000B3B8CA06120CB345CB06120CB3D1CB067B
:1020D000120CB3B2CC06120CB3E1CC06120CB3DD79
:1020E000CD06120CB325CE06120CB327CF06120C68
:1020F000B36BCF06120CB391CF06120CB3D3A60765
:10210000120CB3E48307120CB3FA8307120CB3204A
:102110008407120CB3488507120CB3528507120CC2
:10212000B3AB8607120CB3AB8707120CB3C2DC0645
:10213000120CB3F7DD06120CB32ADE06120CB374D0
:10214000DE06120CB332E006120CB3642E00120C41
:10215000B3C72E00120CB30C3000120CB31C3000AD
:10216000120CB33F3000120CB38A3000120CB32FA4
:102170003100120CB3253200120CB3EF3200120CF6
:10218000B3673400120CB3A93400120CB347350006
:10219000120CB3943500120CB3BA3500120CB3A86C
:1021A0003700120CB3AD3700120CB38E3900120C8D
:1021B000B3E23900120CB3443A00120CB36C3A008B
:1021C000120CB3103B00120CB3D23B00120CB30341
:1021D0003C00120CB3063C00120CB34E3C00120C37
:1021E000B3903C00120CB3F73C00120CB3C0910743
:1021F000120CB3D39107120CB3EC9107120CB33746
:102200009207120CB3129307120CB3A19307120C8E
:10221000B3EC9307120CB300B004120CB30CB0046F
:10222000120CB345B004120CB38AB004120CB341C3
:10223000B104120CB3C7B104120CB32CB204120CCB
:10224000B358B204120CB391B204120CB3A5B40487
:10225000120CB381B604120CB36CB804120CB3A305
:10226000B904120CB303BC04120CB3EFBC04120C7F
:10227000B335BE04120CB342BF04120CB35FBF04EB
:10228000120CB397BF04120CB3B1BF04120CB319F4
:10229000C004120CB3B3C404120CB354C504120C22
:1022A000B3A5C504120CB3CCC504120CB31AC604F2
:1022B000120CB338C604120CB38CC604120CB365EE
:1022C000C704120CB3ECC804120CB374C904120C8A
:1022D000B3E8E106120CB3F2E106120CB3BDE2065C
:1022E000120CB3D8E206120CB3FEE206120CB34293
:1022F000E306120CB37AE306120CB3A3E306120C46
:10230000B31CE406120CB331E406120CB346E40627
:10231000120CB37DE406120CB391E406120CB3C2A6
:10232000E406120CB3FCE406120CB328E506120C0A
:10233000B360E506120CB3DDE506120CB331E60618
:10234000120CB37AE606120CB3A4E606120CB3C95B
:10235000E606120CB3CEF806120CB398F906120C6E
:10236000B37BFA06120CB3F1FA06120CB333FB0678
:10237000120CB360FC06120CB3EF8C06120CB318EF
:102380008D06120CB3318D06120CB3768E06120C2C
:10239000B3548F06120CB3738F06120CB300900661
:1023A000120CB3439006120CB3909106120CB32F8B
:1023B0009206120CB3AE9406120CB3459506120C9D
:1023C000B3199606120CB3FB9606120CB367980667
:1023D000120CB3FA9806120CB3CAA007120CB3334E
:1023E000A107120CB387A107120CB3AEA107120C00
:1023F000B32DF006120CB39AF006120CB3E5F006FA
:10240000120CB3DAF106120CB3D6F206120CB3C0FA
:10241000F306120CB320B006120CB362B006120C15
:10242000B33CB106120CB315B206120CB310B306CE
:10243000120CB3EFB306120CB35BB406120CB3224A
:10244000B506120CB38DB506120CB3F4B506120C1A
:10245000B31FB606120CB390B606120CB323B70620
:10246000120CB38CB706120CB3A1B706120CB3E969
:10247000B706120CB302B806120CB367B806120CFA
:10248000B36AB806120CB3BAFC06120CB3E2FC062F
:10249000120CB320FD06120CB3DEFD06120CB3497C
:1024A000FE06120CB365FE06120CB38DFE06120C6E
:1024B000B3BDFE06120CB3CCFE06120CB346FF06EB
:1024C000120CB36CFF06120CB34FAD05120CB32CFB
:1024D000AF05120CB327B105120CB3FAB105120CFB
:1024E000B345B205120CB390B205120CB3A2B205FB
:1024F000120CB3E2B205120CB317B305120CB3639E
:10250000B305120CB392B305120CB3B5B305120C9C
:10251000B302B405120CB38BB405120CB398B60514
:10252000120CB383B805120CB3C6B805120CB32B4A
:10253000BA05120CB36CBA05120CB3DFBA05120C53
:10254000B32BBB05120CB34CBB05120CB31CBC0562
:10255000120CB3719906120CB39C9906120CB3833A
:10256000A006120CB3A7A206120CB362A406120CAA
:10257000B3BFA506120CB3DBC904120CB372CA04B4
:10258000120CB39FCA04120CB3E5CA04120CB32494
:10259000CC04120CB348CC04120CB3DFCD04120CE3
:1025A000B359CE04120CB374CE04120CB3E9CE04AA
:1025B000120CB318D004120CB373D104120CB375FF
:1025C000D204120CB3D2D304120CB3EBD304120C0A
:1025D000B348D404120CB32AD504120CB35DD5044D
:1025E000120CB3CDD504120CB347D604120CB3961B
:1025F000D604120CB362D704120CB367D804120CC1
:10260000B346D904120CB3D1D904120CB33FDA0487
:10261000120CB3B3DA04120CB3DCDA04120CB39B61
:10262000DB04120CB315DD04120CB332DD04120C02
:10263000B351DD04120CB3E2DD04120CB307DE0467
:10264000120CB32FDE04120CB3AADE04120CB30476
:10265000DF04120CB358E004120CB315E104120CA1
:10266000B3E8E104120CB36DD905120CB3BDD90562
:10267000120CB3C9D905120CB3A6DA05120CB3D6E5
:10268000DA05120CB30EDB05120CB38DDB05120C50
:10269000B3C5DB05120CB317DC05120CB354DC0513
:1026A000120CB379DE05120CB3A5E005120CB3A031
:1026B000E205120CB37BE405120CB3E83F00120CE8
:1026C000B39E9905120CB3E89905120CB3C79F0588
:1026D000120CB348A105120CB3A7A705120CB3A2A4
:1026E000A805120CB3DFA805120CB302A905120C41
:1026F000B344A905120CB34DA905120CB357A90593
:10270000120CB343AA05120CB337AB05120CB31667
:10271000E204120CB38EEC04120CB394EC04120C11
:10272000B3A0F304120CB3B58707120CB34B8807A0
:10273000120CB3618807120CB3DB8807120CB3319B
:102740008907120CB36F8907120CB3CC8907120CDE
:10275000B3498A07120CB3528A07120CB35E8A0778
:10276000120CB3718A07120CB3AD8A07120CB3C3F3
:102770008A07120CB3228B07120CB382F406120CD8
:10278000B38FF406120CB3A9F406120CB3E8F406E6
:10279000120CB326F506120CB38BF506120CB3A07F
:1027A000F506120CB3ABF506120CB3B8F506120C15
:1027B000B3CFF506120CB3DDF506120CB3E8F5063F
:1027C000120CB3F4F506120CB303F606120CB30E9A
:1027D000F606120CB331F606120CB3DAF606120C3A
:1027E000B3EAF606120CB304F706120CB321F7068F
:1027F000120CB33DF706120CB362F706120CB36C61
:10280000F706120CB380F706120CB39FF706120CF2
:10281000B300F806120CB306F806120CB30CF80657
:10282000120CB312F806120CB31EF806120CB351B8
:10283000F806120CB341E705120CB3C3E705120CFE
:10284000B36CE805120CB3B4E905120CB3C2EB0586
:10285000120CB3A8EC05120CB3DDEC05120CB3FF9F
:10286000EC05120CB3A8ED05120CB378EF05120CB1
:10287000B3A1EF05120CB319F005120CB34BF00520
:10288000120CB358F005120CB3A3F005120CB3C729
:10289000F005120CB318F305120CB322F405120C58
:1028A000B37EF405120CB3EFCA05120CB300CC05CD
:1028B000120CB3E4CC05120CB3EECC05120CB31021
:1028C000CD05120CB31CCD05120CB3C0CE05120CF5
:1028D000B3EDCE05120CB303D005120CB358D005DE
:1028E000120CB3A7D105120CB37CD205120CB3D8CD
:1028F000D205120CB343D305120CB378D305120CD6
:10290000B3BBD305120CB385D605120CB39DD60507
:10291000120CB32ED705120CB33CD705120CB38999
:10292000D705120CB397D705120CB303D805120CB8
:10293000B37ED805120CB3D5D805120CB3CBF40571
:10294000120CB3EDF405120CB3FEF605120CB3BD78
:10295000F905120CB3E7FA05120CB3A5FB05120C2E
:10296000B391FC05120CB3979807120CB3BC9807EF
:10297000120CB3329907120CB35BF804120CB36457
:10298000F804120CB36DF804120CB345F904120CE0
:10299000B3F6FA04120CB326FB04120CB351FB0479
:1029A000120CB381FB04120CB3ACFB04120CB3E0A9
:1029B000FB04120CB30CFC04120CB34FFC04120CFD
:1029C000B37AFC04120CB3C1FC04120CB316FD0460
:1029D000120CB358FD04120CB3B2FD04120CB3DD9B
:1029E000FD04120CB32CFE04120CB35CFE04120C9A
:1029F000B387FE04120CB3B5FE04120CB3D8FE0468
:102A0000120CB378FF04120CB3A4FF04120CB3D160
:102A1000FF04120CB3DBFF04120CB3EBFF04120C27
:102A2000B3C4C006120CB3CEC006120CB30FC1065D
:102A3000120CB358C106120CB392C106120CB3E8C3
:102A4000C106120CB309C206120CB3B8C406120CAC
:102A5000B3C1C406120CB315C506120CB33EC506AD
:102A6000120CB348C506120CB3B6C506120CB34619
:102A7000C606120CB3A1C606120CB3CFC606120CC2
:102A8000B357C706120CB396C706120CB3CBC706D2
:102A9000120CB3DDC706120CB3FCC706120CB3054B
:102AA000C806120CB3CCC806120CB3E1A207120C74
:102AB000B3C13D00120CB3F73D00120CB32B3E0026
:102AC000120CB3783F00120CB33DA607120CB3539F
:102AD000A607120CB35DA607120CB3A7A607120C2B
:102AE000B35CA707120CB399EB06120CB3ACEB0660
:102AF000120CB36DEC06120CB3ACEC06120CB3C99D
:102B0000EC06120CB302ED06120CB34FED06120CDC
:102B1000B381ED06120CB3B8ED06120CB3C1EF068B
:102B2000120CB33D9F07120CB3609F07120CB38FBA
:102B30009F07120CB327A007120CB33FA007120C7B
:102B4000B381A007120CB3DC8E07120CB3018F0700
:102B5000120CB32B8F07120CB313A807120CB3BEC1
:102B60008505120CB39C8705120CB33B8905120C2A
:102B7000B3E68905120CB3668A05120CB3EB8A051D
:102B8000120CB3148B05120CB3EF8E05120CB36646
:102B90008F05120CB37D9005120CB3B79005120C83
:102BA000B3F89005120CB33F9205120CB395920541
:102BB000120CB3DE9205120CB34D9305120CB3B98F
:102BC0009305120CB3EA9305120CB3029405120C90
:102BD000B31B9505120CB32B9505120CB3E19605AA
:102BE000120CB3F89605120CB32A9705120CB3CC4D
:102BF0009805120CB3609905120CB38CA507120C42
:102C0000B39DA507120CB3B4FF06120CB3F3FF0675
:102C1000120CB3DCA807120CB3E7A807120CB3EC34
:102C2000A807120CB3F8A807120CB3D8A307120C0C
:102C3000B3E8A307120CB3FDA307120CB3AFA407AC
:102C4000120CB3DFA107120CB364A207120CB3C8B5
:102C5000A207120CB3039C07120CB32C9C07120C96
:102C6000B3929C07120CB3B29C07120CB3039D07DE
:102C7000120CB35E9D07120CB3989D07120CB39B08
:102C80009D07120CB3008007120CB3258007120CAD
:102C9000B3428007120CB35F8007120CB384800725
:102CA000120CB3A58007120CB3CF8007120CB38CA3
:102CB0008107120CB30A8207120CB3318207120C7F
:102CC000B33B8207120CB3608307120CB3E9FF0514
:102CD000120CB3F9FF05120CB3FCFF05120CB3F88C
:102CE0003F00120CB35D9607120CB3ED9707120C60
:102CF000B34E9807120CB3949807120CB306D00683
:102D0000120CB348D006120CB363D006120CB334C5
:102D1000D106120CB316D206120CB323D406120C31
:102D2000B395D406120CB37FD506120CB366D60643
:102D3000120CB3A59D07120CB3F79D07120CB36AD2
:102D40009E07120CB3D79E07120CB3169407120CF1
:102D5000B3409407120CB30F9507120CB3EB950711
:102D6000120CB38EB806120CB35AB906120CB39BF0
:102D7000B906120CB3D5B906120CB333BA06120C4D
:102D8000B387BA06120CB3E5BA06120CB37BBB06C6
:102D9000120CB383BC06120CB30DBE06120CB3ABFF
:102DA000BE06120CB312BF06120CB325BF06120CDE
:102DB000B319C006120CB362C006120CB300800631
:102DC000120CB3328306120CB3C38406120CB31A6E
:102DD0008506120CB3378506120CB3B78506120CA4
:102DE000B3338706120CB3028806120CB36F8B063E
:102DF000120CB3598C06120CB3AAD606120CB343AC
:102E0000D906120CB3E9D906120CB3ADDA06120CCE
:102E1000B3D1DB06120CB341DC06120CB3528B07A4
:102E2000120CB3978B07120CB3B48B07120CB36A56
:102E30008C07120CB3BD8C07120CB38D8D07120CCE
:102E4000B3A38E07120CB369A807120CB3B23F00EC
:102E5000120CB396A807120CB3BEA807FFFFFFFF22
:102E6000FFFFFFFF74F61210529002D074FEF0A321
:102E700004F09002D3F09002D2F07A018A0A750B26
:102E8000007402780A120FE8123C85EA888289836E
:102E9000700774FEF0A304800474FFF0A3F088822E
:102EA0008983A3A3A3F088828983A3A3F00AEAC33A
:102EB000940240C87A967B211221EA7AE47B21129F
:102EC000248A7900023A2774F2121052EAFEEBFFCC
:102ED0008E828F831234A16046123BB71230017587
:102EE0000D00780C1212658A828B83A312127C1259
:102EF0003459121011E9702C850A82850B83123027
:102F000001780C1212658A828B83A312127C7C02D8
:102F10007D007A8C7B85123461121011E97005797D
:102F200002022FED9009FF1234A1600CC3E498FA5D
:102F3000E499FB122FF250057901022FED7A067BFE
:102F400000122ABA8A0C8B0DEA450D70057913021E
:102F50002FED7A007B0080409009FF1239758A0EB0
:102F60008B0F7403780E120FE8850A82850B83E0BD
:102F7000250EF8A3E0350F8882F583A3A3A3A3EC65
:102F8000F0A3EDF09009FFE02401F0A3E03400F09D
:102F9000EA24010AEB3400FB122FF240BB850C82BD
:102FA000850D83E4F0A3F0750A04F50B780A12127C
:102FB00065EEFCEFFDE50C2402FAE50D123968120E
:102FC00010119002D81234A19002D86017E0FAA331
:102FD000E08003E8FAE9FB8A828B831234A170F364
:102FE0008A828B83E50CF0A3E50DF079007F060261
:102FF00011248E828F83E0F8A3E0F9C3EA98EB995D
:1030000022123BCC8A828B83E0F50C22C082C083E3
:10301000E99009FEF0D083D082020CB074F7121050
:1030200052E9FE74145E600779101224B4800BEE2E
:10303000A2E040047902800279007F010211247429
:10304000F7121052ECFEEDFFE9A2E55007791012DD
:1030500024B48034A2E3502679101224B4E9602607
:10306000EE2418F582EF3400F583E0601BEE2417A0
:10307000F582EF3400F583E06401600A800AA2E182
:10308000400479038002790080B074F41210527405
:10309000E9120FFBEAFEEBFF890AE4F50CF50D7867
:1030A0000C121265750C02780C121265750C947571
:1030B0000D85780C1212657CFF7DFF7A017B001272
:1030C0003BB11210118A828B83E5824583605412D2
:1030D0003AEF851A82851B83123C4874021210460F
:1030E0007404F0141210467401F07404121046E4D3
:1030F000F0740512104674FFF0740612104674FF47
:10310000F0E50AF50B780B121269790074011210C0
:1031100046AC82AD83EEFAEFFB12218474011210EB
:10312000118002790174171210117F0402112474A6
:10313000E81210528A188B198C148D1574181210FD
:1031400046E0F516A3E0F517741A121046E0F50CE8
:10315000A3E0F50D741C121046E0F512A3E0F51380
:103160009002D88006850A82850B83E0F50AA3E0E9
:10317000F50BE50A450B700302321C7E007F00E56B
:103180000A2404F510E50B3400F5118008EE240143
:103190000EEF3400FF850A82850B83123AF1C3EEED
:1031A00098EF9950C08E0E8F0F7403780E120FE8AF
:1031B000851082851183E0250EF50EA3E0350FF50D
:1031C0000F850E82F583123AEFC3E89518E9951939
:1031D00040BBC3E51498E5159940B2E50C450D6078
:1031E00020780C1212657816121265850E82850FF2
:1031F00083E0FC7D00123BC7123461121011E960BC
:103200008CE5124513600F85108285118312379F5C
:10321000123AEF123C42AA0EAB0F80047A007B00F8
:103220007F1002112474EE121052ECFEEDFF90029A
:10323000D8E0FCA3E0800A8C828D83123AF3E8FC8C
:10324000E9FDEC4D70030232E68C828D83123AEF79
:10325000880A890B8882F583A3A3A3A3E0F50EA3B4
:10326000E0F50FC3EA950EEB950F40CB8C828D8372
:10327000A3A3E0F510A3E0F511E50E2510F8E50F86
:103280003511F9C3EA98EB9950AD750C00750D0036
:10329000800CE50C2401F50CE50D3400F50DC3E5BB
:1032A0000C9510E50D9511508E850C12850D13743B
:1032B000037812120FE8E50A2512F8E50B3513F929
:1032C00088828983A3A3A3A3E06A7003A3E06B7041
:1032D000C1EE4F600B8E828F83E50EF0A3E50FF0F9
:1032E000E8FAE9FB80047A007B007F0A021124746B
:1032F000EC12105274FE120FFBEAFEEBFF74161272
:103300001046E0F510A3E0F5117418121046E0F530
:1033100012A3E0F513750A00750B00851A82851B50
:1033200083E4F0A3F0EE2404F50EEF3400F50F85EE
:103330000E82F583123AE7A385820C85830D74FF14
:103340006A700374FF6B603B851A82851B838582DC
:103350000A85830B780A1212658E828F83E0F50A44
:10336000750B00780A121265850C82850D83121286
:103370007CEA24010AEB3400FB123BB11210118AE3
:103380000A8B0B8E828F83E0F5147515007814126A
:103390001265850C82850D8312127C12345912102D
:1033A00011E970268E828F83E0F51478141212656D
:1033B000850C82850D8312127C7C027D007A8C7BC9
:1033C00085123461121011E96016850E82850F8313
:1033D000123BC81221908A0C8B0DA80CA90D80629B
:1033E0008E828F83E0F5147814121265850C828525
:1033F0000D8312127C7C027D007A8A7B85123461F7
:10340000121011E96031E50A450B6011851A8285B9
:103410001B83E065107004A3E065116006AA10AB81
:103420001180B0850A82850B83A3A3A3A3E024FFA8
:10343000F8A3E034FF800A850E82850F83E0F8A3AD
:10344000E0F9E51245136003123C42AA0AAB0B7483
:10345000021210117F0C0211247C027D007AA67BDF
:1034600085121FA4740422C082C0839002D8123433
:10347000A1602788828983A3A3A3A3E0FCA3E0F52E
:10348000838C82A3A3A3A3E06A7003A3E06B88826A
:10349000898370DAA3123BC780047A007B00023074
:1034A00015E0F8A3E0F9E8492274F312105274FE13
:1034B000120FFBEAFEEBFF8C0A8D0B890C740F12C6
:1034C0001046E0F50D851A82851B83AC82AD831210
:1034D00021D2E9F50E7064E50C600E7910EEFAEF7A
:1034E000FB1224B4E9F50E7052AC0AAD0BEEFAEF04
:1034F000FB121F14E9F50E7042851A82851B83E0CA
:10350000FEA3E0FF74FF650D6031EE2402F50AEFC3
:103510001239DB121265750A1E750B00780A121239
:1035200065EEFCEFFD7ADE7B211222087404121096
:10353000118E828F83A3A3A3E50DF0A90E7402124E
:1035400010117F0502112474F512105274FE120F2F
:10355000FBEAFEEBFF8C0A8D0B890C851A82851B1A
:1035600083AC82AD831221D27417696010E50C60C0
:10357000167910EEFAEFFB1224B4E9600A74021215
:1035800010117F03021124AC0AAD0BEEFAEFFB120F
:103590001F0E80E974F6121052EAFEEBFF12217E34
:1035A000EA4B600FEE24FFF8EF34FFF9EA28FAEB5C
:1035B000398003EEFAEFFB023A2774F012105274CE
:1035C000E3120FFB8A0A8B0BEC2402FEED123CE0A7
:1035D000F510741E651070531221D88A0C8B0DEAF9
:1035E000450D6042EA2403F50EEB3400F50FE4F5D7
:1035F00010F51178101212658E828F83E0FD7C0029
:10360000AA0AAB0B850E82850F83123CEF121011B4
:10361000E50C2402FAE50D3400FB12220E850E8221
:10362000850F8374FFF0790002379A9009FEE0F469
:103630006065E510C39419505EE510C333F8E433B8
:10364000F9E854FCF8742828F8748239F9E824FC65
:10365000FAE934FFFB8A0E8B0F8A82F583123BC88E
:10366000EA4B6033E824FEF582E934FFF583123437
:10367000A160248C828D83A385820C85830D8C822E
:103680008D83E0F9700B850C82850D83E0640170F9
:103690000B741265106005790602379A74041210D3
:1036A0004685821085831178101212658C828D8375
:1036B000A3A3A312127C8C828D83A3A3A3A3A31222
:1036C0003975850C82850D83E0FA850E82850F831E
:1036D00012379F1210507404121011E9F50E600396
:1036E0000237987404121046AC82AD83AA0AAB0B61
:1036F0008E828F83E0C333F8E433F9E854FCF87426
:103700002628F582748239F58312379F121050E90A
:10371000F50E702C8E828F83E0FD74046D607974D9
:103720000412104685820C85830D780C1212657C7C
:1037300000AA0AAB0B9009FE123CEF121011805840
:10374000850C82850D83E0704F8E828F83E0851A11
:1037500082851B83F07403121046E9F08E828F83FA
:10376000E0F8740468600D740668600874086860A6
:10377000037410687404121046123AF374011210A4
:1037800046123C48851A82851B83AC82AD83AA0A07
:10379000AB0B121EC6750E00A90E741D023B08E08D
:1037A000F8A3E0F5838882227900020CB074F0124D
:1037B000105274EA120FFB8A0E8B0F8C828D8312CB
:1037C0003BC8750C00EC2402FEED3400FF8E828FA6
:1037D00083C3E09AA3E09B4004EA4B7005790102A1
:1037E000395D851A82851B83E4F0E4F50AF50B78D0
:1037F0000A121265780A121265780A1212658E8210
:103800008F83123975123BB11210118A0A8B0BA8E3
:103810000AA90BE849700302394388828983A3AA65
:1038200082AB83E82404F50AE93400F50B851A829B
:10383000851B83E0707188828983E06402700A745A
:10384000011210467401F08068740112104674026F
:10385000F012397B75F012A4F885F00DA90DE58200
:1038600028F582E58339F583A3A3ECF0A3EDF07589
:10387000101075110078101212651239717402124D
:103880001046E075F012A4F8A9F0E58228F8E58367
:1038900039123962121011851A82851B83E004F0F7
:1038A000600302392880727401121046E0640170CE
:1038B000A088828983E06402600302394312397B65
:1038C000F51075110074027810120FE8E5822510CA
:1038D000F582E5833511F583A3A3ECF0A3EDF07534
:1038E00010027511007810121265123971740212EB
:1038F0001046E0F51074027810120FE8E5822510EA
:10390000F8E5833511123962121011851A82851B70
:1039100083E004F0C39405500F850A82850B83E091
:10392000F47003A3E0F47003750C01850A82850B23
:1039300083E02401FAA3E03400FBE50CA2E040039D
:103940000237EA851A82851B83E07004790A800DAC
:10395000AC82AD83AA0EAB0F121ED2790074160290
:103960003B08F9E82404FAE93400FB122A24740223
:10397000228A828B83E0FCA3E0FD22850A82850BEC
:1039800083E0FCA3E0FD851A82851B83E02274F6A8
:10399000121052123A2C4004EA4B70047901803321
:1039A000E4F50AF50B780A1212658C828D83A3A3C5
:1039B000A3A3E0F50A780A1212651239D51212652E
:1039C000123BAD1210118B0BEA450B7004790A8083
:1039D0000279008052EC2405F50AED3400F50B78ED
:1039E0000A2274F6121052123A2C4004EA4B700468
:1039F00079018033E4F50AF50B780A1212658C829E
:103A00008D83A3A3A3A3E0F50A780A1212651239E5
:103A1000D5121265123BAD1210118B0BEA450B70DB
:103A200004790A800279007F020211248C828D833E
:103A3000A3A3E0FEA3E0FF8C828D83123BCCC3EEF8
:103A40009AEF9B2274F6121052EAFEEBFF8C828DE5
:103A5000837C007D00123AF970047901800CA3A3E5
:103A6000A3E0F9EEFAEFFB12215A80BB74F01210BA
:103A7000528A0C8B0DECFEEDFF750E008002050ED8
:103A8000EE2416F582EF3400F583E0F8E50EC398D6
:103A90005051E50EC333F8E433F9EE28F50AEF3957
:103AA000F50B7C007D00850A82F583123AF97014CB
:103AB000850A82850B83123AF38E828F83123C48EB
:103AC00079018021A3A3A3E0F9AA0CAB0D12215A1E
:103AD000E960AB850A82850B83123AE7EAF0A3EB33
:103AE000F0800279008024123BCC8E828F8322A347
:103AF000A3A3A3E0F8A3E0F922123BCC1221728A1F
:103B0000828B83E5824583221210117F08021124E3
:103B100074F0121052ECFEEDFF8E828F83123AF396
:103B2000123BB7C3E098A3E0994004E849700479D8
:103B3000018077EE2405F50EEF3400F50FEE240436
:103B4000F50CEF3400F50D850C82F583E0F510756A
:103B500011007810121265780E1212651234591283
:103B60001011E9700479108041E4F51078101212F8
:103B700065850C82850D83E0F50C750D00780C12BF
:103B80001265780E121265850A82850B83123975CB
:103B90008E828F83123BC8123BB11210118B0BEA3D
:103BA000450B7004790A80027900023B0BEEFCEFB2
:103BB000FD12216C740622EE2402F50AEF3400F5A2
:103BC0000B850A82F58322A3123BCC22E0FAA3E004
:103BD000FB2274F41210528A0A8B0BECFEEDFF7C70
:103BE000007D008E828F83123AF970047901801073
:103BF000EEFCEFFDA3A3A3E0F9AA0AAB0B12216030
:103C000002312A0237A874F6121052ECFEEDFF12B0
:103C10003DB36029EE4F60078E828F83123C488847
:103C2000828983A3A3E0F874FE6870047917800F7B
:103C300074FF6870047900800679168002790202A8
:103C40003A27851282851383E8F0A3E9F02274F6FF
:103C50001210527C008C0A750B007402780A120F45
:103C6000E8123C8588828983E06A7003A3E06B7068
:103C700006E8FAE9FB800B0CECC3940240D77A000B
:103C80007B00023A2774D0250AF87402350BF9221A
:103C900074F4121052EA4B6044EA2402FEEB123C28
:103CA000E0F46039E064FE6034EA2403F50AEB34A2
:103CB00000F50BE4F50CF50D780C1212657D1E7CF9
:103CC000178A828B83123BC8123CE91210118E8234
:103CD0008F8374FEF0850A82850B8304F002312AFB
:103CE0003400FF8E828F83E022850A82850B83E079
:103CF000F912220274022274F01210528A0C8B0DF7
:103D0000890E74FE650C700474FF650D7003023D2E
:103D1000B0E970251221D88B0BEA450B6003023DF8
:103D2000B07AFF7BFF123DB37003023DB0888289F9
:103D300083E50CF0A3E50D80767401650E7010121A
:103D40003DB3606C8882898374FFF0A3F0801774A0
:103D500002650E705B79011224A8E97053AA0CABBE
:103D60000D123DB3604AE82402FEE9123CE0FA7409
:103D7000FF6A603CE82403F50AE93400F50B74FEA1
:103D80006A6018E4F510F51178101212657D1E7C3A
:103D900014AA0CAB0D123CE9121011EEFAEFFB1253
:103DA000220E850A82850B8374FFF08E828F83F04A
:103DB000023B0B1221D88A0A8B0BA80AA90BE849EF
:103DC00022C082C08390188CE4F0A3F090188E7407
:103DD0008EF0A3740CF0900C8E7448F0A37402F073
:103DE000900ED6F0A37480F0A374B4F0A37409F01D
:103DF000D083D082020CB074F61210527A017B008C
:103E0000122ABAE5A8FEC2AFEA24FEF8EB34FFF9A5
:103E100090188EE8F0A3E9F0122AC09007667401AA
:103E2000F0EEA2E792AF7F0202112474F212105258
:103E30007C007D008C0BEA24020A0AEB3400FBA212
:103E4000AFE433F50AC2AF900766E06008EA941168
:103E5000EB9400500A90188EE0F8A3E0F980047803
:103E6000D8790E88828983E0FEA3E0FF5480600643
:103E7000750B00023F01E50BA2E050718C828D832F
:103E8000E0F50CA3E0F50D5480F50FE50C2EFEE5F2
:103E90000D3F547FFFE50F4FFF8C828D83EEF0A323
:103EA000EFF0547FFFC3EE9AEF9B4055ECF8EDF92D
:103EB000E8497003023F6988828983E0FCA3E054EB
:103EC0007FFDECC39AFCED9BFDC3EC9404ED9400E4
:103ED0004056E82AF582E93BF583ECF0A3EDF0EBE0
:103EE0004480FB88828983EAF0A3EB8043EEFCEFF9
:103EF000547FFDC3EC9AED9B50B6750B01E8FCE9CD
:103F0000FD88828983E0FEA3E0547FFFE82EF8E974
:103F10003FF988828983E0FEA3E0FFEE4F60030251
:103F20003E6378007900804188828983A3E04480E1
:103F3000F0900766E0602990188EE0FAA3E0FBE8B5
:103F40006A7002E96B701988828983E0FAA3E054F1
:103F50007FFBE82AFAE93BFB90188EEAF0A3EBF02E
:103F6000E824020808E93400F9E50AA2E092AFE883
:103F7000FAE9FB7F06021124C082C083EA24FEF81E
:103F8000EB34FFF9A2AFE433FCC2AF88828983A38C
:103F9000E0547FF090188EE0FAA3E0FBE89AE99BEA
:103FA000500890188EE8F0A3E9F0ECA2E092AF027E
:103FB0003DF074F7121052EAF8EBF98005A3AA82DB
:103FC000AB838A828B83E070F48C828D83E0A3AC18
:103FD00082AD838A828B83F0A3AA82AB8370EAE8E6
:103FE000FAE9FB7F01021124020CB0FFFFFFFFFF83
:103FF000FFFFFFFFFFFFFFFF851C87C2AF020CB072
:020000040002F8
:10300000C082C083E9900A01F002B28474F7121002
:1030100052E99002DFF07C177D037AFF7BFF1222DA
:10302000A49002E074FFF0A3F0A3E4F0A3F079050C
:1030300012222C9002DFE0F91221547AC27B221274
:10304000248A02BF9274F41210528A0A8B0BEB543A
:103050008060309002DFE0F9122A668A0C8B0DAE98
:103060000CAF0DEE4F60138E828F83E064B070035F
:10307000122244EEFAEFFB122A54AA0AE50B6480EE
:10308000FB80047A007B0002B25374F21210527477
:10309000FC120FFBEAFEEBFF741212104612C47909
:1030A000EE4F700302B12D7402121046EEF0A3EF42
:1030B00012B48EECF0A3ED12B48EAA82AB8312216F
:1030C0004EE9F50C706AE50A450B60648E828F83C9
:1030D00012C45FEE4F60567A067B00122ABA8A0E3F
:1030E0008B0FA80EA90FE8497005750C1380418855
:1030F000828983E412B13AEEF0A3EF12C48AE50AA2
:10310000F0A3E50BF09002E512B1C19002E5700565
:1031100012BF3C801B12BF2A8003EAFCEBFD8C82AD
:103120008D8312B1C170F38C828D8380E3750C02A4
:10313000A90C740412101102C679F0A312C430A3B2
:103140002274F2121052890CE975F017A4FEAFF048
:103150009002E4E4F09002E212B1C1600A122AC0C7
:103160009002E2E4F0A3F0EEFAEFFB122ABA8A0A28
:103170008B0BEA450B602FEEFCEFFD7900122A3C29
:103180009002E2E50AF0A3E50BF07B00800812B1A3
:10319000ABE4F0A3F00BEBC3950C40F2E50C90020E
:1031A000E4F079008002791302C679EB75F017A478
:1031B000F8A9F09002E2E028FAA3E0398A82F583C8
:1031C0002212BBCEEA4B2274F4121052740C12106D
:1031D0004612C454FEE9FF750A00750B00800CE529
:1031E0000A2401F50AE50B3400F50BC3E50A9CE55A
:1031F0000B9D5032850A0C850B0D7403780C120F51
:10320000E8EA250CF8EB350DF988828983A3A3A39E
:10321000A3A3A312C011EE650C7003EF650D70BF80
:10322000E8FAE9FB80047A007B00802774F412102E
:10323000527900EAA2E0501B750ABA750B84780A2D
:103240001212657C047D007A037B0A122226740226
:103250001210117F04021124C082C0839002E51273
:10326000B28B601C88828983A3A3E06A7003A3E009
:103270006B8882898370E8A3A3A3A312BBCA8004CE
:103280007A007B00D083D082020CB012C75FE8497D
:103290002274EE12105274FC120FFBEAFEEBFF8553
:1032A0001A82851B83E4F0A3F0EE240212BF1CEE09
:1032B000240512C437EE2404F510EF12B843E024BD
:1032C000FE603924FC604624FE605224FE605E24C9
:1032D000FE700302B3A424FE700302B40824FE703F
:1032E0000302B41724FE700302B42624FC70030208
:1032F000B43524FE700302B44402B4819002FE741B
:1033000017F0A3E412B496121ECC02B481851A827F
:10331000851B83AC82AD8312224A02B451851A8286
:10332000851B83AC82AD8312225002B451850E0AF4
:10333000850F0B7402121046AC82AD83850A82851C
:103340000B8312BBCA1221728A0E8B0FAC0EAD0F0B
:10335000EC4D603BE4F50EF50F780E121265750E1C
:10336000FE750F02780E121265750EFF750F02784A
:103370000E121265740812104612127C12C8DB126B
:103380001011E9F50E700B12BBC0121EE4800F7510
:103390000E01850A82850B8312B48412BF3C850E10
:1033A0000A02B4547402121046AC82AD83850E82B8
:1033B000850F8312B995603C850E82850F83A3A388
:1033C00012127C7512FE75130278121212657512B4
:1033D000FF75130278121212657408121046121249
:1033E0007C12C8DB121011E9F50B700B12BBC01276
:1033F0001EEA800F750B01850E82850F8312B4843F
:1034000012BF3C850B0A804C851A82851B83AC82D7
:10341000AD83122256803A851A82851B83AC82AD19
:103420008312225C802B851A82851B83AC82AD833C
:10343000122262801C851A82851B83AC82AD8312A6
:103440002268800D851A82851B83AC82AD8312228F
:103450006EE9F50AE50A60298E828F83A3E0641481
:10346000601F851082851183E09002FE12B48E12D7
:10347000C75B9002FF12BF3CE50AA312B496121E6E
:10348000C602BE2B12C75F851A82851B8322F08578
:103490001A82851B8322F07CFE7D02850C82850DBD
:1034A0008312BBCE2274EE12105274FC120FFB8AF0
:1034B0000C8B0D8C108D11EA2405F50AEB3400F508
:1034C0000B7C157D0079007AFE7B02122A3CE50A0E
:1034D0002402F50EE50B12C43A851A82851B8385FA
:1034E00082128583137812121265850A82850B83F6
:1034F000A3A3A3A312B98C121265E50A2405F51241
:10350000E50B3400F5137812121265850E82850FD3
:103510008312BCE112216C74061210118A128B13F3
:10352000AE12AF13E50C2402F50CE50D12BF1FEE31
:103530004F700302B6638017740212104612BBCAA2
:1035400088828983EAF0A3EBF09002FEE004F09019
:1035500002FEE0C39405400302B663E4F512F513DE
:1035600078121212657512E775130278121212653D
:103570007512E8751302781212126574061210465D
:1035800012127C7910EEFCEFFD12C8DD121011E969
:10359000705E850A82850B83A3A3A3A3A3A3A3E0E4
:1035A000F89002E7E068704812B98C1212657CE866
:1035B0007D02E50A2408FAE50B3400FB122A367472
:1035C00002121011E960298E828F83A3A3A3A31294
:1035D000BBCA9002FEE0F51274027812120FE87472
:1035E000FF2512F58274023513F583EAF0A3EBF0A0
:1035F00074021210468582128583137812121265A6
:10360000740212104612127C850E82850F8312BB43
:10361000F01210118A128B13AE12AF139002FEE05B
:10362000F51275130074027812120FE874FE251259
:10363000F874023513F988828983A312B1C170032B
:1036400002B52FE82403080808E93400F9EE4F60BA
:103650000302B5388882898374FFF0A3F09002FEDC
:10366000E004F09002FEE0600A12BBC0121ED8799E
:1036700000800B850A82850B8312BF33790A02BE54
:103680002B74EA12105274FE120FFB8C148D15EA83
:103690002405F50EEB12C8C512C463750A00750B3C
:1036A00000EA2402F512EB3400F513851A82851B1B
:1036B0008385820C85830D780C121265850E8285B8
:1036C0000F83A3A3A3A312B859121265E50E240514
:1036D000F50CE50F12BF1F780C121265850E82855E
:1036E0000F8312B85D12216C74061210118A0C8BB4
:1036F0000DEA450D700302B7FEEA2404F510EB1243
:10370000B84312C4638A828B83A3A3A3E0F9851212
:103710008285138312BBD4600302B7FEE4F516F56D
:103720001778161212657516E775170278161212B9
:10373000657516E875170278161212657406121070
:103740004612127C7913AC0CAD0D85128285138361
:1037500012C8E3121011E9F50B600302B7FE9002E4
:10376000E7E0F8E50A7009E024029002FFF0801417
:103770009002FFE0FCE82402FAE43400FBEA6C70FB
:1037800001EB707E850A82AA8212B983941412B961
:103790007B506B851082851183E0C0E074002A1293
:1037A000B83AD0E0F0050A851082851183A3E0C005
:1037B000E0850A0C7400250C12B83AD0E0F0050A36
:1037C0009002E712B8591212657CE87D02850A0C56
:1037D0007400250C12B84D1210119002E7E0250A72
:1037E000F50A74FF6E700374FF6F6012EE24010E11
:1037F000EF3400FFE50AC39414500302B6ABE50AA8
:10380000601312BBDE85128285138312BBCA121E9F
:10381000DE79008014E50B7003750B0A8514828530
:103820001583EEF0A3EFF0A90B74021210117F0EB6
:10383000021124850A0E7400250EF58274033400EB
:10384000F583223400F511851082F58322FA740382
:103850003400FB122A2474022212C49922A3A31258
:10386000B8632212BF2AFDEEFAEFFB2274EE1210AB
:103870005274FE120FFB8C108D11EA2405F50EEB2D
:1038800012C43A750D009002FEE4F0F50CEA240231
:10389000F50AEB3400F50B80449002FEE0FA90024A
:1038A000E7E0F812B983941712B97B400D9002FE3D
:1038B000E0F87416C3989002E7F012B98C12126502
:1038C0007CE87D0274FF2AFA740212B850121011BB
:1038D0009002E7E0F89002FEE028F0050CE50E24E7
:1038E00016F582E50F12B83EE0F8E50CC398507467
:1038F0009002FEE0C39416506BE50CC333F8E4333A
:10390000F9E50E28FEE50F39FF851A82851B83AC89
:1039100082AD838E828F8312B9957008750D011266
:10392000BF2F8050E4F512F513781212126575124C
:10393000E775130278121212657512E87513027892
:1039400012121265740612104612127C7916850A3C
:1039500082850B8312C8E3121011E9F50D70030282
:10396000B89980BB7CFE7D02850A82850B8312BBE1
:10397000CA121EF0A90D740202BE2DE99400C3659F
:10398000D03322EA28F8E43400F9E822E0F5127591
:10399000130078122212BE228A128B13AC12AD13BE
:1039A000EC4D2274EA12105274FC120FFB8A0E8B3B
:1039B0000F8C148D15EA2405F50CEB12BF1F750A48
:1039C00000750B00E50C2402F512E50D3400F5132B
:1039D00074021210468582108583117810121265C8
:1039E000850C82850D83A3A3A3A312C43F12126585
:1039F000E50C2405F510E50D3400F51178101212D0
:103A00006585128285138312BF2512BBC412216CF7
:103A100074061210118A108B11AE10AF11E50E242E
:103A200002F510E50F3400F511803888828983741F
:103A3000FFF0050A12B83374FFF0050A9002E7E0C0
:103A4000F50E750F00780E1212657CE87D02850A6E
:103A50000E7400250E12B84D1210119002E7E025E9
:103A60000AF50AEE4F60278E828F83A3A3A3E0F9A5
:103A700085108285118312BBD4EE240412C437E969
:103A80006027850E82850F8312BBB612BF3CE50A04
:103A9000700302BB9C12BBDE85108285118312BBB2
:103AA000CA121EF6790002BBB1E4F516F5177816B6
:103AB0001212657516E775170278161212657516DB
:103AC000E875170278161212657408121046121261
:103AD0007C7911EEFCEFFD85108285118312C8E31D
:103AE000121011E9F50B709A850A82AA82EA9002F7
:103AF000E77009E024049002FFF08025E0F89002CE
:103B0000FFE0F516E82404FCE43400FDEC651670D3
:103B100001ED708112B983941212B97B400302BA8D
:103B200095850E82850F83E0C0E074002A12B83AB2
:103B3000D0E0F0050A850E82850F83A3E0C0E01275
:103B4000B833D0E012BBF985820E85830F780E1250
:103B50001265740412104612127C8512828513833A
:103B600012BBF01210118A0E8B0FAE0EAF0F850A2A
:103B70000E7400250EF874033400F9EE4F70030242
:103B8000BA2B851A82851B83E08882898312BBF950
:103B9000A3E0C0E012B833D0E002BA39E50B7003FD
:103BA000750B0A850C82850D8312BBB612BF3CA92A
:103BB0000B740402B82B12C75F851482851583220B
:103BC0007CFE7D02850C82850D8312BBCE22E0FA3D
:103BD000A3E0FB2212BBCE12215AE9F50B22900280
:103BE000FFE0F5F0E50A849002FEF07CFE7D022203
:103BF00012B863122178740422F0050A851A8285AE
:103C00001B832274EC12105274FE120FFB8A0A8B73
:103C10000B8C108D11EA2405FEEB3400FF12BE0C54
:103C2000EE241812C437EA450D700302BCAF12BD72
:103C3000F5502912BCD48A128B13EA4513606B79B4
:103C400012AC0CAD0D850A82850B8312BBCA85129E
:103C500082851383121050E9F50C7058E4F50CF5C9
:103C60000D780C1212658E828F83A3A3E0F50C7879
:103C70000C121265EE240312BF1C780C1212658E12
:103C8000828F8312BCE11222927406121011E9F5A0
:103C90000C7021850E82850F83E0701F850A828556
:103CA0000B8312BBCA121EFC8011750C0E800975A5
:103CB0000C018004E50C600312BF2F850E82850F76
:103CC00083E0600479008002A90C74021210117F55
:103CD0000C021124851A82851B8312BBCE1222800E
:103CE0002212BF2AFD850A82850B8312BBCE227465
:103CF000EE12105274FE120FFB8A0A8B0B8C0E8D83
:103D00000FEA2405FEEB3400FF75100012BE0CEA2A
:103D1000450D700302BDD312BDF5502C12BCD48AE0
:103D2000108B11EA4511604A7912AC0CAD0D850A71
:103D300082850B8312BBCA851082851183121050B5
:103D4000E9F510600302BDD6850A82850B8312C097
:103D500011AA0CFB12BDE770147AFF7BFF12BDE7BE
:103D6000606C88828983E50CF0A3E50DF0750C008A
:103D7000800775100E805F050C9002E4E0FAE50CF8
:103D8000C39A504AE50C75F017A4FAABF088828903
:103D900083A3A3E02AFAA3E03BFB8A828B8312BFB2
:103DA00025EC4D70D2750C17750D00780C1212654C
:103DB000EEFCEFFD122A247402121011EEFCEFFD4E
:103DC000850A82850B8312BBCA121F0280147510EC
:103DD00009800375100112C757850E82850F831263
:103DE000BF3CA91002B9761222748A128B13A81252
:103DF000A913E84922E50A2402F50AE50B3400F587
:103E00000B8A828B83A3A3A3E0A2E522851A828575
:103E10001B83AC82AD838E828F8312BE228A0C8B71
:103E20000D22E0FAA3E0FB12217222740412101199
:103E30007F0A02112474EC1210528C128D13EA24A2
:103E400005F50EEB12C43A751100EA2402F50CEBED
:103E500012BF1F850C82F58312BBCA12C969700399
:103E600002BF117510008071850E82850F83E0649A
:103E700001704F8E828F83A3A312127C8E828F8358
:103E8000A3A3A3A3E0F5147515007814121265EE30
:103E90002405F514EF3400F515781412126512BBE1
:103EA000C41222927406121011E9F5116014850EE5
:103EB00082850F83E4F012C757851282851383121F
:103EC000BF3C7C177D007900EEFAEFFB122A3C8E96
:103ED000828F83E4F0A3F005109002E4E0F8E5108F
:103EE000C398501EE51075F017A4F8A9F0850A8252
:103EF000850B83A3A312C8CF12BF25EC4D6003022C
:103F0000BE68850A82850B8374FFF0A3F0E511700B
:103F10000612BBC4121F08A91102BCCFF50CEF3466
:103F200000F50D22A312BF2AFD22E0FCA3E0228EA1
:103F3000828F8312C75F851082851183E8F0A3E921
:103F4000F022C082C0839002E0E06A7003A3E06BBD
:103F500070067AE07B0280047A007B0002B28474EF
:103F6000F71210527F00EF75F003A4F8A9F0EC28C7
:103F7000F8ED39F988828983E06A7003A3E06B70F9
:103F800006E8FAE9FB800B0FEFC3940240D87A00F1
:103F90007B007F0102112474F612105212C5487082
:103FA000067A007B008007A3A3A3A312BBCA02C6A4
:103FB0000974F2121052E9FE740E12104612C0116A
:103FC000741012104612C4798C828D83E0640270E2
:103FD0003BA312C75B88828983E0F50EA3E0F9A8B2
:103FE0000E74026870037429697021750E02750FD2
:103FF00000780E121265780A121265780C1212659A
:10400000EEF91222B674061210118002790102C66E
:1040100079E0F50CA3E0F50D2274E812105274FB60
:10402000120FFBE9851A82851B83F08A188B198C85
:10403000108D11741F12104612C47974211210468B
:1040400012C011742312104612C4637512008C82C0
:104050008D83A3A3A3E0A2E4502A741D121046127C
:10406000BCDA8A828B83E5824583700302C125799D
:104070000AAC10AD11AA18AB19121050E9F5126074
:104080000302C128851082851183E0640260030267
:10409000C3DEA312C75B850A82850B83A3858214C6
:1040A000858315E5102406F50EE51112C43A8882C1
:1040B0008983E0FAA3E0F9EA2400F516E439F5175C
:1040C00078161212EF010000280128EDC007000247
:1040D00028C4C1032834C10029EEC2012916C30235
:1040E00029BDC20329EEC204297FC3DEC3EE4F708F
:1040F0003E850E82850F8312C454FAE9FB8A828BB7
:1041000083E0850C82850D8312C4901212658A8229
:104110008B83A312BF2AFDAA0AAB0B122A247402B6
:10412000121011800375120EA912740502C8BD7514
:10413000120B80F4EE4F70F7850C82850D837401AD
:10414000F012C469850A82850B83F07C007D0085AE
:104150001082851183A3A3A3A3E02401FAA3E03472
:1041600000FB122172EA4B60418A828B83E02402B9
:10417000F8850C82850D83E028F0EA2404F8EB34FE
:1041800000F988828983E085148285158312C4A290
:1041900012C4901212658A828B8312BF24E50A240E
:1041A00003FAE50B3400FB02C11B850C82850D83ED
:1041B000E02404F07C047D007900AA14AB15122AD7
:1041C0003C02C128EE4F600302C12F12C469FEA356
:1041D000E0FF850C82850D837404F0EE850A8285EC
:1041E0000B83F0EF851482851583F074031210465B
:1041F000AC82AD83EEFAEFFB12C536700302C29AB1
:104200008A828B83A3A312C45F7401121046858235
:10421000108583117810121265740512104612125F
:104220007C7CFF7DFF12217874041210118B11EA3F
:1042300045117033850E82850F8312C43F121265BB
:10424000850E82850F83A312127C7C027D007A8CFE
:104250007B85121FA47404121011E9700A740112F4
:10426000104674FFF0A3F08E828F83E064027034F6
:10427000750E02750F00780E1212658E828F8312F2
:10428000BF24E50A2404FAE50B12B8501210118578
:104290000C82850D83E0240280097401121046EE21
:1042A000F0A3EFF0740112104612C450F074011222
:1042B0001046A312C448A3A3A3F002C128EE4F6086
:1042C0000302C12F850E82850F8312BF25AA18AB6A
:1042D000191222AA850C82850D837402F0EA850AE0
:1042E00082850B83F0851482851583EB80CBEE4F9E
:1042F000600302C12F12C469F8A3E0F9850C82851E
:104300000D837402F0E8850A82850B83F0E9851439
:104310008285158380A3850E82850F8312BBCA1206
:104320002A1EEAFC8C82A882C39EE49F404BE86E62
:104330007001EF70047C00801F851A82851B83E06A
:10434000FAEE2AFAEF3400FBC3EA98EB940050032C
:10435000E08004EECCC39CFCEC850C82850D83F0E0
:104360008C0C750D00780C121265850E82850F83FA
:10437000E02EFCA3E03F02C11675120702C128EE31
:104380004F600302C12F850E82850F8312C75B85A4
:104390000C82850D837407F08882898312C44812C9
:1043A000C430E0851482851583F0E82402FAE934EC
:1043B00000FB8A828B8312C44812C48112C450A3AA
:1043C00012C48A12C459F0E82405F8E93400F988C7
:1043D00082898312C459A312C4A2A302C2B6741D57
:1043E00012104612C541700302C12512C75B880E28
:1043F000890FE8450F700302C1258E128F137812C2
:10440000121265780C121265780A1212657406127F
:104410001046E0F9AC10AD11AA18AB19850E8285D3
:104420000F831210507406121011E9F51202C12800
:10443000F088828983A322F50EEF3400F50F22E085
:10444000F510751100781022E0850A82850B832211
:1044500012C4A92212C75FE82212C4A9A3A322A3EF
:10446000A3A3A3E0FEA3E0FF22850E82850F83E0D5
:10447000F8A3E0F5838882E022E0F50AA3E0F50BDB
:1044800022A3A3F08A828B83A32212B13CA3A3228E
:10449000F08A828B8312C49922E0F50C750D0078A6
:1044A0000C2212C43012C4A922E0850A82850B8333
:1044B000A3A32274EE12105274FE120FFB8A0C8B0F
:1044C0000DECFAEDFB7414121046E0F512A3E0F5C2
:1044D000137416121046E0FE7418121046E0F51020
:1044E000A3E0F511851A82851B83AC82AD8312C5CA
:1044F00036603E851A82851B8312C541602FA3A3B7
:1045000012C479E50A450B602478101212657812FE
:10451000121265EEF9AC0EAD0FAA0CAB0D850A8236
:10452000850B8312105074041210118006790E80CE
:1045300002790102B9761221728A0E8B0FEA450FB9
:104540002212BBCE12C5482212223E8A828B83E5FC
:104550008245832274F612105274FE120FFB740C03
:1045600012104612C454851A82851B83F0740112FE
:104570001046E9F0E4F50AF50B780A121265750A9F
:1045800002780A121265740412104685820A858325
:104590000B780A121265122292740612101174021C
:1045A000121011806474F7121052EAFEEBFF890AB0
:1045B0007C177D031222AAEA5402600BA90AEEFAC4
:1045C000EFFB1221668002790102BF9274F612108D
:1045D0005274FF6A700374FF6B701C7B00EB75F004
:1045E00003A4F8A9F0EC28F8ED39F912C60E0BEB8C
:1045F000C39402501480E612227A8A0A8B0BA80A0E
:10460000A90BE849600312C60E7F020211248882BA
:10461000898374FF12B13AE4F02274F61210521238
:10462000227A8A828B83E58245836006A3A3E0FA1F
:1046300080027A007B0080D174F21210528A0A8BB9
:104640000BECFEEDFF740E121046E0F50C12C67E68
:10465000701CEEFCEFFD7AFF7BFF12C67E700479C2
:1046600011801688828983E50AF0A3E50BF0888221
:104670008983A3A3E50CF079007F0602112412229E
:104680007A8A0E8B0FA80EA90FE8492274EE121039
:1046900052EAFEEBFF8C0A8D0B890E741212104643
:1046A00012C75B741412104612BF257416121046FE
:1046B00012BBCA750F00EC4D600302C74F74026550
:1046C0000E600302C74A8882898312BF2AF9EC244C
:1046D00000F510E439F511EAF4F8EBF4F9EC58F8C8
:1046E000E51159F9E849705DE50A2406F8E50B344F
:1046F00000F9880C890D8882F58312B85F1222AA0E
:104700008A128B13E51065127004E511651360427F
:104710007810121265850C82850D8312B85F122203
:10472000B07402121011E9F50F702778101212659B
:10473000850A82850B83A3A312B85D1222C8740276
:10474000121011800D750F808008750F0D80037594
:104750000F0BA90F02BE308E828F8312C75F22E03B
:10476000F8A3E0F92274E812105274E7120FFB85E7
:104770001A82851B83EAF0A3EBF08C188D1989103F
:104780007431121046E0F514A3E0F51574331210DD
:1047900046E0F516A3E0F5177435121046E0F51162
:1047A000750A00750B00E50B75F003A4F8A9F085F8
:1047B0001A82851B8312C8CFE0F47003A3E0F47063
:1047C0000302C8ADEE2402F50EEF12C8C5E0700377
:1047D00002C8AD85180C85190D780C121265AC163F
:1047E000AD17AA14AB1512223274021210118A0CE2
:1047F0008B0DEA450D700302C8ADE4F512F5137890
:10480000121212657406121046858212858313787F
:10481000121212657409121046858212858313786C
:1048200012121265851482851583A3A3A3A3121205
:104830007C7914AC0CAD0D8E828F8312C8E31210FC
:1048400011E97069850C82850D83A3A3A3A312C708
:104850005B740212104612BF3C850E82850F83E006
:10486000A2E05018A9107402121046AC82AD838EDB
:10487000828F8312BBCA12218AE9420A850E828581
:104880000F83E0A2E15026E511F50C780C121269B5
:10489000A9107403121046AC82AD838E828F8312EE
:1048A000BBCA1221847401121011E9420A050BE5FA
:1048B0000BC39402500302C7A6A90A74191210115F
:1048C0007F100211243400F50F850E82F58322E05B
:1048D00028FEA3E039FF8E828F83227916850C8211
:1048E000850D8312BBCE12228C74082274F2121032
:1048F00052EAFEEBFF890D7401650D600E740265CE
:104900000D706379011224A8E9705BEEFAEFFB12D7
:10491000C9696047750C00800B7C177D0079001217
:104920002A3C050C9002E4E0F8E50CC3985021E520
:104930000C75F017A4F8A9F0850A82850B83A3A350
:10494000E028FAA3E039FB8A828B8312B28B70C90C
:10495000850A82850B8374FFF0A3F07C177D03EE3C
:10496000FAEFFB1222A402C6791222748A0A8B0B78
:10497000EA450B2274F21210528A0A8B0BECFEED00
:10498000FF740E12104612C011900A01E0F4603D4F
:104990007A097B00122A4EEA4B60328A828B83743A
:1049A000B1F0A3E412C483A312C481A3E50AF0A367
:1049B000E50B12C9D0EEF0A3EF12C9D0A3A3E50C0A
:1049C000F0A3E50DF0900A01E0F9122A5A02C67927
:1049D000F08A828B83A3A3A3A3A322C082C0839067
:1049E00061907404F0A37448F0A37402F0906180A5
:1049F0007440F09061BC7403F09061877419F0907A
:104A00006265741BF090619C740DF090619A743330
:104A1000F0A37455F09061A0743AF090055BE064E7
:104A2000017009C2919003C5746780059003C57435
:104A300061F0902E5EE493906186F0902E60E49396
:104A4000F46027E493540FF8906185E0686012E504
:104A5000C654804449F5C6E59E547F644970F8E821
:104A6000F053C680E59E547F70FA7905122808023B
:104A7000CC1DC082C083E9540FF9906185E0696064
:104A800012E5C654804449F5C6E59E547F644970DA
:104A9000F8E9F053C680E59E547F70FA02CC1DC041
:104AA00082C083E5A8F853A87E906181E4F0A3F06A
:104AB000A3F0C2BA539AFEC289759B00C2C275E9BF
:104AC0000075910075BF0075A91175B905906181D8
:104AD000F0A374C0F0A3E4F0D2BA439A01748058F2
:104AE00042A802CC1DC082C08374F8120FFB900351
:104AF000C3E0F8A3E0F9E849700302CC139003C3C4
:104B0000E0544060237908851A82851B83AA82AB12
:104B100083122670851A82851B83AA82AB83122397
:104B20003A9003C3E054BFF0E054806010790C7AEF
:104B30007F7B051226709003C3E0547FF0E0A2E073
:104B4000503190619A7433F0A37455F09061A07461
:104B50003AF090055BE064017009C2919003C5745E
:104B60006780059003C57461F01223409003C3E091
:104B700054FEF0E05402603190619A743FF0A374E7
:104B80005AF09061A0747FF090055BE064017009B9
:104B9000D2919003C5747180059003C5746AF012B8
:104BA00023409003C3E054FDF0E054046013902EC2
:104BB0005CE493906186F01223469003C3E054FBBB
:104BC000F0E054086013902E5DE493906186F0123B
:104BD00023469003C3E054F7F0E054106013902E86
:104BE0005EE493906186F01223469003C3E054EF95
:104BF000F0E05420600A1223469003C3E054DFF033
:104C0000A3E05401600D12259812234C9003C4E0D8
:104C100054FEF074081210118003F0A3F0D083D07A
:104C200082020CB0C082C083E9600814600A14607C
:104C30000C8013902E5C8008902E5D8003902E5E79
:104C4000E493906186F080D574EC12105274F412E3
:104C50000FFB851A82851B83AC82AD8375838475B7
:104C600082C97404120F0E902E5C93F4600302CD7F
:104C7000D5907808E0C39402500302CDB5740412B5
:104C80001046AC82AD8375838475828E7408120FD2
:104C90000E851A82851B8385821485831574041200
:104CA0001046AC82AD837510FF7511FF7FFF7E004B
:104CB000750E48750F78801574086E700302CD4824
:104CC00074096E700302CD48740A6E607B850E8293
:104CD000850F83780A120ECB8C828D83A90BE50C8D
:104CE000C9F888127418780A120E0CE512450AF8F1
:104CF000C3E098A3E099850E82850F83780A120E8F
:104D0000CB40188C828D837418780A120E0CE51231
:104D1000450AF8E0C398F8A3E0801C7418780A12DA
:104D20000E0CE512450AFAE9FB8C828D83E0F8A3AC
:104D3000E0F9EAC398F8EB99F9C3E89510E9951101
:104D4000500688108911EEFF0EE50E2404F50EE5DD
:104D50000F3400F50FEEC39413500302CCB874FF68
:104D60006510700474FF651160238F0A7402780A5D
:104D7000120FE87448250AF5827478350BF58378AC
:104D80000A120ECB851482851583E50AF0EC240205
:104D90000C0CED3400FD851482851583A3858214E7
:104DA000858315740C121046E5826C7003E5836DE3
:104DB000600302CCA6750A01750B00780A12126511
:104DC0007402121046AC82AD837A977B0B122C468C
:104DD0007402121011740C1210117F0C021124C0F5
:104DE00082C0839061AE7468F0A3746AF0906245EB
:104DF00074FBF0A304F053F4FD43FE0290055B74D2
:104E000001F09061A0E0643A90619A70237433F0ED
:104E1000A37455F09061A0743AF0740164017009B4
:104E2000C2919003C5746780289003C57461802186
:104E3000743FF0A3745AF09061A0747FF074016421
:104E4000017009D2919003C5747180059003C574F7
:104E50006A02CC1C7F04021124C082C08390050D1D
:104E6000E06401700A900512E06004790C80027918
:104E70000002CC1DC082C08375E1F1900510E06096
:104E80005514600814605914605180591225AA9075
:104E90000506E0F97A077B0512278A9084DD120E59
:104EA000E91227C09084FD120EE912279690051191
:104EB000E0F91227A279011227FC900504E02416DC
:104EC000F8A3E03400F98882898374C2F0A37425C2
:104ED000F0790002CC1D1225B080B41225B680AF47
:104EE0001225BC80AA791280EA74F412105275D986
:104EF0000D9004F5E0A2E0E4331313F8900506E00A
:104F0000C4333354C0484401F5D978047905888204
:104F10008983A3A3A3E0F5D988828983A3A882A962
:104F200083E8640A7003E9640570E378F57904881E
:104F3000828983A3E0F5D988828983A3A882A98383
:104F4000E864FB7003E9640470E575E1959004F58D
:104F5000E0F97AF67B04122790900A237450F0A3AC
:104F60007425F0A374B8F0A37426F0A374B8F0A36A
:104F70007426F0A374B8F0A37426F0A37456F0A3BB
:104F80007425F0A374B8F0A37426F0A3746EF0A394
:104F90007425F0900A3174B8F0A37426F0A374B8A5
:104FA000F0A37426F0A374B8F0A37426F0A374B829
:104FB000F0A37426F0A374B8F0A37426F0A374B819
:104FC000F0A37426F0900504E0F8A3E0F58388824E
:104FD000A3A3780A120ECB908505780A120E57907B
:104FE00084F5780A120EA5900504E0240EF8A3E0DB
:104FF0003400F988828983780A120EDA900504E079
:105000002414F8A3E03400F9888289837413F090A3
:1050100003C17402F002CE54C082C083900516E032
:105020002407F5D9900506E0C4333354C0F5D97888
:1050300004790588828983A3A3A3E0F5D9888289AE
:1050400083A3A882A983E8640A7003E9640570E376
:10505000900516E0601F78047905FAE82413F582BC
:10506000E93400F583E0F5D988828983A3A882A971
:10507000831AEA70E6900536E02407F5D990050614
:10508000E0C4333354C04404F5D9780479058882E8
:105090008983A3A3A3E0F5D988828983A3A882A9E1
:1050A00083E8640A7003E9640570E3900536E06004
:1050B0001F78047905FAE82433F582E93400F58392
:1050C000E0F5D988828983A3A882A9831AEA70E6C9
:1050D00075E195900A23745CF0A37425F0A374B86D
:1050E000F0A37426F0A374B8F0A37426F0A374B8E8
:1050F000F0A37426F0A37456F0A37425F0A374B83B
:10510000F0A37426F0A3746EF0A37425F0900A3116
:1051100074B8F0A37426F0A374B8F0A37426F0A3B7
:1051200074B8F0A37426F0A374B8F0A37426F0A3A7
:1051300074B8F0A37426F0A374B8F0A37426F090AA
:105140008511120EE9900504E0240EF8A3E0340066
:10515000F988828983120EF5900504E02414F8A3DF
:10516000E03400F9888289837412F09003C17401DD
:1051700002CC1CC082C083900516E02407F5D990AC
:105180000506E0C4333354C04402F5D978047905E8
:1051900088828983A3A3A3E0F5D988828983A3A801
:1051A00082A983E8640A7003E9640570E390051638
:1051B000E0601F78047905FAE82413F582E93400E9
:1051C000F583E0F5D988828983A3A882A9831AEAA6
:1051D00070E675E195900A237468F0A37425F0A336
:1051E0007468F0A37425F0A37468F0A37425F0A389
:1051F0007468F0A37425F0A37468F0A37425F0A379
:105200007468F0A37425F0A3746EF0A37425F09075
:105210000A3174B8F0A37426F0A374B8F0A374260E
:10522000F0A374B8F0A37426F0A374B8F0A37426A6
:10523000F0A374B8F0A37426F0A374B8F0A3742696
:10524000F0908511120EE9900504E0240EF8A3E019
:105250003400F988828983120EF5900504E0241445
:10526000F8A3E03400F9888289837414F09003C1B4
:10527000740402CC1CC082C083900516E02407F59C
:10528000D9900506E0C4333354C04406F5D97804F8
:10529000790588828983A3A3A3E0F5D988828983CD
:1052A000A3A882A983E8640A7003E9640570E39007
:1052B0000516E0601F78047905FAE82413F582E901
:1052C0003400F583E0F5D988828983A3A882A98375
:1052D0001AEA70E6900536E02407F5D9900506E055
:1052E000C4333354C04404F5D978047905888289DD
:1052F00083A3A3A3E0F5D988828983A3A882A98385
:10530000E8640A7003E9640570E3900536E0601F05
:1053100078047905FAE82433F582E93400F583E06E
:10532000F5D988828983A3A882A9831AEA70E675D1
:10533000E195900A237462F0A37425F0A374B8F089
:10534000A37426F0A374B8F0A37426F0A374B8F085
:10535000A37426F0A374B8F0A37426F0A374B8F075
:10536000A37426F0A3746EF0A37425F0900A317430
:10537000B8F0A37426F0A374B8F0A37426F0A37455
:10538000B8F0A37426F0A374B8F0A37426F0A37445
:10539000B8F0A37426F0A374B8F0A37426F0908537
:1053A00011120EE9900504E0240EF8A3E03400F990
:1053B00088828983120EF5900504E02414F8A3E096
:1053C0003400F9888289837415F09003C174030254
:1053D000CC1CC082C083900504E0F8A3E0F583886C
:1053E00082A3A3A3A3A3A3E402CC1A74F7121052BE
:1053F0009003EFE0F875F004A4C8AAF02AF974F15C
:1054000028F8740339F9E82405FAE93400FB8A82A4
:105410008B83E0FCA3E0FD88828983A3A3A3A3A3DD
:10542000A3A3A3A3ECF0A3EDF088828983A3A3A395
:10543000A3A3A3A3E024FFF8A3E034FFF98A828B9F
:1054400083E8F0A3E902D69074F7121052EAFEEB5B
:10545000FF9061D0E0600302D52575D90E75D903A0
:1054600075D904EE248CF582EF3400F583E58224AF
:1054700008F8E5833400F9E0F5D9A3E86582700304
:10548000E9658370F2EE2484F582EF3400F583E55C
:10549000822404F8E5833400F9E0F5D9A3E86582B5
:1054A0007003E9658370F275E1957908EE248CFA52
:1054B000EF3400FB1226647904EE2484FAEF340002
:1054C000FB1226647C00EEF8EFF9ECFAC3E49AFADA
:1054D00095E0FBEE2AFAEF3BFBEA248BF582EB34F6
:1054E00000F583E0C0E0E824ABF582E93400F58301
:1054F000D0E0F00C88828983A3A882A983ECC394AE
:105500000840C7EE2470F582EF3400F583E0F8A37D
:10551000E0F9EE2472F582EF3400F583E8F0A3E9B8
:10552000F079018002790002D691C082C08375D9DA
:105530000275D90375D90575E195EA2470F582EBFA
:105540003400F583E0F8A3E0F9EA2472F582EB3445
:1055500000F583E8F0A3E9F0790102CC1D74F6129E
:105560001052EAFEEBFF90055F7406F0750A5F7556
:105570000B05780A1212657C0179031226AC7402BD
:1055800012101175D90675D90375825F758305E010
:10559000F5D9A3E58264647004E583640570F07551
:1055A000E1959003C1E06408701EEE2470F582EF6F
:1055B0003400F583E0F8A3E0F9EE2472F582EF34CD
:1055C00000F583E8F0A3E9F0790102D75D74F612E3
:1055D0001052EAFEEBFF9061D0E070667801900512
:1055E0005F740BF09003C1E064077019750A5F7572
:1055F0000B05780A1212657C0179031226AC74023D
:105600001210117805740128F5D975D90375825FD8
:10561000758305E8FAE0F5D9A31AEA70F875E19503
:10562000EE2470F582EF3400F583E0F8A3E0F9EEA4
:105630002472F582EF3400F583E8F0A3E9F07901F4
:105640008002790002D75D74F7121052EAFEEBFF78
:1056500075D90375D90375D90DEE24DEF582EF34C3
:1056600000F583E0F5D975E19579041227C6EE249B
:1056700070F582EF3400F583E0F8A3E0F9EE2472D0
:10568000F582EF3400F583E8F0A3E9F079018001B9
:10569000F07F0102112474F6121052EAFEEBFF9023
:1056A00061D0E0F87480C398FAEE2483F582EF3479
:1056B00000F583E06004780480027800E8240BF8A9
:1056C000EAC398500302D75B7D0990055FEDF0EEC9
:1056D00024E3F8EF3400F97A607B057C088882893E
:1056E00083E08A828B83F088828983A3A882A9833E
:1056F0008A828B83A3AA82AB831CEC70E0EE2483A6
:10570000F582EF3400F583E0601D750A5F750B05C7
:10571000780A1212657C097903EEFAEFFB1226ACC7
:1057200074021210117D0D74012DF5D975D9037510
:10573000825F7583058D0AE0F5D9A3150AE50A7025
:10574000F675E19579041227C6EE241DF582EF3433
:1057500000F583E4F0A3F07901800279007F020272
:10576000112474F6121052EAFEEBFF9061D0E0F8BB
:105770007480C398FAEE2483F582EF3400F583E059
:105780006004780480027800E82408F8EAC398509E
:105790000302D8627D0690055F740CF09003DEE092
:1057A000900560F07ADF7B03786179057C028A825C
:1057B0008B83E088828983F08A828B83A3AA82AB61
:1057C0008388828983A3A882A9831CEC70E07AE194
:1057D0007B037C028A828B83E088828983F08A82C1
:1057E0008B83A3AA82AB8388828983A3A882A9839F
:1057F0001CEC70E0EE2483F582EF3400F583E0606A
:105800001D750A5F750B05780A1212657C0679030F
:10581000EEFAEFFB1226AC74021210117D0A74012D
:105820002DF5D975D90375825F7583058D0AE0F56D
:10583000D9A3150AE50A70F675E19579041227C611
:10584000EE2470F582EF3400F583E0F8A3E0F9EE82
:105850002472F582EF3400F583E8F0A3E9F07901D2
:105860008002790002D75D74F6121052EAFEEBFF57
:105870009061D0E0F87480C398FAEE2483F582EF4B
:105880003400F583E06004780480027800E82404A2
:10589000F8EAC398500302D941780290055FE8F016
:1058A000EE24F5F582EF3400F583E0900560F0EE2C
:1058B0002483F582EF3400F583E0601B750A5F7581
:1058C0000B05780A1212657C027903EEFA1226ACF7
:1058D00074021210117806740128F5D975D9037570
:1058E000825F758305880AE0F5D9A3150AE50A7079
:1058F000F675E195EE2474F582EF3400F583E4F05B
:10590000EE2480F582EF3400F583E4F0EE241DF5FB
:1059100082EF3400F583E4F0A3F079041227C6EE99
:10592000240DF582EF3400F583E0F8A3E0F9EE24CE
:1059300072F582EF3400F583E8F0A3E9F079018095
:1059400002790002D75D74F61210529061D0E0F82F
:105950007480C398FCEA2483F582EB3400F583E07D
:105960006004780480027800E82404F8ECC39840CE
:105970005B790290055F7407F0EA24F6F582EB3458
:1059800000F583E0900560F0EA2483F582EB3400B3
:10599000F583E06018750A5F750B05780A121265C9
:1059A0007C02091226AC74021210117906740129C6
:1059B000F5D975D90375825F758305E9F8E0F5D9E6
:1059C000A318E870F875E19579018002790002D793
:1059D0005D74F5121052E9FCA2AFE433F50CC2AFCE
:1059E0007D0080010DEA246FF582EB3400F583E041
:1059F000F8EDC398501A8D0AEA250AF8EB3400F93D
:105A0000E8246BF582E93400F583E06C70D68024DD
:105A1000EA246FF8EB3400F9E0FEEA2EFAEB3400EA
:105A2000FBEA246BF582EB3400F583ECF088828985
:105A300083E004F0E50CA2E092AF7F03021124742E
:105A4000F6121052A2AFE433FDC2AFEA246FF58222
:105A5000EB3400F583E014F07C0060368C0AEA2514
:105A60000AF8EB3400F9E8246CF582E93400F58398
:105A7000E0C0E0E8246BF582E93400F583D0E0F083
:105A80000CEA246FF582EB3400F583E0F8ECC39860
:105A900040CAEA246EF582EB3400F58374FFF0EA25
:105AA000246AF582EB3400F583E4F0EDA2E092AFD6
:105AB00002D75DC082C083E5A8F8C2AFEA246BF5C7
:105AC00082EB3400F583E9F0EA246AF582EB3400D6
:105AD000F583E4F0E8A2E792AF02CC1D74F3121054
:105AE00052EAFEEBFFECFAEDFB8A828B83A3A3A3C1
:105AF000A3E0541FF0EE2436F582EF3400F583E482
:105B0000F0F50CEEFCEFFD8A828B83E0C0E0EC2424
:105B10005DF582ED3400F583D0E0F0750D00E50C05
:105B200033333354F8F50E8A828B83E0F50A750B14
:105B300000E50D780A120FC9E50AA2E0502FEE2405
:105B400036F8EF3400F988828983E0F50AEE250AF9
:105B5000F50AEF3400F50BE50A2438F582E50B343D
:105B600000F583E50EF088828983E004F0050D05D9
:105B70000EE50DC3940840AF050C8A828B83A3AA5F
:105B800082AB838C828D83A3AC82AD83E50CC394FE
:105B900005500302DB077F0502112474F71210522F
:105BA0009003EDE0640170077A007B0002DD127E55
:105BB000009003F3E070F17401F0A3E4F0A3F0901F
:105BC000045304F0900456E4F0A3F090045904F058
:105BD0009003F6E4F0A3F0A3F0A3F090040004F027
:105BE000900426E4F09084F9120EE9900409120E54
:105BF000F590040DE4F0A3F0A3F0900471F090048C
:105C000065F090045A7480F0A3E4F0900460F09082
:105C10000458F09004DCF0A3F0A3F0A3F0A3F0A3E9
:105C2000F0A3F0A3F09004E5F0900474F09004C4A5
:105C3000F0A3F09084F9120EE99004C6120EF590CC
:105C400084F9120EE99004CA120EF59004D0E4F023
:105C50009004D2F09004CEF09004E8F0A3F0A3F00A
:105C6000A3F0A3F0A3F0A3F0A3F078ED7903E82468
:105C70006FF582E93400F58374FFF00E8882898322
:105C8000A3A882A983EEC3940440E37AED7B037852
:105C9000FC790488828983E0C0E0EA2461F582EB24
:105CA0003400F583D0E0F088828983A3A882A98399
:105CB0008A828B83A3AA82AB83E864017003E964C0
:105CC0000570D07AED7B0378D4790388828983A329
:105CD000E0C0E0EA24E7F582EB3400F583D0E0F0A1
:105CE00088828983A3A882A9838A828B83A3AA82BC
:105CF000AB83E864DC7003E9640370CF9003EDE0EC
:105D000004F0640170089003F5E09003EFF07AF17D
:105D10007B0302D691C082C0839003F4E4F0900329
:105D2000F3F09003EDF0A3F0A374FFF075E1F1023E
:105D3000CC1DC082C083780079009003F4E0600439
:105D400078F1790388828983A3A3A3A3E0F902CC25
:105D50001D74F6121052EAFEEBFF8E828F83A3A30E
:105D6000A3E0600F8E828F83A3A3A3E4F09003EEE1
:105D7000E014F09003EDE014F070069003EF74FF70
:105D8000F08E828F83A3A3E4F0900501E0700D9064
:105D900003EEE06401700579001227A8EE2465F592
:105DA00082EF3400F583E0F8A3E0F9E8496029EEDA
:105DB0002465F8EF3400F9880A890B8882F583E0BE
:105DC000FCA3E0FD9003EFE0FA7B00122370850A4C
:105DD00082850B83E4F0A3F0EEFAEFFB1226DC02DF
:105DE000D75D74F7121052EAFEEBFF8E828F83A309
:105DF000A3A3A3E0FA7B001223B2EEFAEFFB122674
:105E00002E1226C402D691C082C08378D47903882A
:105E1000828983A3E4F088828983A3A882A983E886
:105E200064DC7003E9640370E69003D502D16E74FC
:105E3000F6121052EAFEEBFFEC2403F8ED3400F901
:105E4000880A890BEC2407F8ED3400F9E8FCE9FD39
:105E50008C828D83E0F8A3E0F9850A82850B83E0CC
:105E6000FAA3E0FB120F70EE240DF582EF3400F57B
:105E700083E8F0A3E9F08C828D83E0F8A3E0F98554
:105E80000A82850B83E0FAA3E0FB120F708B0BEA0A
:105E9000450B6013EE240DF582EF3400F583E0240A
:105EA00001F0A3E03400F002D75D74F6121052EA5C
:105EB000FEEBFFEE242EF582EF3400F583E0FCA329
:105EC000E0FD780079FAECFAEDFB120F70EE247029
:105ED000F582EF3400F583E8F0A3E9F0780079FA71
:105EE000ECFAEDFB120F708B0BEA450B6013EE24FE
:105EF00070F582EF3400F583E02401F0A3E0340074
:105F0000F002D75D74F0121052EAFEEBFF7410122B
:105F10001046780A120ECB1227668A0E8B0F8C1051
:105F20008D11908529780E120E579084F5780E12F7
:105F30000EA5780E1212618E828F83E0F8A3E0F531
:105F4000838882A3A3120EE9121BFA7404121011A3
:105F5000E9600302E0518E828F83E02402F8A3E01F
:105F60003400F9E8FAE9FB8A828B83780A120E6A18
:105F70009084F5780A120ECB8A828B83780A120EEF
:105F8000B8EE240BF582EF3400F583C082C0838E17
:105F9000828F83A3A3A3A3A3E02401F8A3E034008A
:105FA000F9D083D082E0687003A3E06970057901BD
:105FB00002E0538E828F83A3A3A3A3A3A3A3E02411
:105FC00001F0A3E03400F0EE2474F582EF3400F524
:105FD00083E064017036EE2475F582EF3400F583BA
:105FE000E0F8A3E0F98E828F83A3A3A3A3A3A3A3C6
:105FF000E0687003A3E0697013EE2475F582EF3456
:1060000000F583E02401F0A3E03400F0EE2480F5F5
:1060100082EF3400F583E064017036EE2481F5826E
:10602000EF3400F583E0F8A3E0F98E828F83A3A319
:10603000A3A3A3A3A3E0687003A3E0697013EE24F5
:1060400081F582EF3400F583E02401F0A3E0340011
:10605000F079007F0802112474F71210529003EFB8
:10606000E0F875F004A4C8AAF02AF974F128FE74C7
:106070000339FF8028EE2465F8EF3400F98882891F
:1060800083E0FCA3E0FD88828983E4F0A3F08E82A4
:106090008F83A3A3A3A3E0FA7B00122370EE2465F1
:1060A000F582EF3400F583E0F8A3E0F9E849604FAA
:1060B000EE2464F582EF3400F583E0F50A780A12E5
:1060C0001269EE2463F582EF3400F583E0F9EE24E3
:1060D00065F582EF3400F583E0FCA3E0FDEEFAEF16
:1060E000FB1226587401121011E96089EE2465F53F
:1060F00082EF3400F583E0F8A3E0F9E84970137CFF
:10610000007D008E828F83A3A3A3A3E0FA7B0012FD
:10611000237002D69174F2121052EAFEEBFF890C42
:10612000740E121046E0FAEE2462F582EF3400F5A8
:1061300083E06401600302E1E19061D0E0F87480E3
:10614000C398F50EEE2483F582EF3400F583E0600A
:1061500004780480027800890AE928F8E43400F918
:10616000E824020808E93400F9E50E98E499A2D27F
:1061700065D0334068EA7005750D028003750D0126
:10618000E06039750B00780A1212657A5F7B0512A0
:10619000268E7402121011750A5F750B05780A12AB
:1061A0001265AC0CA90DEEFAEFFB1226AC740212CC
:1061B00010117404250CF50C7C5F7D057401250C11
:1061C000F5D9850DD9E50C600D8C828D83F8E0F54D
:1061D000D9A318E870F875E19579008006790780F1
:1061E0000279FF7F06021124C082C083E960208CFF
:1061F000828D83E08A828B83F08C828D83A3AC8234
:10620000AD838A828B83A3AA82AB8319E970E0EC09
:10621000FAEDFB02CC1D74EA121052907803E06490
:1062200042705E90055EE014F07056C2AF12E2302C
:1062300000782AD0E0F618D0E0F6E59F5407F97010
:10624000059085458003908541780A120ECBE9C4FC
:10625000C0E07829E6550AF50A08E6550BF50B74F7
:106260000B780A120FD9D0E0250AF8906270E0A2EC
:10627000E740F8E8C333906272F0906270E0D2E0D9
:10628000F09003EFE0F4700302E639E0F875F004F3
:10629000A4C8AAF02AF974F128FE740339FFEE2489
:1062A00002F582EF3401F583E0F8A3E0F9E84960F4
:1062B0001EEE2402F582EF3401F583E0FAA3E0FB41
:1062C000EE2401F582EF3401F583E0F9122A7E8E87
:1062D000828F83A3A3A3A3A3A3A3E0F8A3E0F98ED3
:1062E000828F83A3A3A3A3A3E8F0A3E9F090605453
:1062F000E09003C8F0906055E09003C9F0906056BC
:10630000E09003CAF0906057E09003CBF0906058A3
:10631000E09003CCF0906059E09003CDF090605A8B
:10632000E09003CEF090605BE09003CFF090605C73
:10633000E0FC9003D0F090605DE0FB9003D1F09022
:10634000605EE0FD9003D2F090605FE0FA9003D3CE
:10635000F09003CEE08C0A250AF8E43400F98D0AA7
:10636000E8250AF8E93400F98B0AE8250AF8E93447
:1063700000F98A0AE8250AFAE93400FBEE24F7F569
:1063800082EF3400F583E02AF0A3E03BF08C0AEEC4
:1063900024F9F582EF3400F583E0250AF0A3E03418
:1063A00000F0EE24FBF582EF3400F583E02401F0E9
:1063B000A3E03400F0EE24FFF582EF3400F583E033
:1063C000F8A3E0F9E8496042906000E0C333FCE4E0
:1063D00033FDE82CF582E93DF583E02AF0A3E03BAC
:1063E000F0906000E0FA9003D0E0FCEAC333FAE4F6
:1063F00033FBE82AF8E93BF9E8244AF582E934005E
:10640000F583E02CF0A3E03400F09003CEE07011AF
:106410009003D1E0700BA3E07007A3E0700302E5E6
:10642000198E828F83A3A3A3A3A3E0F8A3E0F9EEC0
:10643000240DF582EF3400F583E028F8A3E039F964
:10644000EE240BF582EF3400F583E8F0A3E9F0EEDB
:10645000240FF582EF3400F583E4F0EE241CF5827E
:10646000EF3400F583E06401701EEE2420F582EF26
:106470003400F583E0F8A3E0F9EE241DF582EF3453
:1064800000F583E8F0A3E9F09003C9E06052EE2440
:106490001CF582EF3400F5837401F0EE246AF58276
:1064A000EF3400F583E07038EE2474F582EF3400A9
:1064B000F583E0702BEE2480F582EF3400F583E065
:1064C000701EEE2420F582EF3400F583E0F8A3E09F
:1064D000F9EE241DF582EF3400F583E8F0A3E9F02E
:1064E000906062E0700302E5CC8E828F83E0F8A3B7
:1064F000E0F9E82406FCE93400FDE82402FAE93476
:1065000000FB1227608E828F83E02412F8A3E03410
:1065100000F98882898302E5D69003D0E0603AEEE4
:10652000240FF582EF3400F583E4F0EE241CF582AD
:10653000EF3400F583E064017040EE2420F582EF33
:106540003400F583E0F8A3E0F9EE241DF582EF3482
:1065500000F583E8F0A3E98020EE24FDF582EF3416
:1065600000F583E02401F0A3E03400F0EE241DF5F3
:1065700082EF3400F583E4F0A3F0EE240BF582EF14
:106580003400F583E0F8A3E0F98E828F83A3A3A300
:10659000A3A3E0687003A3E069600302E488EE242B
:1065A0000FF582EF3400F583E060128E828F83A3B3
:1065B000A3A3A3A3E064057002A3E0600B7908EE37
:1065C000FAEFFB1226348071793E80F3EE241DF53C
:1065D00082EF3400F583E4F0A3F0906060E0C0E067
:1065E000EE2469F582EF3400F583D0E0F09003CE1D
:1065F000E0F8EE2467F582EF3400F583E02802E747
:106600003990055CE064017035122814EE2467F5BA
:1066100082EF3400F583E070069060607480F0EEE5
:10662000FAEFFB12271EE96401600E1226521227B0
:1066300018E9640160031226C47F0E021124EE24BF
:1066400083F582EF3400F583E060047804800278FB
:1066500000E50EC398F91223648A0C8B0DEA450DF0
:1066600060A7EE2483F582EF3400F583E070048A9E
:106670000A8B0BE50E6012850A82850B83F514E503
:10668000D9F0A31514E51470F6EE2483F582EF34E7
:1066900000F583E0603774FC250EF50E780A1212BF
:1066A00065AC0EA90FEEFAEFFB1226B274021210BF
:1066B00011E970197403650F700302E779E50C2482
:1066C000FBFAE50D34FFFB122AC002E7797403657B
:1066D0000F700302E77E850E1075110078101212FC
:1066E00065AC0AAD0BAA0CAB0D12268E740212100B
:1066F00011EE2469F582EF3400F583E064807004C4
:10670000747F8001E0F50A780A121269E50FF50A34
:10671000780A121269A90EAC0CAD0D9003EFE0FAE5
:106720007B0012236A7402121011122820EE2467D3
:10673000F582EF3400F583E014F0E0700302E6190F
:10674000750A5F750B05750C00750D00E5D914F51C
:106750000EE5D95403F50F60207403650F70030232
:10676000E673E50E700302E601EE2468F582EF346D
:1067700000F583E0600302E601793D02E5BF850A8A
:1067800082850B83E0F8A385820A85830B603B1426
:10679000700302E97614700302EC6A14700302E9D4
:1067A000D424FD700302EAF414700302E72A147083
:1067B0000302EB4A24FE700302EB0314700302EBA6
:1067C0004514700302EBDF02EBEEEE2477F512EFD7
:1067D0003400F513E0851282851383F0850A8285E3
:1067E0000B83A385820A85830BEE2478F510EF34A2
:1067F00000F5117902AC0AAD0BAA10FB12265E8AD5
:106800000A8B0BEE247AF50EEF3400F50F7902AC0B
:106810000AAD0BAA0EFB12265E8A0A8B0B7902AC1C
:106820000AAD0BEE247CFAEF3400FB12265E8A0AD6
:106830008B0BEE247EF50CEF3400F50D7902AC0ADB
:10684000AD0BAA0CFB12265E8A0A8B0B8512828581
:106850001383E0C333F0851082851183E0F8A3E051
:10686000F9E8C333F8E933F9851082851183E8F03C
:10687000A3E9F0850E82850F83E0F8A3E0F9E8C371
:1068800033F8E933F9850E82850F83E8F0A3E9F048
:10689000850C82850D83E0F50EA3E0F50F74047876
:1068A0000E120FE8850C82850D83E50EF0A3E50F2F
:1068B000F0EE2475F50CEF3400F50D7902AC0AAD5D
:1068C0000BAA0CFB12265E850C82850D83C082C04C
:1068D000838E828F83A3A3A3A3A3E0F8A3E0F9D0C0
:1068E00083D082E0C398F8A3E099F9C3E894FFE964
:1068F000947F4005792802E5BFEE247CF582EF34D1
:1069000000F583E02401F50AA3E03400F50BE4F57B
:106910000CF50DEE247AF582EF3400F583E0F8A350
:10692000E0F9E8C333F8E933F9880E890FE4F5108C
:10693000F511780A790E120D1CEE247EF582EF34E3
:1069400000F583E0F50EA3E0F50F780E790A120C3E
:10695000DD4005793B02E5BFEE2474F582EF34009B
:10696000F5837401F0EE241DF582EF3400F583E425
:10697000F0A3F002E72AEE2481F50CEF3400F50DC8
:106980007402C0E07905AC0AAD0B7AFC7B041226D8
:106990005EEAFCEBFDD0E0F9AA0CAB0D12265E8599
:1069A0000C82850D83C082C0838E828F83A3A3A3B4
:1069B000A3A3E0F8A3E0F9D083D082E0C398F8A3C2
:1069C000E099F9C3E894FFE9947F400302E8F4EE0C
:1069D00024808087EE24E2F582EF3400F583E070B6
:1069E00039EEF8EFF97AD47B038A828B83A3E0C077
:1069F000E0E824E3F582E93400F583D0E0F08A8210
:106A00008B83A3AA82AB8388828983A3A882A9836C
:106A1000EA64DC7003EB640370CFEE24E3F582EFED
:106A20003400F583E0A2E0EE401824DEF582EF3476
:106A300000F583741AF0790DEEFAEFFB12260402CA
:106A4000E72A2462F582EF3400F583E4F0EE24684F
:106A5000F582EF3400F583E4F0EE24E1F582EF34C3
:106A600000F5837401F07908AC0AAD0BEE249CFAB2
:106A7000EF3400FB12265E8A0A8B0B7902AC0AAD5A
:106A80000BEE24A4FAEF3400FB12265E8A0A8B0B6D
:106A9000EE2494F50CEF3400F50D7908AC0AAD0B3B
:106AA000AA0CFB12265E8A0A8B0B7908AA0CAB0D86
:106AB000122664EE2488F50CEF3400F50D7904AC51
:106AC0000AAD0BAA0CFB12265E7904AA0CAB0D12C0
:106AD0002664EE248CFAEF3400FB122676EE248432
:106AE000FAEF3400FB12267C9003C3E04480F07977
:106AF0000402EA38EE24DFF582EF3400F5837401F6
:106B000002E972EE2462F582EF3400F583E4F0EEE0
:106B10002468F582EF3400F583E4F0EE24D3F582A7
:106B2000EF3400F583E4F0EE24DDF582EF3400F578
:106B3000837401F0EE24D4F582EF3400F583E4F0A1
:106B4000790B02EA38EE24E080ADEEF8EFF97AD462
:106B50007B038A828B83A3E0C0E0E824E3F582E92B
:106B60003400F583D0E0F08A828B83A3AA82AB83C2
:106B700088828983A3A882A983EA64DC7003EB641A
:106B80000370CFEEF8EFF97AD47B038A828B83A36C
:106B9000C082C083850A82850B83E0D083D082FCCB
:106BA000E05CC0E0E824E3F582E93400F583D0E05E
:106BB000F0850A82850B83A385820A85830B8A82EE
:106BC0008B83A3AA82AB8388828983A3A882A983AB
:106BD000EA64DC7003EB640370B1790902EA38EE11
:106BE00024EBF582EF3400F583E064017011EE24AC
:106BF000F6F582EF3400F583E8F0790702EA38858C
:106C00000A82850B83E0C0E0EE24EEF582EF3400CB
:106C1000F583D0E0F0850A82850B83A385820A85FF
:106C2000830B7402C0E0F9AC0AAD0BEE24EFFAEF6F
:106C30003400FB12265EEAFCEBFDD0E0F9EE24F115
:106C4000FAEF3400FB12265EEE24EBF582EF3400FF
:106C5000F5837401F0EE24EDF582EF3400F583E066
:106C6000600302E72A790C02EA38EE24F5F8EF34E3
:106C700000F9E088828983F0EE24F4F582EF340095
:106C8000F5837401F088828983E0F902E5BF53BF80
:106C9000EF020CB074F01210529003EFE0F875F0B0
:106CA00004A4C8AAF02AF974F128FE740339FF90ED
:106CB00061D0E0600FEE241DF582EF3400F583E42F
:106CC000F0A38053EE246AF582EF3400F583E07080
:106CD00047EE2474F582EF3400F583E0703AEE2439
:106CE00080F582EF3400F583E0702DEE241CF582F0
:106CF000EF3400F583E06401701EEE2420F582EF8E
:106D00003400F583E0F8A3E0F9EE241DF582EF34BA
:106D100000F583E8F0A3E9F08E828F83A3A3A3A3F9
:106D2000A3E0F8A3E0F9EE241DF582EF3400F5832B
:106D3000E028F8A3E039F9E8240108E93400F9EE85
:106D40002407F50CEF3400F50D850C82F583E8F08F
:106D5000A3E9F0EE240BF582EF3400F583C3E0984D
:106D6000A3E09950358E828F83A3A3A3A3A3A3A3EB
:106D7000C082C083EE240BF582EF3400F583E0F887
:106D8000A3E0F9D083D082E0C398F8A3E099F9C3D7
:106D9000E894AAE994105035803BEE240BF582EF7D
:106DA0003400F583C082C0838E828F83A3A3A3A304
:106DB000A3A3A3E0F8A3E0F9D083D082E0C398F8BE
:106DC000A3E099F9C3E894ABE99410500890050347
:106DD000E064017030EE241DF582EF3400F583E4A9
:106DE000F0A3F08E828F83A3A3A3A3A3E02401F8D2
:106DF000A3E03400F98E828F83A3A3A3A3A3A3A34C
:106E0000E8F0A3E9F0EE2474F582EF3400F583E0B6
:106E10006401600302F07CEE2475F582EF3400F526
:106E20008312127C8E828F83A3A3A3A3A3A3A3E0C8
:106E3000FCA3E0FD8E828F83A3A3A3A3A3E0FAA308
:106E4000E0FB1215CE7402121011E9700302F07CFF
:106E5000EE2475F8EF3400F9880A890B8882F583EF
:106E6000E0F8A3E0F9850C82850D83E8F0A3E9F052
:106E7000EE2477FCEF3400FDEEFAEFFB122640EE35
:106E8000247CF582EF3400F583E0F8A3E0F9EE24EA
:106E900020F582EF3400F583E8F0A3E9F0EE241C3E
:106EA000F582EF3400F583E4F0EE241DF582EF3433
:106EB00000F583E4F0A3F0EE240FF582EF3400F543
:106EC000837401F0850C82850D83E0F8A3E0F9EE70
:106ED000240DF582EF3400F583E028F8A3E039F9BA
:106EE000EE240BF582EF3400F583E8F0A3E9F08E91
:106EF000828F83A3A3A3A3A3E0FCA3E0FD850A8262
:106F0000850B83E0FAA3E0FB12160B8A0A8B0BEECB
:106F1000242EF582EF3400F583E0FAA3E0FBE4F5DC
:106F20000CF50D8A0E8B0FF510F511780A790E12FB
:106F30000D1CEE2478F582EF3400F583E0F50EA306
:106F4000E0F50F780A790E120E44EE247AF582EFFE
:106F50003400F583E06A7003A3E06B7044EE247E96
:106F6000F582EF3400F583E0F8A3E0F9EE2432F582
:106F700082EF3400F583E0687003A3E0697022EECD
:106F8000247CF582EF3400F583E0F8A3E0F9EE24E9
:106F900030F582EF3400F583E0687003A3E06960A8
:106FA00052EE247EF582EF3400F583E0F50EA3E087
:106FB000F50F7404780E120FD9780E121265EE24B4
:106FC0007CF582EF3400F58312127CEE247AF58290
:106FD000EF3400F583E0FCA3E0C313FDEC13FC8E5B
:106FE000828F83A3A3A3A3E0FA7B001223B87404C7
:106FF000121011EE2477F582EF3400F583E0C0E043
:10700000EE242BF582EF3400F583D0E0F0EE247A05
:10701000F582EF3400F583E0F8A3E0F9EE242EF5D5
:1070200082EF3400F583E8F0A3E9F0EE247CF582EA
:10703000EF3400F583E0F8A3E0F9EE2430F582EFB9
:107040003400F583E8F0A3E9F0EE247EF582EF3416
:1070500000F583E0F8A3E0F9EE2432F582EF340086
:10706000F583E8F0A3E9F0EEFAEFFB122646EE24F2
:1070700074F582EF3400F583E4F08016EE242EF5EB
:1070800082EF3400F583E0F50AA3E0F50BE4F50C9C
:10709000F50DEE2418F582EF3400F583780A120C12
:1070A000C8701EEE241FF582EF3400F583E0F8EE81
:1070B000241DF582EF3400F583E0687002A3E060E0
:1070C00039EE2412F50EEF3400F50F780E1212652A
:1070D000EE2410F582EF3400F58312127CEE241DAD
:1070E000F582EF3400F58312127CAA0AAB0BAC0CCC
:1070F000AD0D121D937406121011EE2418F582EFD7
:107100003400F583780A120EDAEE241DF582EF348E
:1071100000F583E0C0E0EE241FF582EF3400F58334
:10712000D0E0F0EE2412FCEF3400FD8E828F83E07D
:107130002402FAA3E03400FB121CD5906062E060E8
:10714000147C887D848E828F83E02402FAA3E0344D
:1071500000FB121CD58E828F83E0F8A3E0F98882B1
:107160008983A3A3E82408FCE93400FD7406120F08
:107170000E8E828F83E02402F8A3E03400F9E8FA4F
:10718000E9FBEE241DF582EF3400F583E0F50EA354
:10719000E0F50FE4F510F5119084E1780E120E572A
:1071A000780E790A120D1C8A828B83780E120E6A71
:1071B0009084F5780E120ECB8A828B83780E120E95
:1071C000B8900501E06401600302F2F6790112272C
:1071D000A88E828F83E0F8A3E0F9908511120EE962
:1071E000E8240EF582E93400F583120EF5E8241246
:1071F000F8E93400F9E8FAE9FBEE2412F582EF34FD
:1072000000F583780A120ECBE50A75F0E2A4C50AF0
:10721000A8F075F004A428F875F0E2E50BA428F5B1
:107220000B8A828B83E0250AF0A3E0350BF0EE2475
:1072300016F582EF3400F583E0F50AA3E0F50B7450
:1072400004780A120FD9E50A2401F8E50B3400F995
:107250008A828B83E028F0A3E039F0906062E08EB0
:10726000828F83700302F362E02412F8A3E03400FB
:10727000F988828983E02410F0A3E03401F0EE2441
:107280000FF582EF3400F583E06031EE242BF582B8
:10729000EF3400F583E0F875F071A4C8AAF075F03A
:1072A00002A42AF98E828F83E02412FAA3E034002C
:1072B000FB8A828B83E028F0A3E039F08E828F83F3
:1072C000E02414F8A3E03400F9888289837410F074
:1072D0008E828F83E02416F8A3E03400F988828937
:1072E0008374C8F0A37425F0EEFAEFFB12145A79F8
:1072F000007F0802112490851D780A120CFD5003AE
:1073000002F1D1EE241DF582EF3400F583E0F8A3FD
:10731000E0F9E849600302F1D1780A121261EEFA4D
:10732000EFFB12264C7404121011E9640160030291
:10733000F1D1EE240FF582EF3400F583E060128E78
:10734000828F83A3A3A3A3A3E064057002A3E060DC
:107350000479088002793EEEFAEFFB1226347901B7
:10736000808FE02412F8A3E03400F988828983E05A
:107370002410F8A3E034FFF97A717B02120F7088B1
:107380000A890BEE242EF582EF3400F583E0F8A392
:10739000E0F9C3E50A98E50B99500302F27E80B14B
:1073A00074F6121052EAFEEBFF803B9003CBE070C4
:1073B0000302F6D0EEFAEFFB12260AEE24A4F50A39
:1073C000EF3400F50B780A121265EE249CFCEF34C2
:1073D00000FD8E828F83A3A3A3A3E0FA7B00122378
:1073E000C47402121011EE246FF582EF3400F5839D
:1073F000E0607CEE246BF582EF3400F583E024FE40
:10740000603224FE606D14700302F48E1470030267
:10741000F56F14700302F84924FE700302F7042488
:10742000FE700302F63A14700302F75C1470030254
:10743000F68F80B2EE246AF582EF3400F583E064C3
:107440000170199003CAE0700302F6D07916EEFAC3
:10745000EFFB12263479017F02021124EEFAEFFBD2
:107460001225F8EE246AF582EF3400F583E9F0790D
:107470000080E4EE246AF582EF3400F583E06401D5
:10748000700302F3ABEEFAEFFB1225CE80D5EE24AB
:107490006AF582EF3400F583E0640170579003CB06
:1074A000E06033EE2483F582EF3400F5837401F05D
:1074B0009084F9120EE9EE24D5F582EF3400F583BD
:1074C000120EF59084F9120EE9EE24D9F582EF340C
:1074D00000F583120EF5EE24DFF582EF3400F5831C
:1074E000E06401600302F6D07906EEFAEFFB1226A3
:1074F0001002F3E6EE24D3F582EF3400F583E06466
:10750000017028EEFAEFFB1225D4E964017019EE40
:1075100024DFF582EF3400F583E4F0EE246AF5828F
:10752000EF3400F5837401F002F46FEE24D4F58299
:10753000EF3400F583E060F0EE24B3F50AEF340099
:10754000F50B780A121265EE248CFCEF3400FDEE88
:1075500024C3FAEF3400FB1226827402121011EEDB
:1075600024D3F582EF3400F5837401F002F3E6EEE4
:10757000246AF582EF3400F583E06401600302F6CB
:10758000309003CBE0700302F6D0EE2420F582EFBA
:107590003400F583E0F8A3E0F9EE241DF582EF3422
:1075A00000F583E8F0A3E9F0EEFAEFFB12260AEE0D
:1075B0002462F582EF3400F5837401F0EE2468F55F
:1075C00082EF3400F5837401F0EE24DDF582EF34B0
:1075D00000F583E06401701379008E828F83A3A38A
:1075E000A3A3E0FA7B001223D080137C0179008EE4
:1075F000828F83A3A3A3A3E0FA7B001223CAEE2405
:10760000DDF582EF3400F583E4F0EE24E1F582EF5E
:107610003400F583E4F0EE24E0F582EF3400F583E6
:10762000E4F0EE24DFF582EF3400F583E402F56B3D
:10763000EEFAEFFB1225DA02F463EE246AF582EF2C
:107640003400F583E064017019EE24E0F582EF3434
:1076500000F583E064017078EEFAEFFB12260A026F
:10766000F3E6EEFAEFFB1225E0E96401600302F4B1
:107670006FEE24E0F582EF3400F583E4F0EE24832E
:10768000F582EF3400F583E4F0EE246A02F562EE51
:10769000246AF582EF3400F583E06401705C9003A6
:1076A000CBE06026EE2483F582EF3400F583E4F02E
:1076B000EE2462F582EF3400F5837401F0EE246865
:1076C000F582EF3400F5837401F09003CAE070880E
:1076D000EE2472F8EF3400F988828983E024FFF009
:1076E000A3E034FFF088828983E0F8A3E0F9E84959
:1076F000600302F46F792202F44EEEFAEFFB1225DA
:10770000E602F463EE246AF582EF3400F583E06468
:107710000170349003CBE060B7EE24E2F582EF34E1
:1077200000F5837401F0EE2420F582EF3400F58338
:10773000E0F8A3E0F9EE241DF582EF3400F583E8CC
:10774000F0A3E9F002F658EEFAEFFB1225ECEE2476
:107750006AF582EF3400F583E902F527EE246AF535
:1077600082EF3400F583E06401600302F832EE2416
:10777000EBF582EF3400F583E064017051EE24EC08
:10778000F582EF3400F583E06401600302F658EE01
:1077900024F1F582EF3400F58312127CEE24EFF52C
:1077A00082EF3400F58312127CEE24EEF582EF3482
:1077B00000F583E0FC8E828F83A3A3A3A3E0FA7B72
:1077C0000079001223BE740412101102F658EE2440
:1077D00072F8EF3400F988828983E024FFF0A3E097
:1077E00034FFF088828983E0F8A3E0F9E849600378
:1077F00002F46FEE24F1F582EF3400F58312127C6F
:10780000EE24EFF582EF3400F58312127CEE24EEC5
:10781000F582EF3400F583E0FC8E828F83A3A3A36F
:10782000A3E0FA7B0079221223BE74041210110225
:10783000F6F5EE24EDF582EF3400F5837401F0EEF9
:10784000FAEFFB1225F202F463EEFAEFFB1225FECB
:10785000E96401600302F46F02F658C082C08379C4
:107860000102FBD6C082C083790202FBD674F512F6
:1078700010528A0A8B0BECFEEDFFEE4F6005EA45D5
:107880000B7005790202F9278E828F83E912FC487A
:107890008A828B8312F92D8A828B8312F92CEA2437
:1078A000020A0AEB3400FB12287AE912F92E850A43
:1078B00082850B83A3A3A312F92C12FAE188828993
:1078C00083E054086004D2F08002C2F0A2F012F902
:1078D00038541060047A0280027A008E828F83E02E
:1078E0004A12F93E542060047A0480027A008E82A3
:1078F0008F83E04A12F93288828983E0A2E012F98C
:1079000038540260047A0280027A008E828F83E00B
:107910004A12F93E540460047804800278008E8292
:107920008F83E048F079007F03021124A3E08E8268
:107930008F83F0A30EAF8322E4338E828F83F0888F
:10794000828983E02274ED121052EAFEEBFF8C0A6A
:107950008D0BEE4F6005EC450B7005790202FADCE9
:107960008E828F83A3AE82AF83E08C828D8312FAE6
:10797000EC8C828D83A385820C85830D8E828F8310
:10798000E0850C82850D8312FAECE0F9EC2402FA12
:10799000ED3400FB1228808E828F83A30EAF83E527
:1079A0000A2404F50EE50B3400F50FE0850E828500
:1079B0000F83F08E828F83A3E0F514A30E0EAF83A6
:1079C000A2E0E433F510751100E514A2E15004D2F1
:1079D000F08002C2F0A2F0E433F512751300E51452
:1079E000A2E25004D2F08002C2F012FAE1E8FAE911
:1079F000FB8A828B83E054F7FCA3E0FD74037810CC
:107A0000120FE8EC451054EFFC74047812120FE8E2
:107A1000EC451254DFFCA2F0E433F5107405781045
:107A2000120FE8EC4510FC8A828B83F0A3EDF08EF8
:107A3000828F83E0F514A2E0E433FEE514A2E15066
:107A400004D2F08002C2F0A2F0E433F8E514A2E21E
:107A50005004D2F08002C2F0EC54FE4E54FDFCE81B
:107A6000C333F8EC48F8EDF9E8543BFCA2F0E433FA
:107A7000F51074027810120FE8EC45108A828B839F
:107A8000F0A3E9F07A217B00121FB68A108B11A8AF
:107A900010A911850E82850F83E0C398E499401ADE
:107AA0007A227B00121FB68A10850E82850F83E032
:107AB000FAC3E5109AEB940050047912801E850AEF
:107AC00082850B83E0C39405500C850C82850D8361
:107AD000E0C3940240047918800279007F0B021100
:107AE00024E50A2405F8E50B3400F922F08E828F94
:107AF00083A30EAF832274F6121052ECFEEDFFEE5C
:107B00004F6004EA4B7004790280188E828F837470
:107B10000312FC3C121265EAFCEBFD12FD4E121042
:107B200011790002FD1174F6121052ECFEEDFFEA1D
:107B30004B6004EE4F700479028013750A10750BC8
:107B400000780A12126512FD45121011790002FD2B
:107B50001174F6121052ECFEEDFFEE4F6004EA4B8A
:107B60007004790280188E828F83740412FC3C1298
:107B70001265EAFCEBFD12FD4E121011790002FDB8
:107B80001174F6121052ECFEEDFFEA4B6004EE4F5A
:107B9000700479028013750A10750B00780A1212AE
:107BA0006512FD45121011790002FD11C082C083DB
:107BB000EC4D6004EA4B7004790280188C828D834E
:107BC0007405F0A3AC82AD838A828B83E08C828DB6
:107BD00083F079008003122982D083D082020CB016
:107BE000C082C083EA4B6004EC4D70047902801AB5
:107BF0008A828B83A3E0F88C828D83F0C3940A5031
:107C000003E8700479188002790080CD74F61210B0
:107C100052ECFEEDFFEE4F6004EA4B7004790280F7
:107C2000188E828F83740612FC3C121265EAFCEBFC
:107C3000FD12FD4E121011790002FD1112FC487563
:107C40000A10750B00780A22F0A3AE82AF8322746B
:107C5000F6121052ECFEEDFFEA4B6004EE4F70049A
:107C600079028013750A10750B00780A12126512DA
:107C7000FD45121011790002FD1174F6121052EA3E
:107C8000FEEBFFECFAEDFBEA4B6004EE4F7004797B
:107C900002802C8A828B83740712FD998E828F83D7
:107CA000A312FDA7750A08750B00780A121265EE7B
:107CB0002402FCEF3400FD12FD52121011790080F5
:107CC0005074F6121052ECFEEDFFEA4B6004EE4FDA
:107CD00070047902803B8A828B83A3AA82AB83E003
:107CE000FCA3E0F8E4C8F9EC8E828F83F0A3E9F0FE
:107CF000750A08880B780A121265EA2402FCEB3434
:107D000000FDEE2402FAEF340012FD511210117939
:107D1000007F0202112474F6121052ECFEEDFFEE09
:107D20004F6004EA4B7004790280188E828F83744E
:107D30000812FC3C121265EAFCEBFD12FD4E12101B
:107D400011790080CC8A828B83A3AC82AD83EEFA5A
:107D5000EFFB122A2474022274F6121052EAFEEB90
:107D6000FFECFAEDFBEA4B6004EE4F700479028001
:107D7000258A828B83740912FD99750A06750B009A
:107D8000780A1212658E828F83A3AC82AD8312FDB6
:107D900052121011790002FD11F0A3AA82AB838E5A
:107DA000828F8312FDA722E08A828B83F0A30AAB25
:107DB000832274F6121052ECFEEDFFEA4B6004EEE3
:107DC0004F700479028013750A10750B00780A123F
:107DD000126512FD45121011790002FD1174F612A0
:107DE0001052ECFEEDFFEA4B6004EE4F7004790296
:107DF00080378A828B83A3AA82AB83E08E828F83B3
:107E0000F08A828B83A30AAB83750A06750B007810
:107E10000A121265EAFCEBFD8E828F83A3AA82AB65
:107E20008312FD52121011790002FD1174F6121026
:107E300052ECFEEDFFEE4F6004EA4B7004790280D5
:107E4000188E828F83740A12FC3C121265EAFCEBD6
:107E5000FD12FD4E121011790002FD1174F6121080
:107E600052ECFEEDFFEA4B6004EE4F7004790280A5
:107E700013750A10750B00780A12126512FD45126F
:107E80001011790002FD1174F7121052ECFEEDFF93
:107E9000EE4F6004EA4B7004790280148E828F8367
:107EA000740B12FC4812287AE98E828F83F07900D5
:107EB0007F01021124C082C083EA4B6004EC4D7044
:107EC00004790280108A828B83A3E0F9ECFAEDFB3F
:107ED000122880790002FBD974F312105274FA123E
:107EE0000FFB8A0A8B0B890EECFEEDFF7413121048
:107EF00046E0F8A3E0F9880C890D851A82851B837A
:107F00007406F0A3E4F0850E82AA82FB74041210BA
:107F100046EAF0A3E4F012247E7402121046EAF05E
:107F2000A3EBF07402121046E0FCA3E0FDEC4D6000
:107F300036EEFAEFFB850C82850D83121050E9FEB8
:107F40007013851A82851B83AC82AD83AA0AAB0BA2
:107F50001223DCE9FEEE60117402121046E0FAA36F
:107F6000E0FB122D3680027E13122850EEF97406C3
:107F70001210117F0502112474F7121052E99007B4
:107F800054F0900755E4F0900756F0900757F090A2
:107F90000758F0900759F012237690031DE4F07F04
:107FA0000102112474F6121052EAFEEBFF548060B5
:107FB00017900754E0F9122A66EA4B6003122A541C
:107FC000EEFAEF6480FB80047A007B007F020211EE
:107FD00024C082C083E99007568008C082C083E92C
:107FE000900757F0D083D082020CB0C082C083E9E2
:107FF00090075880EEFFFFFFFFFFFFFFFFFFFFFF2F
:108000000000000000000000002F0000000007003A
:10801000070000147F147F1400242A7F2A120062B4
:108020006408132300364955225000000503000060
:1080300000001C224100000041221C000014083EE8
:1080400008140008083E0808000000A060000008AE
:108050000808080800006060000000201008040202
:10806000003E5149453E0000427F400000426151C0
:108070004946002141454B31001814127F1000275A
:1080800045454539003C4A4949300001710905031D
:1080900000364949493600064949291E000036364E
:1080A00000000000563600000008142241000014B1
:1080B000141414140000412214080002015109068E
:1080C00000324959513E007C1211127C007F49490F
:1080D0004936003E41414122007F4141221C007F40
:1080E00049494941007F09090901003E4149497A4E
:1080F000007F0808087F0000417F410000204041C8
:108100003F01007F08142241007F40404040007F33
:10811000020C027F007F0408107F003E4141413E77
:10812000007F09090906003E4151215E007F0919BF
:1081300029460046494949310001017F0101003FBC
:108140004040403F001F2040201F003F4038403F3C
:1081500000631408146300070870080700615149A0
:10816000454300007F41410000552A552A55000033
:1081700041417F00000402010204004040404040B1
:10818000000001020400002054545478007F484449
:10819000443800384444442000384444487F003880
:1081A0005454541800087E0901020018A4A4A47CA9
:1081B000007F080404780000447D40000040808473
:1081C0007D00007F102844000000417F4000007CBB
:1081D00004180478007C08040478003844444438C7
:1081E00000FC242424180018242418FC007C080413
:1081F000040800485454542000043F444020003CEC
:108200004040207C001C2040201C003C4030403C72
:10821000004428102844001CA0A0A07C0044645402
:108220004C44141414141414261F9C21321FA22130
:108230003E1FA8214A1FAE21561FB421681FB4213A
:10824000741FBA214A1FC021621FC621000000000E
:10825000861FC621921FCC2100000000000000B044
:1082600000405104C1FF00F000000000000000B019
:1082700000405104C2FF00F00000000000000000B8
:1082800000000000000000000000000000000000EE
:1082900000000000000000000101020102010102D3
:1082A00001020303040103010101010103030201AF
:1082B00003CC24342C062A4E2DF4230C21F6216AFB
:1082C00029D82DD42B2022FC2D536F667477617230
:1082D00065205265766973696F6E004861726477D4
:1082E000617265205265766973696F6E00466972C6
:1082F0006D77617265205265766973696F6E004DA6
:10830000616E756661637475726572204E616D652C
:10831000005465786173496E737472756D656E741F
:1083200073003031323334353637383941424344C3
:10833000454600F401FA00960064004B0032001E2E
:108340000014000000000000000000000000000019
:1083500000008700000000000000B000405104C091
:10836000FF00F0FB349B5F800000800010000000E5
:1083700000000048414C5F4B45595F43454E544512
:10838000520048414C5F4B45595F524947485400A1
:10839000FE006578706572696D656E74616C536519
:1083A0007269616C204E756D6265720048414C5F68
:1083B0004B45595F444F574E00496D6720496465EE
:1083C0006E746966790048414C5F4B45595F4C4576
:1083D000465400446973636F6E6E65637465640030
:1083E00048414C5F4B45595F53575F36004D6F64B2
:1083F000656C204E756D62657200416476657274BD
:108400006973696E6700496E697469616C697A6540
:108410006400424C4520506572692D410048414C32
:108420005F4B45595F555000000000000000000000
:1084300000005478506F7765723A20000000000009
:10844000000000000000436F6E6E65637465640099
:1084500054696D6564204F757400000000000000D1
:1084600000000000496D6720426C6F636B006B6514
:1084700079203D203078004368617220313A004312
:1084800068617220333A00FF00000000001B786929
:10849000E0AB50C3F0D2002D062D00003C2142215C
:1084A00000004572726F7200502B00000000322EE7
:1084B000382E0000000000000000000086220000AE
:1084C000010203040560EA000031B1E1FF00E1F5BB
:1084D0000510270000E8030000F4010000D6BE8963
:1084E0008E010000000A000000710200000B000075
:1084F0000003000000FFFFFF00000000005555557D
:10850000009001000000080000F4FFFFFF40420F50
:1085100000FFFFFFFF0D00000001C8000050000039
:1085200000F6FFFFFF0500000002000000F1FFFF62
:10853000FF0600000000001000070000001A000005
:1085400000FF7FFFFFFFFF00006400000019000034
:10855000008EC2F528E7FFFFFF419C0000409C0011
:1085600000430000000100FF000000FF007D00004C
:108570000002908502AA8502928510538302B0857D
:10858000032A022A012A002A022903280128042A90
:1085900001180018052A502A2A2A292A282A272AB7
:1085A000262A252A242A0028232A0A18F5FF300023
:1085B000F0FFF1FFF2FFF3FFF4FF0129000C74F468
:1085C000121052E9FF7E008A0A8B0B780A1212A958
:1085D00000040D6F87F1850D86228637864C8661F3
:1085E000867D869686A886D686F886148730874E3E
:1085F0008774016F70128C828D83E0C394035008DE
:10860000E0900AEDF002878D7E1802878D74026F6C
:1086100070F68C828D83128ECB900AEEE8F0A3E97F
:1086200080E274016F70E18C828D83E0C39402500C
:10863000D7E090078080CD74016F70CC8C828D83E1
:10864000E0C3940550C2E090078180B874016F7058
:10865000B78C828D83E0C3940250ADE09007828096
:10866000A374106F70A2750A108E0B780A1212652F
:108670007A837B0712928F12101102878D74016F1B
:1086800070868C828D83E0C394024003028608E0EA
:1086900090079302860474016F60030286088C823F
:1086A0008D83E0900AF1808D74046F600302860868
:1086B00090850D780A120ECB8D838C82780A120C6D
:1086C000ED40030286088C828D83120EE990079597
:1086D000120EF502878DEF6003028608122112E95F
:1086E000700E122BC27950122DB4122BB602878D48
:1086F000900828740102860474016F6003028608E2
:108700008C828D83E0C394024003028608E09007C8
:108710009402860474016F60030286088C828D8344
:10872000E0C3940A4003028608E0900AF00286043F
:1087300074016F60030286088C828D83E024F9C384
:10874000940A4003028608E0900AF202860474014B
:108750006F6003028608900827E0F88C828D83E022
:10876000900827F0E87026E0640170210286EAC3D1
:10877000EA9426EB9400501374026F700E8C828D75
:1087800083128EC5121FB0E9FE80020E0EEEF902B2
:108790008797740E1210117F0402112474F01210C6
:1087A0005274CC120FFB8C0C8D0D7444121046E0E9
:1087B000FE7420121046AC82AD837583847582B43A
:1087C0007406120F0E7420121046AC82AD83122B69
:1087D00068E9F50AC3940A400302890075F006E9C6
:1087E000A4F50B7426121046AC82AD837A0E742069
:1087F000250B12934770097432121046E0FF800275
:108800007F00900AEDE06402700474018001E4F5D9
:108810000F780F121269EEFDEFFCA90AAA0CAB0D3E
:10882000122BEC74011210117C147D007900740C71
:10883000121046AA82AB83122A3C740C121046AC6A
:1088400082AD837A107424250B12934770377C1005
:1088500079FF740C1210461290747029741C121057
:1088600046AC82AD837A047425250BF9122DAE74C3
:108870000C121046AC82AD83EFA2E0E433F9AA0CEF
:10888000AB0D12203A851A82851B83AC82AD837AA8
:108890000C7470250A1293477055851A82851B83C4
:1088A000AA82AB83122B98750A00E50A75F003A41F
:1088B000F8A9F0851A82851B83E58228F8E58312E2
:1088C00090B0128EC5EC4D601D88828983A3A3E011
:1088D000F5107511007810121265AA0CAB0D12225A
:1088E000987402121011050AE50AC3940440BBEF04
:1088F000A2E1500C90077FE0F9AA0CAB0D12229E6A
:1089000074046E702A900AEDE0640270229007935E
:10891000E060047A0180027A00900780E0600478C9
:108920000480027800E84AF9AA0CAB0D1220FA790B
:108930000074341210117F0802112474F0121052C6
:10894000EAFEEBFF8C0A8D0B750C0AE9600C1460D3
:108950000914602E14607F0289E1122BAAE9F50C3C
:10896000C3940A507CE50A450B60767510067511B4
:10897000007810121265EEFCEFFD12928B121011AE
:10898000805F750D00751006751100781012126564
:10899000EEFCEFFDE50D75F00EA4F8A9F074A1282A
:1089A000FA740739FB122A367402121011E9601B9F
:1089B000850D0CE50CC3940A5027E50A450B602190
:1089C000AA0AAB0BA90C122BA48016050DE50DC34A
:1089D000940A500D80AF122BB0E9F50CC3940A40F5
:1089E000D9A90C02893674F4121052890A750B1534
:1089F00074FF6A700374FF6B70277E00AC0A7A0202
:108A00007B00EEF9122B86E96003750B000EEEC3B6
:108A1000940A40E8E50A60497ADA7B2B1224BA808E
:108A20004012249C8A0C8B0DAE0CAF0DEE4F602EC5
:108A30007C007D00EE2405FAEF3400FB8E828F83EC
:108A4000128ADD500CAC0A7A027B00122B86750B61
:108A500000E50A600CEEFAEFFB122BDA8003750BCF
:108A600014A90B02879774F2121052ECFEEDFF74FA
:108A70000E121046128EB8750A1574FF6A700374D0
:108A8000FF6B7021750B00AC0CAD0DEEFAEFFBA97E
:108A90000B122B8CE96003750A00050BE50BC394E0
:108AA0000A503580E212249C8A828B83E5824583BA
:108AB00060237C007D00E5822405FAE5833400FB19
:108AC000128ADD5013AC0CAD0DEEFAEFFB122B8CBD
:108AD000750A008003750A14A90A0298B6A3A3A315
:108AE000A3E0F9122B68E9C3940A22C082C08390E4
:108AF0000799EAF0A3EBF090077FE0FC7D007A2570
:108B00007B00121FB090077FE0F9122214D083D0AF
:108B100082020CB074EA12105274EC120FFBEAFEDF
:108B2000EBFFEE240CF516EF3400F517EE240AF5F2
:108B300012EF3400F513EE2405F510EF3400F511B3
:108B4000EE2409F50CEF3400F50DEE2403F50AEFE1
:108B50003400F50B8E828F83A3A3E024FA70030206
:108B60008E8124FD7003028DB0147003028BFF14FC
:108B7000601024FD7003028D81147003028DE502E4
:108B80008E9F128EE4604AE0F5838882128ECB8835
:108B90000E890FE8450F6039851682851783E0F549
:108BA000107810121269EE240BF582EF3400F58371
:108BB000E0F9850C82850D83128EC50A0A0AAB0B7B
:108BC000850E82850F831210507401121011028ECF
:108BD0009F850C82850D8312127C900795120EE9F9
:108BE00012204C7402121011E97003028E9F790159
:108BF000850C82850D831296DB122046028E9F8E95
:108C0000828F83A3858214858315E06003028D5AC9
:108C1000851082851183E0A2E04003028D5A7C0E0C
:108C20007D007900851A82851B83AA82AB83122A74
:108C30003CEE2408F50CEF3400F50D850C82F5832D
:108C4000128EE76019750E06750F00780E12126508
:108C5000850C82850D83E02410FCA3E0801A128E1F
:108C6000A9EA4B7003028E9F750E06750F00780EF1
:108C7000121265EA2405FCEB3400FD740212104662
:108C8000AA82AB8312928F121011851082851183F4
:108C9000E0A2E25004D2F08002C2F0A2F0E433F885
:108CA000740C121046E048F0851282851383128EF0
:108CB000E76015851282851383E02410F8A3E03461
:108CC00000F9888289838003908511780E120ECB7B
:108CD000851282851383128EE7600F8512828513B9
:108CE00083E0F512A3E0F5138006751200751300FA
:108CF000850C82850D83128EE7600B850C82850DB5
:108D000083128EB88006750C00750D00780E121255
:108D1000617812121265780C121265851682851719
:108D20008312127C8E828F83A3128EC0740A12105B
:108D300046AA82AB83122B9E740A121011850A82F6
:108D4000850B83128ECB900829E8F0A3E9F07A0115
:108D50007B0090077FE0F9122A7E128EE4700302F6
:108D60008E9F128ED17003028E9F8514828515838B
:108D7000E0FC79011296D58E828F83121050028EFC
:108D80009F128EE47003028E9FE0F5838882A3A376
:108D9000128ECB890DE8450D7003028E9F8E828F57
:108DA00083A3E0FC79021296D58882850D8380CB5F
:108DB0007C007D00EE2404FAEF3400FB850A8285F6
:108DC0000B83E0F9122B68E9F8C3940A4003028E82
:108DD0009FAC12AD137A0475F006E8A42425F912AD
:108DE0002DA8028E9F900794E0600E900AF0E0F9A3
:108DF000850A82850B83028BF6900AEDE070047978
:108E00000580ED128EA98A0E8B0FA80EA90FE824FB
:108E100004F50EE93400F50F8E828F83A3A3A3A37C
:108E2000A3A3A3E0A2E05036E8496073850E8285D3
:108E30000F83E0FE6028850C82850D83E05410705E
:108E40001D740E121046AC82AD83E82405FAE93495
:108E500000FBEEF9122B68E9700479038092AC10E4
:108E6000AD11850E82850F83E0F91296D5122BE69F
:108E7000128EE4602A128ED160257C007900028D6A
:108E800074122112E97018900828E0640170081229
:108E90002BC2900828E4F07950122DB4122BB6742E
:108EA000141210117F0E021124850A82850B83E0B3
:108EB000FAA3E0FB12249C22E0F50CA3E0F50D22BE
:108EC000A3A3A3A3A3E0FCA3E0FD22E0F8A3E0F9A1
:108ED00022E0F5838882A3A3E0F8A3E0F9E8FEE9A5
:108EE000FFEE4F22900799E0F8A3E0F9E8492274D9
:108EF000F412105274F2120FFBEAFE8C0D75F0069C
:108F0000E9A42420F50A851A82851B83AC82AD83EF
:108F10007A0E129347704A7C0612906C7043740C60
:108F2000121046128ECBE8F50BE50D6005EE420BF4
:108F30008004EEF4520B850B82AA82E86A7001E984
:108F4000601B740C121046EAF0A3E4F0851A8285C7
:108F50001B83AC82AD837A0EA90A122DA8790180F9
:108F600002790002879274F212105274E6120FFB1B
:108F7000890C8A0A8B0BECFEEDFF740C1210461262
:108F8000933A60030290207C0679FF740C1210461D
:108F900012907460030290207470250CF50D851AF0
:108FA00082851B83AC82AD837A0C129347600302E7
:108FB0009065851A82851B83AA82AB83122B98E564
:108FC0000A450B70217C0C790012906E60030290B0
:108FD000657C0C7D007900851A82851B83AA82AB93
:108FE00083122A3C8061851A82851B83AC82AD8303
:108FF000AA0AAB0B122B928A0E8B0FA80EA90FE8B0
:1090000049702CEE4F6019851A82851B83AC82ADA6
:10901000837A007B00122B92EAF8EBF9EA4B70049A
:109020007900804388828983E50AF0A3E50BF0127A
:1090300090ECFAEE6A7001EF602BEEF04F7008884A
:10904000828983E4F0A3F0851A82851B83AA82AB10
:1090500083122B98851A82851B83AC82AD837A0C90
:10906000A90D122DA87901741A0298B379FF851AF7
:1090700082851B83AA82AB83122AA2E92274F7128B
:1090800010527F00EF75F003A4F8A9F0EC28F8ED7A
:109090001290B0E06A7003A3E06B7006E8FAE9FB97
:1090A000800B0FEFC3940440DB7A007B000293E552
:1090B00039F9888289832274F71210527E00EE7586
:1090C000F003A4F8A9F0EA28F8EB1290B0E0F4FC61
:1090D000A3E0F4FD88828983ECF0A3EDF01290EC1C
:1090E000F4F00EEEC3940440D50293E5E82402F5B3
:1090F00082E93400F583E02274EE12105274F41207
:109100000FFBEAFEEBFF8C0C8D0D741E121046E077
:10911000F50EA3E0F50F7420121046E0F50AA3E067
:10912000F50B7422121046E0F512A3E0F513EE4F92
:109130007005790A02921D122BAAE9F510C3940A50
:1091400040237511007C0679FFE51175F00EA4FA35
:10915000ABF0749B2AFA74073BFB12907870030201
:109160009227851110E510C3940A400302921B75E3
:10917000F006E510A4F511EEFCEFFD7A0E74201256
:109180009238E50C450D600BAC0CAD0D7A1B7421CB
:10919000129238E50E450F600BAC0EAD0F7A1B74C2
:1091A00022129238E50A450B600BAC0AAD0B7A101F
:1091B0007423129238E5124513601BAC12AD137A7A
:1091C0001074241292387424121046AC82AD837A43
:1091D0000474251292387C0C7D0079FF1299447A30
:1091E0000C74702510F9122DA8750A0E750B0078F5
:1091F0000A121265EEFCEFFDE51075F00EA4F8A959
:10920000F0749B28FA740739FB12928F1210119098
:109210000827E06003122BF2122BE0A910740C1245
:1092200010117F0A0211240511E511C3940A50039D
:1092300002914575100A80E32511F9122DA82274B8
:10924000F412105274F2120FFBEAFEEBFFE9C39422
:109250000A5004EE4F70047902802D851A82851B16
:109260008312933AF50A701E750C06750D00780C82
:109270001212657402121046AC82AD83EEFAEFFB57
:1092800012928F121011A90A028792AA0AAB0B122E
:109290002A2474022274F4121052EAFEEBFF750ABB
:1092A00000750C06750D00780C121265EEFCEFFDD2
:1092B000E50A75F00EA4F8A9F0749B28FA74073932
:1092C000FB122A367402121011E96004A90A800BFD
:1092D000050AE50AC3940A40C8790A02879774F719
:1092E00012105274F0120FFBEAFEEBFF750A0085B4
:1092F0001A82851B83AC82AD837A1075F006E50A6D
:10930000A42423129347701F7C1012906C7018EEE7
:10931000FCEFFD851A82851B83AA82AB8312201C79
:10932000E97004A90A800B050AE50AC3940A40BF44
:10933000790A74101210110293E5AC82AD837A0E93
:1093400075F006E9A42420F9122DAEE92274F71273
:109350001052750A00E50A75F00EA4F8A9F0749B86
:1093600028FE740739FFEEFCEFFD7A0E75F006E576
:109370000A129344602C7C067D0079FFEEFAEFFB25
:10938000122A3C7C067D0079FFEE2406FAEF3400B9
:10939000FB122A3CEE240CF582EF3400F583E4F056
:1093A000A3F0050AE50AC3940A40AA900827E060E2
:1093B00003122BF2122BE0802C74F71210527E0055
:1093C0007F007C0679FFEF75F00EA4FAABF0749B7A
:1093D0002AFA74073BFB12907870010E0FEFC394CA
:1093E0000A40DFEEF97F0102112474F71210527E59
:1093F00000EEF9122BC80EEEC3940A5003E960F197
:1094000080E374F312105274CB120FFBE9FF75F076
:1094100006A4F50A7420250AFE7427121046AC82B1
:10942000AD837A0EEE12934760030295047C0679B1
:10943000FF742712104612907460030295047C0E8C
:109440007D0079FF7427121046AA82AB83122A3C52
:109450007C1B7D0079FF740C121046AA82AB83122C
:109460002A3C7C0C7D0079FF851A82851B83AA82A9
:10947000AB83122A3C7427121046AC82AD837A0E5D
:10948000EEF9122DA8E9F50B740C121046AC82AD62
:10949000837A1B7421129513FE740C121046AC8251
:1094A000AD837A1B7422129513F50C740C121046BE
:1094B000AC82AD837A107423129513F50D740C12DF
:1094C0001046AC82AD837A107424129513F50E7495
:1094D0000C121046AC82AD837A047425129513F5F4
:1094E0000A851A82851B83AC82AD837A0C74702F37
:1094F000F9122DA8E9F8EE450C450D450E450A4830
:10950000420B8003750B00A90B74351210117F05F7
:10951000021124250AF9122DA8E92274F71210521B
:10952000E990077FF0122BB60293E574F212105205
:1095300074FB120FFB8A0A8B0BEB548070030295AD
:10954000CF90077FE0F9122A668A0C8B0DA80CA930
:109550000DE8FEE9FFE849606CEE2404F8EF340002
:10956000F98E828F83E02450603814600624E16015
:109570004A804B88828983E070448E828F83A3A3C4
:10958000A3A3A3A3A312127C8E828F83128EC08EFC
:10959000828F83A3A31296DB122B74740212101114
:1095A000801C88828983E0641E701379008E828F0C
:1095B00083A3A31296DB122B6E8003122B80EEFA8C
:1095C000EFFB122A54AA0AE50B6480FB0296D0EA4C
:1095D000A2E040030296CC900829128EB8740312C0
:1095E000104685820E85830F780E121265750E0265
:1095F000750F00780E121265750E88750F85780E3E
:109600001212657CFF7DFF7A017B0012216C7406CB
:109610001210110296B4E4F50EF50F780E121265D1
:10962000740412104685820E85830F780E1212651F
:10963000740412104685820E85830F780E1212650F
:10964000740912104612127C7902EEFCEFFDAA0C8E
:10965000AB0D12228C7408121011E97035851A8234
:10966000851B83E0FA7401121046E0F9EA2400F544
:109670000EE439F50FEA450F6018780E1212658E68
:10968000828F83128EC1AA0CAB0D122B747402123E
:109690001011E4F50EF50F780E1212657405121014
:1096A0004612127C7CFF7DFFEEFAEFFB12217874EC
:1096B000041210118A0E8B0FAE0EAF0FEE4F600327
:1096C000029616E50A6401FAAB0B80047A007B006F
:1096D00074050298B3850A82850B83E0FAA3E0FB48
:1096E00022C082C08390077FE0F98A828B83A31215
:1096F00096DB12229E028B0DC082C08374FF120F74
:10970000FB122BBCE9C39402851A82851B8340049B
:1097100074028002740AF0AC82AD837A017905127A
:10972000212A7401121011028B0D74F2121052745E
:10973000E8120FFBEAFEEBFF890C8C0A8D0B7C18FC
:109740007D00790012994CEEF0A3EFF0900781E0D4
:10975000C0E07402121046D0E0F0900782E0C0E052
:109760007403121046D0E0F0900AF2E0C0E07417E3
:10977000121046D0E0F07415121046E054FEF8A323
:10978000E0F9900AF1E0A2E0E433FAE84AF874154F
:109790001210461298C2A2E15004D2F08002C2F028
:1097A000E854FDFAA2F0E43333F8EA48F8741512ED
:1097B00010461298C2A2E35004D2F08002C2F0E830
:1097C00054F7FAA2F0E433F50E750F007403780E27
:1097D000120FE81298BB1210461298C2A2E450046D
:1097E000D2F08002C2F0E854EFFAA2F0E433F50EB2
:1097F0007404780E120FE81298BB1210461298C229
:10980000A2E55004D2F08002C2F0E854DFFAA2F0E0
:10981000E433F50E7405780E120FE81298BB12109F
:10982000461298C2A2E25004D2F08002C2F0E8547C
:10983000FBFAA2F0E433F50E7402780E120FE81270
:1098400098BB121046E8F0A3E9F0900782E0601B95
:10985000750E10780E1212657C837D077406121047
:1098600046AA82AB8312928F121011900793E06088
:1098700011E50C60097415121046E04402F07801FD
:10988000800278007414121046E048F0900780E0DF
:1098900060047804800278007414121046E048F0E6
:1098A000AC0AAD0B851A82851B83AA82AB8312207A
:1098B0004074181210117F06021124EA450EF87444
:1098C0001522E8F0A3E9F0900AF1E02274F31210F7
:1098D0005274E5120FFBEAFEEBFF8C0B8D0C742823
:1098E000121046E0F50E75F006E9A4F87408650C50
:1098F000700474228002742128F50D7C1B7D007990
:10990000001299447A1BA90D1293487032741A12EE
:109910001046E024F9C3940A5025E50EF50D780DA4
:109920001212697401121046AC82AD83E50BA2E0FD
:10993000E433F9EEFAEFFB122052740112101174A5
:109940001B02950B12994CAC82AD8322851A82853D
:109950001B83AA82AB83122A3C851A82851B832231
:1099600074F7121052122310750A00E50A75F00EF2
:10997000A4F8A9F0749B28FE740739FF7C0679FFD0
:10998000EEFAEFFB1290787009EEFAEFFB79001215
:109990002316050AE50AC3940A40D00293E5C08263
:1099A000C083788B790588828983A3A3A3A3A3A30B
:1099B000E4F088828983A3A3A3A3A374FFF0E8241F
:1099C00018F8E93400F9E864BB7003E9640570D65F
:1099D00090058D74FFF090058CE4F090058BF0906D
:1099E000058EF0A3F002A8FB74E812105290058EC9
:1099F000E0F50AA3E0F50BE50A450B700612258693
:109A0000029FC2850A82850B83E0146018146015DA
:109A100024FE601124C47003029C5524C07003020C
:109A20009C55029FC2E0F91226D08A0C8B0DAE0C19
:109A3000AF0D9003EEE07003029B9D122628E9F81B
:109A400075F004A4C8AAF02AF974F128F516740375
:109A500039F517851682F583E0F50CA3E0F50DEED8
:109A60004F7003029B7A1227668A0E8B0F8C108D23
:109A7000119084E1780E120E579084F5780E120E34
:109A8000A5780E121261850C82850D83A3A3120E98
:109A9000E9121C5774041210118A128B138C148D46
:109AA0001590853D7812120CFD4003029B7A850CBF
:109AB00082850D83A3A37812120ECB908555781260
:109AC000120E5778121212618E828F83A3A3120E88
:109AD000E9121BFA7404121011E96003029B7A90D8
:109AE0008539780E120E57780E1212618E828F838E
:109AF000A3A3120EE9121BFA7404121011E9707577
:109B0000750E008E828F83E064016003029FC2EEB7
:109B1000650A7003EF650B60031225A4E50E70263D
:109B20001227668A0E8B0F8C108D119084F1780E9F
:109B3000120E579084F5780E120EA58E828F83A395
:109B4000A3780E120EDA850C82850D83A3A3780A02
:109B5000120ECB90852D780A120E579084F5780A54
:109B6000120EA5EE240EF582EF3400F583780A126A
:109B70000EDA029FB5750E018089E5162404FEE514
:109B8000173400FF8E828F83E0F91227068E828FB2
:109B900083E09003EFF0AA0CAB0D029FBFEE650AC5
:109BA0007003EF650B7003029FBF8E828F83E064AA
:109BB000016003029FC21225A41227668A0A8B0B3A
:109BC0008C0C8D0D9084E5780A120E57780A1212CB
:109BD000618E828F83A3A3120EE9121BFA74041202
:109BE0001011E9706D1227668A0A8B0B8C0C8D0D93
:109BF0009084F1780A120E579084F5780A120EA517
:109C00008E828F83A3A3780A120EDA9003C1E064D8
:109C100002702C8E828F83A3A3780A120ECB9085BC
:109C200005780A120E579084F5780A120EA5EE24D4
:109C30000EF582EF3400F583780A120EDA80139065
:109C40008511120EE9EE240EF582EF3400F5831231
:109C50000EF5029FB59003EEE07003029F0F1226EF
:109C600028E9F875F004A4C8AAF02AF974F128F5D7
:109C700018740339F519851882F583E0F516A3E009
:109C8000F5179003EFE0F875F004A4C8AAF02AF9DC
:109C900074F128F50A740339F50B90058CE054072C
:109CA0007003029E38A3E0F91226D08A0C8B0DAE09
:109CB0000CAF0DEE4F7003029E381227668A0E8B92
:109CC0000F8C108D119084E1780E120E579084F550
:109CD000780E120EA5780E121261851682851783F2
:109CE000A3A3120EE9121C5774041210118A128BCE
:109CF000138C148D1590853D7812120CFD400302D3
:109D00009E38851682851783A3A37812120ECB90F6
:109D100085557812120E5778121212618E828F8337
:109D2000A3A3120EE9121BFA7404121011E96003C6
:109D3000029E38908539780E120E57780E121261F5
:109D40008E828F83A3A3120EE9121BFA74041210E1
:109D500011E97005750E008003750E01850A828574
:109D60000B83A3A3A3A3E0F875F08AA4C8AAF02AE2
:109D7000F974C028F50C740539F50DAA0CFB1227EF
:109D800000AA0CAB0D1226FA751080751100781020
:109D90001212657C007D60E50C2406FAE50D3401A5
:109DA000FB12268E7402121011A80CA90D90619559
:109DB000E0C0E0E82486F582E93401F583D0E0F0E4
:109DC000906196E0C0E0E82487F582E93401F583EC
:109DD000D0E0F0906197E0C0E0E82488F582E934B3
:109DE00001F583D0E0F0906198E0C0E0E82489F5C7
:109DF00082E93401F583D0E0F08E828F83E0640144
:109E000070361225A4E50E70261227668A0A8B0B7F
:109E10008C0C8D0D9084F1780A120E579084F57891
:109E20000A120EA58E828F83A3A3780A120EDA85FA
:109E30001682851783029B4CE518650A7004E519A4
:109E4000650B7003029F08850A82850B83A3A3A379
:109E5000E07003029EEC850A82850B83A3A3A3A373
:109E6000E0F875F08AA4C8AAF02AF974C028FE7434
:109E70000539FFEEFAEFFB122700EEFAEFFB122690
:109E8000FA750A80750B00780A1212657C007D60F5
:109E9000EE2406FAEF3401FB12268E740212101122
:109EA000906195E0C0E0EE2486F582EF3401F58301
:109EB000D0E0F0906196E0C0E0EE2487F582EF34C8
:109EC00001F583D0E0F0906197E0C0E0EE2488F5E2
:109ED00082EF3401F583D0E0F0906198E0C0E0EECD
:109EE0002489F582EF3401F583D0E0F0E5182404ED
:109EF000FEE5193400FF8E828F83E0F91227068E6B
:109F0000828F83E09003EFF0AA16AB17029FBF90F9
:109F1000058CE054077003029FC2A3E0F91226D01B
:109F20008A0A8B0BAE0AAF0B8E828F83E0640160CE
:109F300003029FC21225A41227668A0A8B0B8C0C7F
:109F40008D0D9084E5780A120E57780A1212618EF0
:109F5000828F83A3A3120EE9121BFA74041210114C
:109F6000E970521227668A0A8B0B8C0C8D0D908437
:109F7000F1780A120E579084F5780A120EA58E8297
:109F80008F83A3A3780A120EDA9003C1E0640270F3
:109F9000118E828F83A3A3780A120ECB90850502BF
:109FA0009B56908511120EE9EE240EF582EF3400D7
:109FB000F583120EF590058D7401F0EEFAEFFB12A9
:109FC00026CA7F1002112474F0121052EAFEEBFF31
:109FD000EE2402F8EF3400F9880A890BEE2406F823
:109FE000EF3400F9880C890D8882F58312127C8584
:109FF0000A82850B83120EE9122742740212101195
:10A00000850C82850D8312127C850A82850B831252
:10A010000EE91227367402121011EE240EF582EFAB
:10A020003400F583120EE91227488E828F83E06494
:10A0300040701CEE2412F8EF3400F988828983E026
:10A04000906064F088828983A3E0906065800690C8
:10A050006064E4F0A3F090058EEEF0A3EFF0EE2440
:10A0600016F582EF3400F583E0F8A3E0F5838882EB
:10A07000121050906054E4F0A3F0A3F0A3F0A3F00A
:10A08000A3F0A3F0A3F0A3F0A3F0A3F0A3F09061DA
:10A0900082E0C2E6F07591BFEE2415F582EF340040
:10A0A000F583E06401700312277EE5E170FCEE2485
:10A0B00014F582EF3400F583E0F46003E0F5E1EE9F
:10A0C0002415F582EF3400F5837401F09003C7E0A6
:10A0D0006401706F1227668A0A8B0B8C0C8D0D78C9
:10A0E0000A1212618E828F83A3A3120EE9121C57EB
:10A0F00074041210118A0A8B0B8C0C8D0D9085251F
:10A10000780E120ECB780A790E120D1C7403780AA1
:10A11000120E0CE50A24F4F50AE50B3401F50B9058
:10A12000055DE06003122AA8E4F50CF50D780A122B
:10A1300012617A207B009003C0E0F9122AFC7404BB
:10A140001210117F0802112474F0121052890A743F
:10A15000FF650A600302A2D490058CE054077003E7
:10A1600002A7A07A00788B790588828983A3A3A3AC
:10A17000A3A3E064047050EA75F018A4F8A9F07481
:10A180009128F582740539F583E0640170487A00FE
:10A19000788B790588828983A3A3A3A3A3E06404B1
:10A1A000600302A22C88828983A3A3A3A3A3A3E0B4
:10A1B00064017078EA75F018A4F8A9F0749028FA90
:10A1C000740539FB02A7A40AE82418F8E93400F959
:10A1D000EAC3940240937A00788B79058882898358
:10A1E000A3A3A3A3A3E064017057EA75F018A4F831
:10A1F000A9F0749128F582740539F583E064017043
:10A200004F7A00788B790588828983A3A3A3A3A3BF
:10A21000E06401600302A2B088828983A3A3A3A3A0
:10A22000A3A3E06401600302A2B080880AE82418B6
:10A23000F8E93400F9EAC39402500302A19402A79A
:10A24000A00AE82418F8E93400F9EAC39402408C23
:10A250007A00788B790588828983A3A3A3A3A3E0DE
:10A2600064027061EA75F018A4F8A9F0749128F5F9
:10A2700082740539F583E0640170597A00788B792E
:10A280000588828983A3A3A3A3A3E06402707A88CC
:10A29000828983A3A3A3A3A3A3E06401706BEA75DF
:10A2A000F018A4F8A9F0749028FA740539FB806FAF
:10A2B0000AE82418F8E93400F9EAC39402500302CA
:10A2C000A20702A7A00AE82418F8E93400F9EAC3B3
:10A2D000940240827A00788B790588828983A3A3CF
:10A2E000A3A3A3E0650A703D88828983A3A3A3A3E7
:10A2F000A3A3E06401702EEA75F018A4F8A9F07425
:10A300009028FE740539FF802F0AE82418F8E934F4
:10A3100000F9EAC39402500302A2817A007B000292
:10A32000A7A402A7A00AE82418F8E93400F9EAC3B0
:10A33000940240A67E007F007A00788B790588829F
:10A340008983A3A3A3A3A3E0650A701BEA75F01891
:10A35000A4F8A9F0749128F582740539F583E064B6
:10A360000170137A0180110AE82418F8E93400F921
:10A37000EAC3940240C87A00E50A14600F1470031F
:10A3800002A53D24FE700302A69780967B00788B81
:10A39000790588828983A3A3A3A3A3E064027055EF
:10A3A000EB75F018A4F8A9F0749128F582740539BA
:10A3B000F583E06401704D7B00788B790588828994
:10A3C00083A3A3A3A3A3E06402600302A47388820F
:10A3D0008983A3A3A3A3A3A3E06401600302A473DE
:10A3E000EB75F018A4F8A9F0749028F50C740539F1
:10A3F000F50D02A48B0BE82418F8E93400F9EBC33F
:10A400009402408E7B00788B790588828983A3A390
:10A41000A3A3A3E06404600302A4C7EB75F018A42F
:10A42000F8A9F0749128F582740539F583E0640188
:10A43000600302A4D97B00788B790588828983A385
:10A44000A3A3A3A3E06404600302A4E48882898335
:10A45000A3A3A3A3A3A3E06401600302A4E4EB7598
:10A46000F018A4F8A9F0749028F50C740539F50DCE
:10A4700002A4FC0BE82418F8E93400F9EBC39402B9
:10A48000500302A3BD750C00750D00EAA2E0400365
:10A4900002A52F850C82850D83A3A3780E120ECB07
:10A4A000908521780E120E57780E1212618E828FCF
:10A4B00083A3A3120EE9121BFA7404121011E9709F
:10A4C0006EEEFAEF02A1C30BE82418F8E93400F9A4
:10A4D000EBC39402500302A40AEAA2E05058EEFA39
:10A4E000EFFB80560BE82418F8E93400F9EBC3942D
:10A4F00002500302A43B750C00750D00EAA2E05067
:10A500002E850C82850D83A3A3780E120ECB908529
:10A5100021780E120E57780E1212618E828F83A34D
:10A52000A3120EE9121BFA7404121011E96092AA28
:10A530000CAB0D02A7A47A007B0002A7A47B0078D5
:10A540008B790588828983A3A3A3A3A3E064047005
:10A5500052EB75F018A4F8A9F0749128F5827405EF
:10A5600039F583E06401704A7B00788B7905888235
:10A570008983A3A3A3A3A3E06404600302A60B88BA
:10A58000828983A3A3A3A3A3A3E06401707DEB75D9
:10A59000F018A4F8A9F0749028F50C740539F50D9D
:10A5A00002A6230BE82418F8E93400F9EBC394025F
:10A5B00040917B00788B790588828983A3A3A3A32C
:10A5C000A3E06401600302A65FEB75F018A4F8A98C
:10A5D000F0749128F582740539F583E06401600315
:10A5E00002A6717B00788B790588828983A3A3A357
:10A5F000A3A3E06401600302A67C88828983A3A3ED
:10A60000A3A3A3A3E06401707380830BE82418F86C
:10A61000E93400F9EBC39402500302A56E750C00F7
:10A62000750D00EAA2E0400302A52F850C82850D7E
:10A6300083A3A3780E120ECB908521780E120E57AD
:10A64000780E1212618E828F83A3A3120EE9121B61
:10A65000FA7404121011E9600302A52F02A4C10BC1
:10A66000E82418F8E93400F9EBC39402500302A57A
:10A67000B8EAA2E0501AEEFAEFFB80180BE82418B3
:10A68000F8E93400F9EBC39402500302A5E9808D88
:10A690007A007B0002A7A47B00788B7905888289E9
:10A6A00083A3A3A3A3A3E064017040EB75F018A4F7
:10A6B000F8A9F0749128F582740539F583E06401F6
:10A6C00070387B00788B790588828983A3A3A3A344
:10A6D000A3E06401600302A75C88828983A3A3A32B
:10A6E000A3A3A3E06401707402A58E0BE82418F8FC
:10A6F000E93400F9EBC3940240A37B00788B790521
:10A7000088828983A3A3A3A3A3E064027063EB758B
:10A71000F018A4F8A9F0749128F582740539F5832E
:10A72000E06401705B7B00788B790588828983A364
:10A73000A3A3A3A3E06402704F88828983A3A3A389
:10A74000A3A3A3E064017040EB75F018A4F8A9F08E
:10A75000749028F50C740539F50D80410BE8241828
:10A76000F8E93400F9EBC39402500302A6C802A62C
:10A770001D0BE82418F8E93400F9EBC3940240807B
:10A78000EAA2E0501B02A4C10BE82418F8E9340047
:10A79000F9EBC394024094750C00750D0002A623DA
:10A7A0007A007B0002A14374F6121052890B750ADD
:10A7B00000788B790588828983A3A3A3A3A3A3E050
:10A7C000600302A883E50A75F018A4F8A9F0749054
:10A7D00028FE740539FF8E828F83A37401F08E8268
:10A7E0008F83E50BF01227668E828F83A3A3120E50
:10A7F000F58E828F83A3A3A3A3A3A3E4F0A3F09079
:10A800008511120EE9EE240EF582EF3400F5831265
:10A810000EF5EE2414F582EF3400F5837401F0EEAA
:10A820002415F582EF3400F5837401F0EE2416F55B
:10A8300082EF3400F583E4F0A3F090058CE0450B43
:10A84000F090058BE004F06401600C7480650B608F
:10A85000067440650B7019E50A75F018A4F8A9F0A4
:10A86000749028F8740539F990058EE8F0A3E9F0A2
:10A87000E50A75F018A4F8A9F0749028FA7405395F
:10A88000FB8018050AE82418F8E93400F9E50AC342
:10A890009402500302A7B57A007B0080007F020279
:10A8A0001124C082C0838A828B83E0F8A3E0F98AF6
:10A8B000828B83E4F0A3F088828983A3F088828965
:10A8C00083E0F4F890058CE058F090058BE014F0EC
:10A8D000700B90058EE4F0A3F09003C1F0801CC0D3
:10A8E00082C08390058BE0600A90058EE0FAA3E0B9
:10A8F000FB80047A007B008002E0F9D083D08202E2
:10A900000CB0C082C083E9FB7A00788B790588821D
:10A910008983A3A3A3A3A3E06B7016EA75F018A420
:10A92000F8A9F0749128F582740539F583E0F9806F
:10A93000110AE82418F8E93400F9EAC3940240CE79
:10A94000790080B7C082C08390058C80ACC082C083
:10A950008390058B02A8F974F6121052EAFEEBFF01
:10A960009061D0E0C0E0EE2400F582EF3401F58381
:10A97000D0E0F09061D7E0FA9061D5E0C39A547FBF
:10A98000C0E0EE2401F582EF3401F583D0E0F0EE73
:10A990002402F8EF3401F99061D6E0C39A547F881D
:10A9A000828983F0701A9061C5E0A2E45012E0A29F
:10A9B000E7500DEE2402F582EF3401F5837480F048
:10A9C00012280EEE2401F582EF3401F583E0703495
:10A9D000EE2402F582EF3401F583E070279061C523
:10A9E000E0A2E4501FE0A2E7501AEE2402F582EF45
:10A9F0003401F5837480F0EE2401F582EF3401F523
:10AA0000837480F075E1957800EE2400F582EF34D0
:10AA100001F583E060279061D3E0C0E0880AEE256D
:10AA20000AF582EF3400F583D0E0F008EE2400F55B
:10AA300082EF3401F583E0F9E8C39940D975E191DB
:10AA400002A89D74F6121052EAFEEBFF9061C8E076
:10AA5000C0E0EE2403F582EF3401F583D0E0F090FE
:10AA600061CFE0FA9061CDE0C39A547FC0E0EE245C
:10AA700004F582EF3401F583D0E0F0EE2405F8EF21
:10AA80003401F99061CEE0C39A547F88828983F0C3
:10AA9000701A9061C5E0A2E05012E0A2E3500DEE02
:10AAA0002405F582EF3401F5837480F0122814EE4A
:10AAB0002404F582EF3401F583E07034EE2405F5CB
:10AAC00082EF3401F583E070279061C5E0A2E05089
:10AAD0001FE0A2E3501AEE2405F582EF3401F5835E
:10AAE0007480F0EE2404F582EF3401F5837480F075
:10AAF00012281A7A00EE2403F582EF3401F583E080
:10AB0000602F9061CBE0C0E08A0AEE250AF8EF34AE
:10AB100000F9E82480F582E93400F583D0E0F00AFA
:10AB2000EE2403F582EF3401F583E0F8EAC39840A0
:10AB3000D175E18102A89D74F2121052890AA80A07
:10AB4000E875F08AA4C8AAF02AF974C028F8740538
:10AB500039F99061C6E0FDE054F0F075E1817C00C8
:10AB6000E82403F582E93401F583E0602B8C0CE8DE
:10AB7000250CFAE93400FBEA2480F582EB3400F579
:10AB800083E09061CAF00CE82403F582E93401F512
:10AB900083E0FAECC39A40D5E82405F582E9340154
:10ABA000F583E060049061CEF0E82404F582E93496
:10ABB00001F583E060049061CDF0ED9061C6F0A8EE
:10ABC0000AE875F08AA4C8AAF02AF974C028F874B3
:10ABD0000539F9E0FCE0540FF075E1917A00E824C2
:10ABE00000F582E93401F583E060238A0CE8250C46
:10ABF000F582E93400F583E09061D2F00AE82400A0
:10AC0000F582E93401F583E0FBEAC39B40DDE824EB
:10AC100002F582E93401F583E060049061D6F0E842
:10AC20002401F582E93401F583E060049061D5F0F8
:10AC3000EC9061C6F0850A82AE82EEF875F08AA4C7
:10AC4000C8AAF02AF974C028F50C740539F50D75F9
:10AC50000E80750F00780E121265E50C2406FCE5D7
:10AC60000D3401FD7A007B6012268E7402121011E1
:10AC7000A80CA90DE82486F582E93401F583E0905B
:10AC80006195F0E82487F582E93401F583E090616D
:10AC900096F0E82488F582E93401F583E090619725
:10ACA000F0E82489F582E93401F583E0906198F0B9
:10ACB000EE75F004A4CEA8F028FF74F12EF582748E
:10ACC000033FF583E0F8A3E0F5838882E0648070B9
:10ACD000079003C17408803F900A23740CF0A3749A
:10ACE00027F0A3740CF0A37427F0A3740CF0A374E2
:10ACF00027F0A3740CF0A37427F0A374B8F0A37426
:10AD000026F0A3740CF0A37427F0A37412F0A374BC
:10AD100027F09003C17407F0900A3174B8F0A3745F
:10AD200026F0A374B8F0A37426F0A374B8F0A3744B
:10AD300026F0A374B8F0A37426F0A374B8F0A3743B
:10AD400026F0A374B8F0A37426F07F0602112474D1
:10AD5000F4121052E99003C0F0122778907800E0C6
:10AD6000C4540F540764037004793F8002797F75DF
:10AD70000A06750B00780A1212657CAE7D037AEA2A
:10AD80007B07122C4074021210119003AEE0F47095
:10AD900049A3E0F47044A3E0F4703FA3E0F4703AF8
:10ADA000A3E0F47035A3E0F4703090780EE09003E7
:10ADB000AEF090780FE09003AFF0907810E0900341
:10ADC000B0F0907811E09003B1F0907812E0900329
:10ADD000B2F0907813E09003B3F09003B474FFF0F6
:10ADE000A3F0A3F0A3F0A3F0A3F09003AEE09003D0
:10ADF000BAF09003AFE09003BBF09003B0E0900393
:10AE0000BCF09003B1E09003BDF09003B2E090037A
:10AE1000BEF09003B3E09003BFF09003DE7406F041
:10AE2000A3740DF0A3E4F0A37432F0A37401F090C6
:10AE3000050774FFF0A3F0A3F0A3F0A3F0A3F09034
:10AE40000506E4F090050DF0A374A0F0A3E4F0A3D0
:10AE50007403F0A37407F0A3E4F0A37428F0A3E450
:10AE6000F0A304F0A3E4F0900536F090055974FFC8
:10AE7000F0A3E4F090055BF090055D04F0122592DC
:10AE80001224D212272479017A5E7B051226709053
:10AE9000055EE075F01484E5F004F0790C7A7F7BB0
:10AEA000051226701226887A009003C0E0F9122A53
:10AEB000D2907803E06442705E90055EE014F0701A
:10AEC00056C2AF12AEC600782AD0E0F618D0E0F62F
:10AED000E59F5407F970059085458003908541787A
:10AEE0000A120ECBE9C4C0E07829E6550AF50A0833
:10AEF000E6550BF50B740B780A120FD9D0E0250A32
:10AF0000F8906270E0A2E740F8E8C333906272F014
:10AF1000906270E0D2E0F09003EBE4F0A3F07A806E
:10AF2000FB9003C0E0F9122A7E02BA2674F61210D2
:10AF300052EAFEEBFFEEA2E050489003C2E0C39459
:10AF400080E0500FC333F8E433F9742328F582749A
:10AF50000A800EF4C333F8E433F9743128F58274AF
:10AF60000A39F583E0F8A3E0F58388821210507A5D
:10AF7000009003C0E0F9122AD2EE6401FAEFFB025E
:10AF8000B1245402603F750A00780A121269E4F590
:10AF90000B780A121265780A121265780A12126585
:10AFA000750AF6750B04780A1212659004F5E0FD37
:10AFB0007C017A007B00793C1223AC7409121011D9
:10AFC000EE640280B7EE5404700302B06A9003EF9F
:10AFD000E0F875F004A4C8AAF02AF974F128FA740C
:10AFE0000339FBEA242AF582EB3400F583E0F50A05
:10AFF000780A121269EA2432F582EB3400F583E014
:10B00000F50AA3E0F50B7404780A120FD9780A1236
:10B010001265EA2420F582EB3400F58312127CEAF3
:10B02000242EF582EB3400F583E0F50AA3E0C31388
:10B03000F50BE50A13F50A780A121265750AF6751A
:10B040000B04780A1212659004F5E0FD7C018A82F7
:10B050008B83A3A3A3A3E0FA7B0079001223AC7433
:10B0600009121011EE640402AF7CEE54406040758A
:10B070000A00780A121269E4F50B780A1212657850
:10B080000A121265780A121265750AF6750B0478B1
:10B090000A1212659004F5E0FD7C017A007B0079CC
:10B0A0003B1223AC7409121011EE644002AF7CEE27
:10B0B000548060217900122ACC9085011212787A8E
:10B0C000007B019003C0E0F9122AFC7404121011F5
:10B0D000EE64808092EF5401600D7901122ACCEE6B
:10B0E000FAEF640102AF7E9003C7E064017031EEB5
:10B0F0005420602C9003C1E024F9600314701B7984
:10B100003F9003EFE0FA75F004A4CAA8F028FB749E
:10B11000F12AFA74033BFB122634EE642002AF7C62
:10B120007A007B0002B8C1C082C083C2AF1227542C
:10B13000E5E170FC75E10112258012257475E1F1DD
:10B1400012278479071227F679011227FC79021257
:10B1500027AE1227CC1227EA79001227F0790112C4
:10B1600027F09084FD120EE91227969004F5E4F082
:10B17000A3F0A3F0A3F0A3F0A3F0A3F090050DF0CB
:10B18000A3F0A3F09005117407F09005107403F07C
:10B19000900516E4F0900515F0900536F012262281
:10B1A0001226BE12263A79001228029004FC74FF7F
:10B1B000F0A3F0A3F0A3F0A3741FF0906012E4F0EA
:10B1C000A3F0906063F07521009003C1F09003C379
:10B1D000F0A3F0900501F090050204F0900503E45F
:10B1E000F09003C6F09003C704F09003DD04F090E4
:10B1F000055CE4F0D2AFF902BC15C082C0839003B5
:10B20000AEE08A828B83F09003AFE08A828B83A3C7
:10B21000F09003B0E08A828B83A3A3F09003B1E0A7
:10B220008A828B83A3A3A3F09003B2E08A828B83EC
:10B23000A3A3A3A3F09003B3E08A828B83A3A3A369
:10B24000A3A302BC12C082C0838A828B83E09003D6
:10B25000B4F08A828B83A3E09003B5F08A828B835B
:10B26000A3A3E09003B6F08A828B83A3A3A3E0900C
:10B2700003B7F08A828B83A3A3A3A3E09003B8F063
:10B280008A828B83A3A3A3A3A3E09003B902BC1279
:10B29000C082C08312259EE970051227CC79000276
:10B2A000BC1574F7121052EAFEEBFF890A12259EB4
:10B2B000E9702CE50A600A7401650A600A79128057
:10B2C0001E7C00790080047C007901EEFAEFFB120D
:10B2D00027D2E9F8740368700479078002790002C4
:10B2E000B48674F6121052740A121046E0F50AA3DE
:10B2F000E0F50BEA4B600AEC4D6006E50A450B7081
:10B30000047912800F780A121265122682740212D2
:10B310001011790002B8C174F4121052EAFEEBFF6A
:10B32000890A9003C1E064096014E0640A600FE0D8
:10B33000640B600AE0640C6005E0640D7004790C35
:10B34000801E1226E28B0DEA450D700BA90AEEFA5B
:10B35000EFFB12267080099003C3E04440F0790DA2
:10B3600002BA2674F6121052EA4B6003E9700479AF
:10B3700012801CEAFEEBFF890A12266AE98E828F90
:10B3800083F0A3AE82AF83150AE50A70EC79000260
:10B39000B8C1C082C083E9F8740168700B90055C85
:10B3A0007401F0790002BC15E8700690055CE48039
:10B3B000F1791280F0C082C0839003C1E0640C7008
:10B3C0001290618EE0F974806970258C828D83748F
:10B3D0007F8029C3EB940F5013EA4B700F9003F456
:10B3E000E070047902801890045A80D87912800F96
:10B3F0009003C5E0F8E9C3988C828D83F079000250
:10B40000BC1574F7121052E9FE74056E60227413B5
:10B410006E601D74146E601874156E6013741A6E6D
:10B42000600E74296E6009743B6E6004791280545A
:10B43000C3EB940F50F6EA4B70F29003F4E0700403
:10B440007902804090045BE064017021A3E0640213
:10B450007004793A802EEE9004E6F090040EE4F049
:10B46000A3F079027AF17B031226108015EE900486
:10B47000E6F090040EE4F0A3F079027AF17B031277
:10B480002604790080007F0102112474EE1210520C
:10B490008C0C8D0D89127412121046E0F50AEC45E1
:10B4A0000D6010E9C3941C500AE50A600B74016535
:10B4B0000A6005791202B693C3EB940F50F5EA4B7C
:10B4C00070F19003F4E07005790202B6939004568F
:10B4D000E0F8A3E0F9E84970DAA2AFE433F513C26B
:10B4E000AF1226E28A0E8B0FAE0EAF0F8E828F83C5
:10B4F000E064406011E06480600302B6779003EF7F
:10B50000E0600302B6771227668A0E8B0F8C108DCF
:10B51000119084E1780E120E57780E1212618E820D
:10B520008F83A3A3120EE9121BFA7404121011E9FF
:10B530006401600302B677E50AF50B780B12126915
:10B54000A912AC0CAD0D7AF17B03122658740112CE
:10B550001011E9600302B677900502E06401600310
:10B5600002B66D90040EE0F8A3E0F9E8497003021A
:10B57000B66D1227668A0A8B0B8C0C8D0D90041FFA
:10B58000E0F50EA3E0F50FE4F510F511780A790E59
:10B59000120E44908531780A120E57780A12126101
:10B5A0008E828F83A3A3120EE9121BFA7404121069
:10B5B00011E96401600302B66DEE2408F50EEF3464
:10B5C00000F50F850E82F583121278AA0AAB0BAC38
:10B5D0000CAD0D121C57740412101190041F12129E
:10B5E0007C1218C474021210118A0A8B0B8C0C8DF9
:10B5F0000D7410780A120E0C9003FAE0F8A3E0F92B
:10B600009003F6E8F0A3E9F0E8250AF8E9350BF92C
:10B61000A3E8F0A3E9F0850E82850F83C082C08382
:10B6200090041FE0F50EA3E0F50F780A790E120DD5
:10B630001CD083D082780A120E579084F5780A12B3
:10B640000EA58E828F83A3A3E50AF0A3E50BF0A3DA
:10B65000E50CF0A3E50DF0900426E0900425F07AC7
:10B66000F17B0312145AEEFAEFFB1226CAE513A27D
:10B67000E092AF7900801C900456E50CF0A3E50D34
:10B68000F0E512900454F0E50AA3F0E513A2E0926D
:10B69000AF79077F0A02112474F3121052EAFEEB0D
:10B6A000FF890A740D121046E0F50B740E12104655
:10B6B000E0F50C740F121046E0F8A3E0F9741112D3
:10B6C0001046E0F50D7412121046E0F50EE50A6022
:10B6D000497401650A60337403650A600974026580
:10B6E0000A600302B769EE2460FAEF34FFFBC3EA95
:10B6F0009461EB943F5072EC2460FAED34FFFBC38D
:10B70000EA9461EB943F4034805FE849605BE50C6C
:10B71000602A7401650C70518022EE24E0FAEF3447
:10B72000FFFBC3EA94E1EB943F503EEC24E0FAEDDA
:10B7300034FFFBC3EA94E1EB943F502DC3EC9EED44
:10B740009F4026E50B60067401650B701CE50E60DA
:10B75000127401650E600C7402650E600674036558
:10B760000E70067407550D7005791202B87E9005AB
:10B770000DE064017005790C02B87EE50A900510B1
:10B78000F07407550DA3F0E50EA3F0E50B90050648
:10B79000702FE4F09003AEE0900507F09003AFE067
:10B7A000900508F09003B0E0900509F09003B1E037
:10B7B00090050AF09003B2E090050BF09003B3807F
:10B7C0002E7401F09003B4E0900507F09003B5E00B
:10B7D000900508F09003B6E0900509F09003B7E0FB
:10B7E00090050AF09003B8E090050BF09003B9E0E3
:10B7F00090050CF07401650A7053E50C9004F5F0A7
:10B8000088828983E09004F6F088828983A3E0909F
:10B8100004F7F088828983A3A3E09004F8F088827B
:10B820008983A3A3A3E09004F9F088828983A3A36A
:10B83000A3A3E09004FAF088828983A3A3A3A3A31F
:10B84000E09004FBF090050EE4F0A3802EE50E706E
:10B85000047900801C7401650E70047901801274F3
:10B8600002650E7004790280087403650E70057914
:10B87000031227D890050EEEF0A3EFF079007F05B4
:10B8800002112474F6121052E9FEC3942040047988
:10B8900012802EEE900516F0601FEA4B60F1E0F585
:10B8A0000A750B00780A121265EAFCEBFD7A177B29
:10B8B00005122A2474021210119005157401F079F2
:10B8C000007F0202112474F4121052E9FE9003C1A9
:10B8D000E064096014E0640A600FE0640B600AE051
:10B8E000640C6005E0640D7005792102BA269005AC
:10B8F00010E0600E6401600AE064036005E0640229
:10B900007024900506E060046401701A900510E050
:10B9100064036005E06402701290050EC3E094A019
:10B92000A3E094005005791202BA26EE700302B922
:10B93000C61470F290050DE0640160AD900510E052
:10B940006004640170081226EEE954FD709B7901D1
:10B950001226D6900504EAF0A3EBF090050D7401D1
:10B96000F09003C1E0600302BA241227668A0A8BB2
:10B970000B8C0C8D0D9084F1780A120E579084F583
:10B98000780A120EA5900504E0F8A3E0F5838882FA
:10B99000A3A3780A120EDA900504E0F8A3E0F58379
:10B9A0008882A3A3A3A3A3A3E4F0A3F01225A4E990
:10B9B000600F7A047B051226DC90050DE4F002B8D6
:10B9C000E91226C4805E90050DE0700302B8E9A27A
:10B9D000AFE433FFC2AF7A047B051226DC90050D7D
:10B9E000E4F01226F4E97037122754906182E0C225
:10B9F000E6F0E5E170FC75E1017591BF75E1F1904C
:10BA000003C7E0640170187A207B009003C0E0F95E
:10BA1000122B087A207B009003C0E0F9122A84EFF1
:10BA2000A2E092AF79007F0402112474F612105242
:10BA3000E9FEC3942040047912802EEE900536F082
:10BA4000601FEA4B60F1E0F50A750B00780A1212EC
:10BA500065EAFCEBFD7A377B05122A24740212108A
:10BA6000119005157401F0790002B8C1C082C0833D
:10BA70009003C1E064076004790C8060EC4D7004B1
:10BA800079128058C3EB940F50F6EA4B70F2900392
:10BA9000F4E07004790280447A008C828D83E0C0E7
:10BAA000E0EAF8C3E498F895E0F974BF28F58274E9
:10BAB0000439F583A3A3A3A3D0E0F00A8C828D837D
:10BAC000A3AC82AD83EAC3941040CF9004C5740147
:10BAD000F079057AF17B03122604790002BC15C0C7
:10BAE00082C0839003C1E064076004790C8039C38D
:10BAF000EB940F5020EA4B701C9003F4E070047933
:10BB00000280259004CEE06401700E9004E6740675
:10BB1000F07902800A7912800FA37406F0790D7A09
:10BB2000F17B03122604790002BC15C082C083C3D6
:10BB3000EB940F5004EA4B60047912800C9003F4EC
:10BB4000E0700479028002790002BC1574F01210D2
:10BB500052890CEAFEEBFF1226E28A0A8B0B1227AF
:10BB6000668A0E8B0F8C108D118E828F837401F07C
:10BB7000E50C60117401650C600B7402650C6005C6
:10BB8000791202BC0DE50A450B6045780E12126170
:10BB9000850A82850B83A3A3120EE9121BFA740493
:10BBA000121011E96031780E121261850A82850B3C
:10BBB00083A3A3120EE9121C5774041210118A0EEB
:10BBC0008B0F8C108D119084ED780E120CFD5007A8
:10BBD000A90C12258C8034E50C600B1460101460E5
:10BBE0001514601A801F9003C3E04404801690036C
:10BBF000C3E04408800E9003C3E044108006900325
:10BC0000C3E04420F08E828F83E4F079007F080245
:10BC10001124F07900D083D082020CB0C082C0839E
:10BC2000E9F890055DE07004790C800EE8600D1471
:10BC300070109003C67401F0790080D99003C6E4B7
:10BC400080F5791280F474F4121052890AEAFEEB3E
:10BC5000FF750B1274FE6E700374FF6F701B900201
:10BC6000A112C263606412BCD1605F7AFE7BFFA93F
:10BC70000A121050E9F50B805174FF6E700374FFC7
:10BC80006F702F9002A112C263601B12BCD16016AC
:10BC90007AFF7BFFA90A121050E9F50B7008E50A3C
:10BCA0009002A3F08024A90A12207CE9F50B701AF7
:10BCB00080EC12C4216013E0650A700B7913EEFA70
:10BCC000EFFB1222DA80AD750B03A90B7F04021182
:10BCD00024E0F5838882E0F8A3E0F988828983E58F
:10BCE0008245832274F2121052890CECFEEDFF9013
:10BCF0000280E064026005E0640170047912805003
:10BD0000EE4F70047902804812C6F57004791480F1
:10BD10003FE50C600B8A828B83A3A3A3E0D2E1F002
:10BD2000750E10750F00780E121265EEFCEFFDEA2D
:10BD3000240DFAEB12BD5312101112C347120EE973
:10BD4000E50A241DF582E50B12CAA0120EF5790052
:10BD500002C2543400FB122A2474022274F212101C
:10BD6000528A0A8B0BECFEEDFF900280E0640260C9
:10BD70000EE064016009E064087009EE4F60057927
:10BD80001202BE56EA450B7005790202BE5612C277
:10BD9000606005791102BE568A828B8312C2598A6D
:10BDA0000C8B0DEA450D7005791402BE567A1F7B87
:10BDB00000122ABA90029FEAF0A3EBF012C2607060
:10BDC00005791302BE567C1F7D007900122A3C12B1
:10BDD000C5FA12BE59A3EAF0A3EBF0750E16750F63
:10BDE00000780E121265E50A2402FCE50B3400FD12
:10BDF00090029FE02403FAA3E012BD531210111227
:10BE0000BE597402F0900280E0A2E35004D2F080A8
:10BE100002C2F090029FE02403F50EA3E03400F587
:10BE20000F780E12126512BE659002AAE0FAA2F017
:10BE3000E433F91228A47402121011E9F50AEE4F46
:10BE4000600BEEFCEFFDAA0CAB0D1228E0E50A60DA
:10BE500003122088A90A02C25490029FE0F8A3E0CE
:10BE6000F583888222850A82850B83E0FCA3E0FDAE
:10BE70002274F412105274FF120FFBEAFEEBFF89DA
:10BE80000A12249C8B0DEA450D70047914801485E8
:10BE90001A82851B83E50AF0AC82AD83EEFAEFFBD4
:10BEA0001228C8740112101102BCCC74F012105286
:10BEB00074F0120FFB8A0E8B0F8C108D11742012F0
:10BEC0001046E0FEA3E0FFEEFAEFFB12249C8B0B82
:10BED000EA450B70047912807190850D780E120C72
:10BEE000FD5004790280637C107D007900851A8200
:10BEF000851B83AA82AB83122A3C851A82851B8309
:10BF0000E50EF0850F0BE50BF50A7401121046E5FE
:10BF10000AF0850E0A85100C85110D7410780A122E
:10BF20000E0C7402121046E50AF07418780E120E08
:10BF30000C7403121046E50EF0EEFCEFFD851A823C
:10BF4000851B83AA82AB831228AA74101210117F5A
:10BF50000802112474F01210528A0C8B0D89108C77
:10BF60000E8D0F7410121046E0F511900280E064FF
:10BF7000026005E064017005791202C026EC450FED
:10BF80007005790202C02612249C8A0A8B0BAE0A25
:10BF9000AF0BEE4F7005791402C026EE2421F50A8E
:10BFA000EF12C182850A82F58312CAAB6003122A9E
:10BFB000C07C1B7D00AA0EAB0F122A30850A828539
:10BFC0000B83EAF0A3EBF012BE65EC4D700479131D
:10BFD0008054900280E0A2E35036E5116032EC24F8
:10BFE00012F50AED12C182780A121265EC2410F5DE
:10BFF00082ED12CAA012127CEC241AF582ED12C155
:10C0000087F9AA0CAB0D1228E674041210118002F5
:10C010007900EE2403F582EF12C187D2E2F0E51039
:10C020006004E0D2E1F002BF4F74EA1210528A10AD
:10C030008B11EA4511700302C17990029D12C2630F
:10C04000600512BE5F8003900944E0F50E9002ABDC
:10C0500012C263600F12BE5FA3A312BCD660057943
:10C0600000121050E5102407F50CE5113400F50D11
:10C07000E5102408F50AE51112C182AA0AFB850C15
:10C0800082850D83E0F9121FE0E9FB850C82850DA6
:10C0900083F0E5102403FEE5113400FFE5102404CD
:10C0A000F514E5113400F515E510240EF512E5112F
:10C0B0003400F513E5102414F582E51112C187F55B
:10C0C000167517007816121265E5102412F582E530
:10C0D0001112CAA012127CE5102410F582E511128B
:10C0E000CAA012127C85128285138312127C8514D9
:10C0F0008285158312127CAC0AAD0BAA0E8E828F3C
:10C1000083E0F912206A740A1210118E828F83E084
:10C11000703185128285138312127C780A1212659F
:10C12000850C82850D83E0FD7C0185148285158355
:10C1300012C600A90E1224907404121011E98E8206
:10C140008F83F090029D12C263602E12208E9002A7
:10C15000A3E06025F912207CE9601E8E828F83E0C7
:10C16000FB85148285158312BE6B9002A3E0FAEB67
:10C17000F91220709002A3E4F07F0E021124F50A58
:10C18000E50B3400F50B223400F583E02274F7123E
:10C190001052EAF8EBF988828983A3A3A3A3A3A38F
:10C1A000A3A3A3A312127C88828983A3A3A3A3A31E
:10C1B000A3A3A312127C88828983A3A3A3A3A3A30E
:10C1C00012BE6B88828983A3A3A3A312C6008882B0
:10C1D0008983A3A3A3E0F912207674041210117FBF
:10C1E0000102112474F2121052EAFEEBFF750C00EA
:10C1F000EE2403F8EF3400F9880A890B8882F5836E
:10C2000012C2598A828B83E58245836009E0F50C6E
:10C2100012C5FA1224969002A3E06011650C700D0D
:10C22000E0F912207CE960249002A3E4F0E50C60C0
:10C230001B8E828F83A3A3A3A3A3E0FB12BE65AAD8
:10C240000C8E828F83A3A3E0F912207012C260606B
:10C25000031220887F0602112412C60412249C2295
:10C2600090029FE0F8A3E0F9E8492274E812105226
:10C27000890D8A108B0C8C0E8D0F741A121046E0EB
:10C28000F518A3E0F519741C121046E0F516A3E0AA
:10C29000F517741E121046E0F512A3E0F513742092
:10C2A000121046E0F50A7A1312C411700302C34259
:10C2B0008E828F8374D0F0A3E50D12C7BF74051270
:10C2C000C7C7E50CF0EE2404FAEF3400FBE50E4599
:10C2D0000F60177514067515007814121265AC0EF0
:10C2E000AD0F12BD5612101180097C067D00790039
:10C2F000122A3C7418121046E0F8A3E0F98E828FDF
:10C3000083A3A3A3A3A3A3A3A3A3A3E8F0A3E912D6
:10C31000C8AEE518F0A3E519F0EE240E12CA9DE5AB
:10C3200016F0A3E517F012C347E512F0A3E513F0EA
:10C33000EE241212CA9DE50AF0EEFAEFFBA91012E4
:10C340002A5A7F10021124EE2410F582EF3400F5F2
:10C35000832274F2121052890B8A0AECFEEDFF8BD5
:10C360000C7A067B00122A4EEA4B60278A828B8366
:10C3700074D0F0A3E50BF08A828B83A3A37406121A
:10C38000C396EEF0A3EF12C396A3A3E50CF0A90A9F
:10C39000122A5A02C254F08A828B83A3A3A3227466
:10C3A000EC12105289128A0A8B0B8C0C8D0D7414AE
:10C3B00012104612C60A7416121046E0F510A3E0D9
:10C3C000F5117A0C12C4116045AA0AAB0B12C421F4
:10C3D0007003900944E0F98E828F8374D0F0A3E556
:10C3E0001212C7BF740712C7D8E50AF012C7DDA33F
:10C3F000E50D12C7E7E50EF0A3E50F12C7E7A3A30B
:10C40000E510F0A3E511F0EEFAEFFB122A5A02C58F
:10C41000CA7B00122A4E8A148B15AE14AF15EE4F4C
:10C420002212249C8A828B83E58245832274F61231
:10C4300010521224A28A828B83E5824583600B7995
:10C4400013A312C6001222DA800279127F020211AF
:10C450002474EC12105289138A0A8B0B8C127414F8
:10C4600012104612C60A12249C8A108B11EA45113A
:10C47000700302C5CA12C260700302C5CA7A0E7B7D
:10C480000012CADF60027A2990029FE0241B12CAC0
:10C49000E56008EA2416FAE43400FB90029FE024E9
:10C4A0001D12CAE56008EA2414FAEB3400FBE50E1D
:10C4B000450F6008EA241BFAEB3400FB122A4E8A6F
:10C4C0000C8B0DEA450D700302C5CA7C0E12C7B075
:10C4D0008A148B15AE14AF15EE4F70088510828547
:10C4E0001183E0FE850C82850D8374D0F0A3E513E3
:10C4F00012C5D4740A12C5CFE50AF0A3E50B12C524
:10C50000CFA3A3E512F0E50C240EF50AE50D12C148
:10C510008212CADF6023E50C240612C5DE241B123A
:10C52000C17E75101B751100781012126590029F64
:10C53000E0241912C61212101190029FE0241B125F
:10C54000CAE56023E50C240812C5DE241612C17E5C
:10C55000751016751100781012126590029FE02474
:10C560001B12C61212101190029FE0241D12CAE580
:10C570006023E50C240A12C5DE241412C17E751056
:10C5800014751100781012126590029FE0241D129C
:10C59000C612121011E50E450F6023E50C240C1293
:10C5A000C5E4750A1B750B00780A121265AC0EAD56
:10C5B0000F8A828B8312C60012BD56121011AA0C6C
:10C5C000AB0DEEF9122A5A1220887F0C02112412A8
:10C5D000C5D4A322F0850C82850D83A3A32212C5A6
:10C5E000E4E50A22F8E50D3400F9E8FAE9FB8A826D
:10C5F0008B83E50AF0A3E50BF022850A82850B8385
:10C6000012C60422E0FAA3E0FB22E0F50EA3E0F557
:10C610000F2212CAD3FCA3E0FD8A828B8312C604C8
:10C62000122A24740222C082C08312C260603112B6
:10C63000CAC36003122AC090029FE0241B12CAC919
:10C640006003122AC090029FE0241D12CAC9600331
:10C65000122AC090029F12C68290029FE4F0A3F0BB
:10C66000D083D082020CB0C082C08390029D12C2DF
:10C6700063600D90029D12C68290029DE4F0A3F0CB
:10C6800080DE12C604122AC02274F0121052890EE3
:10C690008A0C8B0D12C6F560597A257B00121FB6E5
:10C6A0008A108B11AE10AF11EE4F7008850A82858B
:10C6B0000B83E0FE7A057B00122A4E8A0A8B0BEA76
:10C6C000450B602E7C057D007900122A3C850A828C
:10C6D000850B8374D0F0A3E50E12C700740E12C749
:10C6E00000A3E50CF0A3E50DF0AA0AAB0BEEF912DE
:10C6F0002A5A02BF4F12249C8A0A8B0BEA450B224E
:10C70000F0850A82850B83A3A32274EC1210528950
:10C710000A8A108B118C0B8D0C7414121046E0F5E4
:10C720000E7415121046E0F50D12249C8A148B1518
:10C73000EA451560787A0B7B00122A4E8A128B1319
:10C74000AE12AF13EE4F60657C0B12C7B08A128B2E
:10C7500013A812A913E8497008851482851583E08F
:10C76000F88E828F8374D0F0A3E50A12C7BF740FCE
:10C7700012C7C7E510F0A3E51112C7D812C7DD8EA6
:10C78000828F83A3A3A3A3A3A3A3E50E12C7E7E508
:10C790000DF07416121046EE2409FCEF3400FD74FF
:10C7A00002120F0EEEFAEFFBE8F9122A5A02C5CA7E
:10C7B0007D007900122A3C7A257B00121FB622F0F8
:10C7C0008E828F83A3A32212C7CB2212C7CF22F05F
:10C7D0008E828F83A3A3A32212C7CBA322A3E50B30
:10C7E00012C7EDE50CF02212C7EDA3A32212C7CFAA
:10C7F000A3A3A32274EE1210528A0C8B0D8910127F
:10C80000249C8A0E8B0FEA450F700302C8A97A0D8B
:10C810007B00122A4E8A0A8B0BAE0AAF0BEE4F70CA
:10C820000302C8A97A257B00121FB68A0A8B0BEA7D
:10C83000450B7009850E82850F83E0F50A8E828F85
:10C840008374D0F0A3E412C7BF740BF075120675A1
:10C8500013007812121265E50E2405FCE50F340072
:10C86000FDEE2403FAEF12BD531210118E828F8356
:10C87000A3A3A3A3A3A3A3A3A3E50CF0A3E50DF097
:10C88000EE240B12CA9DE510A2E050047401800151
:10C89000E412C8AEE510A2E1500474018001E4F096
:10C8A000EEFAEFFBA90A122A5A7F0A021124F0EECF
:10C8B000240CF582EF3400F5832274E812105289BB
:10C8C000168A138C0A8D0B8B12741812104612C61E
:10C8D0000A741A121046E0F510A3E0F511741C1248
:10C8E0001046E0F518A3E0F519741E121046E0FE9C
:10C8F000A3E0FFAA0AAB0B12249C8A0C8B0DEA451D
:10C900000D700302C9CCE516600302C9CCEA24030A
:10C91000F582EB12C187D2E4F0E512A2E2E0500406
:10C92000D2E18002C2E1F0E50E450F7010E510453E
:10C9300011700AE51845197004EE4F6060E0D2E20C
:10C94000F0EE4F603012C347120EE9E50C241DF5DE
:10C9500082E50D12CAA0120EF57514107515007837
:10C9600014121265EEFCEFFDE50C240DFAE50D1234
:10C97000BD53121011E50C2421F50CE50D3400F522
:10C980000DE50E450F601BE513701712CAA5600375
:10C99000122AC07C1B7D00AA0EAB0F8021E0C2E2F0
:10C9A0008029E5104511602474016513701E12CAB8
:10C9B000A56003122AC07C1B7D00AA10AB11122AAD
:10C9C00030850C82850D83EAF0A3EBF012C2607013
:10C9D0000302CA8CE50E450F602912CADF700A7A7D
:10C9E0001B12CA8F241912CAB112CAC36015750C62
:10C9F0001B750D00780C121265AC0EAD0F12BD56F2
:10CA0000121011E5184519603590029FE0241B12A1
:10CA1000CAE5700A7A1612CA8F241B12CAB1900294
:10CA20009FE0241B12CAC96015750C16750D00789D
:10CA30000C121265AC18AD1912BD56121011EE4F42
:10CA4000603590029FE0241D12CAE5700A7A141224
:10CA5000CA8F241D12CAB190029FE0241D12CAC9B8
:10CA60006015750C14750D00780C121265EEFCEF54
:10CA7000FD12BD561210117810121265AC12AA0ADE
:10CA8000AB0BA916122082740212101102C3427B52
:10CA900000122ABA8A0C8B0D90029FE022F582EFD9
:10CAA0003400F58322850C82850D8312C604EA4B7F
:10CAB00022FAA3E03400FB8A828B83E50CF0A3E525
:10CAC0000DF02290029FE0241912CAD3FAA3E0FBD2
:10CAD000EA4B22F8A3E03400F988828983E02290AF
:10CAE000029FE0241912CAD3F8A3E0F9E84922749E
:10CAF000EE121052890D8A0E8C108D1174121210C4
:10CB000046E0F50AA3E0F50B750C0012CBF56005C5
:10CB1000791102CBD3E50A450B603C7A217B0012E8
:10CB20001FB68A128B13A812A913E50A2415FEE575
:10CB30000B3400FF8E828F83E0C398E49940187A0B
:10CB4000227B00121FB68A128E828F83E0FAC3E521
:10CB5000129AEB94005004790280787A637B001279
:10CB60002ABA90074DEAF0A3EBF012CBF5700479E6
:10CB70001380607C637D007900122A3C12CBD8E4DC
:10CB8000F090074DE012D961E50D12CBEDE50E12E4
:10CB9000CBEDA3E510F0A3E511F090074D12D2D331
:10CBA000A3E50AF0A3E50BF012D65BE4F0A3F09046
:10CBB000074DE0241A12D862E4F0E50D6006122851
:10CBC000ECE9F50C12CBD87401F0E50C60031229E6
:10CBD00022A90C7F0A02112412CBDC2290074D12ED
:10CBE000CBE322E0F8A3E0F5838882A322F012CB06
:10CBF000DCA322E9FE90074DE0F8A3E0F9E8492222
:10CC000074F61210527E0012CBF57005791202CC28
:10CC1000C890074DE0241A12D875F8740268600AAB
:10CC2000740368600574046870E212CCD96C7003F8
:10CC3000A3E06D6005790202CCC8750A108E0B78EE
:10CC40000A121265EAFCEB12CCCB12D3A912101116
:10CC5000791090074DE0242BFAA3E03400FB122852
:10CC60007490074DE0241BF50AA3E03400F50B781F
:10CC70000A12126512D3AF12CCCB1228DA74021248
:10CC8000101190074DE0240112D875FA90074DE07D
:10CC9000FBA3E0F5838B82E0600D74036A70278844
:10CCA0008289837402801974046A70098882898376
:10CCB0007402F0801174036A700C88828983740591
:10CCC000F01228F2E9FEEEF902D71FFD90074DE0C1
:10CCD0002407FAA3E03400FB2290074DE0F8A312EA
:10CCE000D67CE022C082C08390074F02D04C74F7FC
:10CCF00012105212CBF3601312CCDF6A7003A3E060
:10CD00006B700874016E70031229227F01021124D6
:10CD1000C082C083791712292802D05174F41210EE
:10CD20005274ED120FFBEAF8EBF9851A82851B832A
:10CD3000E4F088828983A3A3A3A3A3A312D6FB8ACA
:10CD4000828B83E0F50CE824020808E93400F9E856
:10CD5000FEE9FFE50C14603614603314604F146074
:10CD60007A14700302CDE914700302CDF714700336
:10CD700002CE0514700302CE1314700302CE2114E8
:10CD8000700302CE2F14700302CE3E02CE4D74010A
:10CD9000121046AC82AD83122988E9F874126870CB
:10CDA0001A851A82851B837406F002CEA6740112BE
:10CDB0001046AC82AD83122994E9F8E8600302CEF4
:10CDC0009D750D078E828F8312D6FB12249CEA4B31
:10CDD000600302CE58750A0802CE94740112104600
:10CDE000AC82AD831229A080D07401121046AC82AF
:10CDF000AD831229AC80C27401121046AC82AD839F
:10CE00001229B880B47401121046AC82AD83122985
:10CE1000C480A67401121046AC82AD831229D6805C
:10CE2000987401121046AC82AD831229DC808A749A
:10CE300001121046AC82AD831229E802CDB974010B
:10CE4000121046AC82AD831229F402CDB9851A8244
:10CE5000851B83740702CDA9900280E0A2E35005F0
:10CE6000900751800390074F12CBF8602412D32C07
:10CE7000F8A3E0F9890BE8450B601674011210461F
:10CE8000AC82AD83A90C8882850B83121050E9F522
:10CE90000D850D0A851A82851B83E50AF0851A82A5
:10CEA000851B83E0600DAC82AD838E828F8312D2AE
:10CEB00073800312285074131210117F040211247E
:10CEC00074F6121052ECFEEDFF750AA6750B297868
:10CED0000A121265790212D728121011E9F50A8E8A
:10CEE000828F83E0F9122928A90A02D71F74F4124D
:10CEF0001052EAFEEBFF890A12CBF5700302CFD97C
:10CF000012CCDF6E7003A3E06F600302CFD99007ED
:10CF10004DE0240108A3E03400F9E8FAE9FB8A8235
:10CF20008B83E0F8740668600302CFC912D19C605D
:10CF30007C90074E12D675F8A3E0F990074DE024D7
:10CF400018FCA3E03400FD8C828D83E0FCA3E0FD9F
:10CF5000E8241312D958F8A2E050178C828D83A3CD
:10CF6000A3A3A3A3E0A2E050098A828B837407F0F5
:10CF7000804BE8540260168C828D83A3A3A3A3A3E5
:10CF8000E0540260088A828B83740980E2E85404CA
:10CF900060168C828D83A3A3A3A3A3E0540460082E
:10CFA0008A828B83740B80C7900751800390074F50
:10CFB00012CBF8600812D039600312105012D03230
:10CFC000703C79001229288035741168700BE50ACD
:10CFD0006003750A32A90A80EBE50A7018EEFAEFD1
:10CFE000FB12249C8A828B83E58245836007A3A37E
:10CFF000A3E0D2E4F0EEFAEFFBA90A122094790143
:10D0000002CEBBC082C08312CBF5602412D32C7039
:10D010000590074F800390075112CBF8600812D09B
:10D0200039600312105012D032700579001229288D
:10D03000801F12CBDCE064122212D967A3A3E0F8B0
:10D04000A3E0F988828983E582458322EAF0A3EB95
:10D05000F0D083D082020CB074E812105274E9123E
:10D060000FFB851A82851B83EAF0A3EBF08C188DE9
:10D0700019742F121046E0F516A3E0F51712CBF540
:10D080007005791202D19212D33112249C8A0A8B34
:10D090000BAE0AAF0BEE4F7005791402D1927402F9
:10D0A000121046AA82AB8312293412D665FAA3E085
:10D0B000FBEE2405F514EF3400F515EE2404F5120B
:10D0C000EF3400F51312D19C602F740212104685C4
:10D0D000820E85830FEAFEEBFF122004E9F510793A
:10D0E0000012200A8A0C8B0D851282851383E0F5CD
:10D0F0001185140A85150B802B8A0E8B0F74021272
:10D100001046AE82AF83122004E9F5117900122097
:10D110000A8A0A8B0B851282851383E0F510851429
:10D120000C85150D7410121046AC82AD83EEFAEF2B
:10D13000FB12297C7409121046AC82AD83AA0EAB97
:10D140000F1229767816121265780A121265E51107
:10D15000F50A780A121269780C121265741012100E
:10D160004685820A85830B780A121265741912109B
:10D170004685820A85830B780A121265A910AC18BD
:10D18000AD19740B12104612D6FB122862740B12E2
:10D19000101174171210117F1002112490074DE026
:10D1A000F8A312D967E02274F612105274F7120F26
:10D1B000FBEAFEEBFF8C0A8D0B90074F12CBF87049
:10D1C0000302D26E12D96312CBF8700302D26E8CB6
:10D1D000828D83E0C0E07402121046D0E0F08C82B1
:10D1E0008D83A3E0C0E07403121046D0E0F08C827F
:10D1F0008D83A3A3E0F97404121046AA82AB8312B4
:10D200002880850A82850B83A3A3A3E0C0E074066F
:10D21000121046D0E0F0850A82850B83A3A3A3A356
:10D22000C082C0837407121046AC82AD83D083D015
:10D23000827402120F0E7402121046AC82AD837912
:10D2400001EEFAEFFB90074F12D19F12D961121035
:10D2500050E9851A82851B83F06013740112104611
:10D26000E9F0AC82AD838E828F83A312D2737409EE
:10D2700002D71CE0FAA3E0FB1228C82274F21210B5
:10D2800052890A740E121046E0F50CA3E0F50D74F5
:10D2900010121046E0F50EA3E0F50F90075112CBE7
:10D2A000F8602990075112D2D3E0FEA3E0FFEE4FC1
:10D2B000601A780E121265780C121265A90A8E8215
:10D2C0008F831210507404121011800279027F06AD
:10D2D00002112412D33DA32274F612105274F912D3
:10D2E0000FFB12CBF5603B851A82851B83AA82ABAC
:10D2F0008312293412D33112D329601E750A767530
:10D300000B29780A1212657402121046AC82AD83A2
:10D31000790712D728121011800A750A7C750B291B
:10D3200080E07901740702D71C90074E12D967E09C
:10D330002290074D12D33DE0FAA3E0FB2212CBE38B
:10D34000A3A32274F612105274F0120FFB750A1088
:10D35000750B00780A12126590074DE0241BFCA3A0
:10D36000E03400FD740212104612D3A5121011759C
:10D370000A8E750B2902D70174F612105274F0123E
:10D380000FFB750A10750B00780A12126512D3AFE5
:10D39000FD740212104612D3A5121011750A9A7567
:10D3A0000B2902D701AA82AB83122A24740222908D
:10D3B000074DE0242BFCA3E034002274F01210523D
:10D3C0008A0A8B0B750C007A077B00122ABA12D6D8
:10D3D0005BEAF0A3EBF088828983E0FA4B700302EA
:10D3E000D62D12D66FFEA3E0FF750E07750F0078DD
:10D3F0000E121265AC0AAD0B12D3A912101112D184
:10D400009C600302D58CEE2413FCEF3400FD12D691
:10D41000652405F50EA3E03400F50F8C828D83E0C2
:10D42000F8A3E0F9850E82850F83E0A2E092F0E890
:10D43000A2E020F001B35007A2E0E433FA80027AC0
:10D4400000E854FE4AF88C828D8312D649C313A299
:10D45000E092F0E8C313A2E020F001B35012E854C8
:10D46000026004D2F08002C2F0A2F0E433FA80023B
:10D470007A00E854FDF8EAC333FAE433FBE84AF8EB
:10D48000E94B12D655543FA2E092F0E81313543FF3
:10D49000A2E020F001B35013E854046004D2F080FD
:10D4A00002C2F0A2F0E433F510800375100075118C
:10D4B00000E854FBFAE9FB74027810120FE8EA4521
:10D4C00010F8EB451112D65513541FA2E092F0E864
:10D4D000131313541FA2E020F001B35013E85408B3
:10D4E0006004D2F08002C2F0A2F0E433F5108003B1
:10D4F000751000751100E854F7FAE9FB7403781011
:10D50000120FE812D637540FA2E092F0E8C4540F7D
:10D51000A2E020F001B35013E854106004D2F08070
:10D5200002C2F0A2F0E433F510800375100075110B
:10D5300000E854EFFAE9FB74047810120FE812D6F1
:10D5400037135407A2E092F0E8C4135407A2E02076
:10D55000F001B35013E854206004D2F08002C2F00E
:10D56000A2F0E433F50E8003750E00750F00E85449
:10D57000DFFAE9FB7405780E120FE8EA450EF8EBC6
:10D58000450FF98C828D83E8F0A3E9F090074DE018
:10D59000241AF8A3E03400F9850A82850B83A3E0FE
:10D5A00060118E828F83A3E060098882898374056D
:10D5B000F0807D850A82850B83A3A3E05404701557
:10D5C000EE2412F582EF12D95BA2E240088882892C
:10D5D00083740180DB850A82850B83E0FA8E828F5B
:10D5E00083E0FB90074DE0FCA3E0F5838C82E060D4
:10D5F00006EBFEEAFD8004EBFDEAFEEEC394055067
:10D6000027EDC3940550218E0AED75F005A4FAAB01
:10D61000F074982AFA74823BFBEA250AF582EB1231
:10D62000D95B888289838088750C188003750C13F8
:10D63000A90C7F08021124EA4510F8EB451112D617
:10D6400043C422F98C828D83E8F0A3E9F0850E8231
:10D65000850F83E02212D64313132290074DE02456
:10D660001812D8662290074DE0241812D87922901B
:10D67000074DE0F8A312D67CA3A3E022E0F583884F
:10D6800082A3A3A32274F6121052750AB2750B2955
:10D69000780A121265791112D72802D71C74F61273
:10D6A000105274EE120FFBEAFEEBFF741C121046D0
:10D6B00012D6FB851A82851B83ECF0A3EDF0750A68
:10D6C00008750B00780A121265EAFCEBFD7404126F
:10D6D000104612D3A5121011750ABE750B29780ACF
:10D6E0001212657402121046AC82AD83790B12D708
:10D6F000241210117412802490074DE0FAA3E0FB6D
:10D7000022780A1212657402121046AC82AD837937
:10D710001112D33112D72812101174101210117F68
:10D7200002021124EEFAEFFB1229FA74022274F6B7
:10D73000121052750ACA750B2902D69074F4121091
:10D740005274F9120FFBEAFEEBFF851A82851B83E8
:10D75000E9F0750C06750D00780C12126574031251
:10D76000104612D3A5121011750CD0750D29780C26
:10D770001212657402121046AC82AD83790812D77A
:10D7800024121011740702CEB874F6121052750AE2
:10D79000E2750B2902D690C082C08312CBF560538C
:10D7A00090074DE0241812D7F96003122AC09007A1
:10D7B0004DE0245B12D7F96003122AC090074DE0B8
:10D7C000245D12D7F96003122AC090074DE0245F50
:10D7D00012D7F96003122AC090074DE0246112D7D6
:10D7E000F96003122AC012D6F8122AC090074DE43D
:10D7F000F0A3F012285602D05112D879FAA3E0FB18
:10D80000EA4B2274F712105212CBF3605290074D7C
:10D81000E0246112D86212127C90074DE0245F125E
:10D82000D86212127C90074DE0245D12D862121269
:10D830007C90074DE0245B12D86212127C90074D59
:10D84000E0241712D875FB12CCD9FCA3E0FD12D34B
:10D8500029FAEEF91220A6740812101112292202D8
:10D86000CD0B12D8662212D86A22F8A3E03400F950
:10D87000888289832212D8792212D86AE022C08253
:10D88000C083791012D6F8EA4B604790074DE02428
:10D8900018FAA3E03400FB8A828B8312D6FBEA4B92
:10D8A000603012D66FFCA3E0FDEC4D6025EC241532
:10D8B000F8ED3400F9EA2404FAEB3400FB8882899D
:10D8C00083E0FC8A828B83E0C39C40048882898346
:10D8D000E0F902D05174F6121052EAFEEBFF12CBBF
:10D8E000F5606912D963A3A3A3A3A312CBF8605C6C
:10D8F000880A890B88828983E08E828F83F08882F0
:10D900008983A3E08E828F83A3F0E8241212D95872
:10D91000F9EE24020A0AEF3400FB122880E50A24FB
:10D9200015F582E50B12D95B8E828F83A3A3A3A387
:10D93000F0E50A2413F582E50B3400F583EE2405A7
:10D94000FCEF3400FD7402120F0E80097C077D008D
:10D950007900122A3C02D71FF582E93400F583E0F2
:10D9600022F8A312D96722E0F58388822274F61286
:10D970001052E9FE74FF2EF50A04C313FE6039EA63
:10D98000250AFCEB3400FDEAF8EBF9EEFF8882890A
:10D9900083E0FA8C828D83E088828983F0EA8C822E
:10D9A0008D83F088828983A3A882A983EC24FFED6C
:10D9B00034FF1CFD1FEF70D57F02021124C082C00E
:10D9C0008390618FE0F902DB0774F712105274FE46
:10D9D000120FFBE9FE7005791202DA9E53B4F39040
:10D9E000619A743FF0A3745AF09061A0E4F09061E2
:10D9F00084F0E5E170FC75E1027F009061BFE070AA
:10DA0000070FEFC394FA40F374FA6F7005791F02A1
:10DA1000DA9E7F009061BFE0851A82851B83F090BB
:10DA200061BFE0F87401121046E8F0851A82851B88
:10DA300083E0FCE8F9ECF849600A74036870037449
:10DA4000806970070FEFC394FA40C974FA6F60BD24
:10DA5000EAF8EBF9EEFF9061BFE0F5BDE0F5BDE05F
:10DA6000F5BDE0F5BDE0F5BDE0F5BDE0F5BDE0F5E7
:10DA7000BDE5BC88828983F0A3A882A9831FEF70CB
:10DA8000D5E5E170FC75E1017401121046E0F5BCCA
:10DA9000851A82851B83E0F5BC1225747900740217
:10DAA00012101102DB88C082C083787F79058882DA
:10DAB0008983E08A828B83F088828983A3A882A9E4
:10DAC000838A828B83A3AA82AB83E864877003E98D
:10DAD000640570DA8031C082C083788779058882D6
:10DAE0008983E08A828B83F088828983A3A882A9B4
:10DAF000838A828B83A3AA82AB83E8648B7003E959
:10DB0000640570DA8001F0D083D082020CB074F723
:10DB10001210527409121046E0F8A3E0F9E5B3546C
:10DB20008F4440F5B3EB900834F0EAA3F090083945
:10DB30007410F0900838E054E0F053D1FD75D6022F
:10DB4000E5B354F84404F5B343B301E5B3A2E3509D
:10DB5000FAED900834F0ECA3F0E990083EF0E8A369
:10DB6000F09008417410F0900840E054E0F053D178
:10DB7000FD53D1FB75D60275D60453B3F843B301F8
:10DB8000E5B3A2E350FA80007F01021124C082C0F5
:10DB9000839008367470F0A374B1F0A3E0541FF0C2
:10DBA00090083A741DF0A37442F0A37470F0A3744B
:10DBB000B2F0900840E0541FF0900842741EF0A3A9
:10DBC000741202DB0674F71210527409121046E048
:10DBD000F8A3E0F9EA6C7002EB6D6038900830E071
:10DBE000541FF09008327420F0A37452F0ED9008A6
:10DBF0002CF0ECA3F0EBA3F0EAA3F0E8900831F0EE
:10DC0000E9900830F053D1FE75D60175D701E5D102
:10DC1000A2E050FA02DB88C082C083E5B3548F448F
:10DC200050F5B37482900834F07478A3F0900839FA
:10DC30007410F0900838E054E0F053D1FD75D6022E
:10DC4000E5B354F84406F5B343B301E5B3A2E3509A
:10DC5000FA02DB0774F412105274E0120FFB890A07
:10DC6000742C121046E0FEA3E0FF740F550A600406
:10DC7000780180027800E9C4540F28F50B851A82D8
:10DC8000851B83E58264787004E583648260479035
:10DC90000830E0541FF09008327420F0A37452F062
:10DCA000748290082CF07478A3F0851B83E5839030
:10DCB000082EF0851A82E58290082FF090083174C2
:10DCC00010F0900830E4F053D1FE75D60175D701FD
:10DCD000E5D1A2E050FA851A82851B837401F01207
:10DCE0001046E5826A7003E5836B6049900830E076
:10DCF000541FF09008327420F0A37452F0EB900897
:10DD00002CF0EAA3F07401121046E58390082EF07F
:10DD10007401121046E58290082FF0900831740DBE
:10DD2000F0900830E4F053D1FE75D60175D701E5C7
:10DD3000D1A2E050FAE5B3548F4410F5B3851B83AC
:10DD4000E583900834F0851A82E582900835F090DA
:10DD500008397410F0900838E054E0F053D1FD75A4
:10DD6000D602E5B354F84406F5B343B301E5B3A2D4
:10DD7000E350FAEF900834F0EEA3F074101210465E
:10DD8000E58390083EF07410121046E58290083F3B
:10DD9000F09008417410F0900840E054E0F053D146
:10DDA000FD53D1FB75D60275D60453B3F843B301C6
:10DDB000E5B3A2E350FA740F1210467401F0E5B314
:10DDC000548F4430F5B3851B83E583900834F08588
:10DDD0001A82E582900835F053D1FD75D602E5B37D
:10DDE00054F84406F5B343B301E5B3A2E350FAEDAA
:10DDF000F8900834F0ECF9A3F0E50BC454F0FA9075
:10DE00000839F0E890083EF0E9A3F0EA900841F004
:10DE100053D1FD53D1FB75D60275D604E50B6012C4
:10DE2000150B53B3F843B301E5B3A2E350FAE50B86
:10DE300070EE850A0CEC250CF8ED3400F974101224
:10DE40001046E088828983F07411121046E08882BF
:10DE50008983A3F07412121046E088828983A3A3F9
:10DE6000F07413121046E088828983A3A3A3F07490
:10DE7000201210117F0402112474F412105274E065
:10DE8000120FFB890A742C121046E0FEA3E0FF7407
:10DE90000F550A6004780180027800E9C4540F2805
:10DEA000F50B851A82851B83E58264787004E5830F
:10DEB00064826047900830E0541FF090083274206C
:10DEC000F0A37452F0748290082CF07478A3F0855B
:10DED0001B83E58390082EF0851A82E58290082F37
:10DEE000F09008317410F0900830E4F053D1FE75D2
:10DEF000D60175D701E5D1A2E050FA851A82851BBB
:10DF0000837401F0121046E5826A7003E5836B604A
:10DF100049900830E0541FF09008327420F0A37448
:10DF200052F0EB90082CF0EAA3F07401121046E5D1
:10DF30008390082EF07401121046E58290082FF0AD
:10DF4000900831740DF0900830E4F053D1FE75D68E
:10DF50000175D701E5D1A2E050FAE5B3548F441022
:10DF6000F5B3851B83E583900834F0851A82E5823A
:10DF7000900835F09008397410F0900838E054E0BB
:10DF8000F053D1FD75D602E5B354F84406F5B3431A
:10DF9000B301E5B3A2E350FAEF900834F0EEA3F03A
:10DFA0007410121046E58390083EF074101210466B
:10DFB000E58290083FF09008417410F0900840E02E
:10DFC00054E0F053D1FD53D1FB75D60275D60453FE
:10DFD000B3F843B301E5B3A2E350FA74101210464C
:10DFE000E08E828F83F07411121046E08E828F8350
:10DFF000A3F07412121046E08E828F83A3A3F074F4
:10E0000013121046E08E828F83A3A3A3F0740F1225
:10E0100010467401F0E5B3548F4430F5B3851B838B
:10E02000E583900834F0851A82E582900835F090F7
:10E0300008397410F0900838E054E0F053D1FD75C1
:10E04000D602E5B354F84406F5B343B301E5B3A2F1
:10E05000E350FAEDF8900834F0ECF9A3F0E50BC4C6
:10E0600054F0FA900839F0E890083EF0E9A3F0EA9D
:10E07000900841F0900840E054E0F053D1FD53D1B6
:10E08000FB75D60275D604E50B6017150BE5B35486
:10E09000F84402F5B343B301E5B3A2E350FAE50B4C
:10E0A00070E902DE6F74F112105274E0120FFBEA95
:10E0B000FEEBFF890E8C0F742F121046E0F50AA3B9
:10E0C000E0F50B7431121046E0F50CA3E0F50D7489
:10E0D0000F550F6004780180027800ECC4540F28BB
:10E0E000F510122694851A82851B83E58264787068
:10E0F00004E58364826047900830E0541FF0900884
:10E10000327420F0A37452F0748290082CF074786A
:10E11000A3F0851B83E58390082EF0851A82E582A3
:10E1200090082FF09008317420F0900830E4F053FC
:10E13000D1FE75D60175D701E5D1A2E050FA851A56
:10E1400082851B837449F07401121046E5826E705B
:10E1500003E5836F6049900830E0541FF090083267
:10E160007420F0A37452F0EF90082CF0EEA3F0743A
:10E1700001121046E58390082EF07401121046E556
:10E180008290082FF0900831740DF0900830E4F080
:10E1900053D1FE75D60175D701E5D1A2E050FA74CE
:10E1A0000F121046E50FF074111210467401F0744E
:10E1B00012121046E50EF0851B83E583900834F0BB
:10E1C000851A82E582900835F09008397420F09025
:10E1D0000838E054E0F053D1FD75D60253B3F8434C
:10E1E000B301E5B3A2E350FA53B3F843B301E5B387
:10E1F000A2E350FAE50B900834F0E50AA3F0E5102D
:10E20000C454F0900839F0851B83E58390083EF0F4
:10E21000851A82E58290083FF09008417410F090D2
:10E220000840E054E0F053D1FD53D1FB75D60275A0
:10E23000D604E5106025E5B3FA1510E51060047802
:10E240005080027800748F5A48F5B353B3F843B343
:10E2500001E5B3A2E350FAE51070DB851A82851B55
:10E2600083E0850C82850D83F07401121046E085F1
:10E270000C82850D83A3F07402121046E0850C8297
:10E28000850D83A3A3F07403121046E0850C8285EC
:10E290000D83A3A3A3F074201210117F0702112491
:10E2A00074F012105274F8120FFBEAFEEBFF890BA8
:10E2B0008C0A7418121046E0F50EA3E0F50FEE2458
:10E2C000B3F8EF3400F9E5B3548F4440F5B3E99067
:10E2D0000834F0E8A3F09008397410F0900838E0A2
:10E2E00054E0F053D1FD75D602E5B354F84404F57B
:10E2F000B343B301E5B3A2E350FA9003C1E064086D
:10E30000705DEE24A6F8EF3400F9EE24D5F582EF27
:10E310003400F583120EE9851A82851B83120EF5EF
:10E32000851A82851B83E088828983F0740112102C
:10E3300046E088828983A3F07402121046E0888246
:10E340008983A3A3F07403121046E088828983A313
:10E35000A3A3F088828983A3A3A3A37480805AEE29
:10E3600024A6F8EF3400F9EE24D5F582EF3400F559
:10E3700083120EE9851A82851B83120EF5851A8297
:10E38000851B83E088828983F07401121046E0883F
:10E39000828983A3F07402121046E088828983A3E5
:10E3A000A3F07403121046E088828983A3A3A3F02C
:10E3B00088828983A3A3A3A3E4F0850A82AA827436
:10E3C00020C39AF895E0F9E50E2AFCE50F3400FD2C
:10E3D000EC64787003ED6482603A900830E0541F7A
:10E3E000F09008327420F0A37452F0748290082CDC
:10E3F000F07478A3F0EDA3F0ECA3F0E8900831F00E
:10E40000E9900830F053D1FE75D60175D701E5D1FA
:10E41000A2E050FAEE24A6F50CEF3400F50D7404DA
:10E420001210468582108583117810121265780EBD
:10E43000121265AC0AA90BAA0CAB0D1226A6740425
:10E440001210117810121265AC0EAD0FA90AAA0CA9
:10E45000AB0D12269A74021210119084E1780E12FC
:10E460000ECBEE24D5F582EF3400F583780E120E34
:10E470006A74081210117F0802112474F0121052ED
:10E4800074F4120FFBEAFEEBFF890B8C0A741C126A
:10E490001046E0F50CA3E0F50DEE24B3F8EF3400E0
:10E4A000F9E5B3548F4440F5B3E9900834F0E8A39C
:10E4B000F09008397410F0900838E054E0F053D12F
:10E4C000FD75D602E5B354F84404F5B343B301E552
:10E4D000B3A2E350FA9003C1E06408705CEE24A696
:10E4E000F8EF3400F9EE24D9F582EF3400F5831209
:10E4F0000EE9851A82851B83120EF5851A82851B0B
:10E5000083E088828983F07401121046E088828952
:10E5100083A3F07402121046E088828983A3A3F0DB
:10E520007403121046E088828983A3A3A3F0888233
:10E530008983A3A3A3A3E4805BEE24A6F8EF3400B1
:10E54000F9EE24D9F582EF3400F583120EE9851A2D
:10E5500082851B83120EF5851A82851B83E08882D3
:10E560008983F07401121046E088828983A3F074D5
:10E5700002121046E088828983A3A3F0740312106C
:10E5800046E088828983A3A3A3F088828983A3A31A
:10E59000A3A37480F0850A82AA82E50C2AFCE50D0B
:10E5A0003400FD8C828D83E0C0E07404121046D0EC
:10E5B000E0F08C828D83A3E0C0E07405121046D099
:10E5C000E0F08C828D83A3A3E0C0E07406121046B5
:10E5D000D0E0F08C828D83A3A3A3E0C0E074071287
:10E5E0001046D0E0F07420C39AF895E0F9EC647816
:10E5F0007003ED6482603A900830E0541FF0900898
:10E60000327420F0A37452F0748290082CF0747865
:10E61000A3F0EDA3F0ECA3F0E8900831F0E9900846
:10E6200030F053D1FE75D60175D701E5D1A2E05087
:10E63000FA740412104685820E85830F780E12122A
:10E6400065AC0CAD0DA90AEE24A6FAEF3400FB125E
:10E6500026A07402121011850A82AA827420C39A1D
:10E66000F895E0F9E50C2AFCE50D3400FDEC647842
:10E670007003ED6482603A900830E0541FF0900817
:10E68000327420F0A37452F0748290082CF07478E5
:10E69000A3F0EDA3F0ECA3F0E8900831F0E99008C6
:10E6A00030F053D1FE75D60175D701E5D1A2E05007
:10E6B000FA740812104685820E85830F780E1212A6
:10E6C00065780C121265AC0AA90BEE24A6FAEF3499
:10E6D00000FB1226A674041210117404121046E0F6
:10E6E000F87408121046E06870307405121046E0A5
:10E6F000F87409121046E06870207406121046E0A3
:10E70000F8740A121046E06870107407121046E0A0
:10E71000F8740B121046E068600479008019908448
:10E72000E1780E120ECBEE24D9F582EF3400F5839A
:10E73000780E120E6A7901740C02E4737F010211E3
:10E740002474F412105274FD120FFBEAFEEBFF8CDE
:10E750000A8D0BEE4F6005EC450B70047902805E6C
:10E760007903851A82851B83AA82AB83122874746D
:10E7700002121046E0543F4440F0780A12126574C9
:10E7800002121046AC82AD83EEFAEFFB12285C74E5
:10E7900002121011E9FE7024750C03750D00780C3F
:10E7A0001212657402121046AC82AD83E50A24038E
:10E7B000FAE50B3400FB12F308121011EEF97403A2
:10E7C00002E86474F412105274FA120FFB8A0A8B76
:10E7D0000BECFEEDFFEA450B6004EE4F700479028E
:10E7E000807E750C03750D00780C121265EE240303
:10E7F0000C0C0CEF3400FD740212104612F30412DC
:10E8000010117402121046E0543F4440F074031299
:10E81000104685820C85830D780C121265740212E5
:10E820001046AC82AD83AA0AAB0B12285C740212AC
:10E830001011E9702B750A03750B00780A12126526
:10E84000EEFCEFFD7405121046AA82AB83122A3645
:10E850007402121011E964017004790080027901D8
:10E86000740680001210117F0402112474E8121043
:10E870005274E8120FFB8A0C8B0D89198C0A8D0BD0
:10E88000EA450D6005EC450B7005790202E9A574B7
:10E89000042519F51812EBB1700302E9A0121FF25A
:10E8A0008A0E8B0F8C108D1185191275130078123A
:10E8B000121265AC0CAD0DEE2404FAEF3400FB121D
:10E8C000EF6A1210118E828F83A3A3A3E50EF0E5E9
:10E8D0000FF5178E828F83A3A3F0850E12F5138593
:10E8E000101485111574107812120E0CE512F5161D
:10E8F0008E828F83A3F0850E12850F13F514851178
:10E900001574187812120E0CE512F50C8E828F8396
:10E91000F07512107812121265121FECEAFCEBFD72
:10E92000740A12104612EF66121011851A82851BA6
:10E93000838582128583137812121265A918EEFC62
:10E94000EFFD740A121046AA82AB8312288C74025F
:10E95000121011E9F50D703F850A82850B83E50ED3
:10E96000F0A3E51712E9AAE51612E9AAA3E50CF04F
:10E97000750E08750F00780E12126574021210469B
:10E98000AC82AD83E50A2404FAE50B3400FB12EFF8
:10E990006A121011121FF8EEFAEFFB122AC0800360
:10E9A000750D13A90D741802EF5EF0850A82850BB0
:10E9B00083A3A32274E812105274DD120FFB7401BA
:10E9C000121046EAF0A3EB12F30E8C188D19743B6B
:10E9D000121046E0F50D743C12104612EF70EC4533
:10E9E000196006E50A450B7005790202EBAC74016B
:10E9F00012104612EC9612249C8A168B17EA4517C1
:10EA00007005791402EBAC850A82850B83E0F51260
:10EA1000E4F513F514F515A3E0F50EE4F50FF51084
:10EA2000F5117408780E120E257812790E120E4424
:10EA3000850A82850B83A3A3E0F50EE4F50F74101D
:10EA4000780E120E257812790E120E44850A8285F0
:10EA50000B83A3A3A3E0F50EE4F5107418780E124F
:10EA60000E257812790E120E44EA241DF582EB125F
:10EA7000F479780E120ECB7812790E120CDD400D5F
:10EA8000908511780E120CC8600302E9E9851A829C
:10EA9000851B83E060118A828B83A3A3A3E0A2E19C
:10EAA0004005790102EBAC7C087D0079007403120B
:10EAB0001046AA82AB83122A3C7404250DF50C1271
:10EAC000EBB17005791302EBAC850D0E750F007874
:10EAD0000E121265AC18AD19EE2404FAEF3400FBE7
:10EAE00012EF6A121011750E04780E121265AC0A3C
:10EAF000AD0BEEFAEFFB12EF6A121011750E1078E3
:10EB00000E121265E516240DFCE5173400FD741590
:10EB100012104612EF66121011740312104685820D
:10EB20000E85830F780E121265A90CEEFCEFFD74B2
:10EB300015121046AA82AB8312288C74021210118F
:10EB4000E9F50C705E750E08750F00780E121265EF
:10EB50007405121046AC82AD83740D12104612EF8C
:10EB600066121011780E121265E50A2404FCE50BFA
:10EB70003400FD740D121046AA82AB83122A36743B
:10EB800002121011E964016005750C0180157812FC
:10EB9000121261740512104612EC96121FFE7404D4
:10EBA000121011EEFAEFFB122AC0A90C742302EF27
:10EBB0005EFA7B00122ABA8A0E8B0FAE0EAF0FEEF2
:10EBC0004F2274F4121052890A12ECF4700302EC12
:10EBD00085E50A704B12ECA2E0750C08750D007803
:10EBE0000C7025121265EAFCEBFD90074BE0240245
:10EBF00012EC8A12101112231CE9700712EC9C749B
:10EC000001807D750A018013121265EAFCEBFD900C
:10EC1000074BE0240A12EC8A12101112ECF4606126
:10EC20007A127B00122A4E8A0C8B0DAE0CAF0DEEC1
:10EC30004F603E8E828F8374C1F0A3E50AF0750C9D
:10EC400010750D00780C12126590074BE02402FC41
:10EC5000A3E03400FDEE24020A0AEF3400FB12F3B5
:10EC600008121011EEFAEFFB12EC9CA3E0F9122A45
:10EC70005A90074B12EC96122AC090074BE4F0A36F
:10EC8000F079018002790002E867FAA3E03400FB22
:10EC9000122A24740222E0FAA3E0FB2290074BE040
:10ECA000F8A3E0F58388822274F21210527A207B56
:10ECB00000121FB68A0A8B0BE4F50CF50D8B0FEAD8
:10ECC000450F6016780A1212617A017B0090075393
:10ECD000E0F9122AFC740412101102EDA3C082C0E4
:10ECE000837A017B00900753E0F9122B08D083D080
:10ECF00082020CB090074BE0F8A3E0F9E8492274D7
:10ED0000F212105274D0120FFB8A0C8B0DECFEED38
:10ED1000FF743E12104612ED61121265AC0CAD0D7F
:10ED2000740212104612EF66121011750C03750D65
:10ED300000780C121265EEFCEFFD741F12104612E3
:10ED4000EF6612101112ED51780C121265742F80BB
:10ED50003A851A82851B83AA82AB83122886E9FE34
:10ED600022E0F50AA3E0F50B7C307D007900851ADE
:10ED700082851B83AA82AB83122A3C750E10750F05
:10ED800000780E22780C1212657422121046AC82A2
:10ED9000AD83AA0AAB0B12EF6A121011EEF97430B0
:10EDA0001210117F0602112474E812105274B0126E
:10EDB0000FFBEAFEEBFF8C188D19890C746812109A
:10EDC0004612EF70746A121046E0F50EA3E0F50FDC
:10EDD000746C121046E0F512A3E0F513746E121075
:10EDE00046E0F50D746F121046E0F516A3E0F51736
:10EDF0007471121046E0F510A3E0F5117C307D002F
:10EE000079007420121046AA82AB83122A3C751432
:10EE1000107515007814121265EEFCEFFD742212C5
:10EE2000104612EF661210117C107D007900851AD1
:10EE300082851B83AA82AB83122A3C75140778143F
:10EE4000121265AC0AAD0B740212104612EF661274
:10EE50001011750A07750B00780A121265AC0EAD19
:10EE60000F740912104612EF66121011E50D6009B9
:10EE7000740E12104674018006740E121046E4F0EF
:10EE8000E50C6009740F12104674018006740F12AD
:10EE90001046E4F07C107D007900EC121046AA8246
:10EEA000AB83122A3C750A06780A121265AC12ADC1
:10EEB00013741612104612EF66121011780A12120D
:10EEC00065AC16AD17741C12104612EF66121011C5
:10EED000750A10780A121265AC18AD197432121046
:10EEE0004612EF66121011851A82851B83AC82AD23
:10EEF000837430121046AA82AB83122868742012E1
:10EF0000104612ED57780A1212657442121046AC80
:10EF100082AD83743212104612F304121011741071
:10EF2000121046AC82AD837430121046AA82AB83B5
:10EF30001228687420121046AA82AB83122886E930
:10EF4000FF780A1212657442121046AC82AD83AA91
:10EF500010AB1112EF6A121011EE4FF9745012102B
:10EF6000117F10021124AA82AB83122A2A74022272
:10EF7000E0F50AA3E0F50B2274F712105279108C19
:10EF8000828D83E0F88A828B83E068F0A3AA82AB4B
:10EF9000838C828D83A3AC82AD8319E970E102E793
:10EFA0003C74F212105274D0120FFB8C0C8D0D7445
:10EFB0003E121046E0FEA3E0FF744012104612EF2E
:10EFC00070750E10750F00780E121265EAFCEBFDDD
:10EFD000740212104612EF66121011750E08780EA8
:10EFE000121265AC0CAD0D741212104612EF6612BF
:10EFF0001011750C08750D00780C121265EEFCEFFF
:10F00000FD741A12104612EF6612101112F012025D
:10F01000ED8412ED51750C102274F4121052EAFEB8
:10F02000EBFF890D750C008018122A4812F470EB62
:10F03000F0050CE50CC3950D500712F470EAF005CD
:10F040000CE50CC3950D40E102E867C082C0838ADD
:10F05000828B83E0F902ECED74F61210528982AED5
:10F0600082E9A2E25004D2F08002C2F08A828B834D
:10F07000E054FCFCA3E0FDEC4E5403FCA2F0E433AE
:10F08000F50A750B007402780A120FE8EC450AFEC7
:10F09000E954F8FCEE4C8A828B83F0A3EDF07F02FA
:10F0A00002112474F6121052EA2420F50AEB3400FF
:10F0B000F50B780A121265EA2410FCEB3400FD12FD
:10F0C000F3FB12101180D774E812105274ED120F76
:10F0D000FB7401121046ECF0A3ED12F30E8A188BAC
:10F0E000197A107B00122ABA8A148B157A107B00C9
:10F0F000122ABA8A128B13E5144515700302F2E046
:10F10000EA4513700302F2E07812121265AC14ADF6
:10F1100015AA18AB191228927402121011E9F50CF5
:10F12000600302F2E912F40F8A108B11E50E450F0D
:10F13000700302F2C1EA4511700302F2C1851A821E
:10F14000851B83E0240FF8E43400F97A107B001269
:10F150000F68880A890BAE0AAF0BE0540FFCEE4F24
:10F1600070067E017F008007EC70047801800278D1
:10F1700000EE14C454F0FA7401121046E02AFAA307
:10F18000E03400FBE8A2E0500B7810121265AC14DA
:10F19000AD1580588C0D750A00850A82AC82740307
:10F1A000121046E5822CF8E5833400F9ECC3950D86
:10F1B000500FEA2CF582EB12F479E0888289838083
:10F1C0000FE50D650A88828983700474808001E4EC
:10F1D000F0050AE50AC3941040BF7810121265AC1E
:10F1E00012AD137405121046AA82AB8312F40912F1
:10F1F00010117C107D007900AA0EAB0F122A3C750D
:10F200000A00750B00804C74031210468582168527
:10F2100083177816121265E50AC454F0F8740312C5
:10F220001046E028FCA3E03400FDAA0EAB0F12F458
:10F2300009121011780E121265740512104612F39D
:10F24000F3121011E9F50CE50A2401F50AE50B3477
:10F2500000F50BEE24FFF8EF34FFF9C3E50A98E55B
:10F260000B99A2D265D0335004E50C609AE50C707E
:10F2700059740312104685820A85830B780A12128C
:10F2800065AC10AD11AA0EAB0F12F4091210117873
:10F290000E121265740512104612F3F3121011E9E2
:10F2A000F50C750A08750B00780A121265AC0EADE4
:10F2B0000F742D12104612EC9612F30812101180E2
:10F2C00009750C13E50E450F6007AA0EAB0F122A45
:10F2D000C0E51045116012AA10AB11122AC08009B6
:10F2E000750C13E51445156007AA14AB15122AC056
:10F2F000E51245136007AA12AB13122AC0A90C74B9
:10F300001302EF5EAA82AB83122A24740222F0E970
:10F31000851A82851B83F02274EE1210528A0A8BA2
:10F320000B8C108D117412121046E0F512A3E0F54B
:10F330001312F40F8A0C8B0DAE0CAF0DE50E450FBA
:10F34000700302F3D1EE4F700302F3D17C107D0005
:10F350007900122A3C780E121265EEFCEFFDAA0A23
:10F36000AB0B12F3FB121011E9F50C706D750A432B
:10F37000750B83850E82850F83E0A2E7400DAC10EC
:10F38000AD11AA0EAB0F12289E8016EEFCEFFDAA5F
:10F390000EAB0F12289E781012126512F401121093
:10F3A00011851082851183E0A2E7400DAC12AD13E8
:10F3B000AA10AB1112289E8021EEFCEFFDAA10AB23
:10F3C0001112289E781212126512F4011210118087
:10F3D00009750C13E50E450F6007AA0EAB0F122A34
:10F3E000C0EE4F6007EEFAEFFB122AC0A90C7F0AAD
:10F3F000021124AC82AD83AA18AB191224F0740256
:10F4000022AC0AAD0BEEFAEFFB1228987402227AB6
:10F41000107B00122ABA8A0E8B0F7A107B00122AF8
:10F42000BA2274F6121052740A121046E0F8A3E0E1
:10F43000F9750B00850B82AE82EC2EF582ED12F48D
:10F4400079C082C083EA2EF582EB12F479E0D08392
:10F45000D082F50AE0650AC0E0E82EF582E912F4F0
:10F4600079D0E0F0050BE50BC3941040C702F09E85
:10F47000850C0AEE250AF582EF3400F5832274F537
:10F48000121052750B00750A0FE50AF83395E0F972
:10F49000EC28FEED39FFEA28F8EB39F988828983F8
:10F4A000E0C3338E828F83F0450BF088828983E03E
:10F4B000A2E7E433F50B74FF250AF50AC39400A212
:10F4C000D265D03350C37F03021124C082C0839021
:10F4D0000280E0A2E250067A3D7B0A80047A007B3B
:10F4E000001228B07900D083D082020CB074F212DE
:10F4F000105274E0120FFBEAFEEBFF8C0C8D0D74C2
:10F500002E121046E0F50AA3E0F50B7C107D007981
:10F5100000851A82851B83AA82AB83122A3C12FFC4
:10F52000A0E849700302F5DB12F9A0E06E7003A3B6
:10F53000E06F600302F5DB90074E12F9B060030242
:10F54000F5DB12F6E6FC74066C704F741012104670
:10F5500085820E85830F780E12126590074DE02488
:10F560004BF50EA3E03400F50F780E1212659007EC
:10F570004DE0242BFCA3E03400FD12FA9A12286E11
:10F580007404121011E9705312F6BA121265741253
:10F59000121046AC82AD8302F64B12F6EE603C12BE
:10F5A000FC5E74116C600302F66DE0650A7004A3E2
:10F5B000E0650B7021750E08750F00780E1212654C
:10F5C00012F6C6121011E96401700B12F6BA12128B
:10F5D0006512F6D880757932122928EEFAEFFB12FF
:10F5E000249C8A0E8B0FA80EA90FE849700302F61F
:10F5F000A7E82421F50EE93400F50F850E82F58386
:10F6000012FFE3EA4B700302F6A712FF8A650A7045
:10F6100004A3E0650B600302F6A7750A08750B00EA
:10F62000780A12126512F6C6121011E96401707799
:10F63000850E82850F83E0FCA3E0FDEC241AF582A1
:10F64000ED12FF90F50A780A121265740212104644
:10F65000AA82AB8312FA94121011EEFAEFFB851A0C
:10F6600082851B83AC82AD831223228041E0650A30
:10F670007004A3E0650B600302F5DB750E08750FDF
:10F6800000780E12126512F6C6121011E9640160BC
:10F690000302F5DB12F6D8EC241AF582ED12FF9086
:10F6A000F50A750B00809FEEFAEFFB122328790113
:10F6B00074201210117F0602112412292EE9F50A76
:10F6C000750B00780A22EA2412FCEB3400FDAA0C28
:10F6D000AB0D122A3674022290074DE0245B12FA19
:10F6E000CCFCA3E0FD2290074E12FB8FE022900796
:10F6F0004DE0245B12FACCFAA3E0FBEA4B2274F251
:10F70000121052890FECFEEDFF750E008A828B837A
:10F71000A385820C85830D8E828F83A385820A85C3
:10F72000830B12FFA0E849705D7401650F7052EE03
:10F730002402FAEF3400FB12287A8E828F83A3A36F
:10F74000A3A3A374021212808E828F83A3A3A3A308
:10F75000E0F50E780E121269E9F50E780E121269B4
:10F76000850A82850B83E0FD8E828F83E0FC850C09
:10F7700082850D8312FFE3790012209A740412101F
:10F7800011790002F99D12F9A012FFA3850C828560
:10F790000D83E0687003A3E0696005790802F99DB4
:10F7A00012F9AA64017005790702F99DE50F14604A
:10F7B0003124FE603A14700302F84E14700302F90B
:10F7C0009014700302F85714700302F8B214700317
:10F7D00002F8BC14700302F8FE14700302F93F0231
:10F7E000F998EEFAEFFB12294CE9F50E02F99B7538
:10F7F0000A00750C10750D00780C12126590074DFB
:10F80000E0243B12FB7412101190074DE02401120A
:10F81000FABE640470047403802D90074DE0241B2D
:10F82000F50CA3E03400F50D780C12126590074D2D
:10F83000E0242B12FB961210111228F2E9600375D6
:10F840000A0812FB817405F0850A0E02F99BEEFA94
:10F85000EFFB122952809212F6E6640C600302F963
:10F860009890074DE0245D12FFC5700812FF7A24BE
:10F870005D12FFA990074DE0245D12F6F4700302BB
:10F88000F998750A10750B00780A12126512FA9031
:10F8900012101112292EE9C0E090074DE0245D12EC
:10F8A000FABE241A12FAABD0E012FB80740DF002FB
:10F8B000F99BEEFAEFFB12295802F7E912F6E6641B
:10F8C0000E600302F99890074DE0245F12FFC570A7
:10F8D0000A7A1612FF7C245F12FFA990074DE024DC
:10F8E0005F12F6F46011750A10750B00780A121297
:10F8F0006512FA9012101112FB81740F80B012F68B
:10F90000E6640F600302F998750C06750D00780C1B
:10F91000121265AC0AAD0B90074DE0245F12F9B7E7
:10F9200012FB7412101112FC6988828983E0542042
:10F93000605712FC82605212FB81741002F8AE1202
:10F94000FFBF70147A1412FF7C246112FFA912FF0A
:10F95000BF7005750E08804390074DE0246112F6D4
:10F96000F46026750A10750B00780A12126512FAF7
:10F9700090121011908511120EE990074DE024614C
:10F9800012F9B712FAAB120EF57900122928800B82
:10F990008E828F83E0F980F3750E07A90E02F6B50B
:10F9A00012F9A42212FB8FA3A32290074DE0F8A323
:10F9B000E0F5838882E02212FACC24102274F61239
:10F9C00010527E001228FEE9F8600302FA7D122828
:10F9D000EC12FADD241212FABEA2E0502090074D7C
:10F9E000E0241812FAAB12FB84A3E0540364017004
:10F9F0000C90074DE0241712FABED2E0F012FAC2C2
:10FA0000F8740268601D74036860057404687017F8
:10FA1000790112FFD71220A012FAD112FB807404D0
:10FA2000F08066790280EB74016860057405687087
:10FA30005812FB817402F012FA9A12FAC264017031
:10FA40000B7C107D007900122A3C801E750A108EF6
:10FA50000B780A12126512FADD2402FCA3E03400CE
:10FA600012FA9312101112FAD1F0791090074DE0AA
:10FA7000242BFAA3E03400FB122874800C7418685D
:10FA800070050E0E0E80027E08EEF97F0202112430
:10FA9000EEFCEFFD122A2474022212FA9E22900735
:10FAA0004DE02407FAA3E03400FB2212FAAF221241
:10FAB000FAB322F8A3E03400F9888289832212FA8B
:10FAC000CC2290074DE0241A12FACC2212FAB3E0AD
:10FAD0002290074DE0241712FACCD2E22290074D73
:10FAE000E0F8A312FC7B2274F612105274F0120F8D
:10FAF000FB7E00750A108E0B780A121265EAFCEB89
:10FB0000FD90074DE0244B12FB74121011851A82F0
:10FB1000851B8385820A85830B780A1212659007FC
:10FB20004DE0244B12FB96121011750A108E0B78C3
:10FB30000A12126590074DE0243BFCA3E03400FD5F
:10FB40007402121046AA82AB83122A367402121073
:10FB500011E9640170121228F8E960047E08800A35
:10FB600012FB817406F080027E04EEF9741012100C
:10FB70001102FA8BFAA3E03400FB122A2474022249
:10FB8000F090074D12FB8822E0F8A312FB8F22E0D1
:10FB9000F5838882A322FCA3E03400FD12FA9E12B2
:10FBA00028DA74022274F6121052EAFCEBFD900778
:10FBB0004DE0245D12F6F4700302FC5990074DE00D
:10FBC000F8A312F6E9640D600302FC598C828D8360
:10FBD00012FFA312FC5EE8F0A3E9F0750A08750BAA
:10FBE00000780A121265EC24020C0CED3400FDEAD8
:10FBF0002412FAEB3400FB12FA9412101112FC6971
:10FC000090074DE02401FAA3E03400FB8882898349
:10FC1000E05410602590074DE02418FCA3E0340068
:10FC2000FD8C828D8312FF96A3A3A3A3E0541060E2
:10FC3000098A828B83740EF0801B88828983E0544A
:10FC400020600D12FC8260088A828B83741080E72A
:10FC5000790012292879008002790702FA8BEA24B8
:10FC600010F582EB3400F5832290074D12FC7824C6
:10FC700013F8A3E03400F922E0F8A312F9A4A3A337
:10FC8000E02290074DE0241812FAAF12FC785420BD
:10FC90002274F012105212F9AA600302FF75900745
:10FCA0004E12FAE3F8A3E0F990074DE0241812FF92
:10FCB000B412FFE390074D12FF96E0F50CEA24051D
:10FCC000FEEB3400FFE82413F50AE93400F50B7469
:10FCD00006650C707F850A82850B83E0F8A2E050F0
:10FCE0000C8E828F83E0A2E0500302FD6FE8540285
:10FCF00060408E828F83E054026037750C091220B9
:10FD00001012FFCF1229107408650C600302FF1255
:10FD1000850A82850B83E05402700302FE408E82C6
:10FD20008F83E05402700302FE4012FB81740902CB
:10FD3000FE6FE85404700302FF298E828F83E05423
:10FD400004700302FF29750C0B121FEC12FFCF1277
:10FD5000291C80B3E50C24F9601514700302FDE83A
:10FD600014609B14700302FE141460DD02FE6190A7
:10FD7000074DE0245B12FFC5700812FF7A245B1266
:10FD8000FFA990074DE0245B12FABEFEA3E0FFEE50
:10FD90004F700302FE6A7C107D007900EEFAEFFBE3
:10FDA000122A3C12292EEEFAEFFB122874122A486E
:10FDB000EE2410F582EF3400F583EAF0A3EBF0793E
:10FDC00008EE2412FAEF3400FB12287412292EEEEA
:10FDD000241AF582EF3400F583E9F0EEFCEFFD1212
:10FDE000FFD712290402FE6A12F6EE700302FD101C
:10FDF000EA2412F50CEB3400F50D780C12126512A2
:10FE0000FF8AFCA3E0FD12FFD712290A7402121028
:10FE10001102FD10750D01122004E9F50C74016545
:10FE20000C7005750D008003750C00A90D12200AD9
:10FE30008A0E8B0FAC0EAD0FA90C12FFD71229162C
:10FE4000850A82850B83E05404700302FF298E82A9
:10FE50008F83E05404700302FF2912FB81740B802E
:10FE60000E7407650C600302FD0712FB817408F035
:10FE700090074DE0F8A312F6E9F87407686017746C
:10FE800008686012740968600D740A686008740B71
:10FE900068600302FF7512FFD712249C8A0A8B0B3D
:10FEA000A80AA90BE849700302FF57E8240BF58262
:10FEB000E93400F58312FFA3880E890FE4F510F5ED
:10FEC00011E9C313F9E813F8880A890BE4F50CF576
:10FED0000D780E790A120E4402FF5FE8541060128A
:10FEE0008E828F83E0541060098A828B83740E02A5
:10FEF000FE6FE8542060128E828F83E054206009E8
:10FF00008A828B83741002FE6F8A828B8374120242
:10FF1000FE6F7409650C700812FB81740A02FE6F93
:10FF2000740A650C700302FE4090074DE02401F84E
:10FF3000A3E03400F9E8FAE9FB850A82850B83E047
:10FF4000F8540860968E828F83E05408608D8A8210
:10FF50008B83740C02FE6F9084D9780E120ECB78CE
:10FF60000E1212617A027B00900753E0F9122AFC0C
:10FF700074041210117F080211247A1B7B00122ACC
:10FF8000BA8A0A8B0B90074DE022EA2410F582EB27
:10FF90003400F583E022E0FCA3E0F5838C82A32209
:10FFA00090074DE0F8A3E0F92212FFB4E50AF0A3B0
:10FFB000E50BF022FAA3E03400FB8A828B832290C7
:10FFC000074DE0246112FACCF8A3E0F9E849228A4F
:10FFD0000E8B0FAC0EAD0F90074D12FB88A3A31232
:10FFE000FFE322E0FAA3E0FB22C082C08390085C1A
:10FFF000E0F9D083D082020CB0020CB0020CB0FF4A
:020000040003F7
:1000000074F2121052E9FE8C0A8D0B7F008E8285ED
:10001000820C8F0D8A0E8B0F780E1212A901031815
:10002000DC82548073808680DC829B80EE80048139
:10003000338162817D819881AF81CB81DC82E781D0
:100040001E823A82548269828682DC82DC82DC8271
:10005000DC82A38274106E7015750C10780C12126D
:10006000657AB47B0812872D1210110282FA7F186C
:100070000282FA74106E70F6750C10780C1212650C
:100080007AC47B0880DF74046E70E38C828D8312E7
:100090000EE99008D4120EF50282FA74016E70CE49
:1000A000900B40E0F88C828D83E0900B40F0E8608C
:1000B0001CE060030282FA9008B2E064026003026E
:1000C00082FA9008B1E0F91220B80282FAE07003D7
:1000D0000282FA9008B2E06401600DE064036008F7
:1000E000E0640460030282FA128B100282FA740246
:1000F0006E600302806E128C3C900B41E8F0A3E925
:10010000F00282FAEEC39420400302806E7C1F7DD1
:100110000079007A447B0B122A3C780C121265ACF1
:100120000AAD0B7A447B0B12872D121011EE900B47
:100130004380CDEEC39420400302806E7C1F7D007F
:1001400079007ADF7B08122A3C780C121265AC0A1F
:10015000AD0B7ADF7B0812872D121011EE9008DEAE
:10016000809E74016E600302806E8C828D83E0C37A
:100170009404400302806EE09008FE808374016E58
:10018000600302806E8C828D83E0C394044003027E
:10019000806EE09008FF80C874066E600302806E77
:1001A000750C06780C1212657A007B090280657462
:1001B000016E600302806E8C828D83E0C3940840E0
:1001C0000302806EE090090602810074016E6003F4
:1001D00002806E8C828D83E0C39404400302806EA3
:1001E000E090090702810074026E600302806E12C3
:1001F0008C3C900908128B0AE84970030282FA903D
:1002000008B2E0640560030282FA900908128B5B71
:10021000780A121261128C4A1210110282FA7401C9
:100220006E600302806E8C828D83E0C39402400373
:1002300002806EE0900910028100128315600302B3
:10024000806E128309400302806E900B65EAF0A372
:10025000EB028100128315600302806E1283094055
:100260000302806E900B6780E4128C3C74026E6017
:100270000302806EC3E894F4E99401400302806EA7
:100280009009110280FC128315600302806EEA243B
:10029000F61283019477E9940C400302806E900B70
:1002A0006980AA74016E600302806E8C828D83E087
:1002B0006401600302806E7A087B009008B1E0F967
:1002C000122B0EEAF8EBF9ECFAEDFBE8494A4B7019
:1002D00007790012832280227F16801EC3EA9426AB
:1002E000EB9400501374026E700E8C828D83128713
:1002F00027121FB0E9FF80020F0FEFF97F060211EE
:1003000024F8EB34FFF9C3E822EA24FA12830194BB
:100310007BE9940C228C828D83E0FAA3E0FB7402CB
:100320006E22122DEA7A047B009008B1E0F9122BBC
:10033000082274F4121052ECFEEDFF750A008A0CCC
:100340008B0D780C1212A900031882847E83888397
:10035000A483B583C583D683DB83E383F2830184DF
:1003600007840F8421842784308439843E844A841E
:10037000528457845C846184738478847D8490087B
:10038000B31284A9F002849C750C10750D00780CD2
:100390001212657CB47D08EEFAEFFB12872D121065
:1003A0001102849C750C10750D00780C1212657C7E
:1003B000C47D0880E29008D4120EE98E828F8312E9
:1003C0000EF502849C750C06750D00780C121265F2
:1003D0007CD87D0880C1900B4080A6900B41128490
:1003E000AF80A1900B431284A01212657C447D0B58
:1003F00080A59008DE1284A01212657CDF7D088043
:10040000969008FE0283819008FF1284A980D2751D
:100410000C06750D00780C1212657C007D090283B4
:10042000979009060283819009071284A9028384A8
:10043000900B631284AF02838490090880A0900916
:10044000101284A9F0A3E4028384900B651284AF98
:1004500080DB900B6780DC9009118082900B6980B3
:10046000D2750C06750D00780C1212657C0A7D0998
:1004700002839790091380BB90091580B6900917E5
:1004800080B1C3EA9426EB9400500E121FB68E8200
:100490008F83EAF0A3EB028384750A02A90A801E07
:1004A000E0F50C750D00780C22E08E828F8322120D
:1004B0008C448E828F83E8F0A3E9221210117F040E
:1004C00002112474F61210529008B2E0703EEA4B0A
:1004D000600890091AEAF0A3EBF0750AD4750B08CE
:1004E000780A121265750AC4750B08780A1212652B
:1004F0007CB47D087B009008B3E0FA9008B1E0F985
:10050000122B5674041210117900800279117F02A7
:10051000021124D083D082020CB0C082C083900824
:10052000B2E06405700D128B269008B1E0F912203C
:10053000348002791280DC74F7121052E99008B10D
:10054000F09008B2E4F0900B6374FFF0A3F0122176
:10055000009008B37404F07C107D0079007AB47BBD
:1005600008122A3C7C107D0079007AC47B08122A8C
:100570003C9084F9120EE99008D4120EF59008FE12
:10058000E4F09008FFF09009067407F0900907E482
:10059000F07CB47D087A107902122DAE7CC47D08FF
:1005A0007A107903122DAE7CD47D087A0479041276
:1005B0002DAE7F0102112474F412105274F6120F42
:1005C000FBEAFEEBFF548060259008B1E0F9122AA7
:1005D000668A0A8B0BA90BEA49600A122DDEAA0A69
:1005E000AB0B122A54EEFAEF6480FB028722EF5421
:1005F0004060127CD47D087A047904122DA8EEFAAA
:10060000EF644080E5EEA2E040030286A6900B4036
:10061000E0700302869E9008FEE0851A82851B83A7
:10062000F09008FFE0C0E07401121046D0E0F075D1
:100630000A06750B00780A1212657C007D097404A5
:10064000121046AA82AB8312872D12101190090650
:10065000E0C0E07408121046D0E0F0900907E0C056
:10066000E07409121046D0E0F0851A82851B83AA37
:1006700082AB839008B1E0F91220ACE960209008C9
:10068000B27406F0128B666015128B20128C4088B3
:10069000828983E582458360057906121050EE64F5
:1006A00001FAEF0285EA5402602A9008B2E064057C
:1006B000701D128B261222E6900908128B69600FBA
:1006C000900908128B53121261128C4A121011EE0B
:1006D000640280CDEE5404600A7900122DEAEE64C3
:1006E0000480BEEE54086036900919E014600814C6
:1006F0007027122DCC8022900B6912127C90091168
:1007000012127C7901900B67128727900B65128B70
:1007100029122DF07404121011EE640880837A00FF
:100720007B00740A0284BBE0FCA3E0FD22122A24B1
:1007300074022274F4121052EA2405F8EB3400F922
:100740008A828B83E0246F600B24EF606724D26081
:100750005E0287FFA3E0640E60030287FF8A828B3C
:1007600083A3A3A3E064057004A3E0641460030200
:1007700087FF88828983128B1DA3A3A3E0F99008C9
:10078000B2E064057079747F69607490091A128B05
:1007900029EA4B606A90091A128B1DA3A3128B29B8
:1007A0008A828B83E58245836055121050805012F7
:1007B0002DE4804B88828983E0641370428A828BA7
:1007C00083A3A3A3A3A3A3E064017002A3E0701218
:1007D000900919E06402700A7A08128327122DCC5E
:1007E000801D7A057B00121FB68A0A8B0BE4F50C7C
:1007F000F50D780A1212617A08128C4C121011024F
:1008000084BE74EE121052EAFEEBFF8E828F83A339
:10081000A3E0F8EE2403F50AEF3400F50BEE240A0A
:10082000F50CEF3400F50D8E828F83A385820E8543
:10083000830FE8602724FE70030288D4147003023B
:10084000890B14700302890B14700302894514701C
:1008500003028A3B147003028A8E8073E070497C25
:10086000B47D087A107902122DA87CC47D087A1014
:100870007903122DA8750C06750D00780C121265FF
:10088000AC0AAD0B7AD87B0812872D121011900894
:10089000B27401F07C447D0B900B43E0FB7A019035
:1008A00008B1E0F91220B2E960069008B27406F0CF
:1008B000128B66601A128B20128C40E8FAE9FBEA70
:1008C0004B600C9008B2E0F98A828B831210507F43
:1008D0000A021124E07029850A82850B83E0601DDD
:1008E0007CDF7D089008DEE0FB7A009008B1E0F93B
:1008F0001220B2E9850E82850F83F08003128B10DF
:10090000850E82850F83E070A180C4E0709C740323
:100910006870079008B274028095900B41128B6941
:10092000900B406016E06015900B41128B53121231
:10093000617A01128C4C1210118002E4F09008B21E
:1009400074030288AFE06003028A2EEE2404F512DD
:10095000EF3400F513750E06750F00780E12126550
:10096000AC12AD137A0A7B0912872D121011850C77
:1009700082850D83128C40900B63128B0A9008B213
:100980007405F0900908128B69601A900908E0F567
:100990000EA3E0F50FE4F510F511780E12126112B6
:1009A0008C4A121011EE240CF582EF3400F58312FC
:1009B0008B47EE240EF582EF3400F583128B3BEE6D
:1009C0002410F582EF3400F583128B2F900910E08C
:1009D000640170327A1F7B00121FB68A0EEA75F02E
:1009E000E8A4C50EA8F075F003A428F875F0E8EBAC
:1009F000A428F50FE4F510F511780E1212617A04AF
:100A0000128C4C121011750E04780E121269850C9E
:100A100082850D83128727AA12AB13850A82850B64
:100A200083E0F9122B6274011210110288B0643154
:100A300060030288AA900B4002893B122B807C063F
:100A40007D0079007A0A7B09122A3C900913E4F0B0
:100A5000A3F0900915F0A3F0900917F0A3F07A0421
:100A6000FB1283297A081283278E828F83A3A3A384
:100A7000A3A3E064089008B27004740480027403B5
:100A8000F0128B10900B6374FFF0A30288AF7A080A
:100A9000128327850E82850F83E060030288CF8E44
:100AA000828F83A3A3A3A3A3A3128B478E828F83DA
:100AB000A3A3A3A3A3A3A3A3128B3B850C82850DA1
:100AC00083128B2F7A047B009008B1E0F9122B0E71
:100AD000EA4B4C4D60030288CF90091C128B697061
:100AE000030288CF90091712127C900915128727EC
:100AF000900913128B2990091C128B1D128B1D1249
:100B0000105074021210110288CFE8F0A3E9F0220D
:100B10007A017B009008B1E0F9122A7E22E0F8A366
:100B2000E0F583888222900B63E0FAA3E0FB2212B7
:100B30008C44900917E8F0A3E9F022128C44900944
:100B400015E8F0A3E9F022128C44900913E8F0A311
:100B5000E9F022128B5BF50D780A22E0F50AA3E09A
:100B6000F50BE4F50C2290091A128C44E849227422
:100B7000F412105274F8120FFBE9FE900B65128C00
:100B800040758309758213C3E098A3E099403890BB
:100B90000913128C4075830B758267C3E098A3E03C
:100BA000994024900915128C40900911E068700357
:100BB000A3E0697012900917128C40900B69E068ED
:100BC0007003A3E06960707A057B00121FB68A0A81
:100BD0008B0B900B65128C40851A82851B83128BC0
:100BE0000A900B67128C407402121046128B0A9006
:100BF0000911128C407404121046128B0A900B6972
:100C0000128C407406121046128B0A9008B1E0F95B
:100C1000851A82851B83AC82AD83128B261223E852
:100C2000EE900919F0E4F50CF50D780A1212617ACC
:100C300008128C4C12101174080284BB8C828D83B4
:100C4000128C4422E0F8A3E0F9227A027B0090089B
:100C5000B1E0F9122AFC74042274F4121052E9FE75
:100C6000740C121046E0F50CA3E0F50D740E121092
:100C700046E0F50AA3E0F50B9008B2E064056004D5
:100C80007914805FEA24FAF8EB128CE65053EC24D6
:100C9000FAF8ED128CE65049C3E50C94F4E50D9496
:100CA00001503EE50A24F6F8E50B1283039476E939
:100CB000940C502D900B65EAF0A3EBF0900B67ECD1
:100CC000F0A3EDF0900911E50CF0A3E50DF0900B09
:100CD00069E50AF0A3E50BF0EEF9128322790080B2
:100CE0000279180284BE128303947AE9940C22C01C
:100CF00082C08390034574FFF0A3F0A3F0A3F0A398
:100D0000F0A3749FF0A3E4F0A37420F090034414C4
:100D1000F0D083D082020CB074F6121052E9FE12A9
:100D200098BD6008128FE4741A128FCE7F020211F0
:100D30002474EE121052890CEAFEEBFF8C0A8D0B24
:100D4000900757E06003028E44E9333354FC04F506
:100D50000D7407250DFA7B00122A4E8A0E8B0FACFC
:100D60000EAD0FEC4D7003028E448C828D837401A6
:100D7000F0A374FFF0EC2402F8ED3400F9880E893A
:100D80000FEC24040808ED3400F9850E82850F83EA
:100D9000E8F0A3E9128E657404128E65A374131231
:100DA0008E70E50D128E70A3E50CF0750D00028EAD
:100DB00034850D82858210751100E510C333FAE485
:100DC00033FBEE2AF8EF3BF988128913740278108E
:100DD000120FE8A810A911851282851383E0F5107F
:100DE000C010128E4ED0E0F0851282851383A3E0EE
:100DF000F510C010128E49D0E0F0E50A2AFAE50B92
:100E00003BFB8A828B83E0F510C010128E49A3D081
:100E1000E01291EDA3E0C0E0850E82850F83E0280B
:100E2000FAA3E0398A82F583A3A3A3A3A3A3A3D043
:100E3000E0F0050DE50DC3950C5003028DB1ECFA01
:100E4000ED1298B37F0A021124128E4EA322850E52
:100E500082850F83E028F510A3E039851082F583A1
:100E6000A3A3A3A322128E692212914A1296B7223B
:100E7000128E69A3A32274EE1210528A0A8B0B8978
:100E80000D8C108D11900756E07009900758E07096
:100E900003028F4090031DE06003028F408982852A
:100EA000820E750F00E92407FAE43400FB122A4E83
:100EB0008A128B13AE12AF13EE4F7003028F517470
:100EC00018650A70047420650B600C7417650A704D
:100ED000047420650B7010900758E0600AF50C8EC2
:100EE000828F837492800C900756E0F50C8E828F6F
:100EF000837491F0A3740E12903D8E828F83A3A30E
:100F0000F08E828F8312960EEE2405F8EF3400F9EE
:100F1000E8FAE9FBEE24070808EF129204F0780ED5
:100F2000121265AC10AD118A828B83E0FAA3E01235
:100F3000916E121011EEFAEFFBA90C122A5A8011D1
:100F40007810121265AC0D790E1223A074021210E3
:100F500011028E4474F6121052E9FE8C0A8D0B7841
:100F60000A121265EEFC79FF1223A074021210110E
:100F7000028D2C74F5121052890CEAFEEBFF9007DB
:100F800056E0603690031DE070307A061298BF601C
:100F9000388A828B837491F0A3740F12952AE50C22
:100FA00012903D8A828B83A3A3A31295EFEEF0A348
:100FB000EFF09007561298B7800FEEFCEFFD890A0C
:100FC000AA0A7B00790F12239A7F0302112412953B
:100FD000327401128FFC12915CEEF0900754E0F92C
:100FE000122A5A221298D7FCA3E0F5838C8274044B
:100FF000128FFCFCA3E0F5838C82A3221298F322CB
:1010000074F712105274FC120FFBEA851A82851BCA
:101010008312903DC0E07401121046D0E0F07402DB
:10102000121046ECF07403121046ED1299657A0422
:101030001223A674041210117F01021124F09003F0
:1010400021E02274F0121052890B8A0C8B0D8C0A4D
:101050007410121046E0F50EA3E0F50F7407250A90
:10106000FA74FF650B6004780380027802E82AFABC
:101070007B00122A4E8A108B11AE10AF11EE4F700A
:10108000030291458E828F837401F0A374FFF0EE0A
:1010900024020A0AEF3400FBEE2404F8EF1291F761
:1010A000E50B1291EDE02402129417A90D74FF656F
:1010B0000B60317403250A12903DC0E0129153D0A9
:1010C000E012917EE50C12917EA3E9F0850A0C7581
:1010D0000D00780C121265AC0EAD0F8A828B83E086
:1010E000240680557402250A12914AC0E0129153D9
:1010F000D0E0129175E0C0E0129160D0E0129175DD
:10110000A3E0C0E0129160A3D0E012918AE50C1236
:10111000918AA3E9F0850A0CE50C24FDF50CE43472
:10112000FFF50D780C121265E50E2403FCE50F3473
:1011300000FD8A828B83E02408129165121011EE63
:10114000FAEF1298B37F08021124F0850E82850F02
:1011500083E022129157228A828B83E01292282206
:10116000129157A322FAA3E0340012916E22FB12CF
:101170002A24740222F0850E82850F83A322129105
:101180008222129214A3A3A3A322129182A3A322C8
:1011900074F2121052890C8A0DECFEEDFF740725D3
:1011A0000DFA129847604112985F0A0AFBE50A247B
:1011B000040808E50B1291F7E50C1291ED1292224A
:1011C000A3E50DF0601BF50E750F00780E12126589
:1011D000EEFCEFFD8A828B83E024031291651210EE
:1011E00011AA0AAB0B1298B47F060211241291F1D6
:1011F00022F08A828B8322129204129210740412BB
:101200009210A3223400F98A828B83E8F0A3E922AA
:1012100012921422F08A828B831296B6227F1002D9
:1012200011241296B2A322E01296B7A3A3A32274AC
:10123000E812105289178A0E8B0F8C168D157418B0
:10124000121046E0F518A3E0F519741A121046E0E2
:10125000FEA3E0FF741C121046E0F50AA3E0F50BB4
:10126000741E1210461296BF7420121046E0F51438
:10127000900756E0700302931D7A157B00122A4EE8
:101280008A108B11EA45117003029414129493741E
:1012900001F0EA2408FAEB3400FBE510240312986D
:1012A0003EE5177018E4F0751206F5137812121265
:1012B00065AC18AD1912916F121011800C7431F0D9
:1012C0007C067D007900122A3C851082851183A35B
:1012D000A3A3A3E50EF0A3E50F129457E51612940D
:1012E00057A3E515F0E510240E12983EEEF0A3EF9B
:1012F000F0E510241012983E129611E510241212F7
:10130000983EE50CF0A3E50DF0E510241412983E8C
:10131000E514F0AA10AB1190075602941190034CFB
:10132000E0A2E54003029414900344E0A2E04003ED
:101330000294147A1A7B00122A4E8A128B13EA4501
:10134000137003029414129440F510EB3400F5115D
:10135000129437851082851183E8F0A3E912947204
:101360007404129472A3743E1294817413129481C3
:10137000A37401129487E517129487A3E50EF0E594
:101380000FF50E85108285118312951FE50E1294BC
:10139000A7E5161294A7A3E515F0750E06750F00C4
:1013A000780E121265AC18AD19851082851183E094
:1013B0002409129165121011851082851183E02491
:1013C0000F1294261294652410129417EF1294654C
:1013D0002411129431F0E50BF50A851082851183F2
:1013E000E02412129431129465241312942BF0E528
:1013F0000DF50C851082851183E0241412942B12B4
